{
  "contractName": "Consumer",
  "abi": [
    {
      "inputs": [
        {
          "internalType": "address",
          "name": "mainAddress",
          "type": "address"
        },
        {
          "internalType": "address",
          "name": "manufacturerAddress",
          "type": "address"
        },
        {
          "internalType": "address",
          "name": "RMAddress",
          "type": "address"
        }
      ],
      "stateMutability": "nonpayable",
      "type": "constructor"
    },
    {
      "anonymous": false,
      "inputs": [
        {
          "indexed": false,
          "internalType": "uint256",
          "name": "transactionId",
          "type": "uint256"
        }
      ],
      "name": "getTransactionId",
      "type": "event"
    },
    {
      "inputs": [
        {
          "internalType": "uint256",
          "name": "requestId",
          "type": "uint256"
        }
      ],
      "name": "buyProduct",
      "outputs": [],
      "stateMutability": "nonpayable",
      "type": "function"
    },
    {
      "inputs": [
        {
          "internalType": "uint256",
          "name": "requestId",
          "type": "uint256"
        },
        {
          "internalType": "bool",
          "name": "transactionStatus",
          "type": "bool"
        },
        {
          "internalType": "uint256",
          "name": "transactionTimestamp",
          "type": "uint256"
        },
        {
          "internalType": "uint256",
          "name": "gasUsed",
          "type": "uint256"
        },
        {
          "internalType": "bytes32",
          "name": "googleIdHash",
          "type": "bytes32"
        }
      ],
      "name": "markProductAsSold",
      "outputs": [],
      "stateMutability": "nonpayable",
      "type": "function"
    },
    {
      "inputs": [
        {
          "internalType": "uint256",
          "name": "soldProductId",
          "type": "uint256"
        }
      ],
      "name": "receiveProduct",
      "outputs": [],
      "stateMutability": "nonpayable",
      "type": "function"
    },
    {
      "inputs": [
        {
          "internalType": "address",
          "name": "ethAddress",
          "type": "address"
        }
      ],
      "name": "getUserBoughtProducts",
      "outputs": [
        {
          "components": [
            {
              "internalType": "uint256",
              "name": "id",
              "type": "uint256"
            },
            {
              "components": [
                {
                  "internalType": "uint256",
                  "name": "id",
                  "type": "uint256"
                },
                {
                  "internalType": "uint256",
                  "name": "timestamp",
                  "type": "uint256"
                },
                {
                  "internalType": "string",
                  "name": "name",
                  "type": "string"
                },
                {
                  "internalType": "uint256",
                  "name": "quantity",
                  "type": "uint256"
                },
                {
                  "internalType": "string",
                  "name": "description",
                  "type": "string"
                },
                {
                  "internalType": "uint256",
                  "name": "pricePerUnit",
                  "type": "uint256"
                },
                {
                  "internalType": "uint256",
                  "name": "weightPerUnit",
                  "type": "uint256"
                },
                {
                  "components": [
                    {
                      "internalType": "uint256",
                      "name": "id",
                      "type": "uint256"
                    },
                    {
                      "internalType": "address",
                      "name": "ethAddress",
                      "type": "address"
                    },
                    {
                      "internalType": "string",
                      "name": "email",
                      "type": "string"
                    },
                    {
                      "internalType": "string",
                      "name": "username",
                      "type": "string"
                    },
                    {
                      "internalType": "string",
                      "name": "location",
                      "type": "string"
                    },
                    {
                      "internalType": "uint8",
                      "name": "role",
                      "type": "uint8"
                    },
                    {
                      "internalType": "bool",
                      "name": "registered",
                      "type": "bool"
                    }
                  ],
                  "internalType": "struct SharedStructs.User",
                  "name": "manufacturingUser",
                  "type": "tuple"
                },
                {
                  "internalType": "uint256",
                  "name": "manufacturedTimestamp",
                  "type": "uint256"
                },
                {
                  "internalType": "bool",
                  "name": "manufactured",
                  "type": "bool"
                }
              ],
              "internalType": "struct SharedStructs.Product",
              "name": "product",
              "type": "tuple"
            },
            {
              "components": [
                {
                  "internalType": "uint256",
                  "name": "id",
                  "type": "uint256"
                },
                {
                  "internalType": "address",
                  "name": "ethAddress",
                  "type": "address"
                },
                {
                  "internalType": "string",
                  "name": "email",
                  "type": "string"
                },
                {
                  "internalType": "string",
                  "name": "username",
                  "type": "string"
                },
                {
                  "internalType": "string",
                  "name": "location",
                  "type": "string"
                },
                {
                  "internalType": "uint8",
                  "name": "role",
                  "type": "uint8"
                },
                {
                  "internalType": "bool",
                  "name": "registered",
                  "type": "bool"
                }
              ],
              "internalType": "struct SharedStructs.User",
              "name": "buyingUser",
              "type": "tuple"
            },
            {
              "components": [
                {
                  "internalType": "uint256",
                  "name": "id",
                  "type": "uint256"
                },
                {
                  "components": [
                    {
                      "internalType": "uint256",
                      "name": "id",
                      "type": "uint256"
                    },
                    {
                      "internalType": "address",
                      "name": "ethAddress",
                      "type": "address"
                    },
                    {
                      "internalType": "string",
                      "name": "email",
                      "type": "string"
                    },
                    {
                      "internalType": "string",
                      "name": "username",
                      "type": "string"
                    },
                    {
                      "internalType": "string",
                      "name": "location",
                      "type": "string"
                    },
                    {
                      "internalType": "uint8",
                      "name": "role",
                      "type": "uint8"
                    },
                    {
                      "internalType": "bool",
                      "name": "registered",
                      "type": "bool"
                    }
                  ],
                  "internalType": "struct SharedStructs.User",
                  "name": "from",
                  "type": "tuple"
                },
                {
                  "components": [
                    {
                      "internalType": "uint256",
                      "name": "id",
                      "type": "uint256"
                    },
                    {
                      "internalType": "address",
                      "name": "ethAddress",
                      "type": "address"
                    },
                    {
                      "internalType": "string",
                      "name": "email",
                      "type": "string"
                    },
                    {
                      "internalType": "string",
                      "name": "username",
                      "type": "string"
                    },
                    {
                      "internalType": "string",
                      "name": "location",
                      "type": "string"
                    },
                    {
                      "internalType": "uint8",
                      "name": "role",
                      "type": "uint8"
                    },
                    {
                      "internalType": "bool",
                      "name": "registered",
                      "type": "bool"
                    }
                  ],
                  "internalType": "struct SharedStructs.User",
                  "name": "to",
                  "type": "tuple"
                },
                {
                  "internalType": "uint256",
                  "name": "timestamp",
                  "type": "uint256"
                },
                {
                  "internalType": "uint256",
                  "name": "pricePerUnit",
                  "type": "uint256"
                },
                {
                  "internalType": "uint256",
                  "name": "weightPerUnit",
                  "type": "uint256"
                },
                {
                  "internalType": "uint256",
                  "name": "quantity",
                  "type": "uint256"
                },
                {
                  "internalType": "uint256",
                  "name": "gasUsed",
                  "type": "uint256"
                },
                {
                  "internalType": "string",
                  "name": "description",
                  "type": "string"
                },
                {
                  "internalType": "bool",
                  "name": "status",
                  "type": "bool"
                }
              ],
              "internalType": "struct SharedStructs.Transaction",
              "name": "transaction",
              "type": "tuple"
            },
            {
              "internalType": "uint256",
              "name": "receivedTimestamp",
              "type": "uint256"
            },
            {
              "internalType": "bool",
              "name": "received",
              "type": "bool"
            }
          ],
          "internalType": "struct SharedStructs.SoldProduct[]",
          "name": "",
          "type": "tuple[]"
        }
      ],
      "stateMutability": "view",
      "type": "function",
      "constant": true
    },
    {
      "inputs": [
        {
          "internalType": "address",
          "name": "ethAddress",
          "type": "address"
        }
      ],
      "name": "getUserReceivedProducts",
      "outputs": [
        {
          "components": [
            {
              "internalType": "uint256",
              "name": "id",
              "type": "uint256"
            },
            {
              "components": [
                {
                  "internalType": "uint256",
                  "name": "id",
                  "type": "uint256"
                },
                {
                  "internalType": "uint256",
                  "name": "timestamp",
                  "type": "uint256"
                },
                {
                  "internalType": "string",
                  "name": "name",
                  "type": "string"
                },
                {
                  "internalType": "uint256",
                  "name": "quantity",
                  "type": "uint256"
                },
                {
                  "internalType": "string",
                  "name": "description",
                  "type": "string"
                },
                {
                  "internalType": "uint256",
                  "name": "pricePerUnit",
                  "type": "uint256"
                },
                {
                  "internalType": "uint256",
                  "name": "weightPerUnit",
                  "type": "uint256"
                },
                {
                  "components": [
                    {
                      "internalType": "uint256",
                      "name": "id",
                      "type": "uint256"
                    },
                    {
                      "internalType": "address",
                      "name": "ethAddress",
                      "type": "address"
                    },
                    {
                      "internalType": "string",
                      "name": "email",
                      "type": "string"
                    },
                    {
                      "internalType": "string",
                      "name": "username",
                      "type": "string"
                    },
                    {
                      "internalType": "string",
                      "name": "location",
                      "type": "string"
                    },
                    {
                      "internalType": "uint8",
                      "name": "role",
                      "type": "uint8"
                    },
                    {
                      "internalType": "bool",
                      "name": "registered",
                      "type": "bool"
                    }
                  ],
                  "internalType": "struct SharedStructs.User",
                  "name": "manufacturingUser",
                  "type": "tuple"
                },
                {
                  "internalType": "uint256",
                  "name": "manufacturedTimestamp",
                  "type": "uint256"
                },
                {
                  "internalType": "bool",
                  "name": "manufactured",
                  "type": "bool"
                }
              ],
              "internalType": "struct SharedStructs.Product",
              "name": "product",
              "type": "tuple"
            },
            {
              "components": [
                {
                  "internalType": "uint256",
                  "name": "id",
                  "type": "uint256"
                },
                {
                  "internalType": "address",
                  "name": "ethAddress",
                  "type": "address"
                },
                {
                  "internalType": "string",
                  "name": "email",
                  "type": "string"
                },
                {
                  "internalType": "string",
                  "name": "username",
                  "type": "string"
                },
                {
                  "internalType": "string",
                  "name": "location",
                  "type": "string"
                },
                {
                  "internalType": "uint8",
                  "name": "role",
                  "type": "uint8"
                },
                {
                  "internalType": "bool",
                  "name": "registered",
                  "type": "bool"
                }
              ],
              "internalType": "struct SharedStructs.User",
              "name": "buyingUser",
              "type": "tuple"
            },
            {
              "components": [
                {
                  "internalType": "uint256",
                  "name": "id",
                  "type": "uint256"
                },
                {
                  "components": [
                    {
                      "internalType": "uint256",
                      "name": "id",
                      "type": "uint256"
                    },
                    {
                      "internalType": "address",
                      "name": "ethAddress",
                      "type": "address"
                    },
                    {
                      "internalType": "string",
                      "name": "email",
                      "type": "string"
                    },
                    {
                      "internalType": "string",
                      "name": "username",
                      "type": "string"
                    },
                    {
                      "internalType": "string",
                      "name": "location",
                      "type": "string"
                    },
                    {
                      "internalType": "uint8",
                      "name": "role",
                      "type": "uint8"
                    },
                    {
                      "internalType": "bool",
                      "name": "registered",
                      "type": "bool"
                    }
                  ],
                  "internalType": "struct SharedStructs.User",
                  "name": "from",
                  "type": "tuple"
                },
                {
                  "components": [
                    {
                      "internalType": "uint256",
                      "name": "id",
                      "type": "uint256"
                    },
                    {
                      "internalType": "address",
                      "name": "ethAddress",
                      "type": "address"
                    },
                    {
                      "internalType": "string",
                      "name": "email",
                      "type": "string"
                    },
                    {
                      "internalType": "string",
                      "name": "username",
                      "type": "string"
                    },
                    {
                      "internalType": "string",
                      "name": "location",
                      "type": "string"
                    },
                    {
                      "internalType": "uint8",
                      "name": "role",
                      "type": "uint8"
                    },
                    {
                      "internalType": "bool",
                      "name": "registered",
                      "type": "bool"
                    }
                  ],
                  "internalType": "struct SharedStructs.User",
                  "name": "to",
                  "type": "tuple"
                },
                {
                  "internalType": "uint256",
                  "name": "timestamp",
                  "type": "uint256"
                },
                {
                  "internalType": "uint256",
                  "name": "pricePerUnit",
                  "type": "uint256"
                },
                {
                  "internalType": "uint256",
                  "name": "weightPerUnit",
                  "type": "uint256"
                },
                {
                  "internalType": "uint256",
                  "name": "quantity",
                  "type": "uint256"
                },
                {
                  "internalType": "uint256",
                  "name": "gasUsed",
                  "type": "uint256"
                },
                {
                  "internalType": "string",
                  "name": "description",
                  "type": "string"
                },
                {
                  "internalType": "bool",
                  "name": "status",
                  "type": "bool"
                }
              ],
              "internalType": "struct SharedStructs.Transaction",
              "name": "transaction",
              "type": "tuple"
            },
            {
              "internalType": "uint256",
              "name": "receivedTimestamp",
              "type": "uint256"
            },
            {
              "internalType": "bool",
              "name": "received",
              "type": "bool"
            }
          ],
          "internalType": "struct SharedStructs.SoldProduct[]",
          "name": "",
          "type": "tuple[]"
        }
      ],
      "stateMutability": "view",
      "type": "function",
      "constant": true
    },
    {
      "inputs": [
        {
          "components": [
            {
              "internalType": "uint256",
              "name": "id",
              "type": "uint256"
            },
            {
              "internalType": "address",
              "name": "ethAddress",
              "type": "address"
            },
            {
              "internalType": "string",
              "name": "email",
              "type": "string"
            },
            {
              "internalType": "string",
              "name": "username",
              "type": "string"
            },
            {
              "internalType": "string",
              "name": "location",
              "type": "string"
            },
            {
              "internalType": "uint8",
              "name": "role",
              "type": "uint8"
            },
            {
              "internalType": "bool",
              "name": "registered",
              "type": "bool"
            }
          ],
          "internalType": "struct SharedStructs.User",
          "name": "from",
          "type": "tuple"
        },
        {
          "components": [
            {
              "internalType": "uint256",
              "name": "id",
              "type": "uint256"
            },
            {
              "internalType": "address",
              "name": "ethAddress",
              "type": "address"
            },
            {
              "internalType": "string",
              "name": "email",
              "type": "string"
            },
            {
              "internalType": "string",
              "name": "username",
              "type": "string"
            },
            {
              "internalType": "string",
              "name": "location",
              "type": "string"
            },
            {
              "internalType": "uint8",
              "name": "role",
              "type": "uint8"
            },
            {
              "internalType": "bool",
              "name": "registered",
              "type": "bool"
            }
          ],
          "internalType": "struct SharedStructs.User",
          "name": "to",
          "type": "tuple"
        },
        {
          "internalType": "string",
          "name": "comment",
          "type": "string"
        },
        {
          "internalType": "uint256",
          "name": "rating",
          "type": "uint256"
        },
        {
          "internalType": "uint256",
          "name": "soldProductId",
          "type": "uint256"
        }
      ],
      "name": "addConsumerComment",
      "outputs": [],
      "stateMutability": "nonpayable",
      "type": "function"
    },
    {
      "inputs": [
        {
          "internalType": "address",
          "name": "ethAddress",
          "type": "address"
        },
        {
          "internalType": "uint256",
          "name": "soldProductId",
          "type": "uint256"
        }
      ],
      "name": "getFromManufacturerCommentId",
      "outputs": [
        {
          "internalType": "uint256",
          "name": "",
          "type": "uint256"
        }
      ],
      "stateMutability": "view",
      "type": "function",
      "constant": true
    },
    {
      "inputs": [
        {
          "components": [
            {
              "internalType": "uint256",
              "name": "id",
              "type": "uint256"
            },
            {
              "components": [
                {
                  "internalType": "uint256",
                  "name": "id",
                  "type": "uint256"
                },
                {
                  "internalType": "uint256",
                  "name": "timestamp",
                  "type": "uint256"
                },
                {
                  "internalType": "string",
                  "name": "name",
                  "type": "string"
                },
                {
                  "internalType": "uint256",
                  "name": "quantity",
                  "type": "uint256"
                },
                {
                  "internalType": "string",
                  "name": "description",
                  "type": "string"
                },
                {
                  "internalType": "uint256",
                  "name": "pricePerUnit",
                  "type": "uint256"
                },
                {
                  "internalType": "uint256",
                  "name": "weightPerUnit",
                  "type": "uint256"
                },
                {
                  "components": [
                    {
                      "internalType": "uint256",
                      "name": "id",
                      "type": "uint256"
                    },
                    {
                      "internalType": "address",
                      "name": "ethAddress",
                      "type": "address"
                    },
                    {
                      "internalType": "string",
                      "name": "email",
                      "type": "string"
                    },
                    {
                      "internalType": "string",
                      "name": "username",
                      "type": "string"
                    },
                    {
                      "internalType": "string",
                      "name": "location",
                      "type": "string"
                    },
                    {
                      "internalType": "uint8",
                      "name": "role",
                      "type": "uint8"
                    },
                    {
                      "internalType": "bool",
                      "name": "registered",
                      "type": "bool"
                    }
                  ],
                  "internalType": "struct SharedStructs.User",
                  "name": "manufacturingUser",
                  "type": "tuple"
                },
                {
                  "internalType": "uint256",
                  "name": "manufacturedTimestamp",
                  "type": "uint256"
                },
                {
                  "internalType": "bool",
                  "name": "manufactured",
                  "type": "bool"
                }
              ],
              "internalType": "struct SharedStructs.Product",
              "name": "product",
              "type": "tuple"
            },
            {
              "components": [
                {
                  "internalType": "uint256",
                  "name": "id",
                  "type": "uint256"
                },
                {
                  "internalType": "address",
                  "name": "ethAddress",
                  "type": "address"
                },
                {
                  "internalType": "string",
                  "name": "email",
                  "type": "string"
                },
                {
                  "internalType": "string",
                  "name": "username",
                  "type": "string"
                },
                {
                  "internalType": "string",
                  "name": "location",
                  "type": "string"
                },
                {
                  "internalType": "uint8",
                  "name": "role",
                  "type": "uint8"
                },
                {
                  "internalType": "bool",
                  "name": "registered",
                  "type": "bool"
                }
              ],
              "internalType": "struct SharedStructs.User",
              "name": "buyingUser",
              "type": "tuple"
            },
            {
              "components": [
                {
                  "internalType": "uint256",
                  "name": "id",
                  "type": "uint256"
                },
                {
                  "components": [
                    {
                      "internalType": "uint256",
                      "name": "id",
                      "type": "uint256"
                    },
                    {
                      "internalType": "address",
                      "name": "ethAddress",
                      "type": "address"
                    },
                    {
                      "internalType": "string",
                      "name": "email",
                      "type": "string"
                    },
                    {
                      "internalType": "string",
                      "name": "username",
                      "type": "string"
                    },
                    {
                      "internalType": "string",
                      "name": "location",
                      "type": "string"
                    },
                    {
                      "internalType": "uint8",
                      "name": "role",
                      "type": "uint8"
                    },
                    {
                      "internalType": "bool",
                      "name": "registered",
                      "type": "bool"
                    }
                  ],
                  "internalType": "struct SharedStructs.User",
                  "name": "from",
                  "type": "tuple"
                },
                {
                  "components": [
                    {
                      "internalType": "uint256",
                      "name": "id",
                      "type": "uint256"
                    },
                    {
                      "internalType": "address",
                      "name": "ethAddress",
                      "type": "address"
                    },
                    {
                      "internalType": "string",
                      "name": "email",
                      "type": "string"
                    },
                    {
                      "internalType": "string",
                      "name": "username",
                      "type": "string"
                    },
                    {
                      "internalType": "string",
                      "name": "location",
                      "type": "string"
                    },
                    {
                      "internalType": "uint8",
                      "name": "role",
                      "type": "uint8"
                    },
                    {
                      "internalType": "bool",
                      "name": "registered",
                      "type": "bool"
                    }
                  ],
                  "internalType": "struct SharedStructs.User",
                  "name": "to",
                  "type": "tuple"
                },
                {
                  "internalType": "uint256",
                  "name": "timestamp",
                  "type": "uint256"
                },
                {
                  "internalType": "uint256",
                  "name": "pricePerUnit",
                  "type": "uint256"
                },
                {
                  "internalType": "uint256",
                  "name": "weightPerUnit",
                  "type": "uint256"
                },
                {
                  "internalType": "uint256",
                  "name": "quantity",
                  "type": "uint256"
                },
                {
                  "internalType": "uint256",
                  "name": "gasUsed",
                  "type": "uint256"
                },
                {
                  "internalType": "string",
                  "name": "description",
                  "type": "string"
                },
                {
                  "internalType": "bool",
                  "name": "status",
                  "type": "bool"
                }
              ],
              "internalType": "struct SharedStructs.Transaction",
              "name": "transaction",
              "type": "tuple"
            },
            {
              "internalType": "uint256",
              "name": "receivedTimestamp",
              "type": "uint256"
            },
            {
              "internalType": "bool",
              "name": "received",
              "type": "bool"
            }
          ],
          "internalType": "struct SharedStructs.SoldProduct",
          "name": "soldProduct",
          "type": "tuple"
        },
        {
          "internalType": "string",
          "name": "comment",
          "type": "string"
        },
        {
          "internalType": "uint256",
          "name": "rating",
          "type": "uint256"
        }
      ],
      "name": "addSoldProductComment",
      "outputs": [],
      "stateMutability": "nonpayable",
      "type": "function"
    },
    {
      "inputs": [
        {
          "internalType": "address",
          "name": "ethAddress",
          "type": "address"
        },
        {
          "internalType": "uint256",
          "name": "soldProductId",
          "type": "uint256"
        }
      ],
      "name": "getToManufacturerComment",
      "outputs": [
        {
          "internalType": "uint256",
          "name": "",
          "type": "uint256"
        }
      ],
      "stateMutability": "view",
      "type": "function",
      "constant": true
    },
    {
      "inputs": [
        {
          "internalType": "uint256",
          "name": "soldProductId",
          "type": "uint256"
        }
      ],
      "name": "getSoldProductComments",
      "outputs": [
        {
          "components": [
            {
              "internalType": "uint256",
              "name": "id",
              "type": "uint256"
            },
            {
              "internalType": "uint256",
              "name": "timestamp",
              "type": "uint256"
            },
            {
              "components": [
                {
                  "internalType": "uint256",
                  "name": "id",
                  "type": "uint256"
                },
                {
                  "internalType": "address",
                  "name": "ethAddress",
                  "type": "address"
                },
                {
                  "internalType": "string",
                  "name": "email",
                  "type": "string"
                },
                {
                  "internalType": "string",
                  "name": "username",
                  "type": "string"
                },
                {
                  "internalType": "string",
                  "name": "location",
                  "type": "string"
                },
                {
                  "internalType": "uint8",
                  "name": "role",
                  "type": "uint8"
                },
                {
                  "internalType": "bool",
                  "name": "registered",
                  "type": "bool"
                }
              ],
              "internalType": "struct SharedStructs.User",
              "name": "from",
              "type": "tuple"
            },
            {
              "components": [
                {
                  "internalType": "uint256",
                  "name": "id",
                  "type": "uint256"
                },
                {
                  "internalType": "address",
                  "name": "ethAddress",
                  "type": "address"
                },
                {
                  "internalType": "string",
                  "name": "email",
                  "type": "string"
                },
                {
                  "internalType": "string",
                  "name": "username",
                  "type": "string"
                },
                {
                  "internalType": "string",
                  "name": "location",
                  "type": "string"
                },
                {
                  "internalType": "uint8",
                  "name": "role",
                  "type": "uint8"
                },
                {
                  "internalType": "bool",
                  "name": "registered",
                  "type": "bool"
                }
              ],
              "internalType": "struct SharedStructs.User",
              "name": "to",
              "type": "tuple"
            },
            {
              "internalType": "string",
              "name": "comment",
              "type": "string"
            },
            {
              "internalType": "uint256",
              "name": "rating",
              "type": "uint256"
            }
          ],
          "internalType": "struct SharedStructs.Comment[]",
          "name": "",
          "type": "tuple[]"
        }
      ],
      "stateMutability": "view",
      "type": "function",
      "constant": true
    },
    {
      "inputs": [
        {
          "internalType": "uint256",
          "name": "productId",
          "type": "uint256"
        }
      ],
      "name": "getProductComments",
      "outputs": [
        {
          "components": [
            {
              "internalType": "uint256",
              "name": "id",
              "type": "uint256"
            },
            {
              "internalType": "uint256",
              "name": "timestamp",
              "type": "uint256"
            },
            {
              "components": [
                {
                  "internalType": "uint256",
                  "name": "id",
                  "type": "uint256"
                },
                {
                  "internalType": "address",
                  "name": "ethAddress",
                  "type": "address"
                },
                {
                  "internalType": "string",
                  "name": "email",
                  "type": "string"
                },
                {
                  "internalType": "string",
                  "name": "username",
                  "type": "string"
                },
                {
                  "internalType": "string",
                  "name": "location",
                  "type": "string"
                },
                {
                  "internalType": "uint8",
                  "name": "role",
                  "type": "uint8"
                },
                {
                  "internalType": "bool",
                  "name": "registered",
                  "type": "bool"
                }
              ],
              "internalType": "struct SharedStructs.User",
              "name": "from",
              "type": "tuple"
            },
            {
              "components": [
                {
                  "internalType": "uint256",
                  "name": "id",
                  "type": "uint256"
                },
                {
                  "internalType": "address",
                  "name": "ethAddress",
                  "type": "address"
                },
                {
                  "internalType": "string",
                  "name": "email",
                  "type": "string"
                },
                {
                  "internalType": "string",
                  "name": "username",
                  "type": "string"
                },
                {
                  "internalType": "string",
                  "name": "location",
                  "type": "string"
                },
                {
                  "internalType": "uint8",
                  "name": "role",
                  "type": "uint8"
                },
                {
                  "internalType": "bool",
                  "name": "registered",
                  "type": "bool"
                }
              ],
              "internalType": "struct SharedStructs.User",
              "name": "to",
              "type": "tuple"
            },
            {
              "internalType": "string",
              "name": "comment",
              "type": "string"
            },
            {
              "internalType": "uint256",
              "name": "rating",
              "type": "uint256"
            }
          ],
          "internalType": "struct SharedStructs.Comment[]",
          "name": "",
          "type": "tuple[]"
        }
      ],
      "stateMutability": "view",
      "type": "function",
      "constant": true
    }
  ],
  "bytecode": "0x608060405234801562000010575f80fd5b506040516200350e3803806200350e833981016040819052620000339162000091565b5f80546001600160a01b039485166001600160a01b031991821617909155600180549385169382169390931790925560028054919093169116179055620000d8565b80516001600160a01b03811681146200008c575f80fd5b919050565b5f805f60608486031215620000a4575f80fd5b620000af8462000075565b9250620000bf6020850162000075565b9150620000cf6040850162000075565b90509250925092565b61342880620000e65f395ff3fe608060405234801561000f575f80fd5b5060043610610097575f3560e01c8063041963cf1461009b5780631c30e5f2146100b057806329d78328146100c357806365bd9bb0146100d65780636d3cef02146100ff5780638642269e146101125780638ca25be31461012557806391d5eb4f14610146578063a7ff4f5614610166578063b8cce8cf14610179578063dba41ee51461018c575b5f80fd5b6100ae6100a936600461251a565b61019f565b005b6100ae6100be366004612618565b6105b3565b6100ae6100d13660046126aa565b61067a565b6100e96100e43660046126aa565b6106d6565b6040516100f69190612797565b60405180910390f35b6100ae61010d366004612857565b610bff565b6100ae6101203660046126aa565b6112b5565b61013861013336600461289b565b6114f1565b6040519081526020016100f6565b6101596101543660046128c5565b611535565b6040516100f6919061298f565b6100e96101743660046126aa565b61176f565b6101596101873660046128c5565b611c8d565b61013861019a36600461289b565b611ebc565b5f8054604080860151602087015160e00151915163689ac72f60e11b81526001600160a01b039093169263d1358e5e926101e0929188908890600401612ae6565b5f604051808303815f875af11580156101fb573d5f803e3d5ffd5b505050506040513d5f823e601f3d908101601f191682016040526102229190810190612c5b565b602085810151515f90815260048083526040808320805460018082018355918552938590208651601090950201938455858501519084015584810151805160028501908155948101516003850180546001600160a01b0319166001600160a01b039092169190911790559081015194955085949293909290918401906102a89082612dae565b50606082015160038201906102bd9082612dae565b50608082015160048201906102d29082612dae565b5060a08201516005909101805460c09093015115156101000261ffff1990931660ff90921691909117919091179055606082015180516008830190815560208201516009840180546001600160a01b039092166001600160a01b03199092169190911790556040820151600a84019061034b9082612dae565b50606082015160038201906103609082612dae565b50608082015160048201906103759082612dae565b5060a08201516005909101805460c09093015115156101000261ffff1990931660ff909216919091179190911790556080820151600e8201906103b89082612dae565b5060a09190910151600f9091015583515f908152600560209081526040808320805460018082018355918552938390208551601090950201938455848301519084015583810151805160028501908155928101516003850180546001600160a01b0319166001600160a01b03909216919091179055908101518493929060048401906104449082612dae565b50606082015160038201906104599082612dae565b506080820151600482019061046e9082612dae565b5060a08201516005909101805460c09093015115156101000261ffff1990931660ff90921691909117919091179055606082015180516008830190815560208201516009840180546001600160a01b039092166001600160a01b03199092169190911790556040820151600a8401906104e79082612dae565b50606082015160038201906104fc9082612dae565b50608082015160048201906105119082612dae565b5060a08201516005909101805460c09093015115156101000261ffff1990931660ff909216919091179190911790556080820151600e8201906105549082612dae565b5060a082015181600f01555050805f015160075f866040015160200151875f0151604051602001610586929190612e69565b6040516020818303038152906040528051906020012081526020019081526020015f208190555050505050565b5f805460405163689ac72f60e11b81526001600160a01b039091169063d1358e5e906105e9908990899089908990600401612ae6565b5f604051808303815f875af1158015610604573d5f803e3d5ffd5b505050506040513d5f823e601f3d908101601f1916820160405261062b9190810190612c5b565b9050805f015160065f88602001518560405160200161064b929190612e69565b6040516020818303038152906040528051906020012081526020019081526020015f2081905550505050505050565b600154604051631d6e854960e01b8152600481018390526001600160a01b0390911690631d6e8549906024015f604051808303815f87803b1580156106bd575f80fd5b505af11580156106cf573d5f803e3d5ffd5b5050505050565b606060055f8381526020019081526020015f20805480602002602001604051908101604052809291908181526020015f905b82821015610bf4575f8481526020908190206040805160c0810182526010860290920180548352600181015483850152815160e081018352600282018054825260038301546001600160a01b03169582019590955260048201805494959294868501949293928401919061077b90612d29565b80601f01602080910402602001604051908101604052809291908181526020018280546107a790612d29565b80156107f25780601f106107c9576101008083540402835291602001916107f2565b820191905f5260205f20905b8154815290600101906020018083116107d557829003601f168201915b5050505050815260200160038201805461080b90612d29565b80601f016020809104026020016040519081016040528092919081815260200182805461083790612d29565b80156108825780601f1061085957610100808354040283529160200191610882565b820191905f5260205f20905b81548152906001019060200180831161086557829003601f168201915b5050505050815260200160048201805461089b90612d29565b80601f01602080910402602001604051908101604052809291908181526020018280546108c790612d29565b80156109125780601f106108e957610100808354040283529160200191610912565b820191905f5260205f20905b8154815290600101906020018083116108f557829003601f168201915b50505091835250506005919091015460ff808216602080850191909152610100909204161515604092830152918352805160e081018252600885018054825260098601546001600160a01b031682850152600a8601805495909401949193909284019161097e90612d29565b80601f01602080910402602001604051908101604052809291908181526020018280546109aa90612d29565b80156109f55780601f106109cc576101008083540402835291602001916109f5565b820191905f5260205f20905b8154815290600101906020018083116109d857829003601f168201915b50505050508152602001600382018054610a0e90612d29565b80601f0160208091040260200160405190810160405280929190818152602001828054610a3a90612d29565b8015610a855780601f10610a5c57610100808354040283529160200191610a85565b820191905f5260205f20905b815481529060010190602001808311610a6857829003601f168201915b50505050508152602001600482018054610a9e90612d29565b80601f0160208091040260200160405190810160405280929190818152602001828054610aca90612d29565b8015610b155780601f10610aec57610100808354040283529160200191610b15565b820191905f5260205f20905b815481529060010190602001808311610af857829003601f168201915b50505091835250506005919091015460ff808216602080850191909152610100909204161515604090920191909152908252600e830180549290910191610b5b90612d29565b80601f0160208091040260200160405190810160405280929190818152602001828054610b8790612d29565b8015610bd25780601f10610ba957610100808354040283529160200191610bd2565b820191905f5260205f20905b815481529060010190602001808311610bb557829003601f168201915b50505050508152602001600f8201548152505081526020019060010190610708565b505050509050919050565b60025460405163c58343ef60e01b8152600481018790525f916001600160a01b03169063c58343ef906024015f60405180830381865afa158015610c45573d5f803e3d5ffd5b505050506040513d5f823e601f3d908101601f19168201604052610c6c9190810190612f5b565b60200151515f8054604051631945d5e760e21b81526004810186905292935090916001600160a01b039091169063e38a88ce908290636517579c906024015f60405180830381865afa158015610cc4573d5f803e3d5ffd5b505050506040513d5f823e601f3d908101601f19168201604052610ceb9190810190613014565b600154604051632e76c56d60e21b8152600481018790526001600160a01b039091169063b9db15b4906024015f60405180830381865afa158015610d31573d5f803e3d5ffd5b505050506040513d5f823e601f3d908101601f19168201604052610d589190810190613045565b60e00151600154604051632e76c56d60e21b8152600481018890528a916001600160a01b03169063b9db15b4906024015f60405180830381865afa158015610da2573d5f803e3d5ffd5b505050506040513d5f823e601f3d908101601f19168201604052610dc99190810190613045565b60a00151600154604051632e76c56d60e21b8152600481018a90526001600160a01b039091169063b9db15b4906024015f60405180830381865afa158015610e13573d5f803e3d5ffd5b505050506040513d5f823e601f3d908101601f19168201604052610e3a9190810190613045565b60c0015160025f9054906101000a90046001600160a01b03166001600160a01b031663c58343ef8f6040518263ffffffff1660e01b8152600401610e8091815260200190565b5f60405180830381865afa158015610e9a573d5f803e3d5ffd5b505050506040513d5f823e601f3d908101601f19168201604052610ec19190810190612f5b565b608001518b610ecf8b611ed3565b604051602001610edf9190613076565b6040516020818303038152906040528f6040518a63ffffffff1660e01b8152600401610f13999897969594939291906130b6565b5f604051808303815f875af1158015610f2e573d5f803e3d5ffd5b505050506040513d5f823e601f3d908101601f19168201604052610f5591908101906131ff565b60015460025460405163c58343ef60e01b8152600481018b90529293505f926001600160a01b03928316926397ad239992879291169063c58343ef906024015f60405180830381865afa158015610fae573d5f803e3d5ffd5b505050506040513d5f823e601f3d908101601f19168201604052610fd59190810190612f5b565b608001515f54604051631945d5e760e21b8152600481018a90526001600160a01b0390911690636517579c906024015f60405180830381865afa15801561101e573d5f803e3d5ffd5b505050506040513d5f823e601f3d908101601f191682016040526110459190810190613014565b865f6040518663ffffffff1660e01b8152600401611067959493929190613230565b6020604051808303815f875af1158015611083573d5f803e3d5ffd5b505050506040513d601f19601f820116820180604052508101906110a79190613275565b5f8054604051631945d5e760e21b8152600481018890529293506003926001600160a01b0390911690636517579c906024015f60405180830381865afa1580156110f3573d5f803e3d5ffd5b505050506040513d5f823e601f3d908101601f1916820160405261111a9190810190613014565b6020908101516001600160a01b0390811683528282019390935260409182015f9081208054600181018255908252919020018390556002549051636541d41360e11b8152600481018b90526003602482015291169063ca83a826906044015f604051808303815f87803b15801561118f575f80fd5b505af11580156111a1573d5f803e3d5ffd5b5050600154604051632e76c56d60e21b8152600481018790526001600160a01b03909116925063b9db15b491506024015f60405180830381865afa1580156111eb573d5f803e3d5ffd5b505050506040513d5f823e601f3d908101601f191682016040526112129190810190613045565b606001515f0361127657600154604051632f74ae5760e11b8152600481018590526001600160a01b0390911690635ee95cae906024015f604051808303815f87803b15801561125f575f80fd5b505af1158015611271573d5f803e3d5ffd5b505050505b81516040519081527f15a0506723ba37183ac061bb40cacd1848af800686cf819d4801264fad38e84f9060200160405180910390a15050505050505050565b60025460405163c58343ef60e01b8152600481018390525f916001600160a01b03169063c58343ef906024015f60405180830381865afa1580156112fb573d5f803e3d5ffd5b505050506040513d5f823e601f3d908101601f191682016040526113229190810190612f5b565b6020810151516001546080830151604051634b58843560e11b815293945091926001600160a01b03909116916396b1086a9161136b918591600401918252602082015260400190565b5f604051808303815f87803b158015611382575f80fd5b505af1158015611394573d5f803e3d5ffd5b5050600154604051632e76c56d60e21b8152600481018590526001600160a01b03909116925063b9db15b491506024015f60405180830381865afa1580156113de573d5f803e3d5ffd5b505050506040513d5f823e601f3d908101601f191682016040526114059190810190613045565b606001515f036114ec57600154604051632e76c56d60e21b8152600481018390526001600160a01b0390911690633774ec3f90829063b9db15b4906024015f60405180830381865afa15801561145d573d5f803e3d5ffd5b505050506040513d5f823e601f3d908101601f191682016040526114849190810190613045565b60e0015160200151836040518363ffffffff1660e01b81526004016114be9291906001600160a01b03929092168252602082015260400190565b5f604051808303815f87803b1580156114d5575f80fd5b505af11580156114e7573d5f803e3d5ffd5b505050505b505050565b5f60075f8484604051602001611508929190612e69565b6040516020818303038152906040528051906020012081526020019081526020015f205490505b92915050565b6001600160a01b0381165f90815260036020908152604080832080548251818502810185019093528083526060949383018282801561159157602002820191905f5260205f20905b81548152602001906001019080831161157d575b505050505090505f81516001600160401b038111156115b2576115b261211b565b6040519080825280602002602001820160405280156115eb57816020015b6115d8611ff8565b8152602001906001900390816115d05790505b5090505f805b83518110156117655760015484516001600160a01b039091169063354ed4f0908690849081106116235761162361328c565b60200260200101516040518263ffffffff1660e01b815260040161164991815260200190565b5f60405180830381865afa158015611663573d5f803e3d5ffd5b505050506040513d5f823e601f3d908101601f1916820160405261168a91908101906132a0565b60a0015115156001036117535760015484516001600160a01b039091169063354ed4f0908690849081106116c0576116c061328c565b60200260200101516040518263ffffffff1660e01b81526004016116e691815260200190565b5f60405180830381865afa158015611700573d5f803e3d5ffd5b505050506040513d5f823e601f3d908101601f1916820160405261172791908101906132a0565b8383815181106117395761173961328c565b6020026020010181905250818061174f90613378565b9250505b8061175d81613378565b9150506115f1565b5081529392505050565b606060045f8381526020019081526020015f20805480602002602001604051908101604052809291908181526020015f905b82821015610bf4575f8481526020908190206040805160c0810182526010860290920180548352600181015483850152815160e081018352600282018054825260038301546001600160a01b03169582019590955260048201805494959294868501949293928401919061181490612d29565b80601f016020809104026020016040519081016040528092919081815260200182805461184090612d29565b801561188b5780601f106118625761010080835404028352916020019161188b565b820191905f5260205f20905b81548152906001019060200180831161186e57829003601f168201915b505050505081526020016003820180546118a490612d29565b80601f01602080910402602001604051908101604052809291908181526020018280546118d090612d29565b801561191b5780601f106118f25761010080835404028352916020019161191b565b820191905f5260205f20905b8154815290600101906020018083116118fe57829003601f168201915b5050505050815260200160048201805461193490612d29565b80601f016020809104026020016040519081016040528092919081815260200182805461196090612d29565b80156119ab5780601f10611982576101008083540402835291602001916119ab565b820191905f5260205f20905b81548152906001019060200180831161198e57829003601f168201915b50505091835250506005919091015460ff808216602080850191909152610100909204161515604092830152918352805160e081018252600885018054825260098601546001600160a01b031682850152600a86018054959094019491939092840191611a1790612d29565b80601f0160208091040260200160405190810160405280929190818152602001828054611a4390612d29565b8015611a8e5780601f10611a6557610100808354040283529160200191611a8e565b820191905f5260205f20905b815481529060010190602001808311611a7157829003601f168201915b50505050508152602001600382018054611aa790612d29565b80601f0160208091040260200160405190810160405280929190818152602001828054611ad390612d29565b8015611b1e5780601f10611af557610100808354040283529160200191611b1e565b820191905f5260205f20905b815481529060010190602001808311611b0157829003601f168201915b50505050508152602001600482018054611b3790612d29565b80601f0160208091040260200160405190810160405280929190818152602001828054611b6390612d29565b8015611bae5780601f10611b8557610100808354040283529160200191611bae565b820191905f5260205f20905b815481529060010190602001808311611b9157829003601f168201915b50505091835250506005919091015460ff808216602080850191909152610100909204161515604090920191909152908252600e830180549290910191611bf490612d29565b80601f0160208091040260200160405190810160405280929190818152602001828054611c2090612d29565b8015611c6b5780601f10611c4257610100808354040283529160200191611c6b565b820191905f5260205f20905b815481529060010190602001808311611c4e57829003601f168201915b50505050508152602001600f82015481525050815260200190600101906117a1565b6001600160a01b0381165f908152600360209081526040808320805482518185028101850190935280835260609493830182828015611ce957602002820191905f5260205f20905b815481526020019060010190808311611cd5575b505050505090505f81516001600160401b03811115611d0a57611d0a61211b565b604051908082528060200260200182016040528015611d4357816020015b611d30611ff8565b815260200190600190039081611d285790505b5090505f805b83518110156117655760015484516001600160a01b039091169063354ed4f090869084908110611d7b57611d7b61328c565b60200260200101516040518263ffffffff1660e01b8152600401611da191815260200190565b5f60405180830381865afa158015611dbb573d5f803e3d5ffd5b505050506040513d5f823e601f3d908101601f19168201604052611de291908101906132a0565b60a0015115155f03611eaa5760015484516001600160a01b039091169063354ed4f090869084908110611e1757611e1761328c565b60200260200101516040518263ffffffff1660e01b8152600401611e3d91815260200190565b5f60405180830381865afa158015611e57573d5f803e3d5ffd5b505050506040513d5f823e601f3d908101601f19168201604052611e7e91908101906132a0565b838381518110611e9057611e9061328c565b60200260200101819052508180611ea690613378565b9250505b80611eb481613378565b915050611d49565b5f60065f8484604051602001611508929190612e69565b6060815f03611ef95750506040805180820190915260018152600360fc1b602082015290565b815f5b8115611f225780611f0c81613378565b9150611f1b9050600a83613390565b9150611efc565b5f816001600160401b03811115611f3b57611f3b61211b565b6040519080825280601f01601f191660200182016040528015611f65576020820181803683370190505b509050815b8515611fef57611f7b6001826133af565b90505f611f89600a88613390565b611f9490600a6133c2565b611f9e90886133af565b611fa99060306133d9565b90505f8160f81b905080848481518110611fc557611fc561328c565b60200101906001600160f81b03191690815f1a905350611fe6600a89613390565b97505050611f6a565b50949350505050565b6040518060c001604052805f815260200161201161203e565b815260200161201e61207a565b815260200161202b6120c1565b81525f6020820181905260409091015290565b6040518061014001604052805f81526020015f8152602001606081526020015f8152602001606081526020015f81526020015f815260200161202b5b6040518060e001604052805f81526020015f6001600160a01b031681526020016060815260200160608152602001606081526020015f60ff1681526020015f151581525090565b6040518061014001604052805f81526020016120db61207a565b81526020016120e861207a565b81526020015f81526020015f81526020015f81526020015f81526020015f8152602001606081526020015f151581525090565b634e487b7160e01b5f52604160045260245ffd5b60405160e081016001600160401b03811182821017156121515761215161211b565b60405290565b60405161014081016001600160401b03811182821017156121515761215161211b565b60405160c081016001600160401b03811182821017156121515761215161211b565b604051601f8201601f191681016001600160401b03811182821017156121c4576121c461211b565b604052919050565b5f6001600160401b038211156121e4576121e461211b565b50601f01601f191660200190565b5f82601f830112612201575f80fd5b813561221461220f826121cc565b61219c565b818152846020838601011115612228575f80fd5b816020850160208301375f918101602001919091529392505050565b6001600160a01b0381168114612258575f80fd5b50565b803561226681612244565b919050565b60ff81168114612258575f80fd5b80356122668161226b565b8015158114612258575f80fd5b803561226681612284565b5f60e082840312156122ac575f80fd5b6122b461212f565b9050813581526122c66020830161225b565b602082015260408201356001600160401b03808211156122e4575f80fd5b6122f0858386016121f2565b60408401526060840135915080821115612308575f80fd5b612314858386016121f2565b6060840152608084013591508082111561232c575f80fd5b50612339848285016121f2565b60808301525061234b60a08301612279565b60a082015261235c60c08301612291565b60c082015292915050565b5f6101408284031215612378575f80fd5b612380612157565b8235815260208084013590820152905060408201356001600160401b03808211156123a9575f80fd5b6123b5858386016121f2565b60408401526060840135606084015260808401359150808211156123d7575f80fd5b6123e3858386016121f2565b608084015260a084013560a084015260c084013560c084015260e084013591508082111561240f575f80fd5b5061241c8482850161229c565b60e083015250610100828101359082015261012061243b818401612291565b9082015292915050565b5f6101408284031215612456575f80fd5b61245e612157565b82358152905060208201356001600160401b038082111561247d575f80fd5b6124898583860161229c565b602084015260408401359150808211156124a1575f80fd5b6124ad8583860161229c565b6040840152606084013560608401526080840135608084015260a084013560a084015260c084013560c084015260e084013560e0840152610100915081840135818111156124f9575f80fd5b612505868287016121f2565b8385015250505061012061243b818401612291565b5f805f6060848603121561252c575f80fd5b83356001600160401b0380821115612542575f80fd5b9085019060c08288031215612555575f80fd5b61255d61217a565b82358152602083013582811115612572575f80fd5b61257e89828601612367565b602083015250604083013582811115612595575f80fd5b6125a18982860161229c565b6040830152506060830135828111156125b8575f80fd5b6125c489828601612445565b606083015250608083013560808201526125e060a08401612291565b60a0820152945060208601359150808211156125fa575f80fd5b50612607868287016121f2565b925050604084013590509250925092565b5f805f805f60a0868803121561262c575f80fd5b85356001600160401b0380821115612642575f80fd5b61264e89838a0161229c565b96506020880135915080821115612663575f80fd5b61266f89838a0161229c565b95506040880135915080821115612684575f80fd5b50612691888289016121f2565b9598949750949560608101359550608001359392505050565b5f602082840312156126ba575f80fd5b5035919050565b5f5b838110156126db5781810151838201526020016126c3565b50505f910152565b5f81518084526126fa8160208601602086016126c1565b601f01601f19169290920160200192915050565b8051825260018060a01b0360208201511660208301525f604082015160e0604085015261273e60e08501826126e3565b90506060830151848203606086015261275782826126e3565b9150506080830151848203608086015261277182826126e3565b91505060ff60a08401511660a085015260c0830151151560c08501528091505092915050565b5f6020808301818452808551808352604092508286019150828160051b8701018488015f5b8381101561284957603f19898403018552815160c08151855288820151898601528782015181898701526127f28287018261270e565b9150506060808301518683038288015261280c838261270e565b925050506080808301518683038288015261282783826126e3565b60a09485015197909401969096525050948701949250908601906001016127bc565b509098975050505050505050565b5f805f805f60a0868803121561286b575f80fd5b85359450602086013561287d81612284565b94979496505050506040830135926060810135926080909101359150565b5f80604083850312156128ac575f80fd5b82356128b781612244565b946020939093013593505050565b5f602082840312156128d5575f80fd5b81356128e081612244565b9392505050565b5f6101408251845260208301518160208601526129068286018261270e565b91505060408301518482036040860152612920828261270e565b915050606083015160608501526080830151608085015260a083015160a085015260c083015160c085015260e083015160e0850152610100808401518583038287015261296d83826126e3565b92505050610120808401516129858287018215159052565b5090949350505050565b5f6020808301818452808551808352604092508286019150828160051b8701018488015f5b8381101561284957603f19898403018552815160c08151855288820151818a870152805182870152898101518060e0880152508881015161014061010081818a0152612a046102008a01846126e3565b925060608085015161012081818d0152608091508187015160bf19808e890301878f0152612a3288836126e3565b975060a09650868901516101608f0152898901516101808f015260e08901519950808e8903016101a08f01525050612a6a868961270e565b878501516101c08e015296015115156101e08c0152878e01518b87038f8d0152959650612a97878761270e565b96508188015195508a8703828c0152612ab087876128e7565b965080880151818c0152505050808501519450612ad08189018615159052565b50505095880195935050908601906001016129b4565b608081525f612af8608083018761270e565b8281036020840152612b0a818761270e565b90508281036040840152612b1e81866126e3565b91505082606083015295945050505050565b805161226681612244565b5f82601f830112612b4a575f80fd5b8151612b5861220f826121cc565b818152846020838601011115612b6c575f80fd5b612b7d8260208301602087016126c1565b949350505050565b80516122668161226b565b805161226681612284565b5f60e08284031215612bab575f80fd5b612bb361212f565b905081518152612bc560208301612b30565b602082015260408201516001600160401b0380821115612be3575f80fd5b612bef85838601612b3b565b60408401526060840151915080821115612c07575f80fd5b612c1385838601612b3b565b60608401526080840151915080821115612c2b575f80fd5b50612c3884828501612b3b565b608083015250612c4a60a08301612b85565b60a082015261235c60c08301612b90565b5f60208284031215612c6b575f80fd5b81516001600160401b0380821115612c81575f80fd5b9083019060c08286031215612c94575f80fd5b612c9c61217a565b8251815260208301516020820152604083015182811115612cbb575f80fd5b612cc787828601612b9b565b604083015250606083015182811115612cde575f80fd5b612cea87828601612b9b565b606083015250608083015182811115612d01575f80fd5b612d0d87828601612b3b565b60808301525060a083015160a082015280935050505092915050565b600181811c90821680612d3d57607f821691505b602082108103612d5b57634e487b7160e01b5f52602260045260245ffd5b50919050565b601f8211156114ec575f81815260208120601f850160051c81016020861015612d875750805b601f850160051c820191505b81811015612da657828155600101612d93565b505050505050565b81516001600160401b03811115612dc757612dc761211b565b612ddb81612dd58454612d29565b84612d61565b602080601f831160018114612e0e575f8415612df75750858301515b5f19600386901b1c1916600185901b178555612da6565b5f85815260208120601f198616915b82811015612e3c57888601518255948401946001909101908401612e1d565b5085821015612e5957878501515f19600388901b60f8161c191681555b5050505050600190811b01905550565b60609290921b6001600160601b0319168252601482015260340190565b5f6101408284031215612e97575f80fd5b612e9f612157565b825181526020808401519082015260408301519091506001600160401b0380821115612ec9575f80fd5b612ed585838601612b3b565b6040840152606084015160608401526080840151915080821115612ef7575f80fd5b612f0385838601612b3b565b608084015260a084015160a084015260c084015160c084015260e0840151915080821115612f2f575f80fd5b50612f3c84828501612b9b565b60e083015250610100828101519082015261012061243b818401612b90565b5f60208284031215612f6b575f80fd5b81516001600160401b0380821115612f81575f80fd5b9083019060c08286031215612f94575f80fd5b612f9c61217a565b82518152602083015182811115612fb1575f80fd5b612fbd87828601612e86565b602083015250604083015182811115612fd4575f80fd5b612fe087828601612b9b565b604083015250606083015160608201526080830151608082015261300660a08401612b85565b60a082015295945050505050565b5f60208284031215613024575f80fd5b81516001600160401b03811115613039575f80fd5b612b7d84828501612b9b565b5f60208284031215613055575f80fd5b81516001600160401b0381111561306a575f80fd5b612b7d84828501612e86565b670283937b23ab1ba160c51b81525f82516130988160088501602087016126c1565b6608189bdd59da1d60ca1b6008939091019283015250600f01919050565b5f6101208083526130c98184018d61270e565b905082810360208401526130dd818c61270e565b90508960408401528860608401528760808401528660a08401528560c084015282810360e084015261310f81866126e3565b9150508215156101008301529a9950505050505050505050565b5f610140828403121561313a575f80fd5b613142612157565b8251815260208301519091506001600160401b0380821115613162575f80fd5b61316e85838601612b9b565b60208401526040840151915080821115613186575f80fd5b61319285838601612b9b565b6040840152606084015160608401526080840151608084015260a084015160a084015260c084015160c084015260e084015160e0840152610100915081840151818111156131de575f80fd5b6131ea86828701612b3b565b8385015250505061012061243b818401612b90565b5f6020828403121561320f575f80fd5b81516001600160401b03811115613224575f80fd5b612b7d84828501613129565b85815284602082015260a060408201525f61324e60a083018661270e565b828103606084015261326081866128e7565b91505082151560808301529695505050505050565b5f60208284031215613285575f80fd5b5051919050565b634e487b7160e01b5f52603260045260245ffd5b5f602082840312156132b0575f80fd5b81516001600160401b03808211156132c6575f80fd5b9083019060c082860312156132d9575f80fd5b6132e161217a565b825181526020830151828111156132f6575f80fd5b61330287828601612e86565b602083015250604083015182811115613319575f80fd5b61332587828601612b9b565b60408301525060608301518281111561333c575f80fd5b61334887828601613129565b6060830152506080830151608082015261300660a08401612b90565b634e487b7160e01b5f52601160045260245ffd5b5f6001820161338957613389613364565b5060010190565b5f826133aa57634e487b7160e01b5f52601260045260245ffd5b500490565b8181038181111561152f5761152f613364565b808202811582820484141761152f5761152f613364565b60ff818116838216019081111561152f5761152f61336456fea26469706673582212200a3a539ed9c48e33300fbc4fc5fe40e7e80c268150241018e0d599e14546206764736f6c63430008150033",
  "immutableReferences": {},
  "source": "// SPDX-License-Identifier: MIT\r\npragma solidity >=0.4.22 <0.9.0;\r\npragma experimental ABIEncoderV2;\r\nimport \"./SharedStructs.sol\";\r\nimport \"./Main.sol\";\r\nimport \"./Manufacturer.sol\";\r\nimport \"./RequestManagement.sol\";\r\n\r\ncontract Consumer {\r\n    Main main;\r\n    Manufacturer manufacturer;\r\n    RequestManagement RM;\r\n\r\n    constructor(address mainAddress, address manufacturerAddress, address RMAddress) {\r\n        main = Main(mainAddress);\r\n        manufacturer = Manufacturer(manufacturerAddress);\r\n        RM = RequestManagement(RMAddress);\r\n    }\r\n\r\n    mapping(address => uint256[]) private userBoughtProductIds;\r\n\tmapping(uint256 => SharedStructs.Comment[]) private ProductComments;\r\n\tmapping(uint256 => SharedStructs.Comment[]) private SoldProductComments;\r\n\tmapping(bytes32 => uint256) private manufacturerToConsumerComments;\r\n\tmapping(bytes32 => uint256) private consumerToManufacturerComments;\r\n\tevent getTransactionId(uint256 transactionId);\r\n\r\n\tfunction buyProduct(uint256 requestId) public {\r\n\t\t// require( main.getUser(googleIdHash).registered, \"User not registered\");\r\n\t\t// require( main.getUser(googleIdHash).role == 2, \"User must be consumer to buy products.\");\r\n\t\t// require( main.getUser(googleIdHash).registered, \"User not registered\");\r\n\t\t// require(bytes(ProductRequests[requestId].name).length > 0, \"Request does not exist\");\r\n        SharedStructs.Request memory currRequest = RM.getRequest(requestId);\r\n\t\t// require(currRequest.quantity <= currRequest.product.quantity, \"Insufficient product in stock\");\r\n\t\t// require( main.getUser(googleIdHash).ethAddress == currRequest.requestingUser.ethAddress, \"You are not authorized to buy this product\");\r\n\t\t// require(currRequest.status == 1, \"Product request not accepted\");\r\n\t\tuint256 productId = currRequest.product.id;\r\n\t\t// require(manufacturer.getProductValidity(productId), \"Product does not exist\");\r\n\r\n\t\tmanufacturer.decreaseProduct(productId, currRequest.quantity);\r\n\t\tif (manufacturer.getProduct(productId).quantity == 0) {\r\n            manufacturer.removeUnsoldProduct(manufacturer.getProduct(productId).manufacturingUser.ethAddress, productId);\r\n    \t}\r\n\t}\r\n\r\n\tfunction markProductAsSold(uint256 requestId, bool transactionStatus, uint256 transactionTimestamp, uint256 gasUsed, bytes32 googleIdHash) public {\r\n\t\t// require( main.getUser(googleIdHash).registered, \"User not registered\");\r\n\t\t// require( main.getUser(googleIdHash).role == 2, \"User must be consumer to buy products.\");\r\n\t\t// require( main.getUser(googleIdHash).registered, \"User not registered\");\r\n\t\t// require(bytes(ProductRequests[requestId].name).length > 0, \"Request does not exist\");\r\n        // SharedStructs.Request memory currRequest = RM.getRequest(requestId);\r\n\t\t// require(currRequest.quantity <= currRequest.product.quantity, \"Insufficient product in stock\");\r\n\t\t// require( main.getUser(googleIdHash).ethAddress == currRequest.requestingUser.ethAddress, \"You are not authorized to buy this product\");\r\n\t\t// require(currRequest.status == 1, \"Product request not accepted\");\r\n\t\t// require(transactionStatus == true, \"Buying product failed\");\r\n\t\tuint256 productId = RM.getRequest(requestId).product.id;\r\n\t\t// require(manufacturer.getProductValidity(productId), \"Product does not exist\");\r\n\r\n\t\t// SharedStructs.User memory buyingUser =  main.getUser(googleIdHash);\r\n        // SharedStructs.Product memory currProduct = manufacturer.getProduct(productId);\r\n        // uint256 quantityPurchased = currRequest.quantity;\r\n        // SharedStructs.User memory manufacturingUser = currProduct.manufacturingUser;\r\n        // uint256 pricePerUnit = currProduct.pricePerUnit;\r\n\t\t// uint256 totalPrice = pricePerUnit*quantityPurchased;\r\n        SharedStructs.Transaction memory newTransaction = main.addTransaction(main.getUser(googleIdHash), manufacturer.getProduct(productId).manufacturingUser, transactionTimestamp, manufacturer.getProduct(productId).pricePerUnit, manufacturer.getProduct(productId).weightPerUnit, RM.getRequest(requestId).quantity, gasUsed, string(abi.encodePacked(\"Product \", SharedStructs.uint2str(productId), \" bought\")), transactionStatus);\r\n        uint256 currSoldProductCtr = manufacturer.addSoldProduct(productId, RM.getRequest(requestId).quantity, main.getUser(googleIdHash), newTransaction, false);\r\n\t\tuserBoughtProductIds[main.getUser(googleIdHash).ethAddress].push(currSoldProductCtr);\r\n\t\tRM.setRequestStatus(requestId, 3);\r\n\t\tif(manufacturer.getProduct(productId).quantity == 0){\r\n            manufacturer.removeProduct(productId);\r\n\t\t}\t\r\n\t\temit getTransactionId(newTransaction.id);\r\n\t}\r\n\r\n\tfunction receiveProduct(uint256 soldProductId) public {\r\n\t\t// require( main.getUser(googleIdHash).registered, \"User not registered\");\r\n\t\t// require( main.getUser(googleIdHash).role == 2, \"User must be consumer to receive product.\");\r\n\t\t// require(manufacturer.getSoldProduct(soldProductId).buyingUser.ethAddress ==  main.getUser(googleIdHash).ethAddress, \"You are not the buyer of this product\");\r\n\t\t// require(manufacturer.getSoldProduct(soldProductId).received == false, \"Product already received\");\r\n\t\tmanufacturer.setProductReceived(soldProductId);\r\n\t}\r\n\r\n\tfunction getUserBoughtProducts(address ethAddress) public view returns (SharedStructs.SoldProduct[] memory) {\r\n\t\t// require( main.getUser(googleIdHash).registered, \"User not registered\");\r\n\t\t// require( main.getUser(googleIdHash).role == 2, \"User must be consumer to access bought products.\");\r\n\t\t// SharedStructs.User memory user =  main.getUser(googleIdHash);\r\n        uint256[] memory productIds = userBoughtProductIds[ethAddress];\r\n        SharedStructs.SoldProduct[] memory products = new SharedStructs.SoldProduct[](productIds.length);\r\n\t\tuint256 index = 0;\r\n        for (uint256 i = 0; i < productIds.length; i++) {\r\n\t\t\tif(manufacturer.getSoldProduct(productIds[i]).received == false){\r\n\t\t\t\tproducts[index] = manufacturer.getSoldProduct(productIds[i]);\r\n\t\t\t\tindex++;\r\n\t\t\t}\r\n        }\r\n        assembly {mstore(products, index)}\r\n\t\treturn products;\r\n    }\r\n\r\n\tfunction getUserReceivedProducts(address ethAddress) public view returns (SharedStructs.SoldProduct[] memory) {\r\n\t\t// require( main.getUser(googleIdHash).registered, \"User not registered\");\r\n\t\t// require( main.getUser(googleIdHash).role == 2, \"User must be consumer to access received products.\");\r\n\t\t// SharedStructs.User memory user =  main.getUser(googleIdHash);\r\n        uint256[] memory productIds = userBoughtProductIds[ethAddress];\r\n        SharedStructs.SoldProduct[] memory products = new SharedStructs.SoldProduct[](productIds.length);\r\n\t\tuint256 index = 0;\r\n        for (uint256 i = 0; i < productIds.length; i++) {\r\n\t\t\tif(manufacturer.getSoldProduct(productIds[i]).received == true){\r\n\t\t\t\tproducts[index] = manufacturer.getSoldProduct(productIds[i]);\r\n\t\t\t\tindex++;\r\n\t\t\t}\r\n        }\r\n        assembly {mstore(products, index)}\r\n\t\treturn products;\r\n    }\r\n\r\n\tfunction addConsumerComment(SharedStructs.User memory from, SharedStructs.User memory to, string memory comment, uint256 rating, uint256 soldProductId) public {\r\n        SharedStructs.Comment memory c = main.addComment(from, to, comment, rating);\r\n        manufacturerToConsumerComments[keccak256(abi.encodePacked(from.ethAddress, soldProductId))] = c.id;\r\n    }\r\n\r\n\tfunction getFromManufacturerCommentId(address ethAddress, uint256 soldProductId) public view returns (uint256){\r\n\t\treturn manufacturerToConsumerComments[keccak256(abi.encodePacked(ethAddress, soldProductId))];\r\n\t}\r\n\r\n\tfunction addSoldProductComment(SharedStructs.SoldProduct memory soldProduct, string memory comment, uint256 rating) public {\r\n        // require(main.getUser(googleIdHash).registered, \"User not registered\");\r\n\t\t// // require(main.getUser(googleIdHash).role == 2, \"User must be consumer to add product comment.\");\r\n\t\t// require(SoldProductStock[soldProductId].received == true, \"Product does not exist\");\r\n\t\tSharedStructs.Comment memory c = main.addComment(soldProduct.buyingUser, soldProduct.product.manufacturingUser, comment, rating);\r\n        ProductComments[soldProduct.product.id].push(c);\r\n\t\tSoldProductComments[soldProduct.id].push(c);\r\n\t\tconsumerToManufacturerComments[keccak256(abi.encodePacked(soldProduct.buyingUser.ethAddress, soldProduct.id))] = c.id;\r\n    }\r\n\r\n\tfunction getToManufacturerComment(address ethAddress, uint256 soldProductId) public view returns (uint256){\r\n\t\treturn consumerToManufacturerComments[keccak256(abi.encodePacked(ethAddress, soldProductId))];\r\n\t}\r\n\r\n\tfunction getSoldProductComments(uint256 soldProductId) public view returns (SharedStructs.Comment[] memory) {\r\n\t\treturn SoldProductComments[soldProductId];\r\n\t}\r\n\r\n    function getProductComments(uint256 productId) public view returns (SharedStructs.Comment[] memory) {\r\n        return ProductComments[productId];\r\n    }\r\n}",
  "sourcePath": "C:\\Users\\lavan\\OneDrive\\Desktop\\testgoogleauth\\contracts\\Consumer.sol",
  "compiler": {
    "name": "solc",
    "version": "0.8.21+commit.d9974bed.Emscripten.clang"
  },
  "schemaVersion": "3.4.16",
  "updatedAt": "2025-03-05T17:40:00.166Z",
  "networkType": "ethereum",
  "devdoc": {
    "kind": "dev",
    "methods": {},
    "version": 1
  },
  "userdoc": {
    "kind": "user",
    "methods": {},
    "version": 1
  }
}