{
  "contractName": "Main",
  "abi": [
    {
      "inputs": [
        {
          "internalType": "uint256",
          "name": "",
          "type": "uint256"
        }
      ],
      "name": "Comments",
      "outputs": [
        {
          "internalType": "uint256",
          "name": "id",
          "type": "uint256"
        },
        {
          "internalType": "uint256",
          "name": "timestamp",
          "type": "uint256"
        },
        {
          "components": [
            {
              "internalType": "uint256",
              "name": "id",
              "type": "uint256"
            },
            {
              "internalType": "address",
              "name": "ethAddress",
              "type": "address"
            },
            {
              "internalType": "string",
              "name": "email",
              "type": "string"
            },
            {
              "internalType": "string",
              "name": "username",
              "type": "string"
            },
            {
              "internalType": "string",
              "name": "location",
              "type": "string"
            },
            {
              "internalType": "uint8",
              "name": "role",
              "type": "uint8"
            },
            {
              "internalType": "bool",
              "name": "registered",
              "type": "bool"
            }
          ],
          "internalType": "struct SharedStructs.User",
          "name": "from",
          "type": "tuple"
        },
        {
          "components": [
            {
              "internalType": "uint256",
              "name": "id",
              "type": "uint256"
            },
            {
              "internalType": "address",
              "name": "ethAddress",
              "type": "address"
            },
            {
              "internalType": "string",
              "name": "email",
              "type": "string"
            },
            {
              "internalType": "string",
              "name": "username",
              "type": "string"
            },
            {
              "internalType": "string",
              "name": "location",
              "type": "string"
            },
            {
              "internalType": "uint8",
              "name": "role",
              "type": "uint8"
            },
            {
              "internalType": "bool",
              "name": "registered",
              "type": "bool"
            }
          ],
          "internalType": "struct SharedStructs.User",
          "name": "to",
          "type": "tuple"
        },
        {
          "internalType": "string",
          "name": "comment",
          "type": "string"
        },
        {
          "internalType": "uint256",
          "name": "rating",
          "type": "uint256"
        }
      ],
      "stateMutability": "view",
      "type": "function",
      "constant": true
    },
    {
      "inputs": [
        {
          "internalType": "uint256",
          "name": "",
          "type": "uint256"
        }
      ],
      "name": "Transactions",
      "outputs": [
        {
          "internalType": "uint256",
          "name": "id",
          "type": "uint256"
        },
        {
          "components": [
            {
              "internalType": "uint256",
              "name": "id",
              "type": "uint256"
            },
            {
              "internalType": "address",
              "name": "ethAddress",
              "type": "address"
            },
            {
              "internalType": "string",
              "name": "email",
              "type": "string"
            },
            {
              "internalType": "string",
              "name": "username",
              "type": "string"
            },
            {
              "internalType": "string",
              "name": "location",
              "type": "string"
            },
            {
              "internalType": "uint8",
              "name": "role",
              "type": "uint8"
            },
            {
              "internalType": "bool",
              "name": "registered",
              "type": "bool"
            }
          ],
          "internalType": "struct SharedStructs.User",
          "name": "from",
          "type": "tuple"
        },
        {
          "components": [
            {
              "internalType": "uint256",
              "name": "id",
              "type": "uint256"
            },
            {
              "internalType": "address",
              "name": "ethAddress",
              "type": "address"
            },
            {
              "internalType": "string",
              "name": "email",
              "type": "string"
            },
            {
              "internalType": "string",
              "name": "username",
              "type": "string"
            },
            {
              "internalType": "string",
              "name": "location",
              "type": "string"
            },
            {
              "internalType": "uint8",
              "name": "role",
              "type": "uint8"
            },
            {
              "internalType": "bool",
              "name": "registered",
              "type": "bool"
            }
          ],
          "internalType": "struct SharedStructs.User",
          "name": "to",
          "type": "tuple"
        },
        {
          "internalType": "uint256",
          "name": "timestamp",
          "type": "uint256"
        },
        {
          "internalType": "uint256",
          "name": "pricePerUnit",
          "type": "uint256"
        },
        {
          "internalType": "uint256",
          "name": "weightPerUnit",
          "type": "uint256"
        },
        {
          "internalType": "uint256",
          "name": "quantity",
          "type": "uint256"
        },
        {
          "internalType": "uint256",
          "name": "gasUsed",
          "type": "uint256"
        },
        {
          "internalType": "string",
          "name": "description",
          "type": "string"
        },
        {
          "internalType": "bool",
          "name": "status",
          "type": "bool"
        }
      ],
      "stateMutability": "view",
      "type": "function",
      "constant": true
    },
    {
      "inputs": [],
      "name": "commentCtr",
      "outputs": [
        {
          "internalType": "uint256",
          "name": "",
          "type": "uint256"
        }
      ],
      "stateMutability": "view",
      "type": "function",
      "constant": true
    },
    {
      "inputs": [],
      "name": "transactionCtr",
      "outputs": [
        {
          "internalType": "uint256",
          "name": "",
          "type": "uint256"
        }
      ],
      "stateMutability": "view",
      "type": "function",
      "constant": true
    },
    {
      "inputs": [],
      "name": "userCtr",
      "outputs": [
        {
          "internalType": "uint256",
          "name": "",
          "type": "uint256"
        }
      ],
      "stateMutability": "view",
      "type": "function",
      "constant": true
    },
    {
      "inputs": [
        {
          "internalType": "bytes32",
          "name": "googleIdHash",
          "type": "bytes32"
        }
      ],
      "name": "getUser",
      "outputs": [
        {
          "components": [
            {
              "internalType": "uint256",
              "name": "id",
              "type": "uint256"
            },
            {
              "internalType": "address",
              "name": "ethAddress",
              "type": "address"
            },
            {
              "internalType": "string",
              "name": "email",
              "type": "string"
            },
            {
              "internalType": "string",
              "name": "username",
              "type": "string"
            },
            {
              "internalType": "string",
              "name": "location",
              "type": "string"
            },
            {
              "internalType": "uint8",
              "name": "role",
              "type": "uint8"
            },
            {
              "internalType": "bool",
              "name": "registered",
              "type": "bool"
            }
          ],
          "internalType": "struct SharedStructs.User",
          "name": "",
          "type": "tuple"
        }
      ],
      "stateMutability": "view",
      "type": "function",
      "constant": true
    },
    {
      "inputs": [
        {
          "internalType": "bytes32",
          "name": "googleIdHash",
          "type": "bytes32"
        },
        {
          "internalType": "address",
          "name": "ethAddress",
          "type": "address"
        },
        {
          "internalType": "string",
          "name": "email",
          "type": "string"
        },
        {
          "internalType": "string",
          "name": "username",
          "type": "string"
        },
        {
          "internalType": "string",
          "name": "location",
          "type": "string"
        },
        {
          "internalType": "uint8",
          "name": "role",
          "type": "uint8"
        },
        {
          "internalType": "bool",
          "name": "registered",
          "type": "bool"
        }
      ],
      "name": "setUser",
      "outputs": [],
      "stateMutability": "nonpayable",
      "type": "function"
    },
    {
      "inputs": [
        {
          "internalType": "address",
          "name": "ethAddress",
          "type": "address"
        }
      ],
      "name": "getTransactions",
      "outputs": [
        {
          "components": [
            {
              "internalType": "uint256",
              "name": "id",
              "type": "uint256"
            },
            {
              "components": [
                {
                  "internalType": "uint256",
                  "name": "id",
                  "type": "uint256"
                },
                {
                  "internalType": "address",
                  "name": "ethAddress",
                  "type": "address"
                },
                {
                  "internalType": "string",
                  "name": "email",
                  "type": "string"
                },
                {
                  "internalType": "string",
                  "name": "username",
                  "type": "string"
                },
                {
                  "internalType": "string",
                  "name": "location",
                  "type": "string"
                },
                {
                  "internalType": "uint8",
                  "name": "role",
                  "type": "uint8"
                },
                {
                  "internalType": "bool",
                  "name": "registered",
                  "type": "bool"
                }
              ],
              "internalType": "struct SharedStructs.User",
              "name": "from",
              "type": "tuple"
            },
            {
              "components": [
                {
                  "internalType": "uint256",
                  "name": "id",
                  "type": "uint256"
                },
                {
                  "internalType": "address",
                  "name": "ethAddress",
                  "type": "address"
                },
                {
                  "internalType": "string",
                  "name": "email",
                  "type": "string"
                },
                {
                  "internalType": "string",
                  "name": "username",
                  "type": "string"
                },
                {
                  "internalType": "string",
                  "name": "location",
                  "type": "string"
                },
                {
                  "internalType": "uint8",
                  "name": "role",
                  "type": "uint8"
                },
                {
                  "internalType": "bool",
                  "name": "registered",
                  "type": "bool"
                }
              ],
              "internalType": "struct SharedStructs.User",
              "name": "to",
              "type": "tuple"
            },
            {
              "internalType": "uint256",
              "name": "timestamp",
              "type": "uint256"
            },
            {
              "internalType": "uint256",
              "name": "pricePerUnit",
              "type": "uint256"
            },
            {
              "internalType": "uint256",
              "name": "weightPerUnit",
              "type": "uint256"
            },
            {
              "internalType": "uint256",
              "name": "quantity",
              "type": "uint256"
            },
            {
              "internalType": "uint256",
              "name": "gasUsed",
              "type": "uint256"
            },
            {
              "internalType": "string",
              "name": "description",
              "type": "string"
            },
            {
              "internalType": "bool",
              "name": "status",
              "type": "bool"
            }
          ],
          "internalType": "struct SharedStructs.Transaction[]",
          "name": "",
          "type": "tuple[]"
        }
      ],
      "stateMutability": "view",
      "type": "function",
      "constant": true
    },
    {
      "inputs": [
        {
          "components": [
            {
              "internalType": "uint256",
              "name": "id",
              "type": "uint256"
            },
            {
              "internalType": "address",
              "name": "ethAddress",
              "type": "address"
            },
            {
              "internalType": "string",
              "name": "email",
              "type": "string"
            },
            {
              "internalType": "string",
              "name": "username",
              "type": "string"
            },
            {
              "internalType": "string",
              "name": "location",
              "type": "string"
            },
            {
              "internalType": "uint8",
              "name": "role",
              "type": "uint8"
            },
            {
              "internalType": "bool",
              "name": "registered",
              "type": "bool"
            }
          ],
          "internalType": "struct SharedStructs.User",
          "name": "from",
          "type": "tuple"
        },
        {
          "components": [
            {
              "internalType": "uint256",
              "name": "id",
              "type": "uint256"
            },
            {
              "internalType": "address",
              "name": "ethAddress",
              "type": "address"
            },
            {
              "internalType": "string",
              "name": "email",
              "type": "string"
            },
            {
              "internalType": "string",
              "name": "username",
              "type": "string"
            },
            {
              "internalType": "string",
              "name": "location",
              "type": "string"
            },
            {
              "internalType": "uint8",
              "name": "role",
              "type": "uint8"
            },
            {
              "internalType": "bool",
              "name": "registered",
              "type": "bool"
            }
          ],
          "internalType": "struct SharedStructs.User",
          "name": "to",
          "type": "tuple"
        },
        {
          "internalType": "uint256",
          "name": "timestamp",
          "type": "uint256"
        },
        {
          "internalType": "uint256",
          "name": "pricePerUnit",
          "type": "uint256"
        },
        {
          "internalType": "uint256",
          "name": "weightPerUnit",
          "type": "uint256"
        },
        {
          "internalType": "uint256",
          "name": "quantity",
          "type": "uint256"
        },
        {
          "internalType": "uint256",
          "name": "gasUsed",
          "type": "uint256"
        },
        {
          "internalType": "string",
          "name": "description",
          "type": "string"
        },
        {
          "internalType": "bool",
          "name": "status",
          "type": "bool"
        }
      ],
      "name": "addTransaction",
      "outputs": [
        {
          "components": [
            {
              "internalType": "uint256",
              "name": "id",
              "type": "uint256"
            },
            {
              "components": [
                {
                  "internalType": "uint256",
                  "name": "id",
                  "type": "uint256"
                },
                {
                  "internalType": "address",
                  "name": "ethAddress",
                  "type": "address"
                },
                {
                  "internalType": "string",
                  "name": "email",
                  "type": "string"
                },
                {
                  "internalType": "string",
                  "name": "username",
                  "type": "string"
                },
                {
                  "internalType": "string",
                  "name": "location",
                  "type": "string"
                },
                {
                  "internalType": "uint8",
                  "name": "role",
                  "type": "uint8"
                },
                {
                  "internalType": "bool",
                  "name": "registered",
                  "type": "bool"
                }
              ],
              "internalType": "struct SharedStructs.User",
              "name": "from",
              "type": "tuple"
            },
            {
              "components": [
                {
                  "internalType": "uint256",
                  "name": "id",
                  "type": "uint256"
                },
                {
                  "internalType": "address",
                  "name": "ethAddress",
                  "type": "address"
                },
                {
                  "internalType": "string",
                  "name": "email",
                  "type": "string"
                },
                {
                  "internalType": "string",
                  "name": "username",
                  "type": "string"
                },
                {
                  "internalType": "string",
                  "name": "location",
                  "type": "string"
                },
                {
                  "internalType": "uint8",
                  "name": "role",
                  "type": "uint8"
                },
                {
                  "internalType": "bool",
                  "name": "registered",
                  "type": "bool"
                }
              ],
              "internalType": "struct SharedStructs.User",
              "name": "to",
              "type": "tuple"
            },
            {
              "internalType": "uint256",
              "name": "timestamp",
              "type": "uint256"
            },
            {
              "internalType": "uint256",
              "name": "pricePerUnit",
              "type": "uint256"
            },
            {
              "internalType": "uint256",
              "name": "weightPerUnit",
              "type": "uint256"
            },
            {
              "internalType": "uint256",
              "name": "quantity",
              "type": "uint256"
            },
            {
              "internalType": "uint256",
              "name": "gasUsed",
              "type": "uint256"
            },
            {
              "internalType": "string",
              "name": "description",
              "type": "string"
            },
            {
              "internalType": "bool",
              "name": "status",
              "type": "bool"
            }
          ],
          "internalType": "struct SharedStructs.Transaction",
          "name": "",
          "type": "tuple"
        }
      ],
      "stateMutability": "nonpayable",
      "type": "function"
    },
    {
      "inputs": [
        {
          "internalType": "uint256",
          "name": "transactionId",
          "type": "uint256"
        },
        {
          "internalType": "string",
          "name": "shippingPartner",
          "type": "string"
        },
        {
          "internalType": "uint256",
          "name": "partnerRating",
          "type": "uint256"
        },
        {
          "internalType": "uint256",
          "name": "estimatedTimeToDelivery",
          "type": "uint256"
        },
        {
          "internalType": "uint256",
          "name": "shippingCharges",
          "type": "uint256"
        }
      ],
      "name": "addShippingDetails",
      "outputs": [],
      "stateMutability": "nonpayable",
      "type": "function"
    },
    {
      "inputs": [
        {
          "internalType": "uint256",
          "name": "transactionId",
          "type": "uint256"
        }
      ],
      "name": "getShippingDetails",
      "outputs": [
        {
          "components": [
            {
              "internalType": "uint256",
              "name": "pricePerUnit",
              "type": "uint256"
            },
            {
              "internalType": "uint256",
              "name": "weightPerUnit",
              "type": "uint256"
            },
            {
              "internalType": "uint256",
              "name": "quantity",
              "type": "uint256"
            },
            {
              "internalType": "uint256",
              "name": "totalPrice",
              "type": "uint256"
            },
            {
              "internalType": "uint256",
              "name": "totalWeight",
              "type": "uint256"
            },
            {
              "internalType": "string",
              "name": "shippingPartner",
              "type": "string"
            },
            {
              "internalType": "uint256",
              "name": "partnerRating",
              "type": "uint256"
            },
            {
              "internalType": "uint256",
              "name": "estimatedTimeToDelivery",
              "type": "uint256"
            },
            {
              "internalType": "uint256",
              "name": "shippingCharges",
              "type": "uint256"
            }
          ],
          "internalType": "struct SharedStructs.Shipping",
          "name": "",
          "type": "tuple"
        }
      ],
      "stateMutability": "view",
      "type": "function",
      "constant": true
    },
    {
      "inputs": [
        {
          "components": [
            {
              "internalType": "uint256",
              "name": "id",
              "type": "uint256"
            },
            {
              "internalType": "address",
              "name": "ethAddress",
              "type": "address"
            },
            {
              "internalType": "string",
              "name": "email",
              "type": "string"
            },
            {
              "internalType": "string",
              "name": "username",
              "type": "string"
            },
            {
              "internalType": "string",
              "name": "location",
              "type": "string"
            },
            {
              "internalType": "uint8",
              "name": "role",
              "type": "uint8"
            },
            {
              "internalType": "bool",
              "name": "registered",
              "type": "bool"
            }
          ],
          "internalType": "struct SharedStructs.User",
          "name": "from",
          "type": "tuple"
        },
        {
          "components": [
            {
              "internalType": "uint256",
              "name": "id",
              "type": "uint256"
            },
            {
              "internalType": "address",
              "name": "ethAddress",
              "type": "address"
            },
            {
              "internalType": "string",
              "name": "email",
              "type": "string"
            },
            {
              "internalType": "string",
              "name": "username",
              "type": "string"
            },
            {
              "internalType": "string",
              "name": "location",
              "type": "string"
            },
            {
              "internalType": "uint8",
              "name": "role",
              "type": "uint8"
            },
            {
              "internalType": "bool",
              "name": "registered",
              "type": "bool"
            }
          ],
          "internalType": "struct SharedStructs.User",
          "name": "to",
          "type": "tuple"
        },
        {
          "internalType": "string",
          "name": "comment",
          "type": "string"
        },
        {
          "internalType": "uint256",
          "name": "rating",
          "type": "uint256"
        }
      ],
      "name": "addComment",
      "outputs": [
        {
          "components": [
            {
              "internalType": "uint256",
              "name": "id",
              "type": "uint256"
            },
            {
              "internalType": "uint256",
              "name": "timestamp",
              "type": "uint256"
            },
            {
              "components": [
                {
                  "internalType": "uint256",
                  "name": "id",
                  "type": "uint256"
                },
                {
                  "internalType": "address",
                  "name": "ethAddress",
                  "type": "address"
                },
                {
                  "internalType": "string",
                  "name": "email",
                  "type": "string"
                },
                {
                  "internalType": "string",
                  "name": "username",
                  "type": "string"
                },
                {
                  "internalType": "string",
                  "name": "location",
                  "type": "string"
                },
                {
                  "internalType": "uint8",
                  "name": "role",
                  "type": "uint8"
                },
                {
                  "internalType": "bool",
                  "name": "registered",
                  "type": "bool"
                }
              ],
              "internalType": "struct SharedStructs.User",
              "name": "from",
              "type": "tuple"
            },
            {
              "components": [
                {
                  "internalType": "uint256",
                  "name": "id",
                  "type": "uint256"
                },
                {
                  "internalType": "address",
                  "name": "ethAddress",
                  "type": "address"
                },
                {
                  "internalType": "string",
                  "name": "email",
                  "type": "string"
                },
                {
                  "internalType": "string",
                  "name": "username",
                  "type": "string"
                },
                {
                  "internalType": "string",
                  "name": "location",
                  "type": "string"
                },
                {
                  "internalType": "uint8",
                  "name": "role",
                  "type": "uint8"
                },
                {
                  "internalType": "bool",
                  "name": "registered",
                  "type": "bool"
                }
              ],
              "internalType": "struct SharedStructs.User",
              "name": "to",
              "type": "tuple"
            },
            {
              "internalType": "string",
              "name": "comment",
              "type": "string"
            },
            {
              "internalType": "uint256",
              "name": "rating",
              "type": "uint256"
            }
          ],
          "internalType": "struct SharedStructs.Comment",
          "name": "",
          "type": "tuple"
        }
      ],
      "stateMutability": "nonpayable",
      "type": "function"
    },
    {
      "inputs": [
        {
          "internalType": "uint256",
          "name": "commentId",
          "type": "uint256"
        }
      ],
      "name": "getComment",
      "outputs": [
        {
          "components": [
            {
              "internalType": "uint256",
              "name": "id",
              "type": "uint256"
            },
            {
              "internalType": "uint256",
              "name": "timestamp",
              "type": "uint256"
            },
            {
              "components": [
                {
                  "internalType": "uint256",
                  "name": "id",
                  "type": "uint256"
                },
                {
                  "internalType": "address",
                  "name": "ethAddress",
                  "type": "address"
                },
                {
                  "internalType": "string",
                  "name": "email",
                  "type": "string"
                },
                {
                  "internalType": "string",
                  "name": "username",
                  "type": "string"
                },
                {
                  "internalType": "string",
                  "name": "location",
                  "type": "string"
                },
                {
                  "internalType": "uint8",
                  "name": "role",
                  "type": "uint8"
                },
                {
                  "internalType": "bool",
                  "name": "registered",
                  "type": "bool"
                }
              ],
              "internalType": "struct SharedStructs.User",
              "name": "from",
              "type": "tuple"
            },
            {
              "components": [
                {
                  "internalType": "uint256",
                  "name": "id",
                  "type": "uint256"
                },
                {
                  "internalType": "address",
                  "name": "ethAddress",
                  "type": "address"
                },
                {
                  "internalType": "string",
                  "name": "email",
                  "type": "string"
                },
                {
                  "internalType": "string",
                  "name": "username",
                  "type": "string"
                },
                {
                  "internalType": "string",
                  "name": "location",
                  "type": "string"
                },
                {
                  "internalType": "uint8",
                  "name": "role",
                  "type": "uint8"
                },
                {
                  "internalType": "bool",
                  "name": "registered",
                  "type": "bool"
                }
              ],
              "internalType": "struct SharedStructs.User",
              "name": "to",
              "type": "tuple"
            },
            {
              "internalType": "string",
              "name": "comment",
              "type": "string"
            },
            {
              "internalType": "uint256",
              "name": "rating",
              "type": "uint256"
            }
          ],
          "internalType": "struct SharedStructs.Comment",
          "name": "",
          "type": "tuple"
        }
      ],
      "stateMutability": "view",
      "type": "function",
      "constant": true
    },
    {
      "inputs": [
        {
          "internalType": "address",
          "name": "ethAddress",
          "type": "address"
        }
      ],
      "name": "getUserSentComments",
      "outputs": [
        {
          "components": [
            {
              "internalType": "uint256",
              "name": "id",
              "type": "uint256"
            },
            {
              "internalType": "uint256",
              "name": "timestamp",
              "type": "uint256"
            },
            {
              "components": [
                {
                  "internalType": "uint256",
                  "name": "id",
                  "type": "uint256"
                },
                {
                  "internalType": "address",
                  "name": "ethAddress",
                  "type": "address"
                },
                {
                  "internalType": "string",
                  "name": "email",
                  "type": "string"
                },
                {
                  "internalType": "string",
                  "name": "username",
                  "type": "string"
                },
                {
                  "internalType": "string",
                  "name": "location",
                  "type": "string"
                },
                {
                  "internalType": "uint8",
                  "name": "role",
                  "type": "uint8"
                },
                {
                  "internalType": "bool",
                  "name": "registered",
                  "type": "bool"
                }
              ],
              "internalType": "struct SharedStructs.User",
              "name": "from",
              "type": "tuple"
            },
            {
              "components": [
                {
                  "internalType": "uint256",
                  "name": "id",
                  "type": "uint256"
                },
                {
                  "internalType": "address",
                  "name": "ethAddress",
                  "type": "address"
                },
                {
                  "internalType": "string",
                  "name": "email",
                  "type": "string"
                },
                {
                  "internalType": "string",
                  "name": "username",
                  "type": "string"
                },
                {
                  "internalType": "string",
                  "name": "location",
                  "type": "string"
                },
                {
                  "internalType": "uint8",
                  "name": "role",
                  "type": "uint8"
                },
                {
                  "internalType": "bool",
                  "name": "registered",
                  "type": "bool"
                }
              ],
              "internalType": "struct SharedStructs.User",
              "name": "to",
              "type": "tuple"
            },
            {
              "internalType": "string",
              "name": "comment",
              "type": "string"
            },
            {
              "internalType": "uint256",
              "name": "rating",
              "type": "uint256"
            }
          ],
          "internalType": "struct SharedStructs.Comment[]",
          "name": "",
          "type": "tuple[]"
        }
      ],
      "stateMutability": "view",
      "type": "function",
      "constant": true
    },
    {
      "inputs": [
        {
          "internalType": "address",
          "name": "ethAddress",
          "type": "address"
        }
      ],
      "name": "getUserReceivedComments",
      "outputs": [
        {
          "components": [
            {
              "internalType": "uint256",
              "name": "id",
              "type": "uint256"
            },
            {
              "internalType": "uint256",
              "name": "timestamp",
              "type": "uint256"
            },
            {
              "components": [
                {
                  "internalType": "uint256",
                  "name": "id",
                  "type": "uint256"
                },
                {
                  "internalType": "address",
                  "name": "ethAddress",
                  "type": "address"
                },
                {
                  "internalType": "string",
                  "name": "email",
                  "type": "string"
                },
                {
                  "internalType": "string",
                  "name": "username",
                  "type": "string"
                },
                {
                  "internalType": "string",
                  "name": "location",
                  "type": "string"
                },
                {
                  "internalType": "uint8",
                  "name": "role",
                  "type": "uint8"
                },
                {
                  "internalType": "bool",
                  "name": "registered",
                  "type": "bool"
                }
              ],
              "internalType": "struct SharedStructs.User",
              "name": "from",
              "type": "tuple"
            },
            {
              "components": [
                {
                  "internalType": "uint256",
                  "name": "id",
                  "type": "uint256"
                },
                {
                  "internalType": "address",
                  "name": "ethAddress",
                  "type": "address"
                },
                {
                  "internalType": "string",
                  "name": "email",
                  "type": "string"
                },
                {
                  "internalType": "string",
                  "name": "username",
                  "type": "string"
                },
                {
                  "internalType": "string",
                  "name": "location",
                  "type": "string"
                },
                {
                  "internalType": "uint8",
                  "name": "role",
                  "type": "uint8"
                },
                {
                  "internalType": "bool",
                  "name": "registered",
                  "type": "bool"
                }
              ],
              "internalType": "struct SharedStructs.User",
              "name": "to",
              "type": "tuple"
            },
            {
              "internalType": "string",
              "name": "comment",
              "type": "string"
            },
            {
              "internalType": "uint256",
              "name": "rating",
              "type": "uint256"
            }
          ],
          "internalType": "struct SharedStructs.Comment[]",
          "name": "",
          "type": "tuple[]"
        }
      ],
      "stateMutability": "view",
      "type": "function",
      "constant": true
    },
    {
      "inputs": [
        {
          "internalType": "address",
          "name": "ethAddress",
          "type": "address"
        }
      ],
      "name": "getUserTrustScore",
      "outputs": [
        {
          "internalType": "uint256",
          "name": "",
          "type": "uint256"
        }
      ],
      "stateMutability": "view",
      "type": "function",
      "constant": true
    },
    {
      "inputs": [
        {
          "internalType": "address",
          "name": "ethAddress",
          "type": "address"
        },
        {
          "internalType": "uint256",
          "name": "newScore",
          "type": "uint256"
        }
      ],
      "name": "setUserTrustScore",
      "outputs": [],
      "stateMutability": "nonpayable",
      "type": "function"
    }
  ],
  "bytecode": "0x60806040525f6008555f6009555f600a5534801561001b575f80fd5b50614767806100295f395ff3fe608060405234801561000f575f80fd5b50600436106100d9575f3560e01c80630800e300146100dd5780630b336995146101065780630f8cda201461013157806334008b16146101515780634f1b33de1461017a5780636517579c1461019a57806368a9e3b7146101ba57806369bc0e1d146101d157806379b091b7146101f15780637fd220b8146101fa5780638e70ee481461020d5780638ea20ddc14610235578063cdd7cf301461025a578063cf0907af1461026d578063d1358e5e14610276578063e38a88ce14610289578063f257990b146102a9575b5f80fd5b6100f06100eb366004613c23565b6102bc565b6040516100fd9190613d78565b60405180910390f35b61012f610114366004613dac565b6001600160a01b039091165f90815260066020526040902055565b005b61014461013f366004613dd4565b61079c565b6040516100fd9190613e95565b61016461015f366004613c23565b610cf8565b6040516100fd9a99989796959493929190613ef5565b61018d610188366004613dd4565b6111c4565b6040516100fd9190613f70565b6101ad6101a8366004613c23565b6116e7565b6040516100fd9190613fc3565b6101c360085481565b6040519081526020016100fd565b6101e46101df366004613c23565b6118f9565b6040516100fd9190613fd5565b6101c3600a5481565b61012f610208366004614134565b611a43565b6101c361021b366004613dd4565b6001600160a01b03165f9081526006602052604090205490565b610248610243366004613c23565b611b5c565b6040516100fd969594939291906141ef565b61012f610268366004614247565b61200b565b6101c360095481565b6100f061028436600461436e565b612110565b61029c6102973660046143f7565b612b1c565b6040516100fd91906144b7565b61018d6102b7366004613dd4565b613620565b6102c4613b43565b5f82815260016020818152604092839020835160c081018552815481529281015483830152835160e081018552600282018054825260038301546001600160a01b031693820193909352600482018054949592948684019492938401919061032b906144c9565b80601f0160208091040260200160405190810160405280929190818152602001828054610357906144c9565b80156103a25780601f10610379576101008083540402835291602001916103a2565b820191905f5260205f20905b81548152906001019060200180831161038557829003601f168201915b505050505081526020016003820180546103bb906144c9565b80601f01602080910402602001604051908101604052809291908181526020018280546103e7906144c9565b80156104325780601f1061040957610100808354040283529160200191610432565b820191905f5260205f20905b81548152906001019060200180831161041557829003601f168201915b5050505050815260200160048201805461044b906144c9565b80601f0160208091040260200160405190810160405280929190818152602001828054610477906144c9565b80156104c25780601f10610499576101008083540402835291602001916104c2565b820191905f5260205f20905b8154815290600101906020018083116104a557829003601f168201915b50505091835250506005919091015460ff808216602080850191909152610100909204161515604092830152918352805160e081018252600885018054825260098601546001600160a01b031682850152600a8601805495909401949193909284019161052e906144c9565b80601f016020809104026020016040519081016040528092919081815260200182805461055a906144c9565b80156105a55780601f1061057c576101008083540402835291602001916105a5565b820191905f5260205f20905b81548152906001019060200180831161058857829003601f168201915b505050505081526020016003820180546105be906144c9565b80601f01602080910402602001604051908101604052809291908181526020018280546105ea906144c9565b80156106355780601f1061060c57610100808354040283529160200191610635565b820191905f5260205f20905b81548152906001019060200180831161061857829003601f168201915b5050505050815260200160048201805461064e906144c9565b80601f016020809104026020016040519081016040528092919081815260200182805461067a906144c9565b80156106c55780601f1061069c576101008083540402835291602001916106c5565b820191905f5260205f20905b8154815290600101906020018083116106a857829003601f168201915b50505091835250506005919091015460ff808216602080850191909152610100909204161515604090920191909152908252600e83018054929091019161070b906144c9565b80601f0160208091040260200160405190810160405280929190818152602001828054610737906144c9565b80156107825780601f1061075957610100808354040283529160200191610782565b820191905f5260205f20905b81548152906001019060200180831161076557829003601f168201915b50505050508152602001600f820154815250509050919050565b6001600160a01b0381165f908152600360209081526040808320805482518185028101850190935280835260609492939192909184015b82821015610ced575f84815260209081902060408051610140810182526014860290920180548352815160e081018352600182018054825260028301546001600160a01b03168287015260038301805495969395938701949293919284019161083b906144c9565b80601f0160208091040260200160405190810160405280929190818152602001828054610867906144c9565b80156108b25780601f10610889576101008083540402835291602001916108b2565b820191905f5260205f20905b81548152906001019060200180831161089557829003601f168201915b505050505081526020016003820180546108cb906144c9565b80601f01602080910402602001604051908101604052809291908181526020018280546108f7906144c9565b80156109425780601f1061091957610100808354040283529160200191610942565b820191905f5260205f20905b81548152906001019060200180831161092557829003601f168201915b5050505050815260200160048201805461095b906144c9565b80601f0160208091040260200160405190810160405280929190818152602001828054610987906144c9565b80156109d25780601f106109a9576101008083540402835291602001916109d2565b820191905f5260205f20905b8154815290600101906020018083116109b557829003601f168201915b50505091835250506005919091015460ff808216602080850191909152610100909204161515604092830152918352805160e081018252600785018054825260088601546001600160a01b031682850152600986018054959094019491939092840191610a3e906144c9565b80601f0160208091040260200160405190810160405280929190818152602001828054610a6a906144c9565b8015610ab55780601f10610a8c57610100808354040283529160200191610ab5565b820191905f5260205f20905b815481529060010190602001808311610a9857829003601f168201915b50505050508152602001600382018054610ace906144c9565b80601f0160208091040260200160405190810160405280929190818152602001828054610afa906144c9565b8015610b455780601f10610b1c57610100808354040283529160200191610b45565b820191905f5260205f20905b815481529060010190602001808311610b2857829003601f168201915b50505050508152602001600482018054610b5e906144c9565b80601f0160208091040260200160405190810160405280929190818152602001828054610b8a906144c9565b8015610bd55780601f10610bac57610100808354040283529160200191610bd5565b820191905f5260205f20905b815481529060010190602001808311610bb857829003601f168201915b50505091835250506005919091015460ff808216602080850191909152610100909204161515604092830152918352600d84015491830191909152600e83015490820152600f820154606082015260108201546080820152601182015460a082015260128201805460c090920191610c4c906144c9565b80601f0160208091040260200160405190810160405280929190818152602001828054610c78906144c9565b8015610cc35780601f10610c9a57610100808354040283529160200191610cc3565b820191905f5260205f20905b815481529060010190602001808311610ca657829003601f168201915b50505091835250506013919091015460ff16151560209182015290825260019290920191016107d3565b505050509050919050565b5f60208181529181526040908190208054825160e081018452600183018054825260028401546001600160a01b0316958201959095526003830180549295939491939291840191610d48906144c9565b80601f0160208091040260200160405190810160405280929190818152602001828054610d74906144c9565b8015610dbf5780601f10610d9657610100808354040283529160200191610dbf565b820191905f5260205f20905b815481529060010190602001808311610da257829003601f168201915b50505050508152602001600382018054610dd8906144c9565b80601f0160208091040260200160405190810160405280929190818152602001828054610e04906144c9565b8015610e4f5780601f10610e2657610100808354040283529160200191610e4f565b820191905f5260205f20905b815481529060010190602001808311610e3257829003601f168201915b50505050508152602001600482018054610e68906144c9565b80601f0160208091040260200160405190810160405280929190818152602001828054610e94906144c9565b8015610edf5780601f10610eb657610100808354040283529160200191610edf565b820191905f5260205f20905b815481529060010190602001808311610ec257829003601f168201915b50505091835250506005919091015460ff808216602080850191909152610100909204161515604092830152815160e081018352600785018054825260088601546001600160a01b0316928201929092526009850180549495949193840191610f47906144c9565b80601f0160208091040260200160405190810160405280929190818152602001828054610f73906144c9565b8015610fbe5780601f10610f9557610100808354040283529160200191610fbe565b820191905f5260205f20905b815481529060010190602001808311610fa157829003601f168201915b50505050508152602001600382018054610fd7906144c9565b80601f0160208091040260200160405190810160405280929190818152602001828054611003906144c9565b801561104e5780601f106110255761010080835404028352916020019161104e565b820191905f5260205f20905b81548152906001019060200180831161103157829003601f168201915b50505050508152602001600482018054611067906144c9565b80601f0160208091040260200160405190810160405280929190818152602001828054611093906144c9565b80156110de5780601f106110b5576101008083540402835291602001916110de565b820191905f5260205f20905b8154815290600101906020018083116110c157829003601f168201915b50505091835250506005919091015460ff8082166020840152610100909104161515604090910152600d820154600e830154600f8401546010850154601186015460128701805496979596949593949293919261113a906144c9565b80601f0160208091040260200160405190810160405280929190818152602001828054611166906144c9565b80156111b15780601f10611188576101008083540402835291602001916111b1565b820191905f5260205f20905b81548152906001019060200180831161119457829003601f168201915b5050506013909301549192505060ff168a565b6001600160a01b0381165f908152600560209081526040808320805482518185028101850190935280835260609492939192909184015b82821015610ced575f8481526020908190206040805160c0810182526010860290920180548352600181015483850152815160e081018352600282018054825260038301546001600160a01b03169582019590955260048201805494959294868501949293928401919061126e906144c9565b80601f016020809104026020016040519081016040528092919081815260200182805461129a906144c9565b80156112e55780601f106112bc576101008083540402835291602001916112e5565b820191905f5260205f20905b8154815290600101906020018083116112c857829003601f168201915b505050505081526020016003820180546112fe906144c9565b80601f016020809104026020016040519081016040528092919081815260200182805461132a906144c9565b80156113755780601f1061134c57610100808354040283529160200191611375565b820191905f5260205f20905b81548152906001019060200180831161135857829003601f168201915b5050505050815260200160048201805461138e906144c9565b80601f01602080910402602001604051908101604052809291908181526020018280546113ba906144c9565b80156114055780601f106113dc57610100808354040283529160200191611405565b820191905f5260205f20905b8154815290600101906020018083116113e857829003601f168201915b50505091835250506005919091015460ff808216602080850191909152610100909204161515604092830152918352805160e081018252600885018054825260098601546001600160a01b031682850152600a86018054959094019491939092840191611471906144c9565b80601f016020809104026020016040519081016040528092919081815260200182805461149d906144c9565b80156114e85780601f106114bf576101008083540402835291602001916114e8565b820191905f5260205f20905b8154815290600101906020018083116114cb57829003601f168201915b50505050508152602001600382018054611501906144c9565b80601f016020809104026020016040519081016040528092919081815260200182805461152d906144c9565b80156115785780601f1061154f57610100808354040283529160200191611578565b820191905f5260205f20905b81548152906001019060200180831161155b57829003601f168201915b50505050508152602001600482018054611591906144c9565b80601f01602080910402602001604051908101604052809291908181526020018280546115bd906144c9565b80156116085780601f106115df57610100808354040283529160200191611608565b820191905f5260205f20905b8154815290600101906020018083116115eb57829003601f168201915b50505091835250506005919091015460ff808216602080850191909152610100909204161515604090920191909152908252600e83018054929091019161164e906144c9565b80601f016020809104026020016040519081016040528092919081815260200182805461167a906144c9565b80156116c55780601f1061169c576101008083540402835291602001916116c5565b820191905f5260205f20905b8154815290600101906020018083116116a857829003601f168201915b50505050508152602001600f82015481525050815260200190600101906111fb565b6116ef613b82565b5f82815260026020818152604092839020835160e0810185528154815260018201546001600160a01b03169281019290925291820180549193840191611734906144c9565b80601f0160208091040260200160405190810160405280929190818152602001828054611760906144c9565b80156117ab5780601f10611782576101008083540402835291602001916117ab565b820191905f5260205f20905b81548152906001019060200180831161178e57829003601f168201915b505050505081526020016003820180546117c4906144c9565b80601f01602080910402602001604051908101604052809291908181526020018280546117f0906144c9565b801561183b5780601f106118125761010080835404028352916020019161183b565b820191905f5260205f20905b81548152906001019060200180831161181e57829003601f168201915b50505050508152602001600482018054611854906144c9565b80601f0160208091040260200160405190810160405280929190818152602001828054611880906144c9565b80156118cb5780601f106118a2576101008083540402835291602001916118cb565b820191905f5260205f20905b8154815290600101906020018083116118ae57829003601f168201915b50505091835250506005919091015460ff808216602084015261010090910416151560409091015292915050565b6119406040518061012001604052805f81526020015f81526020015f81526020015f81526020015f8152602001606081526020015f81526020015f81526020015f81525090565b60075f8381526020019081526020015f20604051806101200160405290815f82015481526020016001820154815260200160028201548152602001600382015481526020016004820154815260200160058201805461199e906144c9565b80601f01602080910402602001604051908101604052809291908181526020018280546119ca906144c9565b8015611a155780601f106119ec57610100808354040283529160200191611a15565b820191905f5260205f20905b8154815290600101906020018083116119f857829003601f168201915b5050505050815260200160068201548152602001600782015481526020016008820154815250509050919050565b60098054905f611a5283614515565b90915550506040805160e08101825260095481526001600160a01b0388811660208084019182528385018a8152606085018a90526080850189905260ff881660a086015286151560c08601525f8d8152600292839052959095208451815591516001830180546001600160a01b0319169190941617909255925191929190820190611add908261458f565b5060608201516003820190611af2908261458f565b5060808201516004820190611b07908261458f565b5060a08201516005909101805460c09093015115156101000261ffff1990931660ff909216919091179190911790555050506001600160a01b039092165f908152600660205260409020624c4b409055505050565b600160208181525f928352604092839020805492810154845160e081018652600283018054825260038401546001600160a01b03169482019490945260048301805495969295939491939192840191611bb4906144c9565b80601f0160208091040260200160405190810160405280929190818152602001828054611be0906144c9565b8015611c2b5780601f10611c0257610100808354040283529160200191611c2b565b820191905f5260205f20905b815481529060010190602001808311611c0e57829003601f168201915b50505050508152602001600382018054611c44906144c9565b80601f0160208091040260200160405190810160405280929190818152602001828054611c70906144c9565b8015611cbb5780601f10611c9257610100808354040283529160200191611cbb565b820191905f5260205f20905b815481529060010190602001808311611c9e57829003601f168201915b50505050508152602001600482018054611cd4906144c9565b80601f0160208091040260200160405190810160405280929190818152602001828054611d00906144c9565b8015611d4b5780601f10611d2257610100808354040283529160200191611d4b565b820191905f5260205f20905b815481529060010190602001808311611d2e57829003601f168201915b50505091835250506005919091015460ff808216602080850191909152610100909204161515604092830152815160e081018352600885018054825260098601546001600160a01b031692820192909252600a850180549495949193840191611db3906144c9565b80601f0160208091040260200160405190810160405280929190818152602001828054611ddf906144c9565b8015611e2a5780601f10611e0157610100808354040283529160200191611e2a565b820191905f5260205f20905b815481529060010190602001808311611e0d57829003601f168201915b50505050508152602001600382018054611e43906144c9565b80601f0160208091040260200160405190810160405280929190818152602001828054611e6f906144c9565b8015611eba5780601f10611e9157610100808354040283529160200191611eba565b820191905f5260205f20905b815481529060010190602001808311611e9d57829003601f168201915b50505050508152602001600482018054611ed3906144c9565b80601f0160208091040260200160405190810160405280929190818152602001828054611eff906144c9565b8015611f4a5780601f10611f2157610100808354040283529160200191611f4a565b820191905f5260205f20905b815481529060010190602001808311611f2d57829003601f168201915b50505091835250506005919091015460ff8082166020840152610100909104161515604090910152600e82018054919291611f84906144c9565b80601f0160208091040260200160405190810160405280929190818152602001828054611fb0906144c9565b8015611ffb5780601f10611fd257610100808354040283529160200191611ffb565b820191905f5260205f20905b815481529060010190602001808311611fde57829003601f168201915b50505050509080600f0154905086565b60408051610120810182525f8781526020818152838220600e810154808552600f82015483860152601090910154948401859052898352919052909160608301916120569190614645565b81525f878152602081815260409091206010810154600f90910154919092019161207f91614645565b815260208082018790526040808301879052606080840187905260809384018690525f8a81526007845282902085518155928501516001840155908401516002830155830151600382015590820151600482015560a082015160058201906120e7908261458f565b5060c0820151600682015560e08201516007820155610100909101516008909101555050505050565b612118613b43565b600a8054905f61212783614515565b90915550506040805160c081018252600a548082524260208084019182528385018a8152606085018a90526080850189905260a085018890525f938452600180835293869020855181559251938301939093559151805160028301908155928101516003830180546001600160a01b0319166001600160a01b03909216919091179055938401519293909290919060048401906121c4908261458f565b50606082015160038201906121d9908261458f565b50608082015160048201906121ee908261458f565b5060a08201516005909101805460c09093015115156101000261ffff1990931660ff90921691909117919091179055606082015180516008830190815560208201516009840180546001600160a01b039092166001600160a01b03199092169190911790556040820151600a840190612267908261458f565b506060820151600382019061227c908261458f565b5060808201516004820190612291908261458f565b5060a08201516005909101805460c09093015115156101000261ffff1990931660ff909216919091179190911790556080820151600e8201906122d4908261458f565b5060a09190910151600f909101556020808601516001600160a01b039081165f90815260048084526040808320600a54845260018087529184208154808401835591855295909320855460109094020192835584810154908301556002808501805491840191825560038087015490850180546001600160a01b0319169190961617909455919291908381019061236d90860182614662565b5060038181019061238090840182614662565b5060048181019061239390840182614662565b506005918201805491909201805460ff19811660ff9384169081178355935461010090819004909316151590920261ffff199092169092171790556008828101805491830191825560098085015490840180546001600160a01b0319166001600160a01b0390921691909117905590600a8084019061241490860182614662565b5060038181019061242790840182614662565b5060048181019061243a90840182614662565b506005918201805491909201805460ff92831660ff19821681178355935461ffff19909116909317610100938490049092161515909202179055600e8181019061248690840182614662565b50600f918201549101556020808501516001600160a01b039081165f908152600583526040808220600a54835260018086529183208154808401835591845294909220845460109093020191825583810154908201556002808401805491830191825560038086015490840180546001600160a01b031916919095161790935590919060048084019061251b90860182614662565b5060038181019061252e90840182614662565b5060048181019061254190840182614662565b506005918201805491909201805460ff19811660ff9384169081178355935461010090819004909316151590920261ffff199092169092171790556008828101805491830191825560098085015490840180546001600160a01b0319166001600160a01b0390921691909117905590600a808401906125c290860182614662565b506003818101906125d590840182614662565b506004818101906125e890840182614662565b506005918201805491909201805460ff92831660ff19821681178355935461ffff19909116909317610100938490049092161515909202179055600e8181019061263490840182614662565b50600f91820154910155600a545f90815260016020818152604092839020835160c081018552815481529281015483830152835160e081018552600282018054825260038301546001600160a01b03169382019390935260048201805494959294868401949293840191906126a8906144c9565b80601f01602080910402602001604051908101604052809291908181526020018280546126d4906144c9565b801561271f5780601f106126f65761010080835404028352916020019161271f565b820191905f5260205f20905b81548152906001019060200180831161270257829003601f168201915b50505050508152602001600382018054612738906144c9565b80601f0160208091040260200160405190810160405280929190818152602001828054612764906144c9565b80156127af5780601f10612786576101008083540402835291602001916127af565b820191905f5260205f20905b81548152906001019060200180831161279257829003601f168201915b505050505081526020016004820180546127c8906144c9565b80601f01602080910402602001604051908101604052809291908181526020018280546127f4906144c9565b801561283f5780601f106128165761010080835404028352916020019161283f565b820191905f5260205f20905b81548152906001019060200180831161282257829003601f168201915b50505091835250506005919091015460ff808216602080850191909152610100909204161515604092830152918352805160e081018252600885018054825260098601546001600160a01b031682850152600a860180549590940194919390928401916128ab906144c9565b80601f01602080910402602001604051908101604052809291908181526020018280546128d7906144c9565b80156129225780601f106128f957610100808354040283529160200191612922565b820191905f5260205f20905b81548152906001019060200180831161290557829003601f168201915b5050505050815260200160038201805461293b906144c9565b80601f0160208091040260200160405190810160405280929190818152602001828054612967906144c9565b80156129b25780601f10612989576101008083540402835291602001916129b2565b820191905f5260205f20905b81548152906001019060200180831161299557829003601f168201915b505050505081526020016004820180546129cb906144c9565b80601f01602080910402602001604051908101604052809291908181526020018280546129f7906144c9565b8015612a425780601f10612a1957610100808354040283529160200191612a42565b820191905f5260205f20905b815481529060010190602001808311612a2557829003601f168201915b50505091835250506005919091015460ff808216602080850191909152610100909204161515604090920191909152908252600e830180549290910191612a88906144c9565b80601f0160208091040260200160405190810160405280929190818152602001828054612ab4906144c9565b8015612aff5780601f10612ad657610100808354040283529160200191612aff565b820191905f5260205f20905b815481529060010190602001808311612ae257829003601f168201915b50505050508152602001600f820154815250509050949350505050565b612b24613bc9565b60088054905f612b3383614515565b9091555050604080516101408101825260085480825260208083018e81528385018e9052606084018d9052608084018c905260a084018b905260c084018a905260e0840189905261010084018890528615156101208501525f92835282825291849020835181559151805160018401908155918101516002840180546001600160a01b0319166001600160a01b0390921691909117905593840151929391926003840190612be1908261458f565b5060608201516003820190612bf6908261458f565b5060808201516004820190612c0b908261458f565b5060a08201516005909101805460c09093015115156101000261ffff1990931660ff9092169190911791909117905560408281015180516007840190815560208201516008850180546001600160a01b039092166001600160a01b0319909216919091179055918101519091906009840190612c87908261458f565b5060608201516003820190612c9c908261458f565b5060808201516004820190612cb1908261458f565b5060a082810151600592909201805460c09485015160ff90941661ffff199091161761010093151584021790556060850151600d8501556080850151600e850155840151600f84015590830151601083015560e083015160118301558201516012820190612d1f908261458f565b5061012091909101516013909101805491151560ff199092169190911790556020808b01516001600160a01b039081165f908152600380845260408083206008548452838652908320815460018181018455928552959093208354601490960201948555828101805491860191825560028085015490870180546001600160a01b0319169190961617909455919392919083810190612dc090860182614662565b50600381810190612dd390840182614662565b50600481810190612de690840182614662565b506005918201805491909201805460ff19811660ff9384169081178355935461010090819004909316151590920261ffff199092169092171790556007828101805491830191825560088085015490840180546001600160a01b0319166001600160a01b0390921691909117905590600980840190612e6790860182614662565b50600381810190612e7a90840182614662565b50600481810190612e8d90840182614662565b506005918201805491909201805460ff92831660ff19821681178355935461ffff19909116909317610100938490049092161515909202179055600d8281015490820155600e8083015490820155600f80830154908201556010808301549082015560118083015490820155601280820190612f0b90840182614662565b506013918201549101805460ff909216151560ff199092169190911790556020808a01516001600160a01b039081165f908152600380845260408083206008548452838652908320815460018181018455928552959093208354601490960201948555828101805491860191825560028085015490870180546001600160a01b0319169190961617909455919392919083810190612fab90860182614662565b50600381810190612fbe90840182614662565b50600481810190612fd190840182614662565b506005918201805491909201805460ff19811660ff9384169081178355935461010090819004909316151590920261ffff199092169092171790556007828101805491830191825560088085015490840180546001600160a01b0319166001600160a01b039092169190911790559060098084019061305290860182614662565b5060038181019061306590840182614662565b5060048181019061307890840182614662565b506005918201805491909201805460ff92831660ff19821681178355935461ffff19909116909317610100938490049092161515909202179055600d8281015490820155600e8083015490820155600f808301549082015560108083015490820155601180830154908201556012808201906130f690840182614662565b506013918201549101805460ff191660ff90921615159190911790556008545f908152602081815260409182902082516101408101845281548152835160e081018552600183018054825260028401546001600160a01b0316828601526003840180549396949587019492939192840191613170906144c9565b80601f016020809104026020016040519081016040528092919081815260200182805461319c906144c9565b80156131e75780601f106131be576101008083540402835291602001916131e7565b820191905f5260205f20905b8154815290600101906020018083116131ca57829003601f168201915b50505050508152602001600382018054613200906144c9565b80601f016020809104026020016040519081016040528092919081815260200182805461322c906144c9565b80156132775780601f1061324e57610100808354040283529160200191613277565b820191905f5260205f20905b81548152906001019060200180831161325a57829003601f168201915b50505050508152602001600482018054613290906144c9565b80601f01602080910402602001604051908101604052809291908181526020018280546132bc906144c9565b80156133075780601f106132de57610100808354040283529160200191613307565b820191905f5260205f20905b8154815290600101906020018083116132ea57829003601f168201915b50505091835250506005919091015460ff808216602080850191909152610100909204161515604092830152918352805160e081018252600785018054825260088601546001600160a01b031682850152600986018054959094019491939092840191613373906144c9565b80601f016020809104026020016040519081016040528092919081815260200182805461339f906144c9565b80156133ea5780601f106133c1576101008083540402835291602001916133ea565b820191905f5260205f20905b8154815290600101906020018083116133cd57829003601f168201915b50505050508152602001600382018054613403906144c9565b80601f016020809104026020016040519081016040528092919081815260200182805461342f906144c9565b801561347a5780601f106134515761010080835404028352916020019161347a565b820191905f5260205f20905b81548152906001019060200180831161345d57829003601f168201915b50505050508152602001600482018054613493906144c9565b80601f01602080910402602001604051908101604052809291908181526020018280546134bf906144c9565b801561350a5780601f106134e15761010080835404028352916020019161350a565b820191905f5260205f20905b8154815290600101906020018083116134ed57829003601f168201915b50505091835250506005919091015460ff808216602080850191909152610100909204161515604092830152918352600d84015491830191909152600e83015490820152600f820154606082015260108201546080820152601182015460a082015260128201805460c090920191613581906144c9565b80601f01602080910402602001604051908101604052809291908181526020018280546135ad906144c9565b80156135f85780601f106135cf576101008083540402835291602001916135f8565b820191905f5260205f20905b8154815290600101906020018083116135db57829003601f168201915b50505091835250506013919091015460ff1615156020909101529a9950505050505050505050565b6001600160a01b0381165f908152600460209081526040808320805482518185028101850190935280835260609492939192909184015b82821015610ced575f8481526020908190206040805160c0810182526010860290920180548352600181015483850152815160e081018352600282018054825260038301546001600160a01b0316958201959095526004820180549495929486850194929392840191906136ca906144c9565b80601f01602080910402602001604051908101604052809291908181526020018280546136f6906144c9565b80156137415780601f1061371857610100808354040283529160200191613741565b820191905f5260205f20905b81548152906001019060200180831161372457829003601f168201915b5050505050815260200160038201805461375a906144c9565b80601f0160208091040260200160405190810160405280929190818152602001828054613786906144c9565b80156137d15780601f106137a8576101008083540402835291602001916137d1565b820191905f5260205f20905b8154815290600101906020018083116137b457829003601f168201915b505050505081526020016004820180546137ea906144c9565b80601f0160208091040260200160405190810160405280929190818152602001828054613816906144c9565b80156138615780601f1061383857610100808354040283529160200191613861565b820191905f5260205f20905b81548152906001019060200180831161384457829003601f168201915b50505091835250506005919091015460ff808216602080850191909152610100909204161515604092830152918352805160e081018252600885018054825260098601546001600160a01b031682850152600a860180549590940194919390928401916138cd906144c9565b80601f01602080910402602001604051908101604052809291908181526020018280546138f9906144c9565b80156139445780601f1061391b57610100808354040283529160200191613944565b820191905f5260205f20905b81548152906001019060200180831161392757829003601f168201915b5050505050815260200160038201805461395d906144c9565b80601f0160208091040260200160405190810160405280929190818152602001828054613989906144c9565b80156139d45780601f106139ab576101008083540402835291602001916139d4565b820191905f5260205f20905b8154815290600101906020018083116139b757829003601f168201915b505050505081526020016004820180546139ed906144c9565b80601f0160208091040260200160405190810160405280929190818152602001828054613a19906144c9565b8015613a645780601f10613a3b57610100808354040283529160200191613a64565b820191905f5260205f20905b815481529060010190602001808311613a4757829003601f168201915b50505091835250506005919091015460ff808216602080850191909152610100909204161515604090920191909152908252600e830180549290910191613aaa906144c9565b80601f0160208091040260200160405190810160405280929190818152602001828054613ad6906144c9565b8015613b215780601f10613af857610100808354040283529160200191613b21565b820191905f5260205f20905b815481529060010190602001808311613b0457829003601f168201915b50505050508152602001600f8201548152505081526020019060010190613657565b6040518060c001604052805f81526020015f8152602001613b62613b82565b8152602001613b6f613b82565b8152602001606081526020015f81525090565b6040518060e001604052805f81526020015f6001600160a01b031681526020016060815260200160608152602001606081526020015f60ff1681526020015f151581525090565b6040518061014001604052805f8152602001613be3613b82565b8152602001613bf0613b82565b81526020015f81526020015f81526020015f81526020015f81526020015f8152602001606081526020015f151581525090565b5f60208284031215613c33575f80fd5b5035919050565b5f81518084525f5b81811015613c5e57602081850181015186830182015201613c42565b505f602082860101526020601f19601f83011685010191505092915050565b8051825260018060a01b0360208201511660208301525f604082015160e06040850152613cad60e0850182613c3a565b905060608301518482036060860152613cc68282613c3a565b91505060808301518482036080860152613ce08282613c3a565b91505060ff60a08401511660a085015260c0830151151560c08501528091505092915050565b80518252602081015160208301525f604082015160c06040850152613d2e60c0850182613c7d565b905060608301518482036060860152613d478282613c7d565b91505060808301518482036080860152613d618282613c3a565b91505060a083015160a08501528091505092915050565b602081525f613d8a6020830184613d06565b9392505050565b80356001600160a01b0381168114613da7575f80fd5b919050565b5f8060408385031215613dbd575f80fd5b613dc683613d91565b946020939093013593505050565b5f60208284031215613de4575f80fd5b613d8a82613d91565b5f610140825184526020830151816020860152613e0c82860182613c7d565b91505060408301518482036040860152613e268282613c7d565b915050606083015160608501526080830151608085015260a083015160a085015260c083015160c085015260e083015160e08501526101008084015185830382870152613e738382613c3a565b9250505061012080840151613e8b8287018215159052565b5090949350505050565b5f602080830181845280855180835260408601915060408160051b87010192508387015f5b82811015613ee857603f19888603018452613ed6858351613ded565b94509285019290850190600101613eba565b5092979650505050505050565b5f6101408c8352806020840152613f0e8184018d613c7d565b90508281036040840152613f22818c613c7d565b90508960608401528860808401528760a08401528660c08401528560e0840152828103610100840152613f558186613c3a565b9150508215156101208301529b9a5050505050505050505050565b5f602080830181845280855180835260408601915060408160051b87010192508387015f5b82811015613ee857603f19888603018452613fb1858351613d06565b94509285019290850190600101613f95565b602081525f613d8a6020830184613c7d565b6020815281516020820152602082015160408201526040820151606082015260608201516080820152608082015160a08201525f60a08301516101208060c0850152614025610140850183613c3a565b60c086015160e08681019190915286015161010080870191909152909501519301929092525090919050565b634e487b7160e01b5f52604160045260245ffd5b60405160e081016001600160401b038111828210171561408757614087614051565b60405290565b5f82601f83011261409c575f80fd5b81356001600160401b03808211156140b6576140b6614051565b604051601f8301601f19908116603f011681019082821181831017156140de576140de614051565b816040528381528660208588010111156140f6575f80fd5b836020870160208301375f602085830101528094505050505092915050565b803560ff81168114613da7575f80fd5b80358015158114613da7575f80fd5b5f805f805f805f60e0888a03121561414a575f80fd5b8735965061415a60208901613d91565b955060408801356001600160401b0380821115614175575f80fd5b6141818b838c0161408d565b965060608a0135915080821115614196575f80fd5b6141a28b838c0161408d565b955060808a01359150808211156141b7575f80fd5b506141c48a828b0161408d565b9350506141d360a08901614115565b91506141e160c08901614125565b905092959891949750929550565b86815285602082015260c060408201525f61420d60c0830187613c7d565b828103606084015261421f8187613c7d565b905082810360808401526142338186613c3a565b9150508260a0830152979650505050505050565b5f805f805f60a0868803121561425b575f80fd5b8535945060208601356001600160401b03811115614277575f80fd5b6142838882890161408d565b959895975050505060408401359360608101359360809091013592509050565b5f60e082840312156142b3575f80fd5b6142bb614065565b9050813581526142cd60208301613d91565b602082015260408201356001600160401b03808211156142eb575f80fd5b6142f78583860161408d565b6040840152606084013591508082111561430f575f80fd5b61431b8583860161408d565b60608401526080840135915080821115614333575f80fd5b506143408482850161408d565b60808301525061435260a08301614115565b60a082015261436360c08301614125565b60c082015292915050565b5f805f8060808587031215614381575f80fd5b84356001600160401b0380821115614397575f80fd5b6143a3888389016142a3565b955060208701359150808211156143b8575f80fd5b6143c4888389016142a3565b945060408701359150808211156143d9575f80fd5b506143e68782880161408d565b949793965093946060013593505050565b5f805f805f805f805f6101208a8c031215614410575f80fd5b89356001600160401b0380821115614426575f80fd5b6144328d838e016142a3565b9a5060208c0135915080821115614447575f80fd5b6144538d838e016142a3565b995060408c0135985060608c0135975060808c0135965060a08c0135955060c08c0135945060e08c013591508082111561448b575f80fd5b506144988c828d0161408d565b9250506144a86101008b01614125565b90509295985092959850929598565b602081525f613d8a6020830184613ded565b600181811c908216806144dd57607f821691505b6020821081036144fb57634e487b7160e01b5f52602260045260245ffd5b50919050565b634e487b7160e01b5f52601160045260245ffd5b5f6001820161452657614526614501565b5060010190565b601f821115614576575f81815260208120601f850160051c810160208610156145535750805b601f850160051c820191505b818110156145725782815560010161455f565b5050505b505050565b5f19600383901b1c191660019190911b1790565b81516001600160401b038111156145a8576145a8614051565b6145bc816145b684546144c9565b8461452d565b602080601f8311600181146145ea575f84156145d85750858301515b6145e2858261457b565b865550614572565b5f85815260208120601f198616915b82811015614618578886015182559484019460019091019084016145f9565b508582101561463557878501515f19600388901b60f8161c191681555b5050505050600190811b01905550565b808202811582820484141761465c5761465c614501565b92915050565b81810361466d575050565b61467782546144c9565b6001600160401b0381111561468e5761468e614051565b61469c816145b684546144c9565b5f601f8211600181146146c8575f83156146b65750848201545b6146c0848261457b565b85555061472a565b5f85815260209020601f198416905f86815260209020845b8381101561470057828601548255600195860195909101906020016146e0565b508583101561471d57818501545f19600388901b60f8161c191681555b50505060018360011b0184555b505050505056fea2646970667358221220cd321bbc697a5ed71677303f6d3f3bfe658975ccdf846d0a972e152a96d487b564736f6c63430008150033",
  "immutableReferences": {},
  "source": "// SPDX-License-Identifier: MIT\r\npragma solidity >=0.4.22 <0.9.0;\r\npragma experimental ABIEncoderV2;\r\nimport \"./SharedStructs.sol\";\r\n\r\ncontract Main {\r\n    mapping(uint256 => SharedStructs.Transaction) public Transactions;\r\n    mapping(uint256 => SharedStructs.Comment) public Comments;\r\n    mapping(bytes32 => SharedStructs.User) private googleIdToUser;\r\n\tmapping(address => SharedStructs.Transaction[]) private userTransactions;\r\n    mapping(address => SharedStructs.Comment[]) private sentComments;\r\n    mapping(address => SharedStructs.Comment[]) private receivedComments;\r\n    mapping(address => uint256) private userTrustScores;\r\n    mapping(uint256 => SharedStructs.Shipping) private transactionShippingDetails;\r\n\tuint256 public transactionCtr = 0;\r\n\tuint256 public userCtr = 0;\r\n    uint256 public commentCtr = 0;\r\n\r\n    function getUser(bytes32 googleIdHash) public view returns (SharedStructs.User memory){\r\n        return googleIdToUser[googleIdHash];\r\n    }\r\n\r\n    function setUser(bytes32 googleIdHash, address ethAddress, string memory email, string memory username, string memory location, uint8 role, bool registered) public {\r\n        userCtr++;\r\n        googleIdToUser[googleIdHash] = SharedStructs.User(userCtr, ethAddress, email, username, location, role, registered);\r\n        userTrustScores[ethAddress] = 5000000;\r\n    }\r\n\r\n    function getTransactions(address ethAddress) public view returns (SharedStructs.Transaction[] memory){\r\n        return userTransactions[ethAddress];\r\n    } \r\n\r\n    function addTransaction(SharedStructs.User memory from, SharedStructs.User memory to, uint256 timestamp, uint256 pricePerUnit, uint256 weightPerUnit, uint256 quantity, uint256 gasUsed, string memory description, bool status) public returns ( SharedStructs.Transaction memory) {\r\n        transactionCtr++;\r\n\t\tTransactions[transactionCtr] = SharedStructs.Transaction(transactionCtr, from, to, timestamp, pricePerUnit, weightPerUnit,  quantity, gasUsed, description, status);\r\n\t\tuserTransactions[from.ethAddress].push(Transactions[transactionCtr]);\r\n        userTransactions[to.ethAddress].push(Transactions[transactionCtr]);\r\n        return Transactions[transactionCtr];\r\n    }\r\n\r\n    function addShippingDetails(uint256 transactionId, string memory shippingPartner, uint256 partnerRating, uint256 estimatedTimeToDelivery, uint256 shippingCharges) public {\r\n        transactionShippingDetails[transactionId] = SharedStructs.Shipping(Transactions[transactionId].pricePerUnit, Transactions[transactionId].weightPerUnit, Transactions[transactionId].quantity, Transactions[transactionId].pricePerUnit*Transactions[transactionId].quantity, Transactions[transactionId].weightPerUnit*Transactions[transactionId].quantity, shippingPartner, partnerRating, estimatedTimeToDelivery, shippingCharges);\r\n    }\r\n\r\n    function getShippingDetails(uint256 transactionId) public view returns (SharedStructs.Shipping memory) {\r\n        return transactionShippingDetails[transactionId];\r\n    }\r\n\r\n    function addComment(SharedStructs.User memory from, SharedStructs.User memory to, string memory comment, uint256 rating) public returns (SharedStructs.Comment memory) {\r\n        commentCtr++;\r\n        Comments[commentCtr] = SharedStructs.Comment(commentCtr, block.timestamp, from, to, comment, rating);\r\n        sentComments[from.ethAddress].push(Comments[commentCtr]);\r\n        receivedComments[to.ethAddress].push(Comments[commentCtr]);\r\n        return Comments[commentCtr];\r\n    }\r\n\r\n    function getComment(uint256 commentId) public view returns (SharedStructs.Comment memory){\r\n        return Comments[commentId];\r\n    }\r\n\r\n    function getUserSentComments(address ethAddress) public view returns (SharedStructs.Comment[] memory){\r\n        return sentComments[ethAddress];\r\n    }\r\n\r\n    function getUserReceivedComments(address ethAddress) public view returns (SharedStructs.Comment[] memory){\r\n        return receivedComments[ethAddress];\r\n    }\r\n\r\n    function getUserTrustScore(address ethAddress) public view returns (uint256){\r\n        return userTrustScores[ethAddress];\r\n    }\r\n\r\n    function setUserTrustScore(address ethAddress, uint256 newScore) public {\r\n        userTrustScores[ethAddress] = newScore;\r\n    }\r\n}",
  "sourcePath": "C:\\Users\\hl-laptop\\Desktop\\testgoogleauth\\contracts\\Main.sol",
  "compiler": {
    "name": "solc",
    "version": "0.8.21+commit.d9974bed.Emscripten.clang"
  },
  "schemaVersion": "3.4.16",
  "updatedAt": "2025-03-07T22:13:15.657Z",
  "networkType": "ethereum",
  "devdoc": {
    "kind": "dev",
    "methods": {},
    "version": 1
  },
  "userdoc": {
    "kind": "user",
    "methods": {},
    "version": 1
  }
}