{
  "contractName": "Manufacturer",
  "abi": [
    {
      "inputs": [
        {
          "internalType": "address",
          "name": "mainAddress",
          "type": "address"
        },
        {
          "internalType": "address",
          "name": "rmsAddress",
          "type": "address"
        }
      ],
      "stateMutability": "nonpayable",
      "type": "constructor"
    },
    {
      "anonymous": false,
      "inputs": [
        {
          "indexed": false,
          "internalType": "uint256",
          "name": "productId",
          "type": "uint256"
        }
      ],
      "name": "getProductId",
      "type": "event"
    },
    {
      "inputs": [
        {
          "internalType": "string",
          "name": "name",
          "type": "string"
        },
        {
          "internalType": "uint256",
          "name": "quantity",
          "type": "uint256"
        },
        {
          "internalType": "string",
          "name": "description",
          "type": "string"
        },
        {
          "internalType": "uint256",
          "name": "pricePerUnit",
          "type": "uint256"
        },
        {
          "internalType": "uint256",
          "name": "weightPerUnit",
          "type": "uint256"
        },
        {
          "internalType": "uint256[]",
          "name": "rawMaterialIds",
          "type": "uint256[]"
        },
        {
          "internalType": "uint256[]",
          "name": "rawMaterialQuantities",
          "type": "uint256[]"
        },
        {
          "internalType": "bool[]",
          "name": "transactionStatuses",
          "type": "bool[]"
        },
        {
          "internalType": "uint256[]",
          "name": "gasUsed",
          "type": "uint256[]"
        },
        {
          "internalType": "uint256[]",
          "name": "transactionTimestamps",
          "type": "uint256[]"
        },
        {
          "internalType": "bytes32",
          "name": "googleIdHash",
          "type": "bytes32"
        }
      ],
      "name": "addProduct",
      "outputs": [],
      "stateMutability": "nonpayable",
      "type": "function"
    },
    {
      "inputs": [],
      "name": "getAllManufacturedProducts",
      "outputs": [
        {
          "components": [
            {
              "internalType": "uint256",
              "name": "id",
              "type": "uint256"
            },
            {
              "internalType": "uint256",
              "name": "timestamp",
              "type": "uint256"
            },
            {
              "internalType": "string",
              "name": "name",
              "type": "string"
            },
            {
              "internalType": "uint256",
              "name": "quantity",
              "type": "uint256"
            },
            {
              "internalType": "string",
              "name": "description",
              "type": "string"
            },
            {
              "internalType": "uint256",
              "name": "pricePerUnit",
              "type": "uint256"
            },
            {
              "internalType": "uint256",
              "name": "weightPerUnit",
              "type": "uint256"
            },
            {
              "components": [
                {
                  "internalType": "uint256",
                  "name": "id",
                  "type": "uint256"
                },
                {
                  "internalType": "address",
                  "name": "ethAddress",
                  "type": "address"
                },
                {
                  "internalType": "string",
                  "name": "email",
                  "type": "string"
                },
                {
                  "internalType": "string",
                  "name": "username",
                  "type": "string"
                },
                {
                  "internalType": "string",
                  "name": "location",
                  "type": "string"
                },
                {
                  "internalType": "uint8",
                  "name": "role",
                  "type": "uint8"
                },
                {
                  "internalType": "bool",
                  "name": "registered",
                  "type": "bool"
                }
              ],
              "internalType": "struct SharedStructs.User",
              "name": "manufacturingUser",
              "type": "tuple"
            },
            {
              "internalType": "uint256",
              "name": "manufacturedTimestamp",
              "type": "uint256"
            },
            {
              "internalType": "bool",
              "name": "manufactured",
              "type": "bool"
            }
          ],
          "internalType": "struct SharedStructs.Product[]",
          "name": "",
          "type": "tuple[]"
        }
      ],
      "stateMutability": "view",
      "type": "function",
      "constant": true
    },
    {
      "inputs": [
        {
          "internalType": "uint256",
          "name": "productId",
          "type": "uint256"
        }
      ],
      "name": "getProductRawMaterials",
      "outputs": [
        {
          "components": [
            {
              "internalType": "uint256",
              "name": "id",
              "type": "uint256"
            },
            {
              "components": [
                {
                  "internalType": "uint256",
                  "name": "id",
                  "type": "uint256"
                },
                {
                  "internalType": "uint256",
                  "name": "timestamp",
                  "type": "uint256"
                },
                {
                  "internalType": "string",
                  "name": "name",
                  "type": "string"
                },
                {
                  "internalType": "uint256",
                  "name": "quantity",
                  "type": "uint256"
                },
                {
                  "internalType": "string",
                  "name": "description",
                  "type": "string"
                },
                {
                  "internalType": "uint256",
                  "name": "pricePerUnit",
                  "type": "uint256"
                },
                {
                  "internalType": "uint256",
                  "name": "weightPerUnit",
                  "type": "uint256"
                },
                {
                  "components": [
                    {
                      "internalType": "uint256",
                      "name": "id",
                      "type": "uint256"
                    },
                    {
                      "internalType": "address",
                      "name": "ethAddress",
                      "type": "address"
                    },
                    {
                      "internalType": "string",
                      "name": "email",
                      "type": "string"
                    },
                    {
                      "internalType": "string",
                      "name": "username",
                      "type": "string"
                    },
                    {
                      "internalType": "string",
                      "name": "location",
                      "type": "string"
                    },
                    {
                      "internalType": "uint8",
                      "name": "role",
                      "type": "uint8"
                    },
                    {
                      "internalType": "bool",
                      "name": "registered",
                      "type": "bool"
                    }
                  ],
                  "internalType": "struct SharedStructs.User",
                  "name": "registeringUser",
                  "type": "tuple"
                }
              ],
              "internalType": "struct SharedStructs.RawMaterial",
              "name": "rawMaterial",
              "type": "tuple"
            },
            {
              "components": [
                {
                  "internalType": "uint256",
                  "name": "id",
                  "type": "uint256"
                },
                {
                  "internalType": "address",
                  "name": "ethAddress",
                  "type": "address"
                },
                {
                  "internalType": "string",
                  "name": "email",
                  "type": "string"
                },
                {
                  "internalType": "string",
                  "name": "username",
                  "type": "string"
                },
                {
                  "internalType": "string",
                  "name": "location",
                  "type": "string"
                },
                {
                  "internalType": "uint8",
                  "name": "role",
                  "type": "uint8"
                },
                {
                  "internalType": "bool",
                  "name": "registered",
                  "type": "bool"
                }
              ],
              "internalType": "struct SharedStructs.User",
              "name": "buyingUser",
              "type": "tuple"
            },
            {
              "components": [
                {
                  "internalType": "uint256",
                  "name": "id",
                  "type": "uint256"
                },
                {
                  "components": [
                    {
                      "internalType": "uint256",
                      "name": "id",
                      "type": "uint256"
                    },
                    {
                      "internalType": "address",
                      "name": "ethAddress",
                      "type": "address"
                    },
                    {
                      "internalType": "string",
                      "name": "email",
                      "type": "string"
                    },
                    {
                      "internalType": "string",
                      "name": "username",
                      "type": "string"
                    },
                    {
                      "internalType": "string",
                      "name": "location",
                      "type": "string"
                    },
                    {
                      "internalType": "uint8",
                      "name": "role",
                      "type": "uint8"
                    },
                    {
                      "internalType": "bool",
                      "name": "registered",
                      "type": "bool"
                    }
                  ],
                  "internalType": "struct SharedStructs.User",
                  "name": "from",
                  "type": "tuple"
                },
                {
                  "components": [
                    {
                      "internalType": "uint256",
                      "name": "id",
                      "type": "uint256"
                    },
                    {
                      "internalType": "address",
                      "name": "ethAddress",
                      "type": "address"
                    },
                    {
                      "internalType": "string",
                      "name": "email",
                      "type": "string"
                    },
                    {
                      "internalType": "string",
                      "name": "username",
                      "type": "string"
                    },
                    {
                      "internalType": "string",
                      "name": "location",
                      "type": "string"
                    },
                    {
                      "internalType": "uint8",
                      "name": "role",
                      "type": "uint8"
                    },
                    {
                      "internalType": "bool",
                      "name": "registered",
                      "type": "bool"
                    }
                  ],
                  "internalType": "struct SharedStructs.User",
                  "name": "to",
                  "type": "tuple"
                },
                {
                  "internalType": "uint256",
                  "name": "timestamp",
                  "type": "uint256"
                },
                {
                  "internalType": "uint256",
                  "name": "pricePerUnit",
                  "type": "uint256"
                },
                {
                  "internalType": "uint256",
                  "name": "weightPerUnit",
                  "type": "uint256"
                },
                {
                  "internalType": "uint256",
                  "name": "quantity",
                  "type": "uint256"
                },
                {
                  "internalType": "uint256",
                  "name": "gasUsed",
                  "type": "uint256"
                },
                {
                  "internalType": "string",
                  "name": "description",
                  "type": "string"
                },
                {
                  "internalType": "bool",
                  "name": "status",
                  "type": "bool"
                }
              ],
              "internalType": "struct SharedStructs.Transaction",
              "name": "transaction",
              "type": "tuple"
            },
            {
              "internalType": "uint256",
              "name": "receivedTimestamp",
              "type": "uint256"
            },
            {
              "internalType": "bool",
              "name": "received",
              "type": "bool"
            }
          ],
          "internalType": "struct SharedStructs.SoldRawMaterial[]",
          "name": "",
          "type": "tuple[]"
        }
      ],
      "stateMutability": "view",
      "type": "function",
      "constant": true
    },
    {
      "inputs": [
        {
          "internalType": "address",
          "name": "ethAddress",
          "type": "address"
        }
      ],
      "name": "getUserBoughtRawMaterials",
      "outputs": [
        {
          "components": [
            {
              "internalType": "uint256",
              "name": "id",
              "type": "uint256"
            },
            {
              "components": [
                {
                  "internalType": "uint256",
                  "name": "id",
                  "type": "uint256"
                },
                {
                  "internalType": "uint256",
                  "name": "timestamp",
                  "type": "uint256"
                },
                {
                  "internalType": "string",
                  "name": "name",
                  "type": "string"
                },
                {
                  "internalType": "uint256",
                  "name": "quantity",
                  "type": "uint256"
                },
                {
                  "internalType": "string",
                  "name": "description",
                  "type": "string"
                },
                {
                  "internalType": "uint256",
                  "name": "pricePerUnit",
                  "type": "uint256"
                },
                {
                  "internalType": "uint256",
                  "name": "weightPerUnit",
                  "type": "uint256"
                },
                {
                  "components": [
                    {
                      "internalType": "uint256",
                      "name": "id",
                      "type": "uint256"
                    },
                    {
                      "internalType": "address",
                      "name": "ethAddress",
                      "type": "address"
                    },
                    {
                      "internalType": "string",
                      "name": "email",
                      "type": "string"
                    },
                    {
                      "internalType": "string",
                      "name": "username",
                      "type": "string"
                    },
                    {
                      "internalType": "string",
                      "name": "location",
                      "type": "string"
                    },
                    {
                      "internalType": "uint8",
                      "name": "role",
                      "type": "uint8"
                    },
                    {
                      "internalType": "bool",
                      "name": "registered",
                      "type": "bool"
                    }
                  ],
                  "internalType": "struct SharedStructs.User",
                  "name": "registeringUser",
                  "type": "tuple"
                }
              ],
              "internalType": "struct SharedStructs.RawMaterial",
              "name": "rawMaterial",
              "type": "tuple"
            },
            {
              "components": [
                {
                  "internalType": "uint256",
                  "name": "id",
                  "type": "uint256"
                },
                {
                  "internalType": "address",
                  "name": "ethAddress",
                  "type": "address"
                },
                {
                  "internalType": "string",
                  "name": "email",
                  "type": "string"
                },
                {
                  "internalType": "string",
                  "name": "username",
                  "type": "string"
                },
                {
                  "internalType": "string",
                  "name": "location",
                  "type": "string"
                },
                {
                  "internalType": "uint8",
                  "name": "role",
                  "type": "uint8"
                },
                {
                  "internalType": "bool",
                  "name": "registered",
                  "type": "bool"
                }
              ],
              "internalType": "struct SharedStructs.User",
              "name": "buyingUser",
              "type": "tuple"
            },
            {
              "components": [
                {
                  "internalType": "uint256",
                  "name": "id",
                  "type": "uint256"
                },
                {
                  "components": [
                    {
                      "internalType": "uint256",
                      "name": "id",
                      "type": "uint256"
                    },
                    {
                      "internalType": "address",
                      "name": "ethAddress",
                      "type": "address"
                    },
                    {
                      "internalType": "string",
                      "name": "email",
                      "type": "string"
                    },
                    {
                      "internalType": "string",
                      "name": "username",
                      "type": "string"
                    },
                    {
                      "internalType": "string",
                      "name": "location",
                      "type": "string"
                    },
                    {
                      "internalType": "uint8",
                      "name": "role",
                      "type": "uint8"
                    },
                    {
                      "internalType": "bool",
                      "name": "registered",
                      "type": "bool"
                    }
                  ],
                  "internalType": "struct SharedStructs.User",
                  "name": "from",
                  "type": "tuple"
                },
                {
                  "components": [
                    {
                      "internalType": "uint256",
                      "name": "id",
                      "type": "uint256"
                    },
                    {
                      "internalType": "address",
                      "name": "ethAddress",
                      "type": "address"
                    },
                    {
                      "internalType": "string",
                      "name": "email",
                      "type": "string"
                    },
                    {
                      "internalType": "string",
                      "name": "username",
                      "type": "string"
                    },
                    {
                      "internalType": "string",
                      "name": "location",
                      "type": "string"
                    },
                    {
                      "internalType": "uint8",
                      "name": "role",
                      "type": "uint8"
                    },
                    {
                      "internalType": "bool",
                      "name": "registered",
                      "type": "bool"
                    }
                  ],
                  "internalType": "struct SharedStructs.User",
                  "name": "to",
                  "type": "tuple"
                },
                {
                  "internalType": "uint256",
                  "name": "timestamp",
                  "type": "uint256"
                },
                {
                  "internalType": "uint256",
                  "name": "pricePerUnit",
                  "type": "uint256"
                },
                {
                  "internalType": "uint256",
                  "name": "weightPerUnit",
                  "type": "uint256"
                },
                {
                  "internalType": "uint256",
                  "name": "quantity",
                  "type": "uint256"
                },
                {
                  "internalType": "uint256",
                  "name": "gasUsed",
                  "type": "uint256"
                },
                {
                  "internalType": "string",
                  "name": "description",
                  "type": "string"
                },
                {
                  "internalType": "bool",
                  "name": "status",
                  "type": "bool"
                }
              ],
              "internalType": "struct SharedStructs.Transaction",
              "name": "transaction",
              "type": "tuple"
            },
            {
              "internalType": "uint256",
              "name": "receivedTimestamp",
              "type": "uint256"
            },
            {
              "internalType": "bool",
              "name": "received",
              "type": "bool"
            }
          ],
          "internalType": "struct SharedStructs.SoldRawMaterial[]",
          "name": "",
          "type": "tuple[]"
        }
      ],
      "stateMutability": "view",
      "type": "function",
      "constant": true
    },
    {
      "inputs": [
        {
          "internalType": "address",
          "name": "ethAddress",
          "type": "address"
        }
      ],
      "name": "getUserUnsoldProducts",
      "outputs": [
        {
          "components": [
            {
              "internalType": "uint256",
              "name": "id",
              "type": "uint256"
            },
            {
              "internalType": "uint256",
              "name": "timestamp",
              "type": "uint256"
            },
            {
              "internalType": "string",
              "name": "name",
              "type": "string"
            },
            {
              "internalType": "uint256",
              "name": "quantity",
              "type": "uint256"
            },
            {
              "internalType": "string",
              "name": "description",
              "type": "string"
            },
            {
              "internalType": "uint256",
              "name": "pricePerUnit",
              "type": "uint256"
            },
            {
              "internalType": "uint256",
              "name": "weightPerUnit",
              "type": "uint256"
            },
            {
              "components": [
                {
                  "internalType": "uint256",
                  "name": "id",
                  "type": "uint256"
                },
                {
                  "internalType": "address",
                  "name": "ethAddress",
                  "type": "address"
                },
                {
                  "internalType": "string",
                  "name": "email",
                  "type": "string"
                },
                {
                  "internalType": "string",
                  "name": "username",
                  "type": "string"
                },
                {
                  "internalType": "string",
                  "name": "location",
                  "type": "string"
                },
                {
                  "internalType": "uint8",
                  "name": "role",
                  "type": "uint8"
                },
                {
                  "internalType": "bool",
                  "name": "registered",
                  "type": "bool"
                }
              ],
              "internalType": "struct SharedStructs.User",
              "name": "manufacturingUser",
              "type": "tuple"
            },
            {
              "internalType": "uint256",
              "name": "manufacturedTimestamp",
              "type": "uint256"
            },
            {
              "internalType": "bool",
              "name": "manufactured",
              "type": "bool"
            }
          ],
          "internalType": "struct SharedStructs.Product[]",
          "name": "",
          "type": "tuple[]"
        }
      ],
      "stateMutability": "view",
      "type": "function",
      "constant": true
    },
    {
      "inputs": [
        {
          "internalType": "address",
          "name": "ethAddress",
          "type": "address"
        }
      ],
      "name": "getUserSoldProducts",
      "outputs": [
        {
          "components": [
            {
              "internalType": "uint256",
              "name": "id",
              "type": "uint256"
            },
            {
              "components": [
                {
                  "internalType": "uint256",
                  "name": "id",
                  "type": "uint256"
                },
                {
                  "internalType": "uint256",
                  "name": "timestamp",
                  "type": "uint256"
                },
                {
                  "internalType": "string",
                  "name": "name",
                  "type": "string"
                },
                {
                  "internalType": "uint256",
                  "name": "quantity",
                  "type": "uint256"
                },
                {
                  "internalType": "string",
                  "name": "description",
                  "type": "string"
                },
                {
                  "internalType": "uint256",
                  "name": "pricePerUnit",
                  "type": "uint256"
                },
                {
                  "internalType": "uint256",
                  "name": "weightPerUnit",
                  "type": "uint256"
                },
                {
                  "components": [
                    {
                      "internalType": "uint256",
                      "name": "id",
                      "type": "uint256"
                    },
                    {
                      "internalType": "address",
                      "name": "ethAddress",
                      "type": "address"
                    },
                    {
                      "internalType": "string",
                      "name": "email",
                      "type": "string"
                    },
                    {
                      "internalType": "string",
                      "name": "username",
                      "type": "string"
                    },
                    {
                      "internalType": "string",
                      "name": "location",
                      "type": "string"
                    },
                    {
                      "internalType": "uint8",
                      "name": "role",
                      "type": "uint8"
                    },
                    {
                      "internalType": "bool",
                      "name": "registered",
                      "type": "bool"
                    }
                  ],
                  "internalType": "struct SharedStructs.User",
                  "name": "manufacturingUser",
                  "type": "tuple"
                },
                {
                  "internalType": "uint256",
                  "name": "manufacturedTimestamp",
                  "type": "uint256"
                },
                {
                  "internalType": "bool",
                  "name": "manufactured",
                  "type": "bool"
                }
              ],
              "internalType": "struct SharedStructs.Product",
              "name": "product",
              "type": "tuple"
            },
            {
              "components": [
                {
                  "internalType": "uint256",
                  "name": "id",
                  "type": "uint256"
                },
                {
                  "internalType": "address",
                  "name": "ethAddress",
                  "type": "address"
                },
                {
                  "internalType": "string",
                  "name": "email",
                  "type": "string"
                },
                {
                  "internalType": "string",
                  "name": "username",
                  "type": "string"
                },
                {
                  "internalType": "string",
                  "name": "location",
                  "type": "string"
                },
                {
                  "internalType": "uint8",
                  "name": "role",
                  "type": "uint8"
                },
                {
                  "internalType": "bool",
                  "name": "registered",
                  "type": "bool"
                }
              ],
              "internalType": "struct SharedStructs.User",
              "name": "buyingUser",
              "type": "tuple"
            },
            {
              "components": [
                {
                  "internalType": "uint256",
                  "name": "id",
                  "type": "uint256"
                },
                {
                  "components": [
                    {
                      "internalType": "uint256",
                      "name": "id",
                      "type": "uint256"
                    },
                    {
                      "internalType": "address",
                      "name": "ethAddress",
                      "type": "address"
                    },
                    {
                      "internalType": "string",
                      "name": "email",
                      "type": "string"
                    },
                    {
                      "internalType": "string",
                      "name": "username",
                      "type": "string"
                    },
                    {
                      "internalType": "string",
                      "name": "location",
                      "type": "string"
                    },
                    {
                      "internalType": "uint8",
                      "name": "role",
                      "type": "uint8"
                    },
                    {
                      "internalType": "bool",
                      "name": "registered",
                      "type": "bool"
                    }
                  ],
                  "internalType": "struct SharedStructs.User",
                  "name": "from",
                  "type": "tuple"
                },
                {
                  "components": [
                    {
                      "internalType": "uint256",
                      "name": "id",
                      "type": "uint256"
                    },
                    {
                      "internalType": "address",
                      "name": "ethAddress",
                      "type": "address"
                    },
                    {
                      "internalType": "string",
                      "name": "email",
                      "type": "string"
                    },
                    {
                      "internalType": "string",
                      "name": "username",
                      "type": "string"
                    },
                    {
                      "internalType": "string",
                      "name": "location",
                      "type": "string"
                    },
                    {
                      "internalType": "uint8",
                      "name": "role",
                      "type": "uint8"
                    },
                    {
                      "internalType": "bool",
                      "name": "registered",
                      "type": "bool"
                    }
                  ],
                  "internalType": "struct SharedStructs.User",
                  "name": "to",
                  "type": "tuple"
                },
                {
                  "internalType": "uint256",
                  "name": "timestamp",
                  "type": "uint256"
                },
                {
                  "internalType": "uint256",
                  "name": "pricePerUnit",
                  "type": "uint256"
                },
                {
                  "internalType": "uint256",
                  "name": "weightPerUnit",
                  "type": "uint256"
                },
                {
                  "internalType": "uint256",
                  "name": "quantity",
                  "type": "uint256"
                },
                {
                  "internalType": "uint256",
                  "name": "gasUsed",
                  "type": "uint256"
                },
                {
                  "internalType": "string",
                  "name": "description",
                  "type": "string"
                },
                {
                  "internalType": "bool",
                  "name": "status",
                  "type": "bool"
                }
              ],
              "internalType": "struct SharedStructs.Transaction",
              "name": "transaction",
              "type": "tuple"
            },
            {
              "internalType": "uint256",
              "name": "receivedTimestamp",
              "type": "uint256"
            },
            {
              "internalType": "bool",
              "name": "received",
              "type": "bool"
            }
          ],
          "internalType": "struct SharedStructs.SoldProduct[]",
          "name": "",
          "type": "tuple[]"
        }
      ],
      "stateMutability": "view",
      "type": "function",
      "constant": true
    },
    {
      "inputs": [
        {
          "internalType": "uint256",
          "name": "soldRawMaterialId",
          "type": "uint256"
        }
      ],
      "name": "receiveRawMaterial",
      "outputs": [],
      "stateMutability": "nonpayable",
      "type": "function"
    },
    {
      "inputs": [
        {
          "internalType": "uint256",
          "name": "productId",
          "type": "uint256"
        }
      ],
      "name": "manufactureProduct",
      "outputs": [],
      "stateMutability": "nonpayable",
      "type": "function"
    },
    {
      "inputs": [
        {
          "internalType": "uint256",
          "name": "productId",
          "type": "uint256"
        }
      ],
      "name": "getProduct",
      "outputs": [
        {
          "components": [
            {
              "internalType": "uint256",
              "name": "id",
              "type": "uint256"
            },
            {
              "internalType": "uint256",
              "name": "timestamp",
              "type": "uint256"
            },
            {
              "internalType": "string",
              "name": "name",
              "type": "string"
            },
            {
              "internalType": "uint256",
              "name": "quantity",
              "type": "uint256"
            },
            {
              "internalType": "string",
              "name": "description",
              "type": "string"
            },
            {
              "internalType": "uint256",
              "name": "pricePerUnit",
              "type": "uint256"
            },
            {
              "internalType": "uint256",
              "name": "weightPerUnit",
              "type": "uint256"
            },
            {
              "components": [
                {
                  "internalType": "uint256",
                  "name": "id",
                  "type": "uint256"
                },
                {
                  "internalType": "address",
                  "name": "ethAddress",
                  "type": "address"
                },
                {
                  "internalType": "string",
                  "name": "email",
                  "type": "string"
                },
                {
                  "internalType": "string",
                  "name": "username",
                  "type": "string"
                },
                {
                  "internalType": "string",
                  "name": "location",
                  "type": "string"
                },
                {
                  "internalType": "uint8",
                  "name": "role",
                  "type": "uint8"
                },
                {
                  "internalType": "bool",
                  "name": "registered",
                  "type": "bool"
                }
              ],
              "internalType": "struct SharedStructs.User",
              "name": "manufacturingUser",
              "type": "tuple"
            },
            {
              "internalType": "uint256",
              "name": "manufacturedTimestamp",
              "type": "uint256"
            },
            {
              "internalType": "bool",
              "name": "manufactured",
              "type": "bool"
            }
          ],
          "internalType": "struct SharedStructs.Product",
          "name": "",
          "type": "tuple"
        }
      ],
      "stateMutability": "view",
      "type": "function",
      "constant": true
    },
    {
      "inputs": [
        {
          "internalType": "uint256",
          "name": "soldProductId",
          "type": "uint256"
        }
      ],
      "name": "getSoldProduct",
      "outputs": [
        {
          "components": [
            {
              "internalType": "uint256",
              "name": "id",
              "type": "uint256"
            },
            {
              "components": [
                {
                  "internalType": "uint256",
                  "name": "id",
                  "type": "uint256"
                },
                {
                  "internalType": "uint256",
                  "name": "timestamp",
                  "type": "uint256"
                },
                {
                  "internalType": "string",
                  "name": "name",
                  "type": "string"
                },
                {
                  "internalType": "uint256",
                  "name": "quantity",
                  "type": "uint256"
                },
                {
                  "internalType": "string",
                  "name": "description",
                  "type": "string"
                },
                {
                  "internalType": "uint256",
                  "name": "pricePerUnit",
                  "type": "uint256"
                },
                {
                  "internalType": "uint256",
                  "name": "weightPerUnit",
                  "type": "uint256"
                },
                {
                  "components": [
                    {
                      "internalType": "uint256",
                      "name": "id",
                      "type": "uint256"
                    },
                    {
                      "internalType": "address",
                      "name": "ethAddress",
                      "type": "address"
                    },
                    {
                      "internalType": "string",
                      "name": "email",
                      "type": "string"
                    },
                    {
                      "internalType": "string",
                      "name": "username",
                      "type": "string"
                    },
                    {
                      "internalType": "string",
                      "name": "location",
                      "type": "string"
                    },
                    {
                      "internalType": "uint8",
                      "name": "role",
                      "type": "uint8"
                    },
                    {
                      "internalType": "bool",
                      "name": "registered",
                      "type": "bool"
                    }
                  ],
                  "internalType": "struct SharedStructs.User",
                  "name": "manufacturingUser",
                  "type": "tuple"
                },
                {
                  "internalType": "uint256",
                  "name": "manufacturedTimestamp",
                  "type": "uint256"
                },
                {
                  "internalType": "bool",
                  "name": "manufactured",
                  "type": "bool"
                }
              ],
              "internalType": "struct SharedStructs.Product",
              "name": "product",
              "type": "tuple"
            },
            {
              "components": [
                {
                  "internalType": "uint256",
                  "name": "id",
                  "type": "uint256"
                },
                {
                  "internalType": "address",
                  "name": "ethAddress",
                  "type": "address"
                },
                {
                  "internalType": "string",
                  "name": "email",
                  "type": "string"
                },
                {
                  "internalType": "string",
                  "name": "username",
                  "type": "string"
                },
                {
                  "internalType": "string",
                  "name": "location",
                  "type": "string"
                },
                {
                  "internalType": "uint8",
                  "name": "role",
                  "type": "uint8"
                },
                {
                  "internalType": "bool",
                  "name": "registered",
                  "type": "bool"
                }
              ],
              "internalType": "struct SharedStructs.User",
              "name": "buyingUser",
              "type": "tuple"
            },
            {
              "components": [
                {
                  "internalType": "uint256",
                  "name": "id",
                  "type": "uint256"
                },
                {
                  "components": [
                    {
                      "internalType": "uint256",
                      "name": "id",
                      "type": "uint256"
                    },
                    {
                      "internalType": "address",
                      "name": "ethAddress",
                      "type": "address"
                    },
                    {
                      "internalType": "string",
                      "name": "email",
                      "type": "string"
                    },
                    {
                      "internalType": "string",
                      "name": "username",
                      "type": "string"
                    },
                    {
                      "internalType": "string",
                      "name": "location",
                      "type": "string"
                    },
                    {
                      "internalType": "uint8",
                      "name": "role",
                      "type": "uint8"
                    },
                    {
                      "internalType": "bool",
                      "name": "registered",
                      "type": "bool"
                    }
                  ],
                  "internalType": "struct SharedStructs.User",
                  "name": "from",
                  "type": "tuple"
                },
                {
                  "components": [
                    {
                      "internalType": "uint256",
                      "name": "id",
                      "type": "uint256"
                    },
                    {
                      "internalType": "address",
                      "name": "ethAddress",
                      "type": "address"
                    },
                    {
                      "internalType": "string",
                      "name": "email",
                      "type": "string"
                    },
                    {
                      "internalType": "string",
                      "name": "username",
                      "type": "string"
                    },
                    {
                      "internalType": "string",
                      "name": "location",
                      "type": "string"
                    },
                    {
                      "internalType": "uint8",
                      "name": "role",
                      "type": "uint8"
                    },
                    {
                      "internalType": "bool",
                      "name": "registered",
                      "type": "bool"
                    }
                  ],
                  "internalType": "struct SharedStructs.User",
                  "name": "to",
                  "type": "tuple"
                },
                {
                  "internalType": "uint256",
                  "name": "timestamp",
                  "type": "uint256"
                },
                {
                  "internalType": "uint256",
                  "name": "pricePerUnit",
                  "type": "uint256"
                },
                {
                  "internalType": "uint256",
                  "name": "weightPerUnit",
                  "type": "uint256"
                },
                {
                  "internalType": "uint256",
                  "name": "quantity",
                  "type": "uint256"
                },
                {
                  "internalType": "uint256",
                  "name": "gasUsed",
                  "type": "uint256"
                },
                {
                  "internalType": "string",
                  "name": "description",
                  "type": "string"
                },
                {
                  "internalType": "bool",
                  "name": "status",
                  "type": "bool"
                }
              ],
              "internalType": "struct SharedStructs.Transaction",
              "name": "transaction",
              "type": "tuple"
            },
            {
              "internalType": "uint256",
              "name": "receivedTimestamp",
              "type": "uint256"
            },
            {
              "internalType": "bool",
              "name": "received",
              "type": "bool"
            }
          ],
          "internalType": "struct SharedStructs.SoldProduct",
          "name": "",
          "type": "tuple"
        }
      ],
      "stateMutability": "view",
      "type": "function",
      "constant": true
    },
    {
      "inputs": [
        {
          "internalType": "uint256",
          "name": "productId",
          "type": "uint256"
        },
        {
          "internalType": "uint256",
          "name": "quantity",
          "type": "uint256"
        }
      ],
      "name": "decreaseProduct",
      "outputs": [],
      "stateMutability": "nonpayable",
      "type": "function"
    },
    {
      "inputs": [
        {
          "internalType": "address",
          "name": "ethAddress",
          "type": "address"
        },
        {
          "internalType": "uint256",
          "name": "productId",
          "type": "uint256"
        }
      ],
      "name": "removeUnsoldProduct",
      "outputs": [],
      "stateMutability": "nonpayable",
      "type": "function"
    },
    {
      "inputs": [
        {
          "internalType": "uint256",
          "name": "productId",
          "type": "uint256"
        },
        {
          "internalType": "uint256",
          "name": "quantity",
          "type": "uint256"
        },
        {
          "components": [
            {
              "internalType": "uint256",
              "name": "id",
              "type": "uint256"
            },
            {
              "internalType": "address",
              "name": "ethAddress",
              "type": "address"
            },
            {
              "internalType": "string",
              "name": "email",
              "type": "string"
            },
            {
              "internalType": "string",
              "name": "username",
              "type": "string"
            },
            {
              "internalType": "string",
              "name": "location",
              "type": "string"
            },
            {
              "internalType": "uint8",
              "name": "role",
              "type": "uint8"
            },
            {
              "internalType": "bool",
              "name": "registered",
              "type": "bool"
            }
          ],
          "internalType": "struct SharedStructs.User",
          "name": "buyingUser",
          "type": "tuple"
        },
        {
          "components": [
            {
              "internalType": "uint256",
              "name": "id",
              "type": "uint256"
            },
            {
              "components": [
                {
                  "internalType": "uint256",
                  "name": "id",
                  "type": "uint256"
                },
                {
                  "internalType": "address",
                  "name": "ethAddress",
                  "type": "address"
                },
                {
                  "internalType": "string",
                  "name": "email",
                  "type": "string"
                },
                {
                  "internalType": "string",
                  "name": "username",
                  "type": "string"
                },
                {
                  "internalType": "string",
                  "name": "location",
                  "type": "string"
                },
                {
                  "internalType": "uint8",
                  "name": "role",
                  "type": "uint8"
                },
                {
                  "internalType": "bool",
                  "name": "registered",
                  "type": "bool"
                }
              ],
              "internalType": "struct SharedStructs.User",
              "name": "from",
              "type": "tuple"
            },
            {
              "components": [
                {
                  "internalType": "uint256",
                  "name": "id",
                  "type": "uint256"
                },
                {
                  "internalType": "address",
                  "name": "ethAddress",
                  "type": "address"
                },
                {
                  "internalType": "string",
                  "name": "email",
                  "type": "string"
                },
                {
                  "internalType": "string",
                  "name": "username",
                  "type": "string"
                },
                {
                  "internalType": "string",
                  "name": "location",
                  "type": "string"
                },
                {
                  "internalType": "uint8",
                  "name": "role",
                  "type": "uint8"
                },
                {
                  "internalType": "bool",
                  "name": "registered",
                  "type": "bool"
                }
              ],
              "internalType": "struct SharedStructs.User",
              "name": "to",
              "type": "tuple"
            },
            {
              "internalType": "uint256",
              "name": "timestamp",
              "type": "uint256"
            },
            {
              "internalType": "uint256",
              "name": "pricePerUnit",
              "type": "uint256"
            },
            {
              "internalType": "uint256",
              "name": "weightPerUnit",
              "type": "uint256"
            },
            {
              "internalType": "uint256",
              "name": "quantity",
              "type": "uint256"
            },
            {
              "internalType": "uint256",
              "name": "gasUsed",
              "type": "uint256"
            },
            {
              "internalType": "string",
              "name": "description",
              "type": "string"
            },
            {
              "internalType": "bool",
              "name": "status",
              "type": "bool"
            }
          ],
          "internalType": "struct SharedStructs.Transaction",
          "name": "newTransaction",
          "type": "tuple"
        },
        {
          "internalType": "bool",
          "name": "received",
          "type": "bool"
        }
      ],
      "name": "addSoldProduct",
      "outputs": [
        {
          "internalType": "uint256",
          "name": "",
          "type": "uint256"
        }
      ],
      "stateMutability": "nonpayable",
      "type": "function"
    },
    {
      "inputs": [
        {
          "internalType": "uint256",
          "name": "productId",
          "type": "uint256"
        }
      ],
      "name": "removeProduct",
      "outputs": [],
      "stateMutability": "nonpayable",
      "type": "function"
    },
    {
      "inputs": [
        {
          "internalType": "uint256",
          "name": "soldProductId",
          "type": "uint256"
        }
      ],
      "name": "setProductReceived",
      "outputs": [],
      "stateMutability": "nonpayable",
      "type": "function"
    }
  ],
  "bytecode": "0x60806040525f6009555f600a5534801562000018575f80fd5b5060405162004fbe38038062004fbe8339810160408190526200003b9162000088565b5f80546001600160a01b039384166001600160a01b03199182161790915560018054929093169116179055620000be565b80516001600160a01b038116811462000083575f80fd5b919050565b5f80604083850312156200009a575f80fd5b620000a5836200006c565b9150620000b5602084016200006c565b90509250929050565b614ef280620000cc5f395ff3fe608060405234801561000f575f80fd5b50600436106100c3575f3560e01c806313051774146100c75780631d6e8549146100f05780632181e6f414610125578063354ed4f0146101385780633774ec3f146101585780635ee95cae1461016b5780636467a6d51461019057806377c933e9146101c357806396b1086a146101d657806397ad2399146101e9578063aa7f6e0b1461020a578063b957e0691461022a578063b9db15b41461023f578063c1de34121461025f578063e3946d6714610272575b5f80fd5b6100da6100d5366004613c97565b610285565b6040516100e79190613f49565b60405180910390f35b6101236100fe366004613fa9565b5f908152600860205260409020602b8101805460ff1916600117905542602a90910155565b005b610123610133366004613fa9565b610e5f565b61014b610146366004613fa9565b610ebb565b6040516100e79190613fc0565b610123610166366004613fd2565b6119a7565b610123610179366004613fa9565b5f908152600760205260409020805460ff19169055565b61012361019e366004613fa9565b5f908152600660205260409020600e8101805460ff1916600117905542600d90910155565b6101236101d1366004614246565b611a71565b6101236101e4366004614383565b612239565b6101fc6101f7366004614487565b612262565b6040519081526020016100e7565b61021d610218366004613c97565b612a56565b6040516100e791906145cf565b610232612bb6565b6040516100e79190614714565b61025261024d366004613fa9565b61303c565b6040516100e79190614767565b61021d61026d366004613fa9565b6133eb565b610232610280366004613c97565b613534565b6001600160a01b0381165f90815260036020526040812054606091906001600160401b038111156102b8576102b8613ffc565b6040519080825280602002602001820160405280156102f157816020015b6102de613aef565b8152602001906001900390816102d65790505b5090505f5b6001600160a01b0384165f90815260036020526040902054811015610e58576001600160a01b0384165f908152600360205260408120805460089291908490811061034357610343614779565b905f5260205f20015481526020019081526020015f206040518060c00160405290815f820154815260200160018201604051806101400160405290815f8201548152602001600182015481526020016002820180546103a19061478d565b80601f01602080910402602001604051908101604052809291908181526020018280546103cd9061478d565b80156104185780601f106103ef57610100808354040283529160200191610418565b820191905f5260205f20905b8154815290600101906020018083116103fb57829003601f168201915b505050505081526020016003820154815260200160048201805461043b9061478d565b80601f01602080910402602001604051908101604052809291908181526020018280546104679061478d565b80156104b25780601f10610489576101008083540402835291602001916104b2565b820191905f5260205f20905b81548152906001019060200180831161049557829003601f168201915b505050505081526020016005820154815260200160068201548152602001600782016040518060e00160405290815f8201548152602001600182015f9054906101000a90046001600160a01b03166001600160a01b03166001600160a01b031681526020016002820180546105269061478d565b80601f01602080910402602001604051908101604052809291908181526020018280546105529061478d565b801561059d5780601f106105745761010080835404028352916020019161059d565b820191905f5260205f20905b81548152906001019060200180831161058057829003601f168201915b505050505081526020016003820180546105b69061478d565b80601f01602080910402602001604051908101604052809291908181526020018280546105e29061478d565b801561062d5780601f106106045761010080835404028352916020019161062d565b820191905f5260205f20905b81548152906001019060200180831161061057829003601f168201915b505050505081526020016004820180546106469061478d565b80601f01602080910402602001604051908101604052809291908181526020018280546106729061478d565b80156106bd5780601f10610694576101008083540402835291602001916106bd565b820191905f5260205f20905b8154815290600101906020018083116106a057829003601f168201915b50505091835250506005919091015460ff80821660208085019190915261010090920481161515604093840152928452600d85015484820152600e90940154909116151591810191909152918352815160e081018352601085018054825260118601546001600160a01b031682840152601286018054959093019491939092908401916107499061478d565b80601f01602080910402602001604051908101604052809291908181526020018280546107759061478d565b80156107c05780601f10610797576101008083540402835291602001916107c0565b820191905f5260205f20905b8154815290600101906020018083116107a357829003601f168201915b505050505081526020016003820180546107d99061478d565b80601f01602080910402602001604051908101604052809291908181526020018280546108059061478d565b80156108505780601f1061082757610100808354040283529160200191610850565b820191905f5260205f20905b81548152906001019060200180831161083357829003601f168201915b505050505081526020016004820180546108699061478d565b80601f01602080910402602001604051908101604052809291908181526020018280546108959061478d565b80156108e05780601f106108b7576101008083540402835291602001916108e0565b820191905f5260205f20905b8154815290600101906020018083116108c357829003601f168201915b50505091835250506005919091015460ff8082166020808501919091526101009092041615156040928301529183528051610140810182526016850180548252825160e081018452601787018054825260188801546001600160a01b03168287015260198801805497870197949693959387019492939192918401916109659061478d565b80601f01602080910402602001604051908101604052809291908181526020018280546109919061478d565b80156109dc5780601f106109b3576101008083540402835291602001916109dc565b820191905f5260205f20905b8154815290600101906020018083116109bf57829003601f168201915b505050505081526020016003820180546109f59061478d565b80601f0160208091040260200160405190810160405280929190818152602001828054610a219061478d565b8015610a6c5780601f10610a4357610100808354040283529160200191610a6c565b820191905f5260205f20905b815481529060010190602001808311610a4f57829003601f168201915b50505050508152602001600482018054610a859061478d565b80601f0160208091040260200160405190810160405280929190818152602001828054610ab19061478d565b8015610afc5780601f10610ad357610100808354040283529160200191610afc565b820191905f5260205f20905b815481529060010190602001808311610adf57829003601f168201915b50505091835250506005919091015460ff808216602080850191909152610100909204161515604092830152918352805160e081018252600785018054825260088601546001600160a01b031682850152600986018054959094019491939092840191610b689061478d565b80601f0160208091040260200160405190810160405280929190818152602001828054610b949061478d565b8015610bdf5780601f10610bb657610100808354040283529160200191610bdf565b820191905f5260205f20905b815481529060010190602001808311610bc257829003601f168201915b50505050508152602001600382018054610bf89061478d565b80601f0160208091040260200160405190810160405280929190818152602001828054610c249061478d565b8015610c6f5780601f10610c4657610100808354040283529160200191610c6f565b820191905f5260205f20905b815481529060010190602001808311610c5257829003601f168201915b50505050508152602001600482018054610c889061478d565b80601f0160208091040260200160405190810160405280929190818152602001828054610cb49061478d565b8015610cff5780601f10610cd657610100808354040283529160200191610cff565b820191905f5260205f20905b815481529060010190602001808311610ce257829003601f168201915b50505091835250506005919091015460ff808216602080850191909152610100909204161515604092830152918352600d84015491830191909152600e83015490820152600f820154606082015260108201546080820152601182015460a082015260128201805460c090920191610d769061478d565b80601f0160208091040260200160405190810160405280929190818152602001828054610da29061478d565b8015610ded5780601f10610dc457610100808354040283529160200191610ded565b820191905f5260205f20905b815481529060010190602001808311610dd057829003601f168201915b50505091835250506013919091015460ff9081161515602092830152918352602a84015490830152602b9092015490911615156040909101528251839083908110610e3a57610e3a614779565b60200260200101819052508080610e50906147d9565b9150506102f6565b5092915050565b60015460405163799966c960e11b8152600481018390526001600160a01b039091169063f332cd92906024015f604051808303815f87803b158015610ea2575f80fd5b505af1158015610eb4573d5f803e3d5ffd5b5050505050565b610ec3613aef565b60085f8381526020019081526020015f206040518060c00160405290815f820154815260200160018201604051806101400160405290815f820154815260200160018201548152602001600282018054610f1c9061478d565b80601f0160208091040260200160405190810160405280929190818152602001828054610f489061478d565b8015610f935780601f10610f6a57610100808354040283529160200191610f93565b820191905f5260205f20905b815481529060010190602001808311610f7657829003601f168201915b5050505050815260200160038201548152602001600482018054610fb69061478d565b80601f0160208091040260200160405190810160405280929190818152602001828054610fe29061478d565b801561102d5780601f106110045761010080835404028352916020019161102d565b820191905f5260205f20905b81548152906001019060200180831161101057829003601f168201915b505050505081526020016005820154815260200160068201548152602001600782016040518060e00160405290815f8201548152602001600182015f9054906101000a90046001600160a01b03166001600160a01b03166001600160a01b031681526020016002820180546110a19061478d565b80601f01602080910402602001604051908101604052809291908181526020018280546110cd9061478d565b80156111185780601f106110ef57610100808354040283529160200191611118565b820191905f5260205f20905b8154815290600101906020018083116110fb57829003601f168201915b505050505081526020016003820180546111319061478d565b80601f016020809104026020016040519081016040528092919081815260200182805461115d9061478d565b80156111a85780601f1061117f576101008083540402835291602001916111a8565b820191905f5260205f20905b81548152906001019060200180831161118b57829003601f168201915b505050505081526020016004820180546111c19061478d565b80601f01602080910402602001604051908101604052809291908181526020018280546111ed9061478d565b80156112385780601f1061120f57610100808354040283529160200191611238565b820191905f5260205f20905b81548152906001019060200180831161121b57829003601f168201915b50505091835250506005919091015460ff80821660208085019190915261010090920481161515604093840152928452600d85015484820152600e90940154909116151591810191909152918352815160e081018352601085018054825260118601546001600160a01b031682840152601286018054959093019491939092908401916112c49061478d565b80601f01602080910402602001604051908101604052809291908181526020018280546112f09061478d565b801561133b5780601f106113125761010080835404028352916020019161133b565b820191905f5260205f20905b81548152906001019060200180831161131e57829003601f168201915b505050505081526020016003820180546113549061478d565b80601f01602080910402602001604051908101604052809291908181526020018280546113809061478d565b80156113cb5780601f106113a2576101008083540402835291602001916113cb565b820191905f5260205f20905b8154815290600101906020018083116113ae57829003601f168201915b505050505081526020016004820180546113e49061478d565b80601f01602080910402602001604051908101604052809291908181526020018280546114109061478d565b801561145b5780601f106114325761010080835404028352916020019161145b565b820191905f5260205f20905b81548152906001019060200180831161143e57829003601f168201915b50505091835250506005919091015460ff8082166020808501919091526101009092041615156040928301529183528051610140810182526016850180548252825160e081018452601787018054825260188801546001600160a01b03168287015260198801805497870197949693959387019492939192918401916114e09061478d565b80601f016020809104026020016040519081016040528092919081815260200182805461150c9061478d565b80156115575780601f1061152e57610100808354040283529160200191611557565b820191905f5260205f20905b81548152906001019060200180831161153a57829003601f168201915b505050505081526020016003820180546115709061478d565b80601f016020809104026020016040519081016040528092919081815260200182805461159c9061478d565b80156115e75780601f106115be576101008083540402835291602001916115e7565b820191905f5260205f20905b8154815290600101906020018083116115ca57829003601f168201915b505050505081526020016004820180546116009061478d565b80601f016020809104026020016040519081016040528092919081815260200182805461162c9061478d565b80156116775780601f1061164e57610100808354040283529160200191611677565b820191905f5260205f20905b81548152906001019060200180831161165a57829003601f168201915b50505091835250506005919091015460ff808216602080850191909152610100909204161515604092830152918352805160e081018252600785018054825260088601546001600160a01b0316828501526009860180549590940194919390928401916116e39061478d565b80601f016020809104026020016040519081016040528092919081815260200182805461170f9061478d565b801561175a5780601f106117315761010080835404028352916020019161175a565b820191905f5260205f20905b81548152906001019060200180831161173d57829003601f168201915b505050505081526020016003820180546117739061478d565b80601f016020809104026020016040519081016040528092919081815260200182805461179f9061478d565b80156117ea5780601f106117c1576101008083540402835291602001916117ea565b820191905f5260205f20905b8154815290600101906020018083116117cd57829003601f168201915b505050505081526020016004820180546118039061478d565b80601f016020809104026020016040519081016040528092919081815260200182805461182f9061478d565b801561187a5780601f106118515761010080835404028352916020019161187a565b820191905f5260205f20905b81548152906001019060200180831161185d57829003601f168201915b50505091835250506005919091015460ff808216602080850191909152610100909204161515604092830152918352600d84015491830191909152600e83015490820152600f820154606082015260108201546080820152601182015460a082015260128201805460c0909201916118f19061478d565b80601f016020809104026020016040519081016040528092919081815260200182805461191d9061478d565b80156119685780601f1061193f57610100808354040283529160200191611968565b820191905f5260205f20905b81548152906001019060200180831161194b57829003601f168201915b50505091835250506013919091015460ff9081161515602092830152918352602a84015490830152602b90920154909116151560409091015292915050565b6001600160a01b0382165f908152600260205260408120905b8154811015611a6b57828282815481106119dc576119dc614779565b905f5260205f20015403611a5957815482906119fa906001906147f1565b81548110611a0a57611a0a614779565b905f5260205f200154828281548110611a2557611a25614779565b905f5260205f20018190555081805480611a4157611a4161480a565b600190038181905f5260205f20015f90559055611a6b565b80611a63816147d9565b9150506119c0565b50505050565b60098054905f611a80836147d9565b90915550505f8054604051631945d5e760e21b815260048101849052600292916001600160a01b031690636517579c906024015f60405180830381865afa158015611acd573d5f803e3d5ffd5b505050506040513d5f823e601f3d908101601f19168201604052611af49190810190614949565b6020908101516001600160a01b03168252818101929092526040015f908120600954815460018101835591835292822001919091555b8651811015611fe0575f878281518110611b4657611b46614779565b602002602001015190505f878381518110611b6357611b63614779565b602002602001015190505f868481518110611b8057611b80614779565b602002602001015190505f888581518110611b9d57611b9d614779565b602090810291909101015160015460405163172e4fa160e21b8152600481018790529192505f916001600160a01b0390911690635cb93e84906024015f60405180830381865afa158015611bf3573d5f803e3d5ffd5b505050506040513d5f823e601f3d908101601f19168201604052611c1a9190810190614a3c565b90505f611c26866139ca565b604051602001611c369190614a6d565b60408051808303601f19018152908290525f8054631945d5e760e21b8452600484018c9052919350916001600160a01b039091169063e38a88ce908290636517579c906024015f60405180830381865afa158015611c96573d5f803e3d5ffd5b505050506040513d5f823e601f3d908101601f19168201604052611cbd9190810190614949565b8560e001518d8c81518110611cd457611cd4614779565b60200260200101518760a001518860c001518c8c8a8d6040518a63ffffffff1660e01b8152600401611d0e99989796959493929190614ab2565b5f604051808303815f875af1158015611d29573d5f803e3d5ffd5b505050506040513d5f823e601f3d908101601f19168201604052611d509190810190614c05565b6001545f8054604051631945d5e760e21b8152600481018e905293945090926001600160a01b039283169263b3a3f94c928c928c9290911690636517579c906024015f60405180830381865afa158015611dac573d5f803e3d5ffd5b505050506040513d5f823e601f3d908101601f19168201604052611dd39190810190614949565b865f6040518663ffffffff1660e01b8152600401611df5959493929190614c36565b6020604051808303815f875af1158015611e11573d5f803e3d5ffd5b505050506040513d601f19601f82011682018060405250810190611e359190614c7b565b5f8054604051631945d5e760e21b815260048082018f90529394506001600160a01b0390911690636517579c906024015f60405180830381865afa158015611e7f573d5f803e3d5ffd5b505050506040513d5f823e601f3d908101601f19168201604052611ea69190810190614949565b6020908101516001600160a01b0390811683528282019390935260409182015f9081208054600181810183559183529290912090910184905554600954915163286335a760e21b815292169163a18cd69c91611f1091859190600401918252602082015260400190565b5f604051808303815f87803b158015611f27575f80fd5b505af1158015611f39573d5f803e3d5ffd5b5050505083606001515f03611fa257600154604051632d7f9f4160e11b8152600481018a90526001600160a01b0390911690635aff3e82906024015f604051808303815f87803b158015611f8b575f80fd5b505af1158015611f9d573d5f803e3d5ffd5b505050505b6009545f908152600560209081526040822080546001810182559083529120015550869550611fd894508593506147d992505050565b915050611b2a565b5060405180610140016040528060095481526020014281526020018c81526020018b81526020018a81526020018981526020018881526020015f8054906101000a90046001600160a01b03166001600160a01b0316636517579c846040518263ffffffff1660e01b815260040161205991815260200190565b5f60405180830381865afa158015612073573d5f803e3d5ffd5b505050506040513d5f823e601f3d908101601f1916820160405261209a9190810190614949565b81525f6020808301829052604092830182905260095482526006815290829020835181559083015160018201559082015160028201906120da9082614ce0565b5060608201516003820155608082015160048201906120f99082614ce0565b5060a0820151600582015560c0820151600682015560e082015180516007830190815560208201516008840180546001600160a01b0319166001600160a01b03909216919091179055604082015160098401906121569082614ce0565b506060820151600382019061216b9082614ce0565b50608082015160048201906121809082614ce0565b5060a08201516005909101805460c090930151151561010090810261ffff1990941660ff9093169290921792909217909155820151600d82015561012090910151600e909101805491151560ff19928316179055600980545f908152600760205260409081902080549093166001179092555490517f9f77a6057ee46ade99f512aea8d23890b3169c60e99c675c9cb90d5d18628046916122249190815260200190565b60405180910390a15050505050505050505050565b5f82815260066020526040812060030180548392906122599084906147f1565b90915550505050565b600a80545f9182612272836147d9565b91905055505f6040518060c00160405280600a54815260200160065f8a81526020019081526020015f20604051806101400160405290815f8201548152602001600182015481526020016002820180546122cb9061478d565b80601f01602080910402602001604051908101604052809291908181526020018280546122f79061478d565b80156123425780601f1061231957610100808354040283529160200191612342565b820191905f5260205f20905b81548152906001019060200180831161232557829003601f168201915b50505050508152602001600382015481526020016004820180546123659061478d565b80601f01602080910402602001604051908101604052809291908181526020018280546123919061478d565b80156123dc5780601f106123b3576101008083540402835291602001916123dc565b820191905f5260205f20905b8154815290600101906020018083116123bf57829003601f168201915b505050505081526020016005820154815260200160068201548152602001600782016040518060e00160405290815f8201548152602001600182015f9054906101000a90046001600160a01b03166001600160a01b03166001600160a01b031681526020016002820180546124509061478d565b80601f016020809104026020016040519081016040528092919081815260200182805461247c9061478d565b80156124c75780601f1061249e576101008083540402835291602001916124c7565b820191905f5260205f20905b8154815290600101906020018083116124aa57829003601f168201915b505050505081526020016003820180546124e09061478d565b80601f016020809104026020016040519081016040528092919081815260200182805461250c9061478d565b80156125575780601f1061252e57610100808354040283529160200191612557565b820191905f5260205f20905b81548152906001019060200180831161253a57829003601f168201915b505050505081526020016004820180546125709061478d565b80601f016020809104026020016040519081016040528092919081815260200182805461259c9061478d565b80156125e75780601f106125be576101008083540402835291602001916125e7565b820191905f5260205f20905b8154815290600101906020018083116125ca57829003601f168201915b50505091835250506005919091015460ff80821660208085019190915261010090920481161515604093840152928452600d85015484820152600e909401549091161515918101919091529183528281018990528282018890525f606080850182905288151560809095019490945284820180519094018b9052600a54815260088252829020845181559251805160018501908155918101516002850155918201519394508493600384019061269d9082614ce0565b5060608201516003820155608082015160048201906126bc9082614ce0565b5060a0820151600582015560c0820151600682015560e082015180516007830190815560208201516008840180546001600160a01b0319166001600160a01b03909216919091179055604082015160098401906127199082614ce0565b506060820151600382019061272e9082614ce0565b50608082015160048201906127439082614ce0565b5060a0820151600591909101805460c09093015160ff90921661ffff1990931692909217610100911515820217909155820151600d82015561012090910151600e909101805460ff191691151591909117905560408281015180516010840190815560208201516011850180546001600160a01b0319166001600160a01b039092169190911790559181015190919060128401906127e19082614ce0565b50606082015160038201906127f69082614ce0565b506080820151600482019061280b9082614ce0565b5060a08201516005909101805460c09093015115156101000261ffff1990931660ff909216919091179190911790556060820151805160168301908155602080830151805160178601908155918101516018860180546001600160a01b039092166001600160a01b0319909216919091179055604081015190919060198601906128959082614ce0565b50606082015160038201906128aa9082614ce0565b50608082015160048201906128bf9082614ce0565b5060a08201516005909101805460c09093015115156101000261ffff1990931660ff9092169190911791909117905560408281015180516007840190815560208201516008850180546001600160a01b039092166001600160a01b031990921691909117905591810151909190600984019061293b9082614ce0565b50606082015160038201906129509082614ce0565b50608082015160048201906129659082614ce0565b5060a082810151600592909201805460c09485015160ff90941661ffff199091161761010093151584021790556060850151600d8501556080850151600e850155840151600f84015590830151601083015560e0830151601183015582015160128201906129d39082614ce0565b5061012091909101516013909101805491151560ff199283161790556080830151602a83015560a090920151602b90910180549115159190921617905550505f858152600660209081526040808320600801546001600160a01b03168352600382528220600a805482546001810184559285529290932001555495945050505050565b6001600160a01b0381165f90815260046020526040812054606091906001600160401b03811115612a8957612a89613ffc565b604051908082528060200260200182016040528015612ac257816020015b612aaf613b35565b815260200190600190039081612aa75790505b5090505f5b6001600160a01b0384165f90815260046020526040902054811015610e58576001546001600160a01b038581165f9081526004602052604090208054919092169163842141599184908110612b1e57612b1e614779565b905f5260205f2001546040518263ffffffff1660e01b8152600401612b4591815260200190565b5f60405180830381865afa158015612b5f573d5f803e3d5ffd5b505050506040513d5f823e601f3d908101601f19168201604052612b869190810190614d9b565b828281518110612b9857612b98614779565b60200260200101819052508080612bae906147d9565b915050612ac7565b60605f6009546001600160401b03811115612bd357612bd3613ffc565b604051908082528060200260200182016040528015612c0c57816020015b612bf9613b4e565b815260200190600190039081612bf15790505b5090505f60015b6009548111613034575f8181526007602052604090205460ff161515600103613022575f818152600660205260409020600e015460ff1615156001036130225760065f8281526020019081526020015f20604051806101400160405290815f820154815260200160018201548152602001600282018054612c939061478d565b80601f0160208091040260200160405190810160405280929190818152602001828054612cbf9061478d565b8015612d0a5780601f10612ce157610100808354040283529160200191612d0a565b820191905f5260205f20905b815481529060010190602001808311612ced57829003601f168201915b5050505050815260200160038201548152602001600482018054612d2d9061478d565b80601f0160208091040260200160405190810160405280929190818152602001828054612d599061478d565b8015612da45780601f10612d7b57610100808354040283529160200191612da4565b820191905f5260205f20905b815481529060010190602001808311612d8757829003601f168201915b505050505081526020016005820154815260200160068201548152602001600782016040518060e00160405290815f8201548152602001600182015f9054906101000a90046001600160a01b03166001600160a01b03166001600160a01b03168152602001600282018054612e189061478d565b80601f0160208091040260200160405190810160405280929190818152602001828054612e449061478d565b8015612e8f5780601f10612e6657610100808354040283529160200191612e8f565b820191905f5260205f20905b815481529060010190602001808311612e7257829003601f168201915b50505050508152602001600382018054612ea89061478d565b80601f0160208091040260200160405190810160405280929190818152602001828054612ed49061478d565b8015612f1f5780601f10612ef657610100808354040283529160200191612f1f565b820191905f5260205f20905b815481529060010190602001808311612f0257829003601f168201915b50505050508152602001600482018054612f389061478d565b80601f0160208091040260200160405190810160405280929190818152602001828054612f649061478d565b8015612faf5780601f10612f8657610100808354040283529160200191612faf565b820191905f5260205f20905b815481529060010190602001808311612f9257829003601f168201915b50505091835250506005919091015460ff80821660208085019190915261010090920481161515604093840152928452600d85015490840152600e90930154161515910152835184908490811061300857613008614779565b6020026020010181905250818061301e906147d9565b9250505b8061302c816147d9565b915050612c13565b508152919050565b613044613b4e565b60065f8381526020019081526020015f20604051806101400160405290815f8201548152602001600182015481526020016002820180546130849061478d565b80601f01602080910402602001604051908101604052809291908181526020018280546130b09061478d565b80156130fb5780601f106130d2576101008083540402835291602001916130fb565b820191905f5260205f20905b8154815290600101906020018083116130de57829003601f168201915b505050505081526020016003820154815260200160048201805461311e9061478d565b80601f016020809104026020016040519081016040528092919081815260200182805461314a9061478d565b80156131955780601f1061316c57610100808354040283529160200191613195565b820191905f5260205f20905b81548152906001019060200180831161317857829003601f168201915b505050505081526020016005820154815260200160068201548152602001600782016040518060e00160405290815f8201548152602001600182015f9054906101000a90046001600160a01b03166001600160a01b03166001600160a01b031681526020016002820180546132099061478d565b80601f01602080910402602001604051908101604052809291908181526020018280546132359061478d565b80156132805780601f1061325757610100808354040283529160200191613280565b820191905f5260205f20905b81548152906001019060200180831161326357829003601f168201915b505050505081526020016003820180546132999061478d565b80601f01602080910402602001604051908101604052809291908181526020018280546132c59061478d565b80156133105780601f106132e757610100808354040283529160200191613310565b820191905f5260205f20905b8154815290600101906020018083116132f357829003601f168201915b505050505081526020016004820180546133299061478d565b80601f01602080910402602001604051908101604052809291908181526020018280546133559061478d565b80156133a05780601f10613377576101008083540402835291602001916133a0565b820191905f5260205f20905b81548152906001019060200180831161338357829003601f168201915b50505091835250506005919091015460ff80821660208085019190915261010090920481161515604093840152928452600d85015490840152600e9093015416151591015292915050565b5f81815260056020526040812054606091906001600160401b0381111561341457613414613ffc565b60405190808252806020026020018201604052801561344d57816020015b61343a613b35565b8152602001906001900390816134325790505b5090505f5b5f84815260056020526040902054811015610e58576001545f85815260056020526040902080546001600160a01b0390921691638421415991908490811061349c5761349c614779565b905f5260205f2001546040518263ffffffff1660e01b81526004016134c391815260200190565b5f60405180830381865afa1580156134dd573d5f803e3d5ffd5b505050506040513d5f823e601f3d908101601f191682016040526135049190810190614d9b565b82828151811061351657613516614779565b6020026020010181905250808061352c906147d9565b915050613452565b6001600160a01b0381165f90815260026020526040812054606091906001600160401b0381111561356757613567613ffc565b6040519080825280602002602001820160405280156135a057816020015b61358d613b4e565b8152602001906001900390816135855790505b5090505f5b6001600160a01b0384165f90815260026020526040902054811015610e58576001600160a01b0384165f90815260026020526040812080546006929190849081106135f2576135f2614779565b905f5260205f20015481526020019081526020015f20604051806101400160405290815f8201548152602001600182015481526020016002820180546136379061478d565b80601f01602080910402602001604051908101604052809291908181526020018280546136639061478d565b80156136ae5780601f10613685576101008083540402835291602001916136ae565b820191905f5260205f20905b81548152906001019060200180831161369157829003601f168201915b50505050508152602001600382015481526020016004820180546136d19061478d565b80601f01602080910402602001604051908101604052809291908181526020018280546136fd9061478d565b80156137485780601f1061371f57610100808354040283529160200191613748565b820191905f5260205f20905b81548152906001019060200180831161372b57829003601f168201915b505050505081526020016005820154815260200160068201548152602001600782016040518060e00160405290815f8201548152602001600182015f9054906101000a90046001600160a01b03166001600160a01b03166001600160a01b031681526020016002820180546137bc9061478d565b80601f01602080910402602001604051908101604052809291908181526020018280546137e89061478d565b80156138335780601f1061380a57610100808354040283529160200191613833565b820191905f5260205f20905b81548152906001019060200180831161381657829003601f168201915b5050505050815260200160038201805461384c9061478d565b80601f01602080910402602001604051908101604052809291908181526020018280546138789061478d565b80156138c35780601f1061389a576101008083540402835291602001916138c3565b820191905f5260205f20905b8154815290600101906020018083116138a657829003601f168201915b505050505081526020016004820180546138dc9061478d565b80601f01602080910402602001604051908101604052809291908181526020018280546139089061478d565b80156139535780601f1061392a57610100808354040283529160200191613953565b820191905f5260205f20905b81548152906001019060200180831161393657829003601f168201915b50505091835250506005919091015460ff80821660208085019190915261010090920481161515604093840152928452600d85015490840152600e9093015416151591015282518390839081106139ac576139ac614779565b602002602001018190525080806139c2906147d9565b9150506135a5565b6060815f036139f05750506040805180820190915260018152600360fc1b602082015290565b815f5b8115613a195780613a03816147d9565b9150613a129050600a83614e6d565b91506139f3565b5f816001600160401b03811115613a3257613a32613ffc565b6040519080825280601f01601f191660200182016040528015613a5c576020820181803683370190505b509050815b8515613ae657613a726001826147f1565b90505f613a80600a88614e6d565b613a8b90600a614e8c565b613a9590886147f1565b613aa0906030614ea3565b90505f8160f81b905080848481518110613abc57613abc614779565b60200101906001600160f81b03191690815f1a905350613add600a89614e6d565b97505050613a61565b50949350505050565b6040518060c001604052805f8152602001613b08613b4e565b8152602001613b15613b8a565b8152602001613b22613bd1565b81525f6020820181905260409091015290565b6040518060c001604052805f8152602001613b08613c2b565b6040518061014001604052805f81526020015f8152602001606081526020015f8152602001606081526020015f81526020015f8152602001613b225b6040518060e001604052805f81526020015f6001600160a01b031681526020016060815260200160608152602001606081526020015f60ff1681526020015f151581525090565b6040518061014001604052805f8152602001613beb613b8a565b8152602001613bf8613b8a565b81526020015f81526020015f81526020015f81526020015f81526020015f8152602001606081526020015f151581525090565b6040518061010001604052805f81526020015f8152602001606081526020015f8152602001606081526020015f81526020015f8152602001613c6b613b8a565b905290565b6001600160a01b0381168114613c84575f80fd5b50565b8035613c9281613c70565b919050565b5f60208284031215613ca7575f80fd5b8135613cb281613c70565b9392505050565b5f5b83811015613cd3578181015183820152602001613cbb565b50505f910152565b5f8151808452613cf2816020860160208601613cb9565b601f01601f19169290920160200192915050565b8051825260018060a01b0360208201511660208301525f604082015160e06040850152613d3660e0850182613cdb565b905060608301518482036060860152613d4f8282613cdb565b91505060808301518482036080860152613d698282613cdb565b91505060ff60a08401511660a085015260c0830151151560c08501528091505092915050565b5f61014082518452602083015160208501526040830151816040860152613db882860182613cdb565b9150506060830151606085015260808301518482036080860152613ddc8282613cdb565b91505060a083015160a085015260c083015160c085015260e083015184820360e0860152613e0a8282613d06565b91505061010080840151818601525061012080840151613e2d8287018215159052565b5090949350505050565b5f610140825184526020830151816020860152613e5682860182613d06565b91505060408301518482036040860152613e708282613d06565b915050606083015160608501526080830151608085015260a083015160a085015260c083015160c085015260e083015160e08501526101008084015185830382870152613ebd8382613cdb565b9250505061012080840151613e2d8287018215159052565b805182525f602082015160c06020850152613ef360c0850182613d8f565b905060408301518482036040860152613f0c8282613d06565b91505060608301518482036060860152613f268282613e37565b9150506080830151608085015260a0830151151560a08501528091505092915050565b5f602080830181845280855180835260408601915060408160051b87010192508387015f5b82811015613f9c57603f19888603018452613f8a858351613ed5565b94509285019290850190600101613f6e565b5092979650505050505050565b5f60208284031215613fb9575f80fd5b5035919050565b602081525f613cb26020830184613ed5565b5f8060408385031215613fe3575f80fd5b8235613fee81613c70565b946020939093013593505050565b634e487b7160e01b5f52604160045260245ffd5b60405160e081016001600160401b038111828210171561403257614032613ffc565b60405290565b60405161014081016001600160401b038111828210171561403257614032613ffc565b60405161010081016001600160401b038111828210171561403257614032613ffc565b60405160c081016001600160401b038111828210171561403257614032613ffc565b604051601f8201601f191681016001600160401b03811182821017156140c8576140c8613ffc565b604052919050565b5f6001600160401b038211156140e8576140e8613ffc565b50601f01601f191660200190565b5f82601f830112614105575f80fd5b8135614118614113826140d0565b6140a0565b81815284602083860101111561412c575f80fd5b816020850160208301375f918101602001919091529392505050565b5f6001600160401b0382111561416057614160613ffc565b5060051b60200190565b5f82601f830112614179575f80fd5b8135602061418961411383614148565b82815260059290921b840181019181810190868411156141a7575f80fd5b8286015b848110156141c257803583529183019183016141ab565b509695505050505050565b8015158114613c84575f80fd5b8035613c92816141cd565b5f82601f8301126141f4575f80fd5b8135602061420461411383614148565b82815260059290921b84018101918181019086841115614222575f80fd5b8286015b848110156141c2578035614239816141cd565b8352918301918301614226565b5f805f805f805f805f805f6101608c8e031215614261575f80fd5b6001600160401b038c35811015614276575f80fd5b6142838e8e358f016140f6565b9b5060208d01359a508060408e0135111561429c575f80fd5b6142ac8e60408f01358f016140f6565b995060608d0135985060808d013597508060a08e013511156142cc575f80fd5b6142dc8e60a08f01358f0161416a565b96508060c08e013511156142ee575f80fd5b6142fe8e60c08f01358f0161416a565b95508060e08e01351115614310575f80fd5b6143208e60e08f01358f016141e5565b9450806101008e01351115614333575f80fd5b6143448e6101008f01358f0161416a565b9350806101208e01351115614357575f80fd5b506143698d6101208e01358e0161416a565b91506101408c013590509295989b509295989b9093969950565b5f8060408385031215614394575f80fd5b50508035926020909101359150565b60ff81168114613c84575f80fd5b8035613c92816143a3565b5f60e082840312156143cc575f80fd5b6143d4614010565b9050813581526143e660208301613c87565b602082015260408201356001600160401b0380821115614404575f80fd5b614410858386016140f6565b60408401526060840135915080821115614428575f80fd5b614434858386016140f6565b6060840152608084013591508082111561444c575f80fd5b50614459848285016140f6565b60808301525061446b60a083016143b1565b60a082015261447c60c083016141da565b60c082015292915050565b5f805f805f60a0868803121561449b575f80fd5b853594506020860135935060408601356001600160401b03808211156144bf575f80fd5b6144cb89838a016143bc565b945060608801359150808211156144e0575f80fd5b90870190610140828a0312156144f4575f80fd5b6144fc614038565b82358152602083013582811115614511575f80fd5b61451d8b8286016143bc565b602083015250604083013582811115614534575f80fd5b6145408b8286016143bc565b604083015250606083013560608201526080830135608082015260a083013560a082015260c083013560c082015260e083013560e0820152610100808401358381111561458b575f80fd5b6145978c8287016140f6565b82840152505061012091506145ad8284016141da565b828201528094505050506145c3608087016141da565b90509295509295909350565b5f6020808301818452808551808352604092508286019150828160051b8701018488015f5b8381101561470657603f19898403018552815160c08151855288820151818a8701528051828701528981015160e081818901528a830151915061010080818a0152506146446101c0890183613cdb565b91506060808401516101208a015260808085015160bf19808c8703016101408d01526146708683613cdb565b955060a09150818701516101608d0152878701516101808d0152848701519750808c8703016101a08d0152506146a68588613d06565b96508d88015195508a87038e8c01526146bf8787613d06565b96508288015195508a8703838c01526146d88787613e37565b88830151928c01929092529687015115159690990195909552505050958801955050908601906001016145f4565b509098975050505050505050565b5f602080830181845280855180835260408601915060408160051b87010192508387015f5b82811015613f9c57603f19888603018452614755858351613d8f565b94509285019290850190600101614739565b602081525f613cb26020830184613d8f565b634e487b7160e01b5f52603260045260245ffd5b600181811c908216806147a157607f821691505b6020821081036147bf57634e487b7160e01b5f52602260045260245ffd5b50919050565b634e487b7160e01b5f52601160045260245ffd5b5f600182016147ea576147ea6147c5565b5060010190565b81810381811115614804576148046147c5565b92915050565b634e487b7160e01b5f52603160045260245ffd5b8051613c9281613c70565b5f82601f830112614838575f80fd5b8151614846614113826140d0565b81815284602083860101111561485a575f80fd5b61486b826020830160208701613cb9565b949350505050565b8051613c92816143a3565b8051613c92816141cd565b5f60e08284031215614899575f80fd5b6148a1614010565b9050815181526148b36020830161481e565b602082015260408201516001600160401b03808211156148d1575f80fd5b6148dd85838601614829565b604084015260608401519150808211156148f5575f80fd5b61490185838601614829565b60608401526080840151915080821115614919575f80fd5b5061492684828501614829565b60808301525061493860a08301614873565b60a082015261447c60c0830161487e565b5f60208284031215614959575f80fd5b81516001600160401b0381111561496e575f80fd5b61486b84828501614889565b5f610100828403121561498b575f80fd5b61499361405b565b825181526020808401519082015260408301519091506001600160401b03808211156149bd575f80fd5b6149c985838601614829565b60408401526060840151606084015260808401519150808211156149eb575f80fd5b6149f785838601614829565b608084015260a084015160a084015260c084015160c084015260e0840151915080821115614a23575f80fd5b50614a3084828501614889565b60e08301525092915050565b5f60208284031215614a4c575f80fd5b81516001600160401b03811115614a61575f80fd5b61486b8482850161497a565b6c02930bb9026b0ba32b934b0b61609d1b81525f8251614a9481600d850160208701613cb9565b6608189bdd59da1d60ca1b600d939091019283015250601401919050565b5f610120808352614ac58184018d613d06565b90508281036020840152614ad9818c613d06565b90508960408401528860608401528760808401528660a08401528560c084015282810360e0840152614b0b8186613cdb565b9150508215156101008301529a9950505050505050505050565b5f6101408284031215614b36575f80fd5b614b3e614038565b8251815260208301519091506001600160401b0380821115614b5e575f80fd5b614b6a85838601614889565b60208401526040840151915080821115614b82575f80fd5b614b8e85838601614889565b6040840152606084015160608401526080840151608084015260a084015160a084015260c084015160c084015260e084015160e084015261010091508184015181811115614bda575f80fd5b614be686828701614829565b83850152505050610120614bfb81840161487e565b9082015292915050565b5f60208284031215614c15575f80fd5b81516001600160401b03811115614c2a575f80fd5b61486b84828501614b25565b85815284602082015260a060408201525f614c5460a0830186613d06565b8281036060840152614c668186613e37565b91505082151560808301529695505050505050565b5f60208284031215614c8b575f80fd5b5051919050565b601f821115614cdb575f81815260208120601f850160051c81016020861015614cb85750805b601f850160051c820191505b81811015614cd757828155600101614cc4565b5050505b505050565b81516001600160401b03811115614cf957614cf9613ffc565b614d0d81614d07845461478d565b84614c92565b602080601f831160018114614d40575f8415614d295750858301515b5f19600386901b1c1916600185901b178555614cd7565b5f85815260208120601f198616915b82811015614d6e57888601518255948401946001909101908401614d4f565b5085821015614d8b57878501515f19600388901b60f8161c191681555b5050505050600190811b01905550565b5f60208284031215614dab575f80fd5b81516001600160401b0380821115614dc1575f80fd5b9083019060c08286031215614dd4575f80fd5b614ddc61407e565b82518152602083015182811115614df1575f80fd5b614dfd8782860161497a565b602083015250604083015182811115614e14575f80fd5b614e2087828601614889565b604083015250606083015182811115614e37575f80fd5b614e4387828601614b25565b60608301525060808301516080820152614e5f60a0840161487e565b60a082015295945050505050565b5f82614e8757634e487b7160e01b5f52601260045260245ffd5b500490565b8082028115828204841417614804576148046147c5565b60ff8181168382160190811115614804576148046147c556fea2646970667358221220d18d1b418319675b8912119830f0939bf11a6d4cae002e42fd0acddd123da87164736f6c63430008150033",
  "immutableReferences": {},
  "source": "// SPDX-License-Identifier: MIT\r\npragma solidity >=0.4.22 <0.9.0;\r\npragma experimental ABIEncoderV2;\r\nimport \"./SharedStructs.sol\";\r\nimport \"./Main.sol\";\r\nimport \"./RawMaterialSupplier.sol\";\r\n\r\ncontract Manufacturer {\r\n    Main main;\r\n    RawMaterialSupplier RMS;\r\n\r\n    constructor(address mainAddress, address rmsAddress) {\r\n        main = Main(mainAddress);\r\n        RMS = RawMaterialSupplier(rmsAddress);\r\n    }\r\n\r\n    mapping(address => uint256[]) private userUnsoldProductIds;\r\n\tmapping(address => uint256[]) private userSoldProductIds;\r\n\tmapping(address => uint256[]) private userBoughtRawMaterialIds;\r\n\tmapping(uint256 => uint256[]) private rawMaterialsUsed;\r\n\tmapping(uint256 => SharedStructs.Product) private ProductStock;\r\n    mapping(uint256 => bool) private ProductStockValidity;\r\n\tmapping(uint256 => SharedStructs.SoldProduct) private SoldProductStock;\r\n\tuint256 private productCtr = 0;\r\n    uint256 private soldProductCtr = 0;\r\n\r\n\tevent getProductId(uint256 productId);\r\n\r\n\t// function buyRawMaterial(uint256 rawMaterialId, uint256 quantity) public {\r\n\t// \t// require(main.getUser(googleIdHash).registered, \"User not registered\");\r\n\t// \t// require(main.getUser(googleIdHash).role == 1, \"User must be manufacturer to buy raw materials.\");\r\n\t// \t// require(quantity > 0, \"Quantity must be greater than 0.\");\r\n\t// \t// require(RMS.getRawMaterial(rawMaterialId).quantity >= quantity, \"Not enough raw material in stock\");\r\n\t// \t// require(main.getUser(googleIdHash).ethAddress != RMS.getRawMaterial(rawMaterialId).registeringUser.ethAddress, \"You cannot buy your own raw material\");\r\n\t// \tRMS.decreaseRawMaterial(rawMaterialId, quantity);\r\n\t// \tif (RMS.getRawMaterial(rawMaterialId).quantity == 0) {\r\n\t// \t\tRMS.removeUnsoldRawMaterial(RMS.getRawMaterial(rawMaterialId).registeringUser.ethAddress, rawMaterialId);\r\n    // \t}\r\n\t// }\r\n\r\n\tfunction addProduct(string memory name, uint256 quantity, string memory description, uint256 pricePerUnit, uint256 weightPerUnit, uint256[] memory rawMaterialIds, uint256[] memory rawMaterialQuantities, bool[] memory transactionStatuses, uint256[] memory gasUsed, uint256[] memory transactionTimestamps, bytes32 googleIdHash) public {\r\n\t\t// require(main.getUser(googleIdHash).registered, \"User not registered\");\r\n\t\t// require(main.getUser(googleIdHash).role == 1, \"User must be manufacturer to add products.\");\r\n\t\t// require(quantity > 0, \"Quantity must be greater than 0\");\r\n\t\t// require(pricePerUnit > 0, \"Price must be greater than 0\");\r\n\t\t// require(rawMaterialIds.length == rawMaterialQuantities.length, \"Mismatch in raw material IDs and quantities\");\r\n\t\t// require(rawMaterialIds.length == transactionStatuses.length, \"Mismatch in raw material IDs and transaction statuses\");\r\n\t\t// require(rawMaterialIds.length == transactionTimestamps.length, \"Mismatch in raw material IDs and transaction timestamps\");\r\n\t\t// require(rawMaterialIds.length == gasUsed.length, \"Mismatch in raw material IDs and length of gas used array\");\r\n\r\n\t\tproductCtr++;\r\n\t\tuserUnsoldProductIds[main.getUser(googleIdHash).ethAddress].push(productCtr);\r\n\r\n\t\tfor (uint256 i = 0; i < rawMaterialIds.length; i++) {\r\n\t\t\t// require(transactionStatuses[i] == true, \"Raw material transaction failed\");\r\n            uint256 id = rawMaterialIds[i];\r\n            uint256 quantityPurchased = rawMaterialQuantities[i];\r\n            uint256 currGasUsed = gasUsed[i];\r\n            bool transactionStatus = transactionStatuses[i];\r\n            SharedStructs.RawMaterial memory rawMaterial = RMS.getRawMaterial(id);\r\n\t\t\tstring memory status = string(abi.encodePacked(\"Raw Material \", SharedStructs.uint2str(id), \" bought\"));\r\n            SharedStructs.Transaction memory newTransaction = main.addTransaction(main.getUser(googleIdHash), rawMaterial.registeringUser, transactionTimestamps[i], rawMaterial.pricePerUnit, rawMaterial.weightPerUnit, quantityPurchased, currGasUsed, status, transactionStatus);\r\n\t\t\tuint256 currSoldRawMaterialCtr = RMS.addSoldRawMaterial(id, quantityPurchased,  main.getUser(googleIdHash), newTransaction, false);\r\n\t\t\tuserBoughtRawMaterialIds[main.getUser(googleIdHash).ethAddress].push(currSoldRawMaterialCtr);\r\n\t\t\tRMS.setRawMaterialProduct(currSoldRawMaterialCtr, productCtr);\r\n\t\t\tif(rawMaterial.quantity == 0){\r\n                RMS.removeRawMaterial(id);\r\n\t\t\t}\r\n\t\t\t\r\n\t\t\trawMaterialsUsed[productCtr].push(currSoldRawMaterialCtr);\r\n\t\t}\r\n\t\tProductStock[productCtr] = SharedStructs.Product(productCtr, block.timestamp, name, quantity, description, pricePerUnit, weightPerUnit, main.getUser(googleIdHash), 0, false);\r\n        ProductStockValidity[productCtr] = true;\t\r\n\t\temit getProductId(productCtr);\t\r\n\t}\r\n\r\n\tfunction getAllManufacturedProducts() public view returns (SharedStructs.Product[] memory) {\r\n\t\t// require(main.getUser(googleIdHash).registered, \"User not registered\");\r\n\t\t// require(main.getUser(googleIdHash).role == 2, \"User must be consumer to access all products.\");\r\n\t\tSharedStructs.Product[] memory products = new  SharedStructs.Product[](productCtr);\r\n\t\tuint256 index = 0;\r\n\t\tfor (uint256 i = 1; i <= productCtr; i++) {\r\n\t\t\tif (ProductStockValidity[i] == true) {\r\n\t\t\t\tif(ProductStock[i].manufactured == true){\r\n\t\t\t\t\tproducts[index] = ProductStock[i];\r\n\t\t\t\t\tindex++;\r\n\t\t\t\t}\r\n        \t}\r\n\t\t}\r\n\t\tassembly {mstore(products, index)}\r\n\t\treturn products;\r\n    }\r\n\r\n    function getProductRawMaterials(uint256 productId) public view returns (SharedStructs.SoldRawMaterial[] memory){\r\n        SharedStructs.SoldRawMaterial[] memory rawMaterials = new  SharedStructs.SoldRawMaterial[](rawMaterialsUsed[productId].length);\r\n        for (uint256 i = 0; i < rawMaterialsUsed[productId].length; i++) {\r\n\t\t\t\trawMaterials[i] = RMS.getSoldRawMaterial(rawMaterialsUsed[productId][i]);\r\n        }\r\n\t\treturn rawMaterials;\r\n    }\r\n\r\n\tfunction getUserBoughtRawMaterials(address ethAddress) public view returns (SharedStructs.SoldRawMaterial[] memory) {\r\n\t\t// require(main.getUser(googleIdHash).registered, \"User not registered\");\r\n\t\t// require(main.getUser(googleIdHash).role == 1, \"User must be manufacturer to access bought raw materials.\")\r\n        SharedStructs.SoldRawMaterial[] memory rawMaterials = new SharedStructs.SoldRawMaterial[](userBoughtRawMaterialIds[ethAddress].length);\r\n        for (uint256 i = 0; i < userBoughtRawMaterialIds[ethAddress].length; i++) {\r\n\t\t\t\trawMaterials[i] = RMS.getSoldRawMaterial(userBoughtRawMaterialIds[ethAddress][i]);\r\n        }\r\n\t\treturn rawMaterials;\r\n    }\r\n\r\n\t// function getUserReceivedRawMaterials(bytes32 googleIdHash) public view returns (SharedStructs.SoldRawMaterial[] memory) {\r\n\t// \trequire(main.getUser(googleIdHash).registered, \"User not registered\");\r\n\t// \trequire(main.getUser(googleIdHash).role == 1, \"User must be manufacturer to access received raw materials.\");\r\n\t// \t SharedStructs.User memory user = main.getUser(googleIdHash);\r\n    //     uint256[] memory rawMaterialIds = userBoughtRawMaterialIds[user.ethAddress];\r\n    //      SharedStructs.SoldRawMaterial[] memory rawMaterials = new  SharedStructs.SoldRawMaterial[](rawMaterialIds.length);\r\n\t// \tuint256 index = 0;\r\n    //     for (uint256 i = 0; i < rawMaterialIds.length; i++) {\r\n\t// \t\tif(RMS.getSoldRawMaterial(rawMaterialIds[i]).received == true){\r\n\t// \t\t\trawMaterials[index] = RMS.getSoldRawMaterial(rawMaterialIds[i]);\r\n\t// \t\t\tindex++;\r\n\t// \t\t}\r\n    //     }\r\n    //     assembly {mstore(rawMaterials, index)}\r\n\t// \treturn rawMaterials;\r\n    // }\r\n\r\n\t// function getUserUnmanufacturedProducts(bytes32 googleIdHash) public view returns (SharedStructs.Product[] memory) {\r\n\t// \trequire(main.getUser(googleIdHash).registered, \"User not registered\");\r\n\t// \trequire(main.getUser(googleIdHash).role == 1, \"User must be manufacturer to access unmanufactured products.\");\r\n\t// \t SharedStructs.User memory user = main.getUser(googleIdHash);\r\n    //     uint256[] memory productIds = userUnsoldProductIds[user.ethAddress];\r\n    //      SharedStructs.Product[] memory products = new  SharedStructs.Product[](productIds.length);\r\n\t// \tuint256 index = 0;\r\n    //     for (uint256 i = 0; i < productIds.length; i++) {\r\n\t// \t\tif(ProductStock[productIds[i]].manufactured == false){\r\n\t// \t\t\tproducts[index] = ProductStock[productIds[i]];\r\n\t// \t\t\tindex++;\r\n\t// \t\t}\r\n    //     }\r\n    //     assembly {mstore(products, index)}\r\n\t// \treturn products;\r\n    // }\r\n\r\n\tfunction getUserUnsoldProducts(address ethAddress) public view returns (SharedStructs.Product[] memory) {\r\n\t\t// require(main.getUser(googleIdHash).registered, \"User not registered\");\r\n\t\t// require(main.getUser(googleIdHash).role == 1, \"User must be manufacturer to access manufactured products.\")\r\n        SharedStructs.Product[] memory products = new  SharedStructs.Product[](userUnsoldProductIds[ethAddress].length);\r\n        for (uint256 i = 0; i < userUnsoldProductIds[ethAddress].length; i++) {\r\n\t\t\tproducts[i] = ProductStock[userUnsoldProductIds[ethAddress][i]];\r\n        }\r\n\t\treturn products;\r\n    }\r\n\r\n\t// function getUserPendingProducts(bytes32 googleIdHash) public view returns (SharedStructs.SoldProduct[] memory) {\r\n\t// \trequire(main.getUser(googleIdHash).registered, \"User not registered\");\r\n\t// \trequire(main.getUser(googleIdHash).role == 1, \"User must be manufacturer to access pending products.\");\r\n\t// \t SharedStructs.User memory user = main.getUser(googleIdHash);\r\n    //     uint256[] memory productIds = userSoldProductIds[user.ethAddress];\r\n    //      SharedStructs.SoldProduct[] memory products = new  SharedStructs.SoldProduct[](productIds.length);\r\n\t// \tuint256 index = 0;\r\n    //     for (uint256 i = 0; i < productIds.length; i++) {\r\n\t// \t\tif(SoldProductStock[productIds[i]].received == false){\r\n\t// \t\t\tproducts[index] = SoldProductStock[productIds[i]];\r\n\t// \t\t\tindex++;\r\n\t// \t\t}\r\n    //     }\r\n    //     assembly {mstore(products, index)}\r\n\t// \treturn products;\r\n    // }\r\n\r\n\tfunction getUserSoldProducts(address ethAddress) public view returns (SharedStructs.SoldProduct[] memory) {\r\n\t\t// require(main.getUser(googleIdHash).registered, \"User not registered\");\r\n\t\t// require(main.getUser(googleIdHash).role == 1, \"User must be manufacturer to access sold products.\");\r\n        SharedStructs.SoldProduct[] memory products = new  SharedStructs.SoldProduct[](userSoldProductIds[ethAddress].length);\r\n        for (uint256 i = 0; i < userSoldProductIds[ethAddress].length; i++) {\r\n\t\t\t\tproducts[i] = SoldProductStock[userSoldProductIds[ethAddress][i]];\r\n        }\r\n\t\treturn products;\r\n    }\r\n\r\n\tfunction receiveRawMaterial(uint256 soldRawMaterialId) public {\r\n\t\t// require(main.getUser(googleIdHash).registered, \"User not registered\");\r\n\t\t// require(main.getUser(googleIdHash).role == 1, \"User must be manufacturer to receive raw materials.\");\r\n\t\t// require(RMS.getSoldRawMaterial(soldRawMaterialId).buyingUser.ethAddress == main.getUser(googleIdHash).ethAddress, \"You are not the buyer of this raw material\");\r\n\t\t// require(RMS.getSoldRawMaterial(soldRawMaterialId).received == false, \"Raw material already received\");\r\n\t\tRMS.setRawMaterialReceived(soldRawMaterialId);\r\n\t}\r\n\r\n\tfunction manufactureProduct(uint256 productId) public {\r\n\t\t// require(main.getUser(googleIdHash).registered, \"User not registered\");\r\n\t\t// require(main.getUser(googleIdHash).role == 1, \"User must be manufacturer to manufacture products.\");\r\n\t\t// require(ProductStockValidity[productId], \"Product does not exist\");\r\n\t\t// require(ProductStock[productId].manufacturingUser.ethAddress == main.getUser(googleIdHash).ethAddress, \"You are not the manufacturer of this product\");\r\n\t\t// require(ProductStock[productId].manufactured == false, \"Product already manufactured\");\r\n\t\tProductStock[productId].manufactured = true;\r\n\t\tProductStock[productId].manufacturedTimestamp = block.timestamp;\r\n\t}\r\n\r\n    function getProduct(uint256 productId) public view returns (SharedStructs.Product memory){\r\n        // require(ProductStockValidity[productId] == true, \"Product does not exist\");\r\n        return ProductStock[productId];\r\n    }\r\n\r\n    function getSoldProduct(uint256 soldProductId) public view returns (SharedStructs.SoldProduct memory){\r\n        return SoldProductStock[soldProductId];\r\n    }\r\n\r\n    // function getProductValidity(uint256 productId) public view returns (bool){\r\n    //     return ProductStockValidity[productId];\r\n    // }\r\n\r\n    function decreaseProduct(uint256 productId, uint256 quantity) public {\r\n        // require(ProductStockValidity[productId] == true, \"Product does not exist\");\r\n        ProductStock[productId].quantity -= quantity;\r\n    }\r\n\r\n    function removeUnsoldProduct(address ethAddress, uint256 productId) public {\r\n        uint256[] storage userProductIds = userUnsoldProductIds[ethAddress];\r\n        for (uint256 i = 0; i < userProductIds.length; i++) {\r\n            if (userProductIds[i] == productId) {\r\n                userProductIds[i] = userProductIds[userProductIds.length - 1];\r\n                userProductIds.pop();\r\n                break;\r\n            }\r\n        }\r\n    }\r\n\r\n    function addSoldProduct(uint256 productId, uint256 quantity, SharedStructs.User memory buyingUser, SharedStructs.Transaction memory newTransaction, bool received) public returns (uint256) {\r\n        soldProductCtr++;\r\n\t\tSharedStructs.SoldProduct memory newSoldProduct =  SharedStructs.SoldProduct(soldProductCtr, ProductStock[productId], buyingUser, newTransaction, 0, received);\r\n\t\tnewSoldProduct.product.quantity = quantity;\r\n\t\tSoldProductStock[soldProductCtr] = newSoldProduct;\r\n        userSoldProductIds[ProductStock[productId].manufacturingUser.ethAddress].push(soldProductCtr);\r\n        return soldProductCtr;\r\n    }\r\n\r\n    function removeProduct(uint256 productId) public {\r\n        // delete ProductStock[productId];\r\n        ProductStockValidity[productId] = false;\r\n    }\r\n\r\n     function setProductReceived(uint256 soldProductId) public {\r\n        SoldProductStock[soldProductId].received = true;\r\n\t\tSoldProductStock[soldProductId].receivedTimestamp = block.timestamp;\r\n    }\r\n}",
  "sourcePath": "C:\\Users\\lavan\\OneDrive\\Desktop\\testgoogleauth\\contracts\\Manufacturer.sol",
  "compiler": {
    "name": "solc",
    "version": "0.8.21+commit.d9974bed.Emscripten.clang"
  },
  "schemaVersion": "3.4.16",
  "updatedAt": "2025-03-05T17:40:00.110Z",
  "networkType": "ethereum",
  "devdoc": {
    "kind": "dev",
    "methods": {},
    "version": 1
  },
  "userdoc": {
    "kind": "user",
    "methods": {},
    "version": 1
  }
}