{
  "contractName": "ProductNFT",
  "abi": [
    {
      "inputs": [],
      "stateMutability": "nonpayable",
      "type": "constructor"
    },
    {
      "inputs": [
        {
          "internalType": "address",
          "name": "sender",
          "type": "address"
        },
        {
          "internalType": "uint256",
          "name": "tokenId",
          "type": "uint256"
        },
        {
          "internalType": "address",
          "name": "owner",
          "type": "address"
        }
      ],
      "name": "ERC721IncorrectOwner",
      "type": "error"
    },
    {
      "inputs": [
        {
          "internalType": "address",
          "name": "operator",
          "type": "address"
        },
        {
          "internalType": "uint256",
          "name": "tokenId",
          "type": "uint256"
        }
      ],
      "name": "ERC721InsufficientApproval",
      "type": "error"
    },
    {
      "inputs": [
        {
          "internalType": "address",
          "name": "approver",
          "type": "address"
        }
      ],
      "name": "ERC721InvalidApprover",
      "type": "error"
    },
    {
      "inputs": [
        {
          "internalType": "address",
          "name": "operator",
          "type": "address"
        }
      ],
      "name": "ERC721InvalidOperator",
      "type": "error"
    },
    {
      "inputs": [
        {
          "internalType": "address",
          "name": "owner",
          "type": "address"
        }
      ],
      "name": "ERC721InvalidOwner",
      "type": "error"
    },
    {
      "inputs": [
        {
          "internalType": "address",
          "name": "receiver",
          "type": "address"
        }
      ],
      "name": "ERC721InvalidReceiver",
      "type": "error"
    },
    {
      "inputs": [
        {
          "internalType": "address",
          "name": "sender",
          "type": "address"
        }
      ],
      "name": "ERC721InvalidSender",
      "type": "error"
    },
    {
      "inputs": [
        {
          "internalType": "uint256",
          "name": "tokenId",
          "type": "uint256"
        }
      ],
      "name": "ERC721NonexistentToken",
      "type": "error"
    },
    {
      "anonymous": false,
      "inputs": [
        {
          "indexed": true,
          "internalType": "address",
          "name": "owner",
          "type": "address"
        },
        {
          "indexed": true,
          "internalType": "address",
          "name": "approved",
          "type": "address"
        },
        {
          "indexed": true,
          "internalType": "uint256",
          "name": "tokenId",
          "type": "uint256"
        }
      ],
      "name": "Approval",
      "type": "event"
    },
    {
      "anonymous": false,
      "inputs": [
        {
          "indexed": true,
          "internalType": "address",
          "name": "owner",
          "type": "address"
        },
        {
          "indexed": true,
          "internalType": "address",
          "name": "operator",
          "type": "address"
        },
        {
          "indexed": false,
          "internalType": "bool",
          "name": "approved",
          "type": "bool"
        }
      ],
      "name": "ApprovalForAll",
      "type": "event"
    },
    {
      "anonymous": false,
      "inputs": [
        {
          "indexed": false,
          "internalType": "uint256",
          "name": "_fromTokenId",
          "type": "uint256"
        },
        {
          "indexed": false,
          "internalType": "uint256",
          "name": "_toTokenId",
          "type": "uint256"
        }
      ],
      "name": "BatchMetadataUpdate",
      "type": "event"
    },
    {
      "anonymous": false,
      "inputs": [
        {
          "indexed": false,
          "internalType": "uint256",
          "name": "_tokenId",
          "type": "uint256"
        }
      ],
      "name": "MetadataUpdate",
      "type": "event"
    },
    {
      "anonymous": false,
      "inputs": [
        {
          "indexed": true,
          "internalType": "address",
          "name": "from",
          "type": "address"
        },
        {
          "indexed": true,
          "internalType": "address",
          "name": "to",
          "type": "address"
        },
        {
          "indexed": true,
          "internalType": "uint256",
          "name": "tokenId",
          "type": "uint256"
        }
      ],
      "name": "Transfer",
      "type": "event"
    },
    {
      "inputs": [
        {
          "internalType": "address",
          "name": "to",
          "type": "address"
        },
        {
          "internalType": "uint256",
          "name": "tokenId",
          "type": "uint256"
        }
      ],
      "name": "approve",
      "outputs": [],
      "stateMutability": "nonpayable",
      "type": "function"
    },
    {
      "inputs": [
        {
          "internalType": "address",
          "name": "owner",
          "type": "address"
        }
      ],
      "name": "balanceOf",
      "outputs": [
        {
          "internalType": "uint256",
          "name": "",
          "type": "uint256"
        }
      ],
      "stateMutability": "view",
      "type": "function",
      "constant": true
    },
    {
      "inputs": [
        {
          "internalType": "uint256",
          "name": "tokenId",
          "type": "uint256"
        }
      ],
      "name": "getApproved",
      "outputs": [
        {
          "internalType": "address",
          "name": "",
          "type": "address"
        }
      ],
      "stateMutability": "view",
      "type": "function",
      "constant": true
    },
    {
      "inputs": [
        {
          "internalType": "address",
          "name": "owner",
          "type": "address"
        },
        {
          "internalType": "address",
          "name": "operator",
          "type": "address"
        }
      ],
      "name": "isApprovedForAll",
      "outputs": [
        {
          "internalType": "bool",
          "name": "",
          "type": "bool"
        }
      ],
      "stateMutability": "view",
      "type": "function",
      "constant": true
    },
    {
      "inputs": [],
      "name": "name",
      "outputs": [
        {
          "internalType": "string",
          "name": "",
          "type": "string"
        }
      ],
      "stateMutability": "view",
      "type": "function",
      "constant": true
    },
    {
      "inputs": [
        {
          "internalType": "address",
          "name": "",
          "type": "address"
        },
        {
          "internalType": "uint256",
          "name": "",
          "type": "uint256"
        }
      ],
      "name": "ownedProducts",
      "outputs": [
        {
          "internalType": "uint256",
          "name": "tokenId",
          "type": "uint256"
        },
        {
          "components": [
            {
              "internalType": "uint256",
              "name": "id",
              "type": "uint256"
            },
            {
              "internalType": "address",
              "name": "ethAddress",
              "type": "address"
            },
            {
              "internalType": "string",
              "name": "email",
              "type": "string"
            },
            {
              "internalType": "string",
              "name": "username",
              "type": "string"
            },
            {
              "internalType": "string",
              "name": "location",
              "type": "string"
            },
            {
              "internalType": "uint8",
              "name": "role",
              "type": "uint8"
            },
            {
              "internalType": "bool",
              "name": "registered",
              "type": "bool"
            }
          ],
          "internalType": "struct SharedStructs.User",
          "name": "manufacturer",
          "type": "tuple"
        },
        {
          "components": [
            {
              "internalType": "uint256",
              "name": "id",
              "type": "uint256"
            },
            {
              "internalType": "address",
              "name": "ethAddress",
              "type": "address"
            },
            {
              "internalType": "string",
              "name": "email",
              "type": "string"
            },
            {
              "internalType": "string",
              "name": "username",
              "type": "string"
            },
            {
              "internalType": "string",
              "name": "location",
              "type": "string"
            },
            {
              "internalType": "uint8",
              "name": "role",
              "type": "uint8"
            },
            {
              "internalType": "bool",
              "name": "registered",
              "type": "bool"
            }
          ],
          "internalType": "struct SharedStructs.User",
          "name": "consumer",
          "type": "tuple"
        },
        {
          "internalType": "string",
          "name": "metadataURI",
          "type": "string"
        },
        {
          "internalType": "bool",
          "name": "isBought",
          "type": "bool"
        }
      ],
      "stateMutability": "view",
      "type": "function",
      "constant": true
    },
    {
      "inputs": [
        {
          "internalType": "uint256",
          "name": "tokenId",
          "type": "uint256"
        }
      ],
      "name": "ownerOf",
      "outputs": [
        {
          "internalType": "address",
          "name": "",
          "type": "address"
        }
      ],
      "stateMutability": "view",
      "type": "function",
      "constant": true
    },
    {
      "inputs": [
        {
          "internalType": "uint256",
          "name": "",
          "type": "uint256"
        },
        {
          "internalType": "uint256",
          "name": "",
          "type": "uint256"
        }
      ],
      "name": "productToToken",
      "outputs": [
        {
          "internalType": "uint256",
          "name": "",
          "type": "uint256"
        }
      ],
      "stateMutability": "view",
      "type": "function",
      "constant": true
    },
    {
      "inputs": [
        {
          "internalType": "uint256",
          "name": "",
          "type": "uint256"
        }
      ],
      "name": "productTokens",
      "outputs": [
        {
          "internalType": "uint256",
          "name": "tokenId",
          "type": "uint256"
        },
        {
          "components": [
            {
              "internalType": "uint256",
              "name": "id",
              "type": "uint256"
            },
            {
              "internalType": "address",
              "name": "ethAddress",
              "type": "address"
            },
            {
              "internalType": "string",
              "name": "email",
              "type": "string"
            },
            {
              "internalType": "string",
              "name": "username",
              "type": "string"
            },
            {
              "internalType": "string",
              "name": "location",
              "type": "string"
            },
            {
              "internalType": "uint8",
              "name": "role",
              "type": "uint8"
            },
            {
              "internalType": "bool",
              "name": "registered",
              "type": "bool"
            }
          ],
          "internalType": "struct SharedStructs.User",
          "name": "manufacturer",
          "type": "tuple"
        },
        {
          "components": [
            {
              "internalType": "uint256",
              "name": "id",
              "type": "uint256"
            },
            {
              "internalType": "address",
              "name": "ethAddress",
              "type": "address"
            },
            {
              "internalType": "string",
              "name": "email",
              "type": "string"
            },
            {
              "internalType": "string",
              "name": "username",
              "type": "string"
            },
            {
              "internalType": "string",
              "name": "location",
              "type": "string"
            },
            {
              "internalType": "uint8",
              "name": "role",
              "type": "uint8"
            },
            {
              "internalType": "bool",
              "name": "registered",
              "type": "bool"
            }
          ],
          "internalType": "struct SharedStructs.User",
          "name": "consumer",
          "type": "tuple"
        },
        {
          "internalType": "string",
          "name": "metadataURI",
          "type": "string"
        },
        {
          "internalType": "bool",
          "name": "isBought",
          "type": "bool"
        }
      ],
      "stateMutability": "view",
      "type": "function",
      "constant": true
    },
    {
      "inputs": [
        {
          "internalType": "address",
          "name": "from",
          "type": "address"
        },
        {
          "internalType": "address",
          "name": "to",
          "type": "address"
        },
        {
          "internalType": "uint256",
          "name": "tokenId",
          "type": "uint256"
        }
      ],
      "name": "safeTransferFrom",
      "outputs": [],
      "stateMutability": "nonpayable",
      "type": "function"
    },
    {
      "inputs": [
        {
          "internalType": "address",
          "name": "from",
          "type": "address"
        },
        {
          "internalType": "address",
          "name": "to",
          "type": "address"
        },
        {
          "internalType": "uint256",
          "name": "tokenId",
          "type": "uint256"
        },
        {
          "internalType": "bytes",
          "name": "data",
          "type": "bytes"
        }
      ],
      "name": "safeTransferFrom",
      "outputs": [],
      "stateMutability": "nonpayable",
      "type": "function"
    },
    {
      "inputs": [
        {
          "internalType": "address",
          "name": "operator",
          "type": "address"
        },
        {
          "internalType": "bool",
          "name": "approved",
          "type": "bool"
        }
      ],
      "name": "setApprovalForAll",
      "outputs": [],
      "stateMutability": "nonpayable",
      "type": "function"
    },
    {
      "inputs": [
        {
          "internalType": "bytes4",
          "name": "interfaceId",
          "type": "bytes4"
        }
      ],
      "name": "supportsInterface",
      "outputs": [
        {
          "internalType": "bool",
          "name": "",
          "type": "bool"
        }
      ],
      "stateMutability": "view",
      "type": "function",
      "constant": true
    },
    {
      "inputs": [],
      "name": "symbol",
      "outputs": [
        {
          "internalType": "string",
          "name": "",
          "type": "string"
        }
      ],
      "stateMutability": "view",
      "type": "function",
      "constant": true
    },
    {
      "inputs": [
        {
          "internalType": "uint256",
          "name": "",
          "type": "uint256"
        }
      ],
      "name": "tokenExists",
      "outputs": [
        {
          "internalType": "bool",
          "name": "",
          "type": "bool"
        }
      ],
      "stateMutability": "view",
      "type": "function",
      "constant": true
    },
    {
      "inputs": [
        {
          "internalType": "uint256",
          "name": "tokenId",
          "type": "uint256"
        }
      ],
      "name": "tokenURI",
      "outputs": [
        {
          "internalType": "string",
          "name": "",
          "type": "string"
        }
      ],
      "stateMutability": "view",
      "type": "function",
      "constant": true
    },
    {
      "inputs": [
        {
          "internalType": "address",
          "name": "from",
          "type": "address"
        },
        {
          "internalType": "address",
          "name": "to",
          "type": "address"
        },
        {
          "internalType": "uint256",
          "name": "tokenId",
          "type": "uint256"
        }
      ],
      "name": "transferFrom",
      "outputs": [],
      "stateMutability": "nonpayable",
      "type": "function"
    },
    {
      "inputs": [
        {
          "internalType": "string",
          "name": "metadataURI",
          "type": "string"
        },
        {
          "internalType": "uint256",
          "name": "productId",
          "type": "uint256"
        },
        {
          "internalType": "uint256",
          "name": "quantity",
          "type": "uint256"
        },
        {
          "components": [
            {
              "internalType": "uint256",
              "name": "id",
              "type": "uint256"
            },
            {
              "internalType": "address",
              "name": "ethAddress",
              "type": "address"
            },
            {
              "internalType": "string",
              "name": "email",
              "type": "string"
            },
            {
              "internalType": "string",
              "name": "username",
              "type": "string"
            },
            {
              "internalType": "string",
              "name": "location",
              "type": "string"
            },
            {
              "internalType": "uint8",
              "name": "role",
              "type": "uint8"
            },
            {
              "internalType": "bool",
              "name": "registered",
              "type": "bool"
            }
          ],
          "internalType": "struct SharedStructs.User",
          "name": "manufacturer",
          "type": "tuple"
        }
      ],
      "name": "manufactureProduct",
      "outputs": [],
      "stateMutability": "nonpayable",
      "type": "function"
    },
    {
      "inputs": [
        {
          "internalType": "uint256",
          "name": "productId",
          "type": "uint256"
        },
        {
          "internalType": "uint256",
          "name": "quantity",
          "type": "uint256"
        },
        {
          "internalType": "address",
          "name": "manufacturerAddress",
          "type": "address"
        },
        {
          "components": [
            {
              "internalType": "uint256",
              "name": "id",
              "type": "uint256"
            },
            {
              "internalType": "address",
              "name": "ethAddress",
              "type": "address"
            },
            {
              "internalType": "string",
              "name": "email",
              "type": "string"
            },
            {
              "internalType": "string",
              "name": "username",
              "type": "string"
            },
            {
              "internalType": "string",
              "name": "location",
              "type": "string"
            },
            {
              "internalType": "uint8",
              "name": "role",
              "type": "uint8"
            },
            {
              "internalType": "bool",
              "name": "registered",
              "type": "bool"
            }
          ],
          "internalType": "struct SharedStructs.User",
          "name": "consumer",
          "type": "tuple"
        }
      ],
      "name": "buyProduct",
      "outputs": [],
      "stateMutability": "nonpayable",
      "type": "function"
    },
    {
      "inputs": [
        {
          "internalType": "uint256",
          "name": "productId",
          "type": "uint256"
        }
      ],
      "name": "getProductNFT",
      "outputs": [
        {
          "components": [
            {
              "internalType": "uint256",
              "name": "tokenId",
              "type": "uint256"
            },
            {
              "components": [
                {
                  "internalType": "uint256",
                  "name": "id",
                  "type": "uint256"
                },
                {
                  "internalType": "address",
                  "name": "ethAddress",
                  "type": "address"
                },
                {
                  "internalType": "string",
                  "name": "email",
                  "type": "string"
                },
                {
                  "internalType": "string",
                  "name": "username",
                  "type": "string"
                },
                {
                  "internalType": "string",
                  "name": "location",
                  "type": "string"
                },
                {
                  "internalType": "uint8",
                  "name": "role",
                  "type": "uint8"
                },
                {
                  "internalType": "bool",
                  "name": "registered",
                  "type": "bool"
                }
              ],
              "internalType": "struct SharedStructs.User",
              "name": "manufacturer",
              "type": "tuple"
            },
            {
              "components": [
                {
                  "internalType": "uint256",
                  "name": "id",
                  "type": "uint256"
                },
                {
                  "internalType": "address",
                  "name": "ethAddress",
                  "type": "address"
                },
                {
                  "internalType": "string",
                  "name": "email",
                  "type": "string"
                },
                {
                  "internalType": "string",
                  "name": "username",
                  "type": "string"
                },
                {
                  "internalType": "string",
                  "name": "location",
                  "type": "string"
                },
                {
                  "internalType": "uint8",
                  "name": "role",
                  "type": "uint8"
                },
                {
                  "internalType": "bool",
                  "name": "registered",
                  "type": "bool"
                }
              ],
              "internalType": "struct SharedStructs.User",
              "name": "consumer",
              "type": "tuple"
            },
            {
              "internalType": "string",
              "name": "metadataURI",
              "type": "string"
            },
            {
              "internalType": "bool",
              "name": "isBought",
              "type": "bool"
            }
          ],
          "internalType": "struct ProductNFT.ProductToken[]",
          "name": "",
          "type": "tuple[]"
        }
      ],
      "stateMutability": "view",
      "type": "function",
      "constant": true
    },
    {
      "inputs": [
        {
          "internalType": "address",
          "name": "ethAddress",
          "type": "address"
        }
      ],
      "name": "getUserNFTs",
      "outputs": [
        {
          "components": [
            {
              "internalType": "uint256",
              "name": "tokenId",
              "type": "uint256"
            },
            {
              "components": [
                {
                  "internalType": "uint256",
                  "name": "id",
                  "type": "uint256"
                },
                {
                  "internalType": "address",
                  "name": "ethAddress",
                  "type": "address"
                },
                {
                  "internalType": "string",
                  "name": "email",
                  "type": "string"
                },
                {
                  "internalType": "string",
                  "name": "username",
                  "type": "string"
                },
                {
                  "internalType": "string",
                  "name": "location",
                  "type": "string"
                },
                {
                  "internalType": "uint8",
                  "name": "role",
                  "type": "uint8"
                },
                {
                  "internalType": "bool",
                  "name": "registered",
                  "type": "bool"
                }
              ],
              "internalType": "struct SharedStructs.User",
              "name": "manufacturer",
              "type": "tuple"
            },
            {
              "components": [
                {
                  "internalType": "uint256",
                  "name": "id",
                  "type": "uint256"
                },
                {
                  "internalType": "address",
                  "name": "ethAddress",
                  "type": "address"
                },
                {
                  "internalType": "string",
                  "name": "email",
                  "type": "string"
                },
                {
                  "internalType": "string",
                  "name": "username",
                  "type": "string"
                },
                {
                  "internalType": "string",
                  "name": "location",
                  "type": "string"
                },
                {
                  "internalType": "uint8",
                  "name": "role",
                  "type": "uint8"
                },
                {
                  "internalType": "bool",
                  "name": "registered",
                  "type": "bool"
                }
              ],
              "internalType": "struct SharedStructs.User",
              "name": "consumer",
              "type": "tuple"
            },
            {
              "internalType": "string",
              "name": "metadataURI",
              "type": "string"
            },
            {
              "internalType": "bool",
              "name": "isBought",
              "type": "bool"
            }
          ],
          "internalType": "struct ProductNFT.ProductToken[]",
          "name": "",
          "type": "tuple[]"
        }
      ],
      "stateMutability": "view",
      "type": "function",
      "constant": true
    }
  ],
  "bytecode": "0x5f608081815260a082905261016082815260c081905261018083815260e0526101c06040526101a0838152610100526005610120526101408390526008928355600980546001600160a01b0319169055909190600a90620000619082620001d3565b5060608201516003820190620000789082620001d3565b50608082015160048201906200008f9082620001d3565b5060a08201516005909101805460c09093015115156101000261ffff1990931660ff90921691909117919091179055348015620000ca575f80fd5b506040518060400160405280600a815260200169141c9bd91d58dd13919560b21b815250604051806040016040528060048152602001631413919560e21b815250815f90816200011b9190620001d3565b5060016200012a8282620001d3565b5050506200029b565b634e487b7160e01b5f52604160045260245ffd5b600181811c908216806200015c57607f821691505b6020821081036200017b57634e487b7160e01b5f52602260045260245ffd5b50919050565b601f821115620001ce575f81815260208120601f850160051c81016020861015620001a95750805b601f850160051c820191505b81811015620001ca57828155600101620001b5565b5050505b505050565b81516001600160401b03811115620001ef57620001ef62000133565b620002078162000200845462000147565b8462000181565b602080601f8311600181146200023d575f8415620002255750858301515b5f19600386901b1c1916600185901b178555620001ca565b5f85815260208120601f198616915b828110156200026d578886015182559484019460019091019084016200024c565b50858210156200028b57878501515f19600388901b60f8161c191681555b5050505050600190811b01905550565b61369580620002a95f395ff3fe608060405234801561000f575f80fd5b5060043610610104575f3560e01c8062923f9e1461010857806301ffc9a71461013f57806305ba58701461015257806306fdde0314610167578063081812fc1461017c578063095ea7b31461019c57806323b872dd146101af57806338893f9c146101c257806342842e0e146101d557806352de4ee5146101e85780636352211e1461020857806370a082311461021b57806395d89b411461023c5780639716d101146102445780639c5aa1c514610257578063a22cb4651461026a578063b88d4fde1461027d578063c87b56dd14610290578063d661743c146102a3578063de4cbf89146102c7578063e985e9c5146102da575b5f80fd5b61012a610116366004612d06565b60106020525f908152604090205460ff1681565b60405190151581526020015b60405180910390f35b61012a61014d366004612d32565b6102ed565b610165610160366004612f1e565b610317565b005b61016f6108fa565b6040516101369190612fdc565b61018f61018a366004612d06565b610989565b6040516101369190612fee565b6101656101aa366004613002565b61099d565b6101656101bd36600461302a565b6109ac565b6101656101d0366004613063565b610a2a565b6101656101e336600461302a565b6111b3565b6101fb6101f63660046130b3565b6111d2565b6040516101369190613155565b61018f610216366004612d06565b6116fc565b61022e6102293660046130b3565b611706565b604051908152602001610136565b61016f61174b565b61022e61025236600461320c565b61175a565b6101fb610265366004612d06565b611785565b61016561027836600461322c565b611d50565b61016561028b36600461325d565b611d5b565b61016f61029e366004612d06565b611d73565b6102b66102b1366004613002565b611e7e565b6040516101369594939291906132c7565b6102b66102d5366004612d06565b612345565b61012a6102e836600461331a565b612398565b5f6001600160e01b03198216632483248360e11b14806103115750610311826123c5565b92915050565b5f5b828110156108f35760078054905f61033083613356565b909155505060075460208301516103479082612414565b610351818761242d565b6040805160a0810182528281526020808201869052825160e0810184526008805482526009546001600160a01b031692820192909252600a805493948581019492939290840191906103a29061336e565b80601f01602080910402602001604051908101604052809291908181526020018280546103ce9061336e565b80156104195780601f106103f057610100808354040283529160200191610419565b820191905f5260205f20905b8154815290600101906020018083116103fc57829003601f168201915b505050505081526020016003820180546104329061336e565b80601f016020809104026020016040519081016040528092919081815260200182805461045e9061336e565b80156104a95780601f10610480576101008083540402835291602001916104a9565b820191905f5260205f20905b81548152906001019060200180831161048c57829003601f168201915b505050505081526020016004820180546104c29061336e565b80601f01602080910402602001604051908101604052809291908181526020018280546104ee9061336e565b80156105395780601f1061051057610100808354040283529160200191610539565b820191905f5260205f20905b81548152906001019060200180831161051c57829003601f168201915b50505091835250506005919091015460ff8082166020808501919091526101009092041615156040928301529183528282018a90525f928101839052848352600e8252918290208351815583820151805160018301908155928101516002830180546001600160a01b0319166001600160a01b03909216919091179055928301519092919060038401906105cd90826133ff565b50606082015160038201906105e290826133ff565b50608082015160048201906105f790826133ff565b5060a08201516005909101805460c09093015115156101000261ffff1990931660ff9092169190911791909117905560408281015180516007840190815560208201516008850180546001600160a01b039092166001600160a01b031990921691909117905591810151909190600984019061067390826133ff565b506060820151600382019061068890826133ff565b506080820151600482019061069d90826133ff565b5060a08201516005909101805460c09093015115156101000261ffff1990931660ff909216919091179190911790556060820151600d8201906106e090826133ff565b5060809190910151600e918201805491151560ff199092169190911790556020808501516001600160a01b039081165f908152600f808452604080832087845295855282208554600181810188559684529490922082549490910201928355808401805494840194855560028083015490850180546001600160a01b03191691909416179092559260038084019061077a908601826134b5565b5060038181019061078d908401826134b5565b506004818101906107a0908401826134b5565b506005918201805491909201805460ff19811660ff9384169081178355935461010090819004909316151590920261ffff199092169092171790556007828101805491830191825560088085015490840180546001600160a01b0319166001600160a01b0390921691909117905590600980840190610821908601826134b5565b50600381810190610834908401826134b5565b50600481810190610847908401826134b5565b506005918201805491909201805460ff92831660ff19821681178355935461ffff19909116909317610100938490049092161515909202179055600d81810190610893908401826134b5565b50600e918201549101805460ff909216151560ff199283161790555f8281526010602090815260408083208054909416600190811790945588835260118252822080549384018155825290200155806108eb81613356565b915050610319565b5050505050565b60605f80546109089061336e565b80601f01602080910402602001604051908101604052809291908181526020018280546109349061336e565b801561097f5780601f106109565761010080835404028352916020019161097f565b820191905f5260205f20905b81548152906001019060200180831161096257829003601f168201915b5050505050905090565b5f6109938261247c565b50610311826124b3565b6109a88282336124cd565b5050565b6001600160a01b0382166109de575f604051633250574960e11b81526004016109d59190612fee565b60405180910390fd5b5f6109ea8383336124da565b9050836001600160a01b0316816001600160a01b031614610a24578382826040516364283d7b60e01b81526004016109d59392919061357c565b50505050565b5f5b838110156108f3575f858152601160205260408120805483908110610a5357610a5361359f565b905f5260205f20015490505f5b6001600160a01b0385165f908152600f6020526040902054811015610e87575f8281526010602052604090205460ff161515600114610ada5760405162461bcd60e51b8152602060048201526016602482015275141c9bd91d58dd08191bd95cc81b9bdd08195e1a5cdd60521b60448201526064016109d5565b5f828152600e60208190526040909120015460ff1615610b355760405162461bcd60e51b8152602060048201526016602482015275141c9bd91d58dd08185b1c9958591e48189bdd59da1d60521b60448201526064016109d5565b6001600160a01b0385165f908152600f60205260409020805483919083908110610b6157610b6161359f565b905f5260205f2090600f02015f015403610e75576001600160a01b0385165f908152600f602052604090208054610b9a906001906135b3565b81548110610baa57610baa61359f565b905f5260205f2090600f0201600f5f876001600160a01b03166001600160a01b031681526020019081526020015f208281548110610bea57610bea61359f565b5f91825260209091208254600f909202019081556001808301805491830191825560028085015490840180546001600160a01b0319166001600160a01b0390921691909117905590600380840190610c44908601826134b5565b50600381810190610c57908401826134b5565b50600481810190610c6a908401826134b5565b506005918201805491909201805460ff19811660ff9384169081178355935461010090819004909316151590920261ffff199092169092171790556007828101805491830191825560088085015490840180546001600160a01b0319166001600160a01b0390921691909117905590600980840190610ceb908601826134b5565b50600381810190610cfe908401826134b5565b50600481810190610d11908401826134b5565b506005918201805491909201805460ff92831660ff19821681178355935461ffff19909116909317610100938490049092161515909202179055600d81810190610d5d908401826134b5565b50600e918201549101805460ff191660ff90921615159190911790556001600160a01b0385165f908152600f60205260409020805480610d9f57610d9f6135c6565b5f82815260208120600f5f1990930192830201818155600181018281556002820180546001600160a01b031916905590919081610ddf6003850182612c34565b610dec600383015f612c34565b610df9600483015f612c34565b50600501805461ffff191690555f600783018181556008840180546001600160a01b031916905590610e2e6009850182612c34565b610e3b600383015f612c34565b610e48600483015f612c34565b50600501805461ffff19169055610e62600d83015f612c34565b50600e01805460ff191690559055610e87565b80610e7f81613356565b915050610a60565b50610e97848460200151836125c7565b5f818152600e6020908152604091829020855160078201908155918601516008820180546001600160a01b0319166001600160a01b0390921691909117905591850151859260090190610eea90826133ff565b5060608201516003820190610eff90826133ff565b5060808201516004820190610f1490826133ff565b5060a08201516005909101805460c09093015115156101000261ffff1990931660ff909216919091179190911790555f818152600e60208181526040808420808401805460ff19166001908117909155888401516001600160a01b039081168752600f8086529387209585528554808301875595875293909520815494909202909101928355808401805494840194855560028083015490850180546001600160a01b031916919094161790925592600380840190610fd5908601826134b5565b50600381810190610fe8908401826134b5565b50600481810190610ffb908401826134b5565b506005918201805491909201805460ff19811660ff9384169081178355935461010090819004909316151590920261ffff199092169092171790556007828101805491830191825560088085015490840180546001600160a01b0319166001600160a01b039092169190911790559060098084019061107c908601826134b5565b5060038181019061108f908401826134b5565b506004818101906110a2908401826134b5565b506005918201805491909201805460ff92831660ff19821681178355935461ffff19909116909317610100938490049092161515909202179055600d818101906110ee908401826134b5565b50600e918201549101805460ff191660ff90921615159190911790555f8681526011602052604090208054611125906001906135b3565b815481106111355761113561359f565b905f5260205f20015460115f8881526020019081526020015f2083815481106111605761116061359f565b905f5260205f20018190555060115f8781526020019081526020015f2080548061118c5761118c6135c6565b600190038181905f5260205f20015f905590555080806111ab90613356565b915050610a2c565b6111cd83838360405180602001604052805f815250611d5b565b505050565b6001600160a01b0381165f908152600f60209081526040808320805482518185028101850190935280835260609492939192909184015b828210156116f1575f8481526020908190206040805160a081018252600f860290920180548352815160e081018352600182018054825260028301546001600160a01b0316828701526003830180549596939593870194929391928401916112709061336e565b80601f016020809104026020016040519081016040528092919081815260200182805461129c9061336e565b80156112e75780601f106112be576101008083540402835291602001916112e7565b820191905f5260205f20905b8154815290600101906020018083116112ca57829003601f168201915b505050505081526020016003820180546113009061336e565b80601f016020809104026020016040519081016040528092919081815260200182805461132c9061336e565b80156113775780601f1061134e57610100808354040283529160200191611377565b820191905f5260205f20905b81548152906001019060200180831161135a57829003601f168201915b505050505081526020016004820180546113909061336e565b80601f01602080910402602001604051908101604052809291908181526020018280546113bc9061336e565b80156114075780601f106113de57610100808354040283529160200191611407565b820191905f5260205f20905b8154815290600101906020018083116113ea57829003601f168201915b50505091835250506005919091015460ff808216602080850191909152610100909204161515604092830152918352805160e081018252600785018054825260088601546001600160a01b0316828501526009860180549590940194919390928401916114739061336e565b80601f016020809104026020016040519081016040528092919081815260200182805461149f9061336e565b80156114ea5780601f106114c1576101008083540402835291602001916114ea565b820191905f5260205f20905b8154815290600101906020018083116114cd57829003601f168201915b505050505081526020016003820180546115039061336e565b80601f016020809104026020016040519081016040528092919081815260200182805461152f9061336e565b801561157a5780601f106115515761010080835404028352916020019161157a565b820191905f5260205f20905b81548152906001019060200180831161155d57829003601f168201915b505050505081526020016004820180546115939061336e565b80601f01602080910402602001604051908101604052809291908181526020018280546115bf9061336e565b801561160a5780601f106115e15761010080835404028352916020019161160a565b820191905f5260205f20905b8154815290600101906020018083116115ed57829003601f168201915b50505091835250506005919091015460ff808216602080850191909152610100909204161515604090920191909152908252600d8301805492909101916116509061336e565b80601f016020809104026020016040519081016040528092919081815260200182805461167c9061336e565b80156116c75780601f1061169e576101008083540402835291602001916116c7565b820191905f5260205f20905b8154815290600101906020018083116116aa57829003601f168201915b5050509183525050600e919091015460ff1615156020918201529082526001929092019101611209565b505050509050919050565b5f6103118261247c565b5f6001600160a01b038216611730575f6040516322718ad960e21b81526004016109d59190612fee565b506001600160a01b03165f9081526003602052604090205490565b6060600180546109089061336e565b6011602052815f5260405f208181548110611773575f80fd5b905f5260205f20015f91509150505481565b5f81815260116020526040812054606091906001600160401b038111156117ae576117ae612d4d565b6040519080825280602002602001820160405280156117e757816020015b6117d4612c6e565b8152602001906001900390816117cc5790505b5090505f5b5f84815260116020526040902054811015611d49575f8481526011602052604081208054600e929190849081106118255761182561359f565b905f5260205f20015481526020019081526020015f206040518060a00160405290815f8201548152602001600182016040518060e00160405290815f8201548152602001600182015f9054906101000a90046001600160a01b03166001600160a01b03166001600160a01b031681526020016002820180546118a69061336e565b80601f01602080910402602001604051908101604052809291908181526020018280546118d29061336e565b801561191d5780601f106118f45761010080835404028352916020019161191d565b820191905f5260205f20905b81548152906001019060200180831161190057829003601f168201915b505050505081526020016003820180546119369061336e565b80601f01602080910402602001604051908101604052809291908181526020018280546119629061336e565b80156119ad5780601f10611984576101008083540402835291602001916119ad565b820191905f5260205f20905b81548152906001019060200180831161199057829003601f168201915b505050505081526020016004820180546119c69061336e565b80601f01602080910402602001604051908101604052809291908181526020018280546119f29061336e565b8015611a3d5780601f10611a1457610100808354040283529160200191611a3d565b820191905f5260205f20905b815481529060010190602001808311611a2057829003601f168201915b50505091835250506005919091015460ff808216602080850191909152610100909204161515604092830152918352805160e081018252600785018054825260088601546001600160a01b031682850152600986018054959094019491939092840191611aa99061336e565b80601f0160208091040260200160405190810160405280929190818152602001828054611ad59061336e565b8015611b205780601f10611af757610100808354040283529160200191611b20565b820191905f5260205f20905b815481529060010190602001808311611b0357829003601f168201915b50505050508152602001600382018054611b399061336e565b80601f0160208091040260200160405190810160405280929190818152602001828054611b659061336e565b8015611bb05780601f10611b8757610100808354040283529160200191611bb0565b820191905f5260205f20905b815481529060010190602001808311611b9357829003601f168201915b50505050508152602001600482018054611bc99061336e565b80601f0160208091040260200160405190810160405280929190818152602001828054611bf59061336e565b8015611c405780601f10611c1757610100808354040283529160200191611c40565b820191905f5260205f20905b815481529060010190602001808311611c2357829003601f168201915b50505091835250506005919091015460ff808216602080850191909152610100909204161515604090920191909152908252600d830180549290910191611c869061336e565b80601f0160208091040260200160405190810160405280929190818152602001828054611cb29061336e565b8015611cfd5780601f10611cd457610100808354040283529160200191611cfd565b820191905f5260205f20905b815481529060010190602001808311611ce057829003601f168201915b5050509183525050600e919091015460ff1615156020909101528251839083908110611d2b57611d2b61359f565b60200260200101819052508080611d4190613356565b9150506117ec565b5092915050565b6109a8338383612660565b611d668484846109ac565b610a2433858585856126f5565b6060611d7e8261247c565b505f8281526006602052604081208054611d979061336e565b80601f0160208091040260200160405190810160405280929190818152602001828054611dc39061336e565b8015611e0e5780601f10611de557610100808354040283529160200191611e0e565b820191905f5260205f20905b815481529060010190602001808311611df157829003601f168201915b505050505090505f611e2a60408051602081019091525f815290565b905080515f03611e3b575092915050565b815115611e6d578082604051602001611e559291906135da565b60405160208183030381529060405292505050919050565b611e768461280a565b949350505050565b600f602052815f5260405f208181548110611e97575f80fd5b5f918252602091829020600f9091020180546040805160e081018252600184018054825260028501546001600160a01b031695820195909552600384018054939750939550939290840191611eeb9061336e565b80601f0160208091040260200160405190810160405280929190818152602001828054611f179061336e565b8015611f625780601f10611f3957610100808354040283529160200191611f62565b820191905f5260205f20905b815481529060010190602001808311611f4557829003601f168201915b50505050508152602001600382018054611f7b9061336e565b80601f0160208091040260200160405190810160405280929190818152602001828054611fa79061336e565b8015611ff25780601f10611fc957610100808354040283529160200191611ff2565b820191905f5260205f20905b815481529060010190602001808311611fd557829003601f168201915b5050505050815260200160048201805461200b9061336e565b80601f01602080910402602001604051908101604052809291908181526020018280546120379061336e565b80156120825780601f1061205957610100808354040283529160200191612082565b820191905f5260205f20905b81548152906001019060200180831161206557829003601f168201915b50505091835250506005919091015460ff808216602080850191909152610100909204161515604092830152815160e081018352600785018054825260088601546001600160a01b03169282019290925260098501805494959491938401916120ea9061336e565b80601f01602080910402602001604051908101604052809291908181526020018280546121169061336e565b80156121615780601f1061213857610100808354040283529160200191612161565b820191905f5260205f20905b81548152906001019060200180831161214457829003601f168201915b5050505050815260200160038201805461217a9061336e565b80601f01602080910402602001604051908101604052809291908181526020018280546121a69061336e565b80156121f15780601f106121c8576101008083540402835291602001916121f1565b820191905f5260205f20905b8154815290600101906020018083116121d457829003601f168201915b5050505050815260200160048201805461220a9061336e565b80601f01602080910402602001604051908101604052809291908181526020018280546122369061336e565b80156122815780601f1061225857610100808354040283529160200191612281565b820191905f5260205f20905b81548152906001019060200180831161226457829003601f168201915b50505091835250506005919091015460ff8082166020840152610100909104161515604090910152600d820180549192916122bb9061336e565b80601f01602080910402602001604051908101604052809291908181526020018280546122e79061336e565b80156123325780601f1061230957610100808354040283529160200191612332565b820191905f5260205f20905b81548152906001019060200180831161231557829003601f168201915b505050600e909301549192505060ff1685565b600e60209081525f9182526040918290208054835160e081018552600183018054825260028401546001600160a01b031694820194909452600383018054929593949193919291840191611eeb9061336e565b6001600160a01b039182165f90815260056020908152604080832093909416825291909152205460ff1690565b5f6001600160e01b031982166380ac58cd60e01b14806123f557506001600160e01b03198216635b5e139f60e01b145b8061031157506301ffc9a760e01b6001600160e01b0319831614610311565b6109a8828260405180602001604052805f81525061287b565b5f82815260066020526040902061244482826133ff565b506040518281527ff8e1a15aba9398e019f0b49df1a4fde98ee17ae345cb5f6b5e2c27f5033e8ce79060200160405180910390a15050565b5f8061248783612892565b90506001600160a01b03811661031157604051637e27328960e01b8152600481018490526024016109d5565b5f908152600460205260409020546001600160a01b031690565b6111cd83838360016128ac565b5f806124e584612892565b90506001600160a01b03831615612501576125018184866129a7565b6001600160a01b0381161561253b5761251c5f855f806128ac565b6001600160a01b0381165f90815260036020526040902080545f190190555b6001600160a01b03851615612569576001600160a01b0385165f908152600360205260409020805460010190555b5f8481526002602052604080822080546001600160a01b0319166001600160a01b0389811691821790925591518793918516917fddf252ad1be2c89b69c2b068fc378daa952ba7f163c4a11628f55a4df523b3ef91a4949350505050565b6001600160a01b0382166125f0575f604051633250574960e11b81526004016109d59190612fee565b5f6125fc83835f6124da565b90506001600160a01b03811661262857604051637e27328960e01b8152600481018390526024016109d5565b836001600160a01b0316816001600160a01b031614610a24578382826040516364283d7b60e01b81526004016109d59392919061357c565b6001600160a01b0382166126895781604051630b61174360e31b81526004016109d59190612fee565b6001600160a01b038381165f81815260056020908152604080832094871680845294825291829020805460ff191686151590811790915591519182527f17307eab39ab6107e8899845ad3d59bd9653f200f220920489ca2b5937696c31910160405180910390a3505050565b6001600160a01b0383163b156108f357604051630a85bd0160e11b81526001600160a01b0384169063150b7a0290612737908890889087908790600401613608565b6020604051808303815f875af1925050508015612771575060408051601f3d908101601f1916820190925261276e91810190613644565b60015b6127cf573d80801561279e576040519150601f19603f3d011682016040523d82523d5f602084013e6127a3565b606091505b5080515f036127c75783604051633250574960e11b81526004016109d59190612fee565b805181602001fd5b6001600160e01b03198116630a85bd0160e11b146128025783604051633250574960e11b81526004016109d59190612fee565b505050505050565b60606128158261247c565b505f61282b60408051602081019091525f815290565b90505f8151116128495760405180602001604052805f815250612874565b8061285384612a0b565b6040516020016128649291906135da565b6040516020818303038152906040525b9392505050565b6128858383612a9a565b6111cd335f8585856126f5565b5f908152600260205260409020546001600160a01b031690565b80806128c057506001600160a01b03821615155b15612978575f6128cf8461247c565b90506001600160a01b038316158015906128fb5750826001600160a01b0316816001600160a01b031614155b801561290e575061290c8184612398565b155b1561292e578260405163a9fbf51f60e01b81526004016109d59190612fee565b81156129765783856001600160a01b0316826001600160a01b03167f8c5be1e5ebec7d5bd14f71427d1e84f3dd0314c0f7b2291e5b200ac8c7c3b92560405160405180910390a45b505b50505f90815260046020526040902080546001600160a01b0319166001600160a01b0392909216919091179055565b6129b2838383612afb565b6111cd576001600160a01b0383166129e057604051637e27328960e01b8152600481018290526024016109d5565b60405163177e802f60e01b81526001600160a01b0383166004820152602481018290526044016109d5565b60605f612a1783612b5f565b60010190505f816001600160401b03811115612a3557612a35612d4d565b6040519080825280601f01601f191660200182016040528015612a5f576020820181803683370190505b5090508181016020015b5f19016f181899199a1a9b1b9c1cb0b131b232b360811b600a86061a8153600a8504945084612a6957509392505050565b6001600160a01b038216612ac3575f604051633250574960e11b81526004016109d59190612fee565b5f612acf83835f6124da565b90506001600160a01b038116156111cd575f6040516339e3563760e11b81526004016109d59190612fee565b5f6001600160a01b03831615801590611e765750826001600160a01b0316846001600160a01b03161480612b345750612b348484612398565b80611e765750826001600160a01b0316612b4d836124b3565b6001600160a01b031614949350505050565b5f8072184f03e93ff9f4daa797ed6e38ed64bf6a1f0160401b8310612b9d5772184f03e93ff9f4daa797ed6e38ed64bf6a1f0160401b830492506040015b6904ee2d6d415b85acef8160201b8310612bc7576904ee2d6d415b85acef8160201b830492506020015b662386f26fc100008310612be557662386f26fc10000830492506010015b6305f5e1008310612bfd576305f5e100830492506008015b6127108310612c1157612710830492506004015b60648310612c23576064830492506002015b600a83106103115760010192915050565b508054612c409061336e565b5f825580601f10612c4f575050565b601f0160209004905f5260205f2090810190612c6b9190612ca7565b50565b6040518060a001604052805f8152602001612c87612cbf565b8152602001612c94612cbf565b8152606060208201525f60409091015290565b5b80821115612cbb575f8155600101612ca8565b5090565b6040518060e001604052805f81526020015f6001600160a01b031681526020016060815260200160608152602001606081526020015f60ff1681526020015f151581525090565b5f60208284031215612d16575f80fd5b5035919050565b6001600160e01b031981168114612c6b575f80fd5b5f60208284031215612d42575f80fd5b813561287481612d1d565b634e487b7160e01b5f52604160045260245ffd5b60405160e081016001600160401b0381118282101715612d8357612d83612d4d565b60405290565b5f6001600160401b0380841115612da257612da2612d4d565b604051601f8501601f19908116603f01168101908282118183101715612dca57612dca612d4d565b81604052809350858152868686011115612de2575f80fd5b858560208301375f602087830101525050509392505050565b5f82601f830112612e0a575f80fd5b61287483833560208501612d89565b80356001600160a01b0381168114612e2f575f80fd5b919050565b803560ff81168114612e2f575f80fd5b80358015158114612e2f575f80fd5b5f60e08284031215612e63575f80fd5b612e6b612d61565b905081358152612e7d60208301612e19565b602082015260408201356001600160401b0380821115612e9b575f80fd5b612ea785838601612dfb565b60408401526060840135915080821115612ebf575f80fd5b612ecb85838601612dfb565b60608401526080840135915080821115612ee3575f80fd5b50612ef084828501612dfb565b608083015250612f0260a08301612e34565b60a0820152612f1360c08301612e44565b60c082015292915050565b5f805f8060808587031215612f31575f80fd5b84356001600160401b0380821115612f47575f80fd5b612f5388838901612dfb565b955060208701359450604087013593506060870135915080821115612f76575f80fd5b50612f8387828801612e53565b91505092959194509250565b5f5b83811015612fa9578181015183820152602001612f91565b50505f910152565b5f8151808452612fc8816020860160208601612f8f565b601f01601f19169290920160200192915050565b602081525f6128746020830184612fb1565b6001600160a01b0391909116815260200190565b5f8060408385031215613013575f80fd5b61301c83612e19565b946020939093013593505050565b5f805f6060848603121561303c575f80fd5b61304584612e19565b925061305360208501612e19565b9150604084013590509250925092565b5f805f8060808587031215613076575f80fd5b843593506020850135925061308d60408601612e19565b915060608501356001600160401b038111156130a7575f80fd5b612f8387828801612e53565b5f602082840312156130c3575f80fd5b61287482612e19565b8051825260018060a01b0360208201511660208301525f604082015160e060408501526130fc60e0850182612fb1565b9050606083015184820360608601526131158282612fb1565b9150506080830151848203608086015261312f8282612fb1565b91505060ff60a08401511660a085015260c0830151151560c08501528091505092915050565b5f6020808301818452808551808352604092508286019150828160051b8701018488015f5b838110156131fe57603f19898403018552815160a08151855288820151818a8701526131a8828701826130cc565b91505087820151858203898701526131c082826130cc565b915050606080830151868303828801526131da8382612fb1565b6080948501511515979094019690965250509487019492509086019060010161317a565b509098975050505050505050565b5f806040838503121561321d575f80fd5b50508035926020909101359150565b5f806040838503121561323d575f80fd5b61324683612e19565b915061325460208401612e44565b90509250929050565b5f805f8060808587031215613270575f80fd5b61327985612e19565b935061328760208601612e19565b92506040850135915060608501356001600160401b038111156132a8575f80fd5b8501601f810187136132b8575f80fd5b612f8387823560208401612d89565b85815260a060208201525f6132df60a08301876130cc565b82810360408401526132f181876130cc565b905082810360608401526133058186612fb1565b91505082151560808301529695505050505050565b5f806040838503121561332b575f80fd5b61333483612e19565b915061325460208401612e19565b634e487b7160e01b5f52601160045260245ffd5b5f6001820161336757613367613342565b5060010190565b600181811c9082168061338257607f821691505b6020821081036133a057634e487b7160e01b5f52602260045260245ffd5b50919050565b601f8211156111cd575f81815260208120601f850160051c810160208610156133cc5750805b601f850160051c820191505b81811015612802578281556001016133d8565b5f19600383901b1c191660019190911b1790565b81516001600160401b0381111561341857613418612d4d565b61342c81613426845461336e565b846133a6565b602080601f83116001811461345a575f84156134485750858301515b61345285826133eb565b865550612802565b5f85815260208120601f198616915b8281101561348857888601518255948401946001909101908401613469565b50858210156134a557878501515f19600388901b60f8161c191681555b5050505050600190811b01905550565b8181036134c0575050565b6134ca825461336e565b6001600160401b038111156134e1576134e1612d4d565b6134ef81613426845461336e565b5f601f82116001811461351b575f83156135095750848201545b61351384826133eb565b8555506108f3565b5f85815260209020601f198416905f86815260209020845b838110156135535782860154825560019586019590910190602001613533565b50858310156134a5579301545f1960f8600387901b161c19169092555050600190811b01905550565b6001600160a01b0393841681526020810192909252909116604082015260600190565b634e487b7160e01b5f52603260045260245ffd5b8181038181111561031157610311613342565b634e487b7160e01b5f52603160045260245ffd5b5f83516135eb818460208801612f8f565b8351908301906135ff818360208801612f8f565b01949350505050565b6001600160a01b03858116825284166020820152604081018390526080606082018190525f9061363a90830184612fb1565b9695505050505050565b5f60208284031215613654575f80fd5b815161287481612d1d56fea2646970667358221220227d28399d643805b47befb252ec12c9fb105995c7f09b5d5fe18372c267e14164736f6c63430008150033",
  "immutableReferences": {},
  "source": "// SPDX-License-Identifier: MIT\r\n// pragma solidity ^0.8.20;\r\n\r\n// import \"./SharedStructs.sol\";\r\n// import \"@openzeppelin/contracts/token/ERC721/extensions/ERC721URIStorage.sol\";\r\n// // import \"@openzeppelin/contracts/access/Ownable.sol\";\r\n\r\n// contract ProductNFT is ERC721URIStorage\r\n// // ,Ownable \r\n// {\r\n//     uint256 private _tokenIdCounter;\r\n//     SharedStructs.User emptyConsumer = SharedStructs.User(0, address(0), \"\", \"\", \"\", 5, false);\r\n    \r\n//     struct ProductToken {\r\n//         uint256 tokenId;\r\n//         SharedStructs.User manufacturer;\r\n//         SharedStructs.User consumer;\r\n//         string metadataURI;\r\n//         bool isBought;\r\n//     }\r\n\r\n//     mapping(uint256 => ProductToken) public productTokens;\r\n//     mapping(address => ProductToken[]) public ownedProducts;\r\n//     mapping(uint256 => bool) public tokenExists;\r\n//     mapping(uint256 => uint256) public productToToken;\r\n\r\n//     constructor() ERC721(\"ProductNFT\", \"PNFT\") \r\n//     //Ownable(msg.sender) \r\n//     {}\r\n\r\n//     function manufactureProduct(string memory metadataURI, uint256 productId, SharedStructs.User memory manufacturer) public {\r\n//         _tokenIdCounter++;\r\n//         uint256 newTokenId = _tokenIdCounter;\r\n//         _safeMint(manufacturer.ethAddress, newTokenId);\r\n//         _setTokenURI(newTokenId, metadataURI);\r\n//         productTokens[newTokenId] = ProductToken({\r\n//             tokenId: newTokenId,\r\n//             manufacturer: manufacturer,\r\n//             consumer: emptyConsumer,\r\n//             metadataURI: metadataURI,\r\n//             isBought: false\r\n//         });\r\n\r\n//         ownedProducts[manufacturer.ethAddress].push(productTokens[newTokenId]);\r\n//         tokenExists[newTokenId] = true;\r\n//         productToToken[productId] = newTokenId;\r\n//     }\r\n\r\n//     function buyProduct(uint256 tokenId, SharedStructs.User memory consumer) public {\r\n//         require(tokenExists[tokenId] == true, \"Product does not exist\");\r\n//         require(productTokens[tokenId].isBought == false, \"Product already bought\");\r\n\r\n//         address manufacturer = productTokens[tokenId].manufacturer.ethAddress;\r\n//         for(uint256 i = 0; i < ownedProducts[manufacturer].length; i++){\r\n//             if(ownedProducts[manufacturer][i].tokenId == tokenId){\r\n//                 ownedProducts[manufacturer][i] = ownedProducts[manufacturer][ownedProducts[manufacturer].length - 1];\r\n//                 ownedProducts[manufacturer].pop();\r\n//                 break;\r\n//             }\r\n//         }\r\n//         _transfer(manufacturer, consumer.ethAddress, tokenId);\r\n// \t\t productTokens[tokenId].consumer = consumer;\r\n//         productTokens[tokenId].isBought = true;\r\n//         ownedProducts[consumer.ethAddress].push(productTokens[tokenId]);\r\n//     }\r\n\r\n//     function getProductNFT(uint256 productId) public view returns (ProductToken memory){\r\n//         return productTokens[productToToken[productId]];\r\n//     }\r\n\r\n//     function getUserNFTs(address ethAddress) public view returns (ProductToken[] memory){\r\n//         return ownedProducts[ethAddress];\r\n//     }\r\n// }\r\n\r\n\r\npragma solidity ^0.8.20;\r\n\r\nimport \"./SharedStructs.sol\";\r\nimport \"@openzeppelin/contracts/token/ERC721/extensions/ERC721URIStorage.sol\";\r\n\r\n// import \"@openzeppelin/contracts/access/Ownable.sol\";\r\n\r\ncontract ProductNFT is\r\n    ERC721URIStorage\r\n    // ,Ownable\r\n{\r\n    uint256 private _tokenIdCounter;\r\n    SharedStructs.User emptyConsumer =\r\n        SharedStructs.User(0, address(0), \"\", \"\", \"\", 5, false);\r\n\r\n    struct ProductToken {\r\n        uint256 tokenId;\r\n        SharedStructs.User manufacturer;\r\n        SharedStructs.User consumer;\r\n        string metadataURI;\r\n        bool isBought;\r\n    }\r\n\r\n    mapping(uint256 => ProductToken) public productTokens;\r\n    mapping(address => ProductToken[]) public ownedProducts;\r\n    mapping(uint256 => bool) public tokenExists;\r\n    mapping(uint256 => uint256[]) public productToToken;\r\n\r\n    constructor()\r\n        ERC721(\"ProductNFT\", \"PNFT\") //Ownable(msg.sender)\r\n    {}\r\n\r\n    function manufactureProduct(\r\n        string memory metadataURI,\r\n        uint256 productId,\r\n        uint256 quantity,\r\n        SharedStructs.User memory manufacturer\r\n    ) public {\r\n        for (uint256 i = 0; i < quantity; i++) {\r\n            _tokenIdCounter++;\r\n            uint256 newTokenId = _tokenIdCounter;\r\n            _safeMint(manufacturer.ethAddress, newTokenId);\r\n            _setTokenURI(newTokenId, metadataURI);\r\n            productTokens[newTokenId] = ProductToken({\r\n                tokenId: newTokenId,\r\n                manufacturer: manufacturer,\r\n                consumer: emptyConsumer,\r\n                metadataURI: metadataURI,\r\n                isBought: false\r\n            });\r\n            ownedProducts[manufacturer.ethAddress].push(\r\n                productTokens[newTokenId]\r\n            );\r\n            tokenExists[newTokenId] = true;\r\n            productToToken[productId].push(newTokenId);\r\n        }\r\n    }\r\n\r\n    function buyProduct(\r\n        uint256 productId,\r\n        uint256 quantity,\r\n        address manufacturerAddress,\r\n        SharedStructs.User memory consumer\r\n    ) public {\r\n        for (uint256 i = 0; i < quantity; i++) {\r\n            uint256 tokenId = productToToken[productId][i];\r\n            for (\r\n                uint256 j = 0;\r\n                j < ownedProducts[manufacturerAddress].length;\r\n                j++\r\n            ) {\r\n                require(tokenExists[tokenId] == true, \"Product does not exist\");\r\n                require(\r\n                    productTokens[tokenId].isBought == false,\r\n                    \"Product already bought\"\r\n                );\r\n                if (ownedProducts[manufacturerAddress][j].tokenId == tokenId) {\r\n                    ownedProducts[manufacturerAddress][j] = ownedProducts[\r\n                        manufacturerAddress\r\n                    ][ownedProducts[manufacturerAddress].length - 1];\r\n                    ownedProducts[manufacturerAddress].pop();\r\n                    break;\r\n                }\r\n            }\r\n            _transfer(manufacturerAddress, consumer.ethAddress, tokenId);\r\n            productTokens[tokenId].consumer = consumer;\r\n            productTokens[tokenId].isBought = true;\r\n            ownedProducts[consumer.ethAddress].push(productTokens[tokenId]);\r\n            productToToken[productId][i] = productToToken[productId][productToToken[productId].length - 1];\r\n            productToToken[productId].pop();\r\n        }\r\n    }\r\n\r\n    function getProductNFT(uint256 productId)\r\n        public\r\n        view\r\n        returns (ProductToken[] memory)\r\n    {\r\n        ProductToken[] memory p = new ProductToken[](productToToken[productId].length);\r\n        for(uint256 i = 0; i < productToToken[productId].length; i++){\r\n            p[i] = productTokens[productToToken[productId][i]];\r\n        }\r\n        return p;\r\n    }\r\n\r\n    function getUserNFTs(address ethAddress)\r\n        public\r\n        view\r\n        returns (ProductToken[] memory)\r\n    {\r\n        return ownedProducts[ethAddress];\r\n    }\r\n}\r\n",
  "sourcePath": "C:\\Users\\lavan\\OneDrive\\Desktop\\testgoogleauth\\contracts\\ProductNFT.sol",
  "compiler": {
    "name": "solc",
    "version": "0.8.21+commit.d9974bed.Emscripten.clang"
  },
  "schemaVersion": "3.4.16",
  "updatedAt": "2025-03-05T17:40:00.188Z",
  "networkType": "ethereum",
  "devdoc": {
    "errors": {
      "ERC721IncorrectOwner(address,uint256,address)": [
        {
          "details": "Indicates an error related to the ownership over a particular token. Used in transfers.",
          "params": {
            "owner": "Address of the current owner of a token.",
            "sender": "Address whose tokens are being transferred.",
            "tokenId": "Identifier number of a token."
          }
        }
      ],
      "ERC721InsufficientApproval(address,uint256)": [
        {
          "details": "Indicates a failure with the `operator`s approval. Used in transfers.",
          "params": {
            "operator": "Address that may be allowed to operate on tokens without being their owner.",
            "tokenId": "Identifier number of a token."
          }
        }
      ],
      "ERC721InvalidApprover(address)": [
        {
          "details": "Indicates a failure with the `approver` of a token to be approved. Used in approvals.",
          "params": {
            "approver": "Address initiating an approval operation."
          }
        }
      ],
      "ERC721InvalidOperator(address)": [
        {
          "details": "Indicates a failure with the `operator` to be approved. Used in approvals.",
          "params": {
            "operator": "Address that may be allowed to operate on tokens without being their owner."
          }
        }
      ],
      "ERC721InvalidOwner(address)": [
        {
          "details": "Indicates that an address can't be an owner. For example, `address(0)` is a forbidden owner in ERC-20. Used in balance queries.",
          "params": {
            "owner": "Address of the current owner of a token."
          }
        }
      ],
      "ERC721InvalidReceiver(address)": [
        {
          "details": "Indicates a failure with the token `receiver`. Used in transfers.",
          "params": {
            "receiver": "Address to which tokens are being transferred."
          }
        }
      ],
      "ERC721InvalidSender(address)": [
        {
          "details": "Indicates a failure with the token `sender`. Used in transfers.",
          "params": {
            "sender": "Address whose tokens are being transferred."
          }
        }
      ],
      "ERC721NonexistentToken(uint256)": [
        {
          "details": "Indicates a `tokenId` whose `owner` is the zero address.",
          "params": {
            "tokenId": "Identifier number of a token."
          }
        }
      ]
    },
    "events": {
      "Approval(address,address,uint256)": {
        "details": "Emitted when `owner` enables `approved` to manage the `tokenId` token."
      },
      "ApprovalForAll(address,address,bool)": {
        "details": "Emitted when `owner` enables or disables (`approved`) `operator` to manage all of its assets."
      },
      "BatchMetadataUpdate(uint256,uint256)": {
        "details": "This event emits when the metadata of a range of tokens is changed. So that the third-party platforms such as NFT market could timely update the images and related attributes of the NFTs."
      },
      "MetadataUpdate(uint256)": {
        "details": "This event emits when the metadata of a token is changed. So that the third-party platforms such as NFT market could timely update the images and related attributes of the NFT."
      },
      "Transfer(address,address,uint256)": {
        "details": "Emitted when `tokenId` token is transferred from `from` to `to`."
      }
    },
    "kind": "dev",
    "methods": {
      "approve(address,uint256)": {
        "details": "See {IERC721-approve}."
      },
      "balanceOf(address)": {
        "details": "See {IERC721-balanceOf}."
      },
      "getApproved(uint256)": {
        "details": "See {IERC721-getApproved}."
      },
      "isApprovedForAll(address,address)": {
        "details": "See {IERC721-isApprovedForAll}."
      },
      "name()": {
        "details": "See {IERC721Metadata-name}."
      },
      "ownerOf(uint256)": {
        "details": "See {IERC721-ownerOf}."
      },
      "safeTransferFrom(address,address,uint256)": {
        "details": "See {IERC721-safeTransferFrom}."
      },
      "safeTransferFrom(address,address,uint256,bytes)": {
        "details": "See {IERC721-safeTransferFrom}."
      },
      "setApprovalForAll(address,bool)": {
        "details": "See {IERC721-setApprovalForAll}."
      },
      "supportsInterface(bytes4)": {
        "details": "See {IERC165-supportsInterface}"
      },
      "symbol()": {
        "details": "See {IERC721Metadata-symbol}."
      },
      "tokenURI(uint256)": {
        "details": "See {IERC721Metadata-tokenURI}."
      },
      "transferFrom(address,address,uint256)": {
        "details": "See {IERC721-transferFrom}."
      }
    },
    "version": 1
  },
  "userdoc": {
    "kind": "user",
    "methods": {},
    "version": 1
  }
}