{
  "contractName": "ProductNFT",
  "abi": [
    {
      "inputs": [],
      "stateMutability": "nonpayable",
      "type": "constructor"
    },
    {
      "inputs": [
        {
          "internalType": "address",
          "name": "sender",
          "type": "address"
        },
        {
          "internalType": "uint256",
          "name": "tokenId",
          "type": "uint256"
        },
        {
          "internalType": "address",
          "name": "owner",
          "type": "address"
        }
      ],
      "name": "ERC721IncorrectOwner",
      "type": "error"
    },
    {
      "inputs": [
        {
          "internalType": "address",
          "name": "operator",
          "type": "address"
        },
        {
          "internalType": "uint256",
          "name": "tokenId",
          "type": "uint256"
        }
      ],
      "name": "ERC721InsufficientApproval",
      "type": "error"
    },
    {
      "inputs": [
        {
          "internalType": "address",
          "name": "approver",
          "type": "address"
        }
      ],
      "name": "ERC721InvalidApprover",
      "type": "error"
    },
    {
      "inputs": [
        {
          "internalType": "address",
          "name": "operator",
          "type": "address"
        }
      ],
      "name": "ERC721InvalidOperator",
      "type": "error"
    },
    {
      "inputs": [
        {
          "internalType": "address",
          "name": "owner",
          "type": "address"
        }
      ],
      "name": "ERC721InvalidOwner",
      "type": "error"
    },
    {
      "inputs": [
        {
          "internalType": "address",
          "name": "receiver",
          "type": "address"
        }
      ],
      "name": "ERC721InvalidReceiver",
      "type": "error"
    },
    {
      "inputs": [
        {
          "internalType": "address",
          "name": "sender",
          "type": "address"
        }
      ],
      "name": "ERC721InvalidSender",
      "type": "error"
    },
    {
      "inputs": [
        {
          "internalType": "uint256",
          "name": "tokenId",
          "type": "uint256"
        }
      ],
      "name": "ERC721NonexistentToken",
      "type": "error"
    },
    {
      "anonymous": false,
      "inputs": [
        {
          "indexed": true,
          "internalType": "address",
          "name": "owner",
          "type": "address"
        },
        {
          "indexed": true,
          "internalType": "address",
          "name": "approved",
          "type": "address"
        },
        {
          "indexed": true,
          "internalType": "uint256",
          "name": "tokenId",
          "type": "uint256"
        }
      ],
      "name": "Approval",
      "type": "event"
    },
    {
      "anonymous": false,
      "inputs": [
        {
          "indexed": true,
          "internalType": "address",
          "name": "owner",
          "type": "address"
        },
        {
          "indexed": true,
          "internalType": "address",
          "name": "operator",
          "type": "address"
        },
        {
          "indexed": false,
          "internalType": "bool",
          "name": "approved",
          "type": "bool"
        }
      ],
      "name": "ApprovalForAll",
      "type": "event"
    },
    {
      "anonymous": false,
      "inputs": [
        {
          "indexed": false,
          "internalType": "uint256",
          "name": "_fromTokenId",
          "type": "uint256"
        },
        {
          "indexed": false,
          "internalType": "uint256",
          "name": "_toTokenId",
          "type": "uint256"
        }
      ],
      "name": "BatchMetadataUpdate",
      "type": "event"
    },
    {
      "anonymous": false,
      "inputs": [
        {
          "indexed": false,
          "internalType": "uint256",
          "name": "_tokenId",
          "type": "uint256"
        }
      ],
      "name": "MetadataUpdate",
      "type": "event"
    },
    {
      "anonymous": false,
      "inputs": [
        {
          "indexed": true,
          "internalType": "address",
          "name": "from",
          "type": "address"
        },
        {
          "indexed": true,
          "internalType": "address",
          "name": "to",
          "type": "address"
        },
        {
          "indexed": true,
          "internalType": "uint256",
          "name": "tokenId",
          "type": "uint256"
        }
      ],
      "name": "Transfer",
      "type": "event"
    },
    {
      "inputs": [
        {
          "internalType": "address",
          "name": "to",
          "type": "address"
        },
        {
          "internalType": "uint256",
          "name": "tokenId",
          "type": "uint256"
        }
      ],
      "name": "approve",
      "outputs": [],
      "stateMutability": "nonpayable",
      "type": "function"
    },
    {
      "inputs": [
        {
          "internalType": "address",
          "name": "owner",
          "type": "address"
        }
      ],
      "name": "balanceOf",
      "outputs": [
        {
          "internalType": "uint256",
          "name": "",
          "type": "uint256"
        }
      ],
      "stateMutability": "view",
      "type": "function",
      "constant": true
    },
    {
      "inputs": [
        {
          "internalType": "uint256",
          "name": "",
          "type": "uint256"
        },
        {
          "internalType": "uint256",
          "name": "",
          "type": "uint256"
        }
      ],
      "name": "fulfilledRequestToToken",
      "outputs": [
        {
          "internalType": "uint256",
          "name": "",
          "type": "uint256"
        }
      ],
      "stateMutability": "view",
      "type": "function",
      "constant": true
    },
    {
      "inputs": [
        {
          "internalType": "uint256",
          "name": "tokenId",
          "type": "uint256"
        }
      ],
      "name": "getApproved",
      "outputs": [
        {
          "internalType": "address",
          "name": "",
          "type": "address"
        }
      ],
      "stateMutability": "view",
      "type": "function",
      "constant": true
    },
    {
      "inputs": [
        {
          "internalType": "address",
          "name": "owner",
          "type": "address"
        },
        {
          "internalType": "address",
          "name": "operator",
          "type": "address"
        }
      ],
      "name": "isApprovedForAll",
      "outputs": [
        {
          "internalType": "bool",
          "name": "",
          "type": "bool"
        }
      ],
      "stateMutability": "view",
      "type": "function",
      "constant": true
    },
    {
      "inputs": [],
      "name": "name",
      "outputs": [
        {
          "internalType": "string",
          "name": "",
          "type": "string"
        }
      ],
      "stateMutability": "view",
      "type": "function",
      "constant": true
    },
    {
      "inputs": [
        {
          "internalType": "address",
          "name": "",
          "type": "address"
        },
        {
          "internalType": "uint256",
          "name": "",
          "type": "uint256"
        }
      ],
      "name": "ownedProducts",
      "outputs": [
        {
          "internalType": "uint256",
          "name": "",
          "type": "uint256"
        }
      ],
      "stateMutability": "view",
      "type": "function",
      "constant": true
    },
    {
      "inputs": [
        {
          "internalType": "uint256",
          "name": "tokenId",
          "type": "uint256"
        }
      ],
      "name": "ownerOf",
      "outputs": [
        {
          "internalType": "address",
          "name": "",
          "type": "address"
        }
      ],
      "stateMutability": "view",
      "type": "function",
      "constant": true
    },
    {
      "inputs": [
        {
          "internalType": "uint256",
          "name": "",
          "type": "uint256"
        }
      ],
      "name": "productTokens",
      "outputs": [
        {
          "internalType": "uint256",
          "name": "tokenId",
          "type": "uint256"
        },
        {
          "components": [
            {
              "internalType": "uint256",
              "name": "id",
              "type": "uint256"
            },
            {
              "internalType": "address",
              "name": "ethAddress",
              "type": "address"
            },
            {
              "internalType": "string",
              "name": "email",
              "type": "string"
            },
            {
              "internalType": "string",
              "name": "username",
              "type": "string"
            },
            {
              "internalType": "string",
              "name": "location",
              "type": "string"
            },
            {
              "internalType": "uint8",
              "name": "role",
              "type": "uint8"
            },
            {
              "internalType": "bool",
              "name": "registered",
              "type": "bool"
            }
          ],
          "internalType": "struct SharedStructs.User",
          "name": "manufacturer",
          "type": "tuple"
        },
        {
          "components": [
            {
              "internalType": "uint256",
              "name": "id",
              "type": "uint256"
            },
            {
              "internalType": "address",
              "name": "ethAddress",
              "type": "address"
            },
            {
              "internalType": "string",
              "name": "email",
              "type": "string"
            },
            {
              "internalType": "string",
              "name": "username",
              "type": "string"
            },
            {
              "internalType": "string",
              "name": "location",
              "type": "string"
            },
            {
              "internalType": "uint8",
              "name": "role",
              "type": "uint8"
            },
            {
              "internalType": "bool",
              "name": "registered",
              "type": "bool"
            }
          ],
          "internalType": "struct SharedStructs.User",
          "name": "consumer",
          "type": "tuple"
        },
        {
          "internalType": "string",
          "name": "metadataURI",
          "type": "string"
        },
        {
          "internalType": "bool",
          "name": "isBought",
          "type": "bool"
        }
      ],
      "stateMutability": "view",
      "type": "function",
      "constant": true
    },
    {
      "inputs": [
        {
          "internalType": "address",
          "name": "from",
          "type": "address"
        },
        {
          "internalType": "address",
          "name": "to",
          "type": "address"
        },
        {
          "internalType": "uint256",
          "name": "tokenId",
          "type": "uint256"
        }
      ],
      "name": "safeTransferFrom",
      "outputs": [],
      "stateMutability": "nonpayable",
      "type": "function"
    },
    {
      "inputs": [
        {
          "internalType": "address",
          "name": "from",
          "type": "address"
        },
        {
          "internalType": "address",
          "name": "to",
          "type": "address"
        },
        {
          "internalType": "uint256",
          "name": "tokenId",
          "type": "uint256"
        },
        {
          "internalType": "bytes",
          "name": "data",
          "type": "bytes"
        }
      ],
      "name": "safeTransferFrom",
      "outputs": [],
      "stateMutability": "nonpayable",
      "type": "function"
    },
    {
      "inputs": [
        {
          "internalType": "address",
          "name": "operator",
          "type": "address"
        },
        {
          "internalType": "bool",
          "name": "approved",
          "type": "bool"
        }
      ],
      "name": "setApprovalForAll",
      "outputs": [],
      "stateMutability": "nonpayable",
      "type": "function"
    },
    {
      "inputs": [
        {
          "internalType": "uint256",
          "name": "",
          "type": "uint256"
        },
        {
          "internalType": "uint256",
          "name": "",
          "type": "uint256"
        }
      ],
      "name": "soldProductToToken",
      "outputs": [
        {
          "internalType": "uint256",
          "name": "",
          "type": "uint256"
        }
      ],
      "stateMutability": "view",
      "type": "function",
      "constant": true
    },
    {
      "inputs": [
        {
          "internalType": "uint256",
          "name": "",
          "type": "uint256"
        },
        {
          "internalType": "uint256",
          "name": "",
          "type": "uint256"
        }
      ],
      "name": "soldRawMaterialToToken",
      "outputs": [
        {
          "internalType": "uint256",
          "name": "",
          "type": "uint256"
        }
      ],
      "stateMutability": "view",
      "type": "function",
      "constant": true
    },
    {
      "inputs": [
        {
          "internalType": "bytes4",
          "name": "interfaceId",
          "type": "bytes4"
        }
      ],
      "name": "supportsInterface",
      "outputs": [
        {
          "internalType": "bool",
          "name": "",
          "type": "bool"
        }
      ],
      "stateMutability": "view",
      "type": "function",
      "constant": true
    },
    {
      "inputs": [],
      "name": "symbol",
      "outputs": [
        {
          "internalType": "string",
          "name": "",
          "type": "string"
        }
      ],
      "stateMutability": "view",
      "type": "function",
      "constant": true
    },
    {
      "inputs": [
        {
          "internalType": "uint256",
          "name": "",
          "type": "uint256"
        }
      ],
      "name": "tokenExists",
      "outputs": [
        {
          "internalType": "bool",
          "name": "",
          "type": "bool"
        }
      ],
      "stateMutability": "view",
      "type": "function",
      "constant": true
    },
    {
      "inputs": [
        {
          "internalType": "uint256",
          "name": "tokenId",
          "type": "uint256"
        }
      ],
      "name": "tokenURI",
      "outputs": [
        {
          "internalType": "string",
          "name": "",
          "type": "string"
        }
      ],
      "stateMutability": "view",
      "type": "function",
      "constant": true
    },
    {
      "inputs": [
        {
          "internalType": "address",
          "name": "from",
          "type": "address"
        },
        {
          "internalType": "address",
          "name": "to",
          "type": "address"
        },
        {
          "internalType": "uint256",
          "name": "tokenId",
          "type": "uint256"
        }
      ],
      "name": "transferFrom",
      "outputs": [],
      "stateMutability": "nonpayable",
      "type": "function"
    },
    {
      "inputs": [
        {
          "internalType": "uint256",
          "name": "",
          "type": "uint256"
        },
        {
          "internalType": "uint256",
          "name": "",
          "type": "uint256"
        }
      ],
      "name": "unsoldProductToToken",
      "outputs": [
        {
          "internalType": "uint256",
          "name": "",
          "type": "uint256"
        }
      ],
      "stateMutability": "view",
      "type": "function",
      "constant": true
    },
    {
      "inputs": [
        {
          "internalType": "string",
          "name": "metadataURI",
          "type": "string"
        },
        {
          "internalType": "uint256",
          "name": "productId",
          "type": "uint256"
        },
        {
          "internalType": "uint256",
          "name": "quantity",
          "type": "uint256"
        },
        {
          "internalType": "uint256[]",
          "name": "soldRawMaterialIds",
          "type": "uint256[]"
        },
        {
          "components": [
            {
              "internalType": "uint256",
              "name": "id",
              "type": "uint256"
            },
            {
              "internalType": "address",
              "name": "ethAddress",
              "type": "address"
            },
            {
              "internalType": "string",
              "name": "email",
              "type": "string"
            },
            {
              "internalType": "string",
              "name": "username",
              "type": "string"
            },
            {
              "internalType": "string",
              "name": "location",
              "type": "string"
            },
            {
              "internalType": "uint8",
              "name": "role",
              "type": "uint8"
            },
            {
              "internalType": "bool",
              "name": "registered",
              "type": "bool"
            }
          ],
          "internalType": "struct SharedStructs.User",
          "name": "manufacturer",
          "type": "tuple"
        }
      ],
      "name": "manufactureProduct",
      "outputs": [],
      "stateMutability": "nonpayable",
      "type": "function"
    },
    {
      "inputs": [
        {
          "internalType": "uint256",
          "name": "productId",
          "type": "uint256"
        },
        {
          "internalType": "uint256",
          "name": "soldProductId",
          "type": "uint256"
        },
        {
          "internalType": "uint256",
          "name": "requestId",
          "type": "uint256"
        },
        {
          "internalType": "uint256",
          "name": "quantity",
          "type": "uint256"
        },
        {
          "internalType": "address",
          "name": "manufacturerAddress",
          "type": "address"
        },
        {
          "components": [
            {
              "internalType": "uint256",
              "name": "id",
              "type": "uint256"
            },
            {
              "internalType": "address",
              "name": "ethAddress",
              "type": "address"
            },
            {
              "internalType": "string",
              "name": "email",
              "type": "string"
            },
            {
              "internalType": "string",
              "name": "username",
              "type": "string"
            },
            {
              "internalType": "string",
              "name": "location",
              "type": "string"
            },
            {
              "internalType": "uint8",
              "name": "role",
              "type": "uint8"
            },
            {
              "internalType": "bool",
              "name": "registered",
              "type": "bool"
            }
          ],
          "internalType": "struct SharedStructs.User",
          "name": "consumer",
          "type": "tuple"
        }
      ],
      "name": "buyProduct",
      "outputs": [],
      "stateMutability": "nonpayable",
      "type": "function"
    },
    {
      "inputs": [
        {
          "internalType": "uint256",
          "name": "productId",
          "type": "uint256"
        }
      ],
      "name": "getUnsoldProductNFT",
      "outputs": [
        {
          "components": [
            {
              "internalType": "uint256",
              "name": "tokenId",
              "type": "uint256"
            },
            {
              "components": [
                {
                  "internalType": "uint256",
                  "name": "id",
                  "type": "uint256"
                },
                {
                  "internalType": "address",
                  "name": "ethAddress",
                  "type": "address"
                },
                {
                  "internalType": "string",
                  "name": "email",
                  "type": "string"
                },
                {
                  "internalType": "string",
                  "name": "username",
                  "type": "string"
                },
                {
                  "internalType": "string",
                  "name": "location",
                  "type": "string"
                },
                {
                  "internalType": "uint8",
                  "name": "role",
                  "type": "uint8"
                },
                {
                  "internalType": "bool",
                  "name": "registered",
                  "type": "bool"
                }
              ],
              "internalType": "struct SharedStructs.User",
              "name": "manufacturer",
              "type": "tuple"
            },
            {
              "components": [
                {
                  "internalType": "uint256",
                  "name": "id",
                  "type": "uint256"
                },
                {
                  "internalType": "address",
                  "name": "ethAddress",
                  "type": "address"
                },
                {
                  "internalType": "string",
                  "name": "email",
                  "type": "string"
                },
                {
                  "internalType": "string",
                  "name": "username",
                  "type": "string"
                },
                {
                  "internalType": "string",
                  "name": "location",
                  "type": "string"
                },
                {
                  "internalType": "uint8",
                  "name": "role",
                  "type": "uint8"
                },
                {
                  "internalType": "bool",
                  "name": "registered",
                  "type": "bool"
                }
              ],
              "internalType": "struct SharedStructs.User",
              "name": "consumer",
              "type": "tuple"
            },
            {
              "internalType": "string",
              "name": "metadataURI",
              "type": "string"
            },
            {
              "internalType": "bool",
              "name": "isBought",
              "type": "bool"
            }
          ],
          "internalType": "struct ProductNFT.ProductToken[]",
          "name": "",
          "type": "tuple[]"
        }
      ],
      "stateMutability": "view",
      "type": "function",
      "constant": true
    },
    {
      "inputs": [
        {
          "internalType": "uint256",
          "name": "soldProductId",
          "type": "uint256"
        }
      ],
      "name": "getSoldProductNFT",
      "outputs": [
        {
          "components": [
            {
              "internalType": "uint256",
              "name": "tokenId",
              "type": "uint256"
            },
            {
              "components": [
                {
                  "internalType": "uint256",
                  "name": "id",
                  "type": "uint256"
                },
                {
                  "internalType": "address",
                  "name": "ethAddress",
                  "type": "address"
                },
                {
                  "internalType": "string",
                  "name": "email",
                  "type": "string"
                },
                {
                  "internalType": "string",
                  "name": "username",
                  "type": "string"
                },
                {
                  "internalType": "string",
                  "name": "location",
                  "type": "string"
                },
                {
                  "internalType": "uint8",
                  "name": "role",
                  "type": "uint8"
                },
                {
                  "internalType": "bool",
                  "name": "registered",
                  "type": "bool"
                }
              ],
              "internalType": "struct SharedStructs.User",
              "name": "manufacturer",
              "type": "tuple"
            },
            {
              "components": [
                {
                  "internalType": "uint256",
                  "name": "id",
                  "type": "uint256"
                },
                {
                  "internalType": "address",
                  "name": "ethAddress",
                  "type": "address"
                },
                {
                  "internalType": "string",
                  "name": "email",
                  "type": "string"
                },
                {
                  "internalType": "string",
                  "name": "username",
                  "type": "string"
                },
                {
                  "internalType": "string",
                  "name": "location",
                  "type": "string"
                },
                {
                  "internalType": "uint8",
                  "name": "role",
                  "type": "uint8"
                },
                {
                  "internalType": "bool",
                  "name": "registered",
                  "type": "bool"
                }
              ],
              "internalType": "struct SharedStructs.User",
              "name": "consumer",
              "type": "tuple"
            },
            {
              "internalType": "string",
              "name": "metadataURI",
              "type": "string"
            },
            {
              "internalType": "bool",
              "name": "isBought",
              "type": "bool"
            }
          ],
          "internalType": "struct ProductNFT.ProductToken[]",
          "name": "",
          "type": "tuple[]"
        }
      ],
      "stateMutability": "view",
      "type": "function",
      "constant": true
    },
    {
      "inputs": [
        {
          "internalType": "uint256",
          "name": "soldRawMaterialId",
          "type": "uint256"
        }
      ],
      "name": "getSoldRawMaterialProductNFT",
      "outputs": [
        {
          "components": [
            {
              "internalType": "uint256",
              "name": "tokenId",
              "type": "uint256"
            },
            {
              "components": [
                {
                  "internalType": "uint256",
                  "name": "id",
                  "type": "uint256"
                },
                {
                  "internalType": "address",
                  "name": "ethAddress",
                  "type": "address"
                },
                {
                  "internalType": "string",
                  "name": "email",
                  "type": "string"
                },
                {
                  "internalType": "string",
                  "name": "username",
                  "type": "string"
                },
                {
                  "internalType": "string",
                  "name": "location",
                  "type": "string"
                },
                {
                  "internalType": "uint8",
                  "name": "role",
                  "type": "uint8"
                },
                {
                  "internalType": "bool",
                  "name": "registered",
                  "type": "bool"
                }
              ],
              "internalType": "struct SharedStructs.User",
              "name": "manufacturer",
              "type": "tuple"
            },
            {
              "components": [
                {
                  "internalType": "uint256",
                  "name": "id",
                  "type": "uint256"
                },
                {
                  "internalType": "address",
                  "name": "ethAddress",
                  "type": "address"
                },
                {
                  "internalType": "string",
                  "name": "email",
                  "type": "string"
                },
                {
                  "internalType": "string",
                  "name": "username",
                  "type": "string"
                },
                {
                  "internalType": "string",
                  "name": "location",
                  "type": "string"
                },
                {
                  "internalType": "uint8",
                  "name": "role",
                  "type": "uint8"
                },
                {
                  "internalType": "bool",
                  "name": "registered",
                  "type": "bool"
                }
              ],
              "internalType": "struct SharedStructs.User",
              "name": "consumer",
              "type": "tuple"
            },
            {
              "internalType": "string",
              "name": "metadataURI",
              "type": "string"
            },
            {
              "internalType": "bool",
              "name": "isBought",
              "type": "bool"
            }
          ],
          "internalType": "struct ProductNFT.ProductToken[]",
          "name": "",
          "type": "tuple[]"
        }
      ],
      "stateMutability": "view",
      "type": "function",
      "constant": true
    },
    {
      "inputs": [
        {
          "internalType": "uint256",
          "name": "requestId",
          "type": "uint256"
        }
      ],
      "name": "getFulfilledRequestProductNFT",
      "outputs": [
        {
          "components": [
            {
              "internalType": "uint256",
              "name": "tokenId",
              "type": "uint256"
            },
            {
              "components": [
                {
                  "internalType": "uint256",
                  "name": "id",
                  "type": "uint256"
                },
                {
                  "internalType": "address",
                  "name": "ethAddress",
                  "type": "address"
                },
                {
                  "internalType": "string",
                  "name": "email",
                  "type": "string"
                },
                {
                  "internalType": "string",
                  "name": "username",
                  "type": "string"
                },
                {
                  "internalType": "string",
                  "name": "location",
                  "type": "string"
                },
                {
                  "internalType": "uint8",
                  "name": "role",
                  "type": "uint8"
                },
                {
                  "internalType": "bool",
                  "name": "registered",
                  "type": "bool"
                }
              ],
              "internalType": "struct SharedStructs.User",
              "name": "manufacturer",
              "type": "tuple"
            },
            {
              "components": [
                {
                  "internalType": "uint256",
                  "name": "id",
                  "type": "uint256"
                },
                {
                  "internalType": "address",
                  "name": "ethAddress",
                  "type": "address"
                },
                {
                  "internalType": "string",
                  "name": "email",
                  "type": "string"
                },
                {
                  "internalType": "string",
                  "name": "username",
                  "type": "string"
                },
                {
                  "internalType": "string",
                  "name": "location",
                  "type": "string"
                },
                {
                  "internalType": "uint8",
                  "name": "role",
                  "type": "uint8"
                },
                {
                  "internalType": "bool",
                  "name": "registered",
                  "type": "bool"
                }
              ],
              "internalType": "struct SharedStructs.User",
              "name": "consumer",
              "type": "tuple"
            },
            {
              "internalType": "string",
              "name": "metadataURI",
              "type": "string"
            },
            {
              "internalType": "bool",
              "name": "isBought",
              "type": "bool"
            }
          ],
          "internalType": "struct ProductNFT.ProductToken[]",
          "name": "",
          "type": "tuple[]"
        }
      ],
      "stateMutability": "view",
      "type": "function",
      "constant": true
    },
    {
      "inputs": [
        {
          "internalType": "address",
          "name": "ethAddress",
          "type": "address"
        }
      ],
      "name": "getUserNFTs",
      "outputs": [
        {
          "components": [
            {
              "internalType": "uint256",
              "name": "tokenId",
              "type": "uint256"
            },
            {
              "components": [
                {
                  "internalType": "uint256",
                  "name": "id",
                  "type": "uint256"
                },
                {
                  "internalType": "address",
                  "name": "ethAddress",
                  "type": "address"
                },
                {
                  "internalType": "string",
                  "name": "email",
                  "type": "string"
                },
                {
                  "internalType": "string",
                  "name": "username",
                  "type": "string"
                },
                {
                  "internalType": "string",
                  "name": "location",
                  "type": "string"
                },
                {
                  "internalType": "uint8",
                  "name": "role",
                  "type": "uint8"
                },
                {
                  "internalType": "bool",
                  "name": "registered",
                  "type": "bool"
                }
              ],
              "internalType": "struct SharedStructs.User",
              "name": "manufacturer",
              "type": "tuple"
            },
            {
              "components": [
                {
                  "internalType": "uint256",
                  "name": "id",
                  "type": "uint256"
                },
                {
                  "internalType": "address",
                  "name": "ethAddress",
                  "type": "address"
                },
                {
                  "internalType": "string",
                  "name": "email",
                  "type": "string"
                },
                {
                  "internalType": "string",
                  "name": "username",
                  "type": "string"
                },
                {
                  "internalType": "string",
                  "name": "location",
                  "type": "string"
                },
                {
                  "internalType": "uint8",
                  "name": "role",
                  "type": "uint8"
                },
                {
                  "internalType": "bool",
                  "name": "registered",
                  "type": "bool"
                }
              ],
              "internalType": "struct SharedStructs.User",
              "name": "consumer",
              "type": "tuple"
            },
            {
              "internalType": "string",
              "name": "metadataURI",
              "type": "string"
            },
            {
              "internalType": "bool",
              "name": "isBought",
              "type": "bool"
            }
          ],
          "internalType": "struct ProductNFT.ProductToken[]",
          "name": "",
          "type": "tuple[]"
        }
      ],
      "stateMutability": "view",
      "type": "function",
      "constant": true
    }
  ],
  "bytecode": "0x5f608081815260a082905261016082815260c081905261018083815260e0526101c06040526101a0838152610100526005610120526101408390526008928355600980546001600160a01b0319169055909190600a90620000619082620001d3565b5060608201516003820190620000789082620001d3565b50608082015160048201906200008f9082620001d3565b5060a08201516005909101805460c09093015115156101000261ffff1990931660ff90921691909117919091179055348015620000ca575f80fd5b506040518060400160405280600a815260200169141c9bd91d58dd13919560b21b815250604051806040016040528060048152602001631413919560e21b815250815f90816200011b9190620001d3565b5060016200012a8282620001d3565b5050506200029b565b634e487b7160e01b5f52604160045260245ffd5b600181811c908216806200015c57607f821691505b6020821081036200017b57634e487b7160e01b5f52602260045260245ffd5b50919050565b601f821115620001ce575f81815260208120601f850160051c81016020861015620001a95750805b601f850160051c820191505b81811015620001ca57828155600101620001b5565b5050505b505050565b81516001600160401b03811115620001ef57620001ef62000133565b620002078162000200845462000147565b8462000181565b602080601f8311600181146200023d575f8415620002255750858301515b5f19600386901b1c1916600185901b178555620001ca565b5f85815260208120601f198616915b828110156200026d578886015182559484019460019091019084016200024c565b50858210156200028b57878501515f19600388901b60f8161c191681555b5050505050600190811b01905550565b61442880620002a95f395ff3fe608060405234801561000f575f80fd5b5060043610610146575f3560e01c8062923f9e1461014a57806301ffc9a71461018157806306fdde0314610194578063081812fc146101a95780630938f651146101c9578063095ea7b3146101de5780631a1f8834146101f157806323b872dd146102125780632cbfc0101461022557806340672cee1461024557806342842e0e1461025857806352de4ee51461026b5780636352211e1461027e578063635dda4e1461029157806370785d91146102a457806370a08231146102b75780637722370c146102ca5780638fe299d4146102dd57806395d89b41146102f0578063a22cb465146102f8578063b88d4fde1461030b578063c87b56dd1461031e578063cb5f254a14610331578063d661743c14610344578063de4cbf8914610357578063e985e9c51461037b578063ecea7bb41461038e575b5f80fd5b61016c610158366004613aad565b60106020525f908152604090205460ff1681565b60405190151581526020015b60405180910390f35b61016c61018f366004613adc565b6103a1565b61019c6103cb565b6040516101789190613b44565b6101bc6101b7366004613aad565b61045a565b6040516101789190613b56565b6101dc6101d7366004613d4d565b61046e565b005b6101dc6101ec366004613dba565b610870565b6102046101ff366004613de2565b61087f565b604051908152602001610178565b6101dc610220366004613e02565b6108aa565b610238610233366004613aad565b61091f565b6040516101789190613ec4565b610238610253366004613aad565b610eea565b6101dc610266366004613e02565b6114ae565b610238610279366004613f7b565b6114cd565b6101bc61028c366004613aad565b611aaf565b6101dc61029f366004613f94565b611ab9565b6102386102b2366004613aad565b611f77565b6102046102c5366004613f7b565b61253b565b6102046102d8366004613de2565b612580565b6102386102eb366004613aad565b612599565b61019c612b5d565b6101dc610306366004614089565b612b6c565b6101dc6103193660046140ba565b612b77565b61019c61032c366004613aad565b612b8f565b61020461033f366004613de2565b612c9a565b610204610352366004613dba565b612cb3565b61036a610365366004613aad565b612ccc565b604051610178959493929190614130565b61016c610389366004614183565b613179565b61020461039c366004613de2565b6131a6565b5f6001600160e01b03198216632483248360e11b14806103c557506103c5826131bf565b92915050565b60605f80546103d9906141ab565b80601f0160208091040260200160405190810160405280929190818152602001828054610405906141ab565b80156104505780601f1061042757610100808354040283529160200191610450565b820191905f5260205f20905b81548152906001019060200180831161043357829003601f168201915b5050505050905090565b5f6104648261320e565b506103c582613245565b5f5b83811015610867575f878152601160205260408120805483908110610497576104976141e3565b905f5260205f20015490505f5b6001600160a01b0385165f908152600f6020526040902054811015610688575f8281526010602052604090205460ff1615156001146105235760405162461bcd60e51b8152602060048201526016602482015275141c9bd91d58dd08191bd95cc81b9bdd08195e1a5cdd60521b60448201526064015b60405180910390fd5b5f828152600e60208190526040909120015460ff161561057e5760405162461bcd60e51b8152602060048201526016602482015275141c9bd91d58dd08185b1c9958591e48189bdd59da1d60521b604482015260640161051a565b6001600160a01b0385165f908152600f602052604090208054839190839081106105aa576105aa6141e3565b905f5260205f20015403610676576001600160a01b0385165f908152600f6020526040902080546105dd9060019061420b565b815481106105ed576105ed6141e3565b905f5260205f200154600f5f876001600160a01b03166001600160a01b031681526020019081526020015f20828154811061062a5761062a6141e3565b5f9182526020808320909101929092556001600160a01b0387168152600f9091526040902080548061065e5761065e61421e565b600190038181905f5260205f20015f90559055610688565b8061068081614232565b9150506104a4565b506106988484602001518361325f565b5f818152600e6020908152604091829020855160078201908155918601516008820180546001600160a01b0319166001600160a01b03909216919091179055918501518592600901906106eb908261428f565b5060608201516003820190610700908261428f565b5060808201516004820190610715908261428f565b5060a08201516005909101805460c09093015115156101000261ffff1990931660ff909216919091179190911790555f818152600e60208181526040808420909201805460ff19166001908117909155868201516001600160a01b03168452600f825282842080548083018255908552828520018590558a84526012825282842080548083018255908552828520018590558984526013825282842080548083018255908552828520018590558b845260119091529120805490916107d99161420b565b815481106107e9576107e96141e3565b905f5260205f20015460115f8a81526020019081526020015f208381548110610814576108146141e3565b905f5260205f20018190555060115f8981526020019081526020015f208054806108405761084061421e565b600190038181905f5260205f20015f9055905550808061085f90614232565b915050610470565b50505050505050565b61087b8282336132f8565b5050565b6013602052815f5260405f208181548110610898575f80fd5b905f5260205f20015f91509150505481565b6001600160a01b0382166108d3575f604051633250574960e11b815260040161051a9190613b56565b5f6108df838333613305565b9050836001600160a01b0316816001600160a01b031614610919578382826040516364283d7b60e01b815260040161051a9392919061434a565b50505050565b5f81815260116020526040812054606091906001600160401b0381111561094857610948613b85565b60405190808252806020026020018201604052801561098157816020015b61096e613a2d565b8152602001906001900390816109665790505b5090505f5b5f84815260116020526040902054811015610ee3575f8481526011602052604081208054600e929190849081106109bf576109bf6141e3565b905f5260205f20015481526020019081526020015f206040518060a00160405290815f8201548152602001600182016040518060e00160405290815f8201548152602001600182015f9054906101000a90046001600160a01b03166001600160a01b03166001600160a01b03168152602001600282018054610a40906141ab565b80601f0160208091040260200160405190810160405280929190818152602001828054610a6c906141ab565b8015610ab75780601f10610a8e57610100808354040283529160200191610ab7565b820191905f5260205f20905b815481529060010190602001808311610a9a57829003601f168201915b50505050508152602001600382018054610ad0906141ab565b80601f0160208091040260200160405190810160405280929190818152602001828054610afc906141ab565b8015610b475780601f10610b1e57610100808354040283529160200191610b47565b820191905f5260205f20905b815481529060010190602001808311610b2a57829003601f168201915b50505050508152602001600482018054610b60906141ab565b80601f0160208091040260200160405190810160405280929190818152602001828054610b8c906141ab565b8015610bd75780601f10610bae57610100808354040283529160200191610bd7565b820191905f5260205f20905b815481529060010190602001808311610bba57829003601f168201915b50505091835250506005919091015460ff808216602080850191909152610100909204161515604092830152918352805160e081018252600785018054825260088601546001600160a01b031682850152600986018054959094019491939092840191610c43906141ab565b80601f0160208091040260200160405190810160405280929190818152602001828054610c6f906141ab565b8015610cba5780601f10610c9157610100808354040283529160200191610cba565b820191905f5260205f20905b815481529060010190602001808311610c9d57829003601f168201915b50505050508152602001600382018054610cd3906141ab565b80601f0160208091040260200160405190810160405280929190818152602001828054610cff906141ab565b8015610d4a5780601f10610d2157610100808354040283529160200191610d4a565b820191905f5260205f20905b815481529060010190602001808311610d2d57829003601f168201915b50505050508152602001600482018054610d63906141ab565b80601f0160208091040260200160405190810160405280929190818152602001828054610d8f906141ab565b8015610dda5780601f10610db157610100808354040283529160200191610dda565b820191905f5260205f20905b815481529060010190602001808311610dbd57829003601f168201915b50505091835250506005919091015460ff808216602080850191909152610100909204161515604090920191909152908252600d830180549290910191610e20906141ab565b80601f0160208091040260200160405190810160405280929190818152602001828054610e4c906141ab565b8015610e975780601f10610e6e57610100808354040283529160200191610e97565b820191905f5260205f20905b815481529060010190602001808311610e7a57829003601f168201915b5050509183525050600e919091015460ff1615156020909101528251839083908110610ec557610ec56141e3565b60200260200101819052508080610edb90614232565b915050610986565b5092915050565b5f81815260136020526040812054606091906001600160401b03811115610f1357610f13613b85565b604051908082528060200260200182016040528015610f4c57816020015b610f39613a2d565b815260200190600190039081610f315790505b5090505f5b5f84815260136020526040902054811015610ee3575f8481526013602052604081208054600e92919084908110610f8a57610f8a6141e3565b905f5260205f20015481526020019081526020015f206040518060a00160405290815f8201548152602001600182016040518060e00160405290815f8201548152602001600182015f9054906101000a90046001600160a01b03166001600160a01b03166001600160a01b0316815260200160028201805461100b906141ab565b80601f0160208091040260200160405190810160405280929190818152602001828054611037906141ab565b80156110825780601f1061105957610100808354040283529160200191611082565b820191905f5260205f20905b81548152906001019060200180831161106557829003601f168201915b5050505050815260200160038201805461109b906141ab565b80601f01602080910402602001604051908101604052809291908181526020018280546110c7906141ab565b80156111125780601f106110e957610100808354040283529160200191611112565b820191905f5260205f20905b8154815290600101906020018083116110f557829003601f168201915b5050505050815260200160048201805461112b906141ab565b80601f0160208091040260200160405190810160405280929190818152602001828054611157906141ab565b80156111a25780601f10611179576101008083540402835291602001916111a2565b820191905f5260205f20905b81548152906001019060200180831161118557829003601f168201915b50505091835250506005919091015460ff808216602080850191909152610100909204161515604092830152918352805160e081018252600785018054825260088601546001600160a01b03168285015260098601805495909401949193909284019161120e906141ab565b80601f016020809104026020016040519081016040528092919081815260200182805461123a906141ab565b80156112855780601f1061125c57610100808354040283529160200191611285565b820191905f5260205f20905b81548152906001019060200180831161126857829003601f168201915b5050505050815260200160038201805461129e906141ab565b80601f01602080910402602001604051908101604052809291908181526020018280546112ca906141ab565b80156113155780601f106112ec57610100808354040283529160200191611315565b820191905f5260205f20905b8154815290600101906020018083116112f857829003601f168201915b5050505050815260200160048201805461132e906141ab565b80601f016020809104026020016040519081016040528092919081815260200182805461135a906141ab565b80156113a55780601f1061137c576101008083540402835291602001916113a5565b820191905f5260205f20905b81548152906001019060200180831161138857829003601f168201915b50505091835250506005919091015460ff808216602080850191909152610100909204161515604090920191909152908252600d8301805492909101916113eb906141ab565b80601f0160208091040260200160405190810160405280929190818152602001828054611417906141ab565b80156114625780601f1061143957610100808354040283529160200191611462565b820191905f5260205f20905b81548152906001019060200180831161144557829003601f168201915b5050509183525050600e919091015460ff1615156020909101528251839083908110611490576114906141e3565b602002602001018190525080806114a690614232565b915050610f51565b6114c883838360405180602001604052805f815250612b77565b505050565b6001600160a01b0381165f908152600f6020526040812054606091906001600160401b0381111561150057611500613b85565b60405190808252806020026020018201604052801561153957816020015b611526613a2d565b81526020019060019003908161151e5790505b5090505f5b6001600160a01b0384165f908152600f6020526040902054811015610ee3576001600160a01b0384165f908152600f602052604081208054600e9291908490811061158b5761158b6141e3565b905f5260205f20015481526020019081526020015f206040518060a00160405290815f8201548152602001600182016040518060e00160405290815f8201548152602001600182015f9054906101000a90046001600160a01b03166001600160a01b03166001600160a01b0316815260200160028201805461160c906141ab565b80601f0160208091040260200160405190810160405280929190818152602001828054611638906141ab565b80156116835780601f1061165a57610100808354040283529160200191611683565b820191905f5260205f20905b81548152906001019060200180831161166657829003601f168201915b5050505050815260200160038201805461169c906141ab565b80601f01602080910402602001604051908101604052809291908181526020018280546116c8906141ab565b80156117135780601f106116ea57610100808354040283529160200191611713565b820191905f5260205f20905b8154815290600101906020018083116116f657829003601f168201915b5050505050815260200160048201805461172c906141ab565b80601f0160208091040260200160405190810160405280929190818152602001828054611758906141ab565b80156117a35780601f1061177a576101008083540402835291602001916117a3565b820191905f5260205f20905b81548152906001019060200180831161178657829003601f168201915b50505091835250506005919091015460ff808216602080850191909152610100909204161515604092830152918352805160e081018252600785018054825260088601546001600160a01b03168285015260098601805495909401949193909284019161180f906141ab565b80601f016020809104026020016040519081016040528092919081815260200182805461183b906141ab565b80156118865780601f1061185d57610100808354040283529160200191611886565b820191905f5260205f20905b81548152906001019060200180831161186957829003601f168201915b5050505050815260200160038201805461189f906141ab565b80601f01602080910402602001604051908101604052809291908181526020018280546118cb906141ab565b80156119165780601f106118ed57610100808354040283529160200191611916565b820191905f5260205f20905b8154815290600101906020018083116118f957829003601f168201915b5050505050815260200160048201805461192f906141ab565b80601f016020809104026020016040519081016040528092919081815260200182805461195b906141ab565b80156119a65780601f1061197d576101008083540402835291602001916119a6565b820191905f5260205f20905b81548152906001019060200180831161198957829003601f168201915b50505091835250506005919091015460ff808216602080850191909152610100909204161515604090920191909152908252600d8301805492909101916119ec906141ab565b80601f0160208091040260200160405190810160405280929190818152602001828054611a18906141ab565b8015611a635780601f10611a3a57610100808354040283529160200191611a63565b820191905f5260205f20905b815481529060010190602001808311611a4657829003601f168201915b5050509183525050600e919091015460ff1615156020909101528251839083908110611a9157611a916141e3565b60200260200101819052508080611aa790614232565b91505061153e565b5f6103c58261320e565b5f5b83811015611f6f5760078054905f611ad283614232565b90915550506007546020830151611ae990826133f2565b611af3818861340b565b6040805160a0810182528281526020808201869052825160e0810184526008805482526009546001600160a01b031692820192909252600a80549394858101949293929084019190611b44906141ab565b80601f0160208091040260200160405190810160405280929190818152602001828054611b70906141ab565b8015611bbb5780601f10611b9257610100808354040283529160200191611bbb565b820191905f5260205f20905b815481529060010190602001808311611b9e57829003601f168201915b50505050508152602001600382018054611bd4906141ab565b80601f0160208091040260200160405190810160405280929190818152602001828054611c00906141ab565b8015611c4b5780601f10611c2257610100808354040283529160200191611c4b565b820191905f5260205f20905b815481529060010190602001808311611c2e57829003601f168201915b50505050508152602001600482018054611c64906141ab565b80601f0160208091040260200160405190810160405280929190818152602001828054611c90906141ab565b8015611cdb5780601f10611cb257610100808354040283529160200191611cdb565b820191905f5260205f20905b815481529060010190602001808311611cbe57829003601f168201915b50505091835250506005919091015460ff8082166020808501919091526101009092041615156040928301529183528282018b90525f928101839052848352600e8252918290208351815583820151805160018301908155928101516002830180546001600160a01b0319166001600160a01b0390921691909117905592830151909291906003840190611d6f908261428f565b5060608201516003820190611d84908261428f565b5060808201516004820190611d99908261428f565b5060a08201516005909101805460c09093015115156101000261ffff1990931660ff9092169190911791909117905560408281015180516007840190815560208201516008850180546001600160a01b039092166001600160a01b0319909216919091179055918101519091906009840190611e15908261428f565b5060608201516003820190611e2a908261428f565b5060808201516004820190611e3f908261428f565b5060a08201516005909101805460c09093015115156101000261ffff1990931660ff909216919091179190911790556060820151600d820190611e82908261428f565b5060809190910151600e909101805491151560ff199283161790556020808501516001600160a01b03165f908152600f825260408082208054600181810183559184528484200186905585835260108452818320805490951681179094558982526011835281208054938401815581529081209091018290555b8451811015611f5a5760145f868381518110611f1a57611f1a6141e3565b6020908102919091018101518252818101929092526040015f90812080546001810182559082529190200182905580611f5281614232565b915050611efc565b50508080611f6790614232565b915050611abb565b505050505050565b5f81815260146020526040812054606091906001600160401b03811115611fa057611fa0613b85565b604051908082528060200260200182016040528015611fd957816020015b611fc6613a2d565b815260200190600190039081611fbe5790505b5090505f5b5f84815260146020526040902054811015610ee3575f8481526014602052604081208054600e92919084908110612017576120176141e3565b905f5260205f20015481526020019081526020015f206040518060a00160405290815f8201548152602001600182016040518060e00160405290815f8201548152602001600182015f9054906101000a90046001600160a01b03166001600160a01b03166001600160a01b03168152602001600282018054612098906141ab565b80601f01602080910402602001604051908101604052809291908181526020018280546120c4906141ab565b801561210f5780601f106120e65761010080835404028352916020019161210f565b820191905f5260205f20905b8154815290600101906020018083116120f257829003601f168201915b50505050508152602001600382018054612128906141ab565b80601f0160208091040260200160405190810160405280929190818152602001828054612154906141ab565b801561219f5780601f106121765761010080835404028352916020019161219f565b820191905f5260205f20905b81548152906001019060200180831161218257829003601f168201915b505050505081526020016004820180546121b8906141ab565b80601f01602080910402602001604051908101604052809291908181526020018280546121e4906141ab565b801561222f5780601f106122065761010080835404028352916020019161222f565b820191905f5260205f20905b81548152906001019060200180831161221257829003601f168201915b50505091835250506005919091015460ff808216602080850191909152610100909204161515604092830152918352805160e081018252600785018054825260088601546001600160a01b03168285015260098601805495909401949193909284019161229b906141ab565b80601f01602080910402602001604051908101604052809291908181526020018280546122c7906141ab565b80156123125780601f106122e957610100808354040283529160200191612312565b820191905f5260205f20905b8154815290600101906020018083116122f557829003601f168201915b5050505050815260200160038201805461232b906141ab565b80601f0160208091040260200160405190810160405280929190818152602001828054612357906141ab565b80156123a25780601f10612379576101008083540402835291602001916123a2565b820191905f5260205f20905b81548152906001019060200180831161238557829003601f168201915b505050505081526020016004820180546123bb906141ab565b80601f01602080910402602001604051908101604052809291908181526020018280546123e7906141ab565b80156124325780601f1061240957610100808354040283529160200191612432565b820191905f5260205f20905b81548152906001019060200180831161241557829003601f168201915b50505091835250506005919091015460ff808216602080850191909152610100909204161515604090920191909152908252600d830180549290910191612478906141ab565b80601f01602080910402602001604051908101604052809291908181526020018280546124a4906141ab565b80156124ef5780601f106124c6576101008083540402835291602001916124ef565b820191905f5260205f20905b8154815290600101906020018083116124d257829003601f168201915b5050509183525050600e919091015460ff161515602090910152825183908390811061251d5761251d6141e3565b6020026020010181905250808061253390614232565b915050611fde565b5f6001600160a01b038216612565575f6040516322718ad960e21b815260040161051a9190613b56565b506001600160a01b03165f9081526003602052604090205490565b6011602052815f5260405f208181548110610898575f80fd5b5f81815260126020526040812054606091906001600160401b038111156125c2576125c2613b85565b6040519080825280602002602001820160405280156125fb57816020015b6125e8613a2d565b8152602001906001900390816125e05790505b5090505f5b5f84815260126020526040902054811015610ee3575f8481526012602052604081208054600e92919084908110612639576126396141e3565b905f5260205f20015481526020019081526020015f206040518060a00160405290815f8201548152602001600182016040518060e00160405290815f8201548152602001600182015f9054906101000a90046001600160a01b03166001600160a01b03166001600160a01b031681526020016002820180546126ba906141ab565b80601f01602080910402602001604051908101604052809291908181526020018280546126e6906141ab565b80156127315780601f1061270857610100808354040283529160200191612731565b820191905f5260205f20905b81548152906001019060200180831161271457829003601f168201915b5050505050815260200160038201805461274a906141ab565b80601f0160208091040260200160405190810160405280929190818152602001828054612776906141ab565b80156127c15780601f10612798576101008083540402835291602001916127c1565b820191905f5260205f20905b8154815290600101906020018083116127a457829003601f168201915b505050505081526020016004820180546127da906141ab565b80601f0160208091040260200160405190810160405280929190818152602001828054612806906141ab565b80156128515780601f1061282857610100808354040283529160200191612851565b820191905f5260205f20905b81548152906001019060200180831161283457829003601f168201915b50505091835250506005919091015460ff808216602080850191909152610100909204161515604092830152918352805160e081018252600785018054825260088601546001600160a01b0316828501526009860180549590940194919390928401916128bd906141ab565b80601f01602080910402602001604051908101604052809291908181526020018280546128e9906141ab565b80156129345780601f1061290b57610100808354040283529160200191612934565b820191905f5260205f20905b81548152906001019060200180831161291757829003601f168201915b5050505050815260200160038201805461294d906141ab565b80601f0160208091040260200160405190810160405280929190818152602001828054612979906141ab565b80156129c45780601f1061299b576101008083540402835291602001916129c4565b820191905f5260205f20905b8154815290600101906020018083116129a757829003601f168201915b505050505081526020016004820180546129dd906141ab565b80601f0160208091040260200160405190810160405280929190818152602001828054612a09906141ab565b8015612a545780601f10612a2b57610100808354040283529160200191612a54565b820191905f5260205f20905b815481529060010190602001808311612a3757829003601f168201915b50505091835250506005919091015460ff808216602080850191909152610100909204161515604090920191909152908252600d830180549290910191612a9a906141ab565b80601f0160208091040260200160405190810160405280929190818152602001828054612ac6906141ab565b8015612b115780601f10612ae857610100808354040283529160200191612b11565b820191905f5260205f20905b815481529060010190602001808311612af457829003601f168201915b5050509183525050600e919091015460ff1615156020909101528251839083908110612b3f57612b3f6141e3565b60200260200101819052508080612b5590614232565b915050612600565b6060600180546103d9906141ab565b61087b33838361345a565b612b828484846108aa565b61091933858585856134ef565b6060612b9a8261320e565b505f8281526006602052604081208054612bb3906141ab565b80601f0160208091040260200160405190810160405280929190818152602001828054612bdf906141ab565b8015612c2a5780601f10612c0157610100808354040283529160200191612c2a565b820191905f5260205f20905b815481529060010190602001808311612c0d57829003601f168201915b505050505090505f612c4660408051602081019091525f815290565b905080515f03612c57575092915050565b815115612c89578082604051602001612c7192919061436d565b60405160208183030381529060405292505050919050565b612c9284613603565b949350505050565b6012602052815f5260405f208181548110610898575f80fd5b600f602052815f5260405f208181548110610898575f80fd5b600e60209081525f9182526040918290208054835160e081018552600183018054825260028401546001600160a01b031694820194909452600383018054929593949193919291840191612d1f906141ab565b80601f0160208091040260200160405190810160405280929190818152602001828054612d4b906141ab565b8015612d965780601f10612d6d57610100808354040283529160200191612d96565b820191905f5260205f20905b815481529060010190602001808311612d7957829003601f168201915b50505050508152602001600382018054612daf906141ab565b80601f0160208091040260200160405190810160405280929190818152602001828054612ddb906141ab565b8015612e265780601f10612dfd57610100808354040283529160200191612e26565b820191905f5260205f20905b815481529060010190602001808311612e0957829003601f168201915b50505050508152602001600482018054612e3f906141ab565b80601f0160208091040260200160405190810160405280929190818152602001828054612e6b906141ab565b8015612eb65780601f10612e8d57610100808354040283529160200191612eb6565b820191905f5260205f20905b815481529060010190602001808311612e9957829003601f168201915b50505091835250506005919091015460ff808216602080850191909152610100909204161515604092830152815160e081018352600785018054825260088601546001600160a01b0316928201929092526009850180549495949193840191612f1e906141ab565b80601f0160208091040260200160405190810160405280929190818152602001828054612f4a906141ab565b8015612f955780601f10612f6c57610100808354040283529160200191612f95565b820191905f5260205f20905b815481529060010190602001808311612f7857829003601f168201915b50505050508152602001600382018054612fae906141ab565b80601f0160208091040260200160405190810160405280929190818152602001828054612fda906141ab565b80156130255780601f10612ffc57610100808354040283529160200191613025565b820191905f5260205f20905b81548152906001019060200180831161300857829003601f168201915b5050505050815260200160048201805461303e906141ab565b80601f016020809104026020016040519081016040528092919081815260200182805461306a906141ab565b80156130b55780601f1061308c576101008083540402835291602001916130b5565b820191905f5260205f20905b81548152906001019060200180831161309857829003601f168201915b50505091835250506005919091015460ff8082166020840152610100909104161515604090910152600d820180549192916130ef906141ab565b80601f016020809104026020016040519081016040528092919081815260200182805461311b906141ab565b80156131665780601f1061313d57610100808354040283529160200191613166565b820191905f5260205f20905b81548152906001019060200180831161314957829003601f168201915b505050600e909301549192505060ff1685565b6001600160a01b039182165f90815260056020908152604080832093909416825291909152205460ff1690565b6014602052815f5260405f208181548110610898575f80fd5b5f6001600160e01b031982166380ac58cd60e01b14806131ef57506001600160e01b03198216635b5e139f60e01b145b806103c557506301ffc9a760e01b6001600160e01b03198316146103c5565b5f8061321983613674565b90506001600160a01b0381166103c557604051637e27328960e01b81526004810184905260240161051a565b5f908152600460205260409020546001600160a01b031690565b6001600160a01b038216613288575f604051633250574960e11b815260040161051a9190613b56565b5f61329483835f613305565b90506001600160a01b0381166132c057604051637e27328960e01b81526004810183905260240161051a565b836001600160a01b0316816001600160a01b031614610919578382826040516364283d7b60e01b815260040161051a9392919061434a565b6114c8838383600161368e565b5f8061331084613674565b90506001600160a01b0383161561332c5761332c818486613789565b6001600160a01b03811615613366576133475f855f8061368e565b6001600160a01b0381165f90815260036020526040902080545f190190555b6001600160a01b03851615613394576001600160a01b0385165f908152600360205260409020805460010190555b5f8481526002602052604080822080546001600160a01b0319166001600160a01b0389811691821790925591518793918516917fddf252ad1be2c89b69c2b068fc378daa952ba7f163c4a11628f55a4df523b3ef91a4949350505050565b61087b828260405180602001604052805f8152506137ed565b5f828152600660205260409020613422828261428f565b506040518281527ff8e1a15aba9398e019f0b49df1a4fde98ee17ae345cb5f6b5e2c27f5033e8ce79060200160405180910390a15050565b6001600160a01b0382166134835781604051630b61174360e31b815260040161051a9190613b56565b6001600160a01b038381165f81815260056020908152604080832094871680845294825291829020805460ff191686151590811790915591519182527f17307eab39ab6107e8899845ad3d59bd9653f200f220920489ca2b5937696c31910160405180910390a3505050565b6001600160a01b0383163b156135fc57604051630a85bd0160e11b81526001600160a01b0384169063150b7a029061353190889088908790879060040161439b565b6020604051808303815f875af192505050801561356b575060408051601f3d908101601f19168201909252613568918101906143d7565b60015b6135c9573d808015613598576040519150601f19603f3d011682016040523d82523d5f602084013e61359d565b606091505b5080515f036135c15783604051633250574960e11b815260040161051a9190613b56565b805181602001fd5b6001600160e01b03198116630a85bd0160e11b14611f6f5783604051633250574960e11b815260040161051a9190613b56565b5050505050565b606061360e8261320e565b505f61362460408051602081019091525f815290565b90505f8151116136425760405180602001604052805f81525061366d565b8061364c84613804565b60405160200161365d92919061436d565b6040516020818303038152906040525b9392505050565b5f908152600260205260409020546001600160a01b031690565b80806136a257506001600160a01b03821615155b1561375a575f6136b18461320e565b90506001600160a01b038316158015906136dd5750826001600160a01b0316816001600160a01b031614155b80156136f057506136ee8184613179565b155b15613710578260405163a9fbf51f60e01b815260040161051a9190613b56565b81156137585783856001600160a01b0316826001600160a01b03167f8c5be1e5ebec7d5bd14f71427d1e84f3dd0314c0f7b2291e5b200ac8c7c3b92560405160405180910390a45b505b50505f90815260046020526040902080546001600160a01b0319166001600160a01b0392909216919091179055565b613794838383613893565b6114c8576001600160a01b0383166137c257604051637e27328960e01b81526004810182905260240161051a565b60405163177e802f60e01b81526001600160a01b03831660048201526024810182905260440161051a565b6137f783836138f7565b6114c8335f8585856134ef565b60605f61381083613958565b60010190505f816001600160401b0381111561382e5761382e613b85565b6040519080825280601f01601f191660200182016040528015613858576020820181803683370190505b5090508181016020015b5f19016f181899199a1a9b1b9c1cb0b131b232b360811b600a86061a8153600a850494508461386257509392505050565b5f6001600160a01b03831615801590612c925750826001600160a01b0316846001600160a01b031614806138cc57506138cc8484613179565b80612c925750826001600160a01b03166138e583613245565b6001600160a01b031614949350505050565b6001600160a01b038216613920575f604051633250574960e11b815260040161051a9190613b56565b5f61392c83835f613305565b90506001600160a01b038116156114c8575f6040516339e3563760e11b815260040161051a9190613b56565b5f8072184f03e93ff9f4daa797ed6e38ed64bf6a1f0160401b83106139965772184f03e93ff9f4daa797ed6e38ed64bf6a1f0160401b830492506040015b6904ee2d6d415b85acef8160201b83106139c0576904ee2d6d415b85acef8160201b830492506020015b662386f26fc1000083106139de57662386f26fc10000830492506010015b6305f5e10083106139f6576305f5e100830492506008015b6127108310613a0a57612710830492506004015b60648310613a1c576064830492506002015b600a83106103c55760010192915050565b6040518060a001604052805f8152602001613a46613a66565b8152602001613a53613a66565b8152606060208201525f60409091015290565b6040518060e001604052805f81526020015f6001600160a01b031681526020016060815260200160608152602001606081526020015f60ff1681526020015f151581525090565b5f60208284031215613abd575f80fd5b5035919050565b6001600160e01b031981168114613ad9575f80fd5b50565b5f60208284031215613aec575f80fd5b813561366d81613ac4565b5f5b83811015613b11578181015183820152602001613af9565b50505f910152565b5f8151808452613b30816020860160208601613af7565b601f01601f19169290920160200192915050565b602081525f61366d6020830184613b19565b6001600160a01b0391909116815260200190565b80356001600160a01b0381168114613b80575f80fd5b919050565b634e487b7160e01b5f52604160045260245ffd5b60405160e081016001600160401b0381118282101715613bbb57613bbb613b85565b60405290565b604051601f8201601f191681016001600160401b0381118282101715613be957613be9613b85565b604052919050565b5f6001600160401b03831115613c0957613c09613b85565b613c1c601f8401601f1916602001613bc1565b9050828152838383011115613c2f575f80fd5b828260208301375f602084830101529392505050565b5f82601f830112613c54575f80fd5b61366d83833560208501613bf1565b803560ff81168114613b80575f80fd5b80358015158114613b80575f80fd5b5f60e08284031215613c92575f80fd5b613c9a613b99565b905081358152613cac60208301613b6a565b602082015260408201356001600160401b0380821115613cca575f80fd5b613cd685838601613c45565b60408401526060840135915080821115613cee575f80fd5b613cfa85838601613c45565b60608401526080840135915080821115613d12575f80fd5b50613d1f84828501613c45565b608083015250613d3160a08301613c63565b60a0820152613d4260c08301613c73565b60c082015292915050565b5f805f805f8060c08789031215613d62575f80fd5b86359550602087013594506040870135935060608701359250613d8760808801613b6a565b915060a08701356001600160401b03811115613da1575f80fd5b613dad89828a01613c82565b9150509295509295509295565b5f8060408385031215613dcb575f80fd5b613dd483613b6a565b946020939093013593505050565b5f8060408385031215613df3575f80fd5b50508035926020909101359150565b5f805f60608486031215613e14575f80fd5b613e1d84613b6a565b9250613e2b60208501613b6a565b9150604084013590509250925092565b8051825260018060a01b0360208201511660208301525f604082015160e06040850152613e6b60e0850182613b19565b905060608301518482036060860152613e848282613b19565b91505060808301518482036080860152613e9e8282613b19565b91505060ff60a08401511660a085015260c0830151151560c08501528091505092915050565b5f6020808301818452808551808352604092508286019150828160051b8701018488015f5b83811015613f6d57603f19898403018552815160a08151855288820151818a870152613f1782870182613e3b565b9150508782015185820389870152613f2f8282613e3b565b91505060608083015186830382880152613f498382613b19565b60809485015115159790940196909652505094870194925090860190600101613ee9565b509098975050505050505050565b5f60208284031215613f8b575f80fd5b61366d82613b6a565b5f805f805f60a08688031215613fa8575f80fd5b85356001600160401b0380821115613fbe575f80fd5b613fca89838a01613c45565b96506020915081880135955060408801359450606088013581811115613fee575f80fd5b8801601f81018a13613ffe575f80fd5b80358281111561401057614010613b85565b8060051b61401f858201613bc1565b918252828101850191858101908d841115614038575f80fd5b938601935b838510156140565784358252938601939086019061403d565b975050505060808901359250508082111561406f575f80fd5b5061407c88828901613c82565b9150509295509295909350565b5f806040838503121561409a575f80fd5b6140a383613b6a565b91506140b160208401613c73565b90509250929050565b5f805f80608085870312156140cd575f80fd5b6140d685613b6a565b93506140e460208601613b6a565b92506040850135915060608501356001600160401b03811115614105575f80fd5b8501601f81018713614115575f80fd5b61412487823560208401613bf1565b91505092959194509250565b85815260a060208201525f61414860a0830187613e3b565b828103604084015261415a8187613e3b565b9050828103606084015261416e8186613b19565b91505082151560808301529695505050505050565b5f8060408385031215614194575f80fd5b61419d83613b6a565b91506140b160208401613b6a565b600181811c908216806141bf57607f821691505b6020821081036141dd57634e487b7160e01b5f52602260045260245ffd5b50919050565b634e487b7160e01b5f52603260045260245ffd5b634e487b7160e01b5f52601160045260245ffd5b818103818111156103c5576103c56141f7565b634e487b7160e01b5f52603160045260245ffd5b5f60018201614243576142436141f7565b5060010190565b601f8211156114c8575f81815260208120601f850160051c810160208610156142705750805b601f850160051c820191505b81811015611f6f5782815560010161427c565b81516001600160401b038111156142a8576142a8613b85565b6142bc816142b684546141ab565b8461424a565b602080601f8311600181146142ef575f84156142d85750858301515b5f19600386901b1c1916600185901b178555611f6f565b5f85815260208120601f198616915b8281101561431d578886015182559484019460019091019084016142fe565b508582101561433a57878501515f19600388901b60f8161c191681555b5050505050600190811b01905550565b6001600160a01b0393841681526020810192909252909116604082015260600190565b5f835161437e818460208801613af7565b835190830190614392818360208801613af7565b01949350505050565b6001600160a01b03858116825284166020820152604081018390526080606082018190525f906143cd90830184613b19565b9695505050505050565b5f602082840312156143e7575f80fd5b815161366d81613ac456fea2646970667358221220138748ac794b21bab84e20ba17f7384c721929e9a5e9da03e166ffeb145f3ac964736f6c63430008150033",
  "immutableReferences": {},
  "source": "// SPDX-License-Identifier: MIT\r\n// pragma solidity ^0.8.20;\r\n\r\n// import \"./SharedStructs.sol\";\r\n// import \"@openzeppelin/contracts/token/ERC721/extensions/ERC721URIStorage.sol\";\r\n// // import \"@openzeppelin/contracts/access/Ownable.sol\";\r\n\r\n// contract ProductNFT is ERC721URIStorage\r\n// // ,Ownable \r\n// {\r\n//     uint256 private _tokenIdCounter;\r\n//     SharedStructs.User emptyConsumer = SharedStructs.User(0, address(0), \"\", \"\", \"\", 5, false);\r\n    \r\n//     struct ProductToken {\r\n//         uint256 tokenId;\r\n//         SharedStructs.User manufacturer;\r\n//         SharedStructs.User consumer;\r\n//         string metadataURI;\r\n//         bool isBought;\r\n//     }\r\n\r\n//     mapping(uint256 => ProductToken) public productTokens;\r\n//     mapping(address => ProductToken[]) public ownedProducts;\r\n//     mapping(uint256 => bool) public tokenExists;\r\n//     mapping(uint256 => uint256) public productToToken;\r\n\r\n//     constructor() ERC721(\"ProductNFT\", \"PNFT\") \r\n//     //Ownable(msg.sender) \r\n//     {}\r\n\r\n//     function manufactureProduct(string memory metadataURI, uint256 productId, SharedStructs.User memory manufacturer) public {\r\n//         _tokenIdCounter++;\r\n//         uint256 newTokenId = _tokenIdCounter;\r\n//         _safeMint(manufacturer.ethAddress, newTokenId);\r\n//         _setTokenURI(newTokenId, metadataURI);\r\n//         productTokens[newTokenId] = ProductToken({\r\n//             tokenId: newTokenId,\r\n//             manufacturer: manufacturer,\r\n//             consumer: emptyConsumer,\r\n//             metadataURI: metadataURI,\r\n//             isBought: false\r\n//         });\r\n\r\n//         ownedProducts[manufacturer.ethAddress].push(productTokens[newTokenId]);\r\n//         tokenExists[newTokenId] = true;\r\n//         productToToken[productId] = newTokenId;\r\n//     }\r\n\r\n//     function buyProduct(uint256 tokenId, SharedStructs.User memory consumer) public {\r\n//         require(tokenExists[tokenId] == true, \"Product does not exist\");\r\n//         require(productTokens[tokenId].isBought == false, \"Product already bought\");\r\n\r\n//         address manufacturer = productTokens[tokenId].manufacturer.ethAddress;\r\n//         for(uint256 i = 0; i < ownedProducts[manufacturer].length; i++){\r\n//             if(ownedProducts[manufacturer][i].tokenId == tokenId){\r\n//                 ownedProducts[manufacturer][i] = ownedProducts[manufacturer][ownedProducts[manufacturer].length - 1];\r\n//                 ownedProducts[manufacturer].pop();\r\n//                 break;\r\n//             }\r\n//         }\r\n//         _transfer(manufacturer, consumer.ethAddress, tokenId);\r\n// \t\t productTokens[tokenId].consumer = consumer;\r\n//         productTokens[tokenId].isBought = true;\r\n//         ownedProducts[consumer.ethAddress].push(productTokens[tokenId]);\r\n//     }\r\n\r\n//     function getProductNFT(uint256 productId) public view returns (ProductToken memory){\r\n//         return productTokens[productToToken[productId]];\r\n//     }\r\n\r\n//     function getUserNFTs(address ethAddress) public view returns (ProductToken[] memory){\r\n//         return ownedProducts[ethAddress];\r\n//     }\r\n// }\r\n\r\n\r\npragma solidity ^0.8.20;\r\n\r\nimport \"./SharedStructs.sol\";\r\nimport \"@openzeppelin/contracts/token/ERC721/extensions/ERC721URIStorage.sol\";\r\n\r\n// import \"@openzeppelin/contracts/access/Ownable.sol\";\r\n\r\ncontract ProductNFT is\r\n    ERC721URIStorage\r\n    // ,Ownable\r\n{\r\n    uint256 private _tokenIdCounter;\r\n    SharedStructs.User emptyConsumer =\r\n    SharedStructs.User(0, address(0), \"\", \"\", \"\", 5, false);\r\n\r\n    struct ProductToken {\r\n        uint256 tokenId;\r\n        SharedStructs.User manufacturer;\r\n        SharedStructs.User consumer;\r\n        string metadataURI;\r\n        bool isBought;\r\n    }\r\n\r\n    mapping(uint256 => ProductToken) public productTokens;\r\n    mapping(address => uint256[]) public ownedProducts;\r\n    mapping(uint256 => bool) public tokenExists;\r\n    mapping(uint256 => uint256[]) public unsoldProductToToken;\r\n    mapping(uint256 => uint256[]) public soldProductToToken;\r\n    mapping(uint256 => uint256[]) public fulfilledRequestToToken;\r\n    mapping(uint256 => uint256[]) public soldRawMaterialToToken;\r\n\r\n    constructor()\r\n        ERC721(\"ProductNFT\", \"PNFT\") //Ownable(msg.sender)\r\n    {}\r\n\r\n    function manufactureProduct(string memory metadataURI, uint256 productId, uint256 quantity, uint256[] memory soldRawMaterialIds, SharedStructs.User memory manufacturer) public {\r\n        for (uint256 i = 0; i < quantity; i++) {\r\n            _tokenIdCounter++;\r\n            uint256 newTokenId = _tokenIdCounter;\r\n            _safeMint(manufacturer.ethAddress, newTokenId);\r\n            _setTokenURI(newTokenId, metadataURI);\r\n            productTokens[newTokenId] = ProductToken({\r\n                tokenId: newTokenId,\r\n                manufacturer: manufacturer,\r\n                consumer: emptyConsumer,\r\n                metadataURI: metadataURI,\r\n                isBought: false\r\n            });\r\n            ownedProducts[manufacturer.ethAddress].push(newTokenId);\r\n            tokenExists[newTokenId] = true;\r\n            unsoldProductToToken[productId].push(newTokenId);\r\n            for(uint256 j = 0; j < soldRawMaterialIds.length; j++){\r\n                soldRawMaterialToToken[soldRawMaterialIds[j]].push(newTokenId);\r\n            }\r\n        }\r\n    }\r\n\r\n    function buyProduct(uint256 productId, uint256 soldProductId, uint256 requestId, uint256 quantity, address manufacturerAddress, SharedStructs.User memory consumer) public {\r\n        for (uint256 i = 0; i < quantity; i++) {\r\n            uint256 tokenId = unsoldProductToToken[productId][i];\r\n            for (uint256 j = 0; j < ownedProducts[manufacturerAddress].length; j++) {\r\n                require(tokenExists[tokenId] == true, \"Product does not exist\");\r\n                require(productTokens[tokenId].isBought == false, \"Product already bought\");\r\n                if (ownedProducts[manufacturerAddress][j] == tokenId) {\r\n                    ownedProducts[manufacturerAddress][j] = ownedProducts[manufacturerAddress][ownedProducts[manufacturerAddress].length - 1];\r\n                    ownedProducts[manufacturerAddress].pop();\r\n                    break;\r\n                }\r\n            }\r\n            _transfer(manufacturerAddress, consumer.ethAddress, tokenId);\r\n            productTokens[tokenId].consumer = consumer;\r\n            productTokens[tokenId].isBought = true;\r\n            ownedProducts[consumer.ethAddress].push(tokenId);\r\n            soldProductToToken[soldProductId].push(tokenId);\r\n            fulfilledRequestToToken[requestId].push(tokenId);\r\n            unsoldProductToToken[productId][i] = unsoldProductToToken[productId][unsoldProductToToken[productId].length - 1];\r\n            unsoldProductToToken[productId].pop();\r\n        }\r\n    }\r\n\r\n    function getUnsoldProductNFT(uint256 productId) public view returns (ProductToken[] memory) {\r\n        ProductToken[] memory p = new ProductToken[](unsoldProductToToken[productId].length);\r\n        for(uint256 i = 0; i < unsoldProductToToken[productId].length; i++){\r\n            p[i] = productTokens[unsoldProductToToken[productId][i]];\r\n        }\r\n        return p;\r\n    }\r\n\r\n     function getSoldProductNFT(uint256 soldProductId) public view returns (ProductToken[] memory) {\r\n        ProductToken[] memory p = new ProductToken[](soldProductToToken[soldProductId].length);\r\n        for(uint256 i = 0; i < soldProductToToken[soldProductId].length; i++){\r\n            p[i] = productTokens[soldProductToToken[soldProductId][i]];\r\n        }\r\n        return p;\r\n    }\r\n\r\n     function getSoldRawMaterialProductNFT(uint256 soldRawMaterialId) public view returns (ProductToken[] memory) {\r\n        ProductToken[] memory p = new ProductToken[](soldRawMaterialToToken[soldRawMaterialId].length);\r\n        for(uint256 i = 0; i < soldRawMaterialToToken[soldRawMaterialId].length; i++){\r\n            p[i] = productTokens[soldRawMaterialToToken[soldRawMaterialId][i]];\r\n        }\r\n        return p;\r\n    }\r\n\r\n     function getFulfilledRequestProductNFT(uint256 requestId) public view returns (ProductToken[] memory) {\r\n        ProductToken[] memory p = new ProductToken[](fulfilledRequestToToken[requestId].length);\r\n        for(uint256 i = 0; i < fulfilledRequestToToken[requestId].length; i++){\r\n            p[i] = productTokens[fulfilledRequestToToken[requestId][i]];\r\n        }\r\n        return p;\r\n    }\r\n\r\n    function getUserNFTs(address ethAddress) public view returns (ProductToken[] memory) {\r\n        ProductToken[] memory p = new ProductToken[](ownedProducts[ethAddress].length);\r\n        for(uint256 i = 0; i < ownedProducts[ethAddress].length; i++){\r\n            p[i] = productTokens[ownedProducts[ethAddress][i]];\r\n        }\r\n        return p;\r\n    }\r\n}",
  "sourcePath": "C:\\Users\\lavan\\OneDrive\\Desktop\\testgoogleauth\\contracts\\ProductNFT.sol",
  "compiler": {
    "name": "solc",
    "version": "0.8.21+commit.d9974bed.Emscripten.clang"
  },
  "schemaVersion": "3.4.16",
  "updatedAt": "2025-03-09T12:07:46.140Z",
  "networkType": "ethereum",
  "devdoc": {
    "errors": {
      "ERC721IncorrectOwner(address,uint256,address)": [
        {
          "details": "Indicates an error related to the ownership over a particular token. Used in transfers.",
          "params": {
            "owner": "Address of the current owner of a token.",
            "sender": "Address whose tokens are being transferred.",
            "tokenId": "Identifier number of a token."
          }
        }
      ],
      "ERC721InsufficientApproval(address,uint256)": [
        {
          "details": "Indicates a failure with the `operator`s approval. Used in transfers.",
          "params": {
            "operator": "Address that may be allowed to operate on tokens without being their owner.",
            "tokenId": "Identifier number of a token."
          }
        }
      ],
      "ERC721InvalidApprover(address)": [
        {
          "details": "Indicates a failure with the `approver` of a token to be approved. Used in approvals.",
          "params": {
            "approver": "Address initiating an approval operation."
          }
        }
      ],
      "ERC721InvalidOperator(address)": [
        {
          "details": "Indicates a failure with the `operator` to be approved. Used in approvals.",
          "params": {
            "operator": "Address that may be allowed to operate on tokens without being their owner."
          }
        }
      ],
      "ERC721InvalidOwner(address)": [
        {
          "details": "Indicates that an address can't be an owner. For example, `address(0)` is a forbidden owner in ERC-20. Used in balance queries.",
          "params": {
            "owner": "Address of the current owner of a token."
          }
        }
      ],
      "ERC721InvalidReceiver(address)": [
        {
          "details": "Indicates a failure with the token `receiver`. Used in transfers.",
          "params": {
            "receiver": "Address to which tokens are being transferred."
          }
        }
      ],
      "ERC721InvalidSender(address)": [
        {
          "details": "Indicates a failure with the token `sender`. Used in transfers.",
          "params": {
            "sender": "Address whose tokens are being transferred."
          }
        }
      ],
      "ERC721NonexistentToken(uint256)": [
        {
          "details": "Indicates a `tokenId` whose `owner` is the zero address.",
          "params": {
            "tokenId": "Identifier number of a token."
          }
        }
      ]
    },
    "events": {
      "Approval(address,address,uint256)": {
        "details": "Emitted when `owner` enables `approved` to manage the `tokenId` token."
      },
      "ApprovalForAll(address,address,bool)": {
        "details": "Emitted when `owner` enables or disables (`approved`) `operator` to manage all of its assets."
      },
      "BatchMetadataUpdate(uint256,uint256)": {
        "details": "This event emits when the metadata of a range of tokens is changed. So that the third-party platforms such as NFT market could timely update the images and related attributes of the NFTs."
      },
      "MetadataUpdate(uint256)": {
        "details": "This event emits when the metadata of a token is changed. So that the third-party platforms such as NFT market could timely update the images and related attributes of the NFT."
      },
      "Transfer(address,address,uint256)": {
        "details": "Emitted when `tokenId` token is transferred from `from` to `to`."
      }
    },
    "kind": "dev",
    "methods": {
      "approve(address,uint256)": {
        "details": "See {IERC721-approve}."
      },
      "balanceOf(address)": {
        "details": "See {IERC721-balanceOf}."
      },
      "getApproved(uint256)": {
        "details": "See {IERC721-getApproved}."
      },
      "isApprovedForAll(address,address)": {
        "details": "See {IERC721-isApprovedForAll}."
      },
      "name()": {
        "details": "See {IERC721Metadata-name}."
      },
      "ownerOf(uint256)": {
        "details": "See {IERC721-ownerOf}."
      },
      "safeTransferFrom(address,address,uint256)": {
        "details": "See {IERC721-safeTransferFrom}."
      },
      "safeTransferFrom(address,address,uint256,bytes)": {
        "details": "See {IERC721-safeTransferFrom}."
      },
      "setApprovalForAll(address,bool)": {
        "details": "See {IERC721-setApprovalForAll}."
      },
      "supportsInterface(bytes4)": {
        "details": "See {IERC165-supportsInterface}"
      },
      "symbol()": {
        "details": "See {IERC721Metadata-symbol}."
      },
      "tokenURI(uint256)": {
        "details": "See {IERC721Metadata-tokenURI}."
      },
      "transferFrom(address,address,uint256)": {
        "details": "See {IERC721-transferFrom}."
      }
    },
    "version": 1
  },
  "userdoc": {
    "kind": "user",
    "methods": {},
    "version": 1
  }
}