{
  "contractName": "RawMaterialSupplier",
  "abi": [
    {
      "inputs": [
        {
          "internalType": "address",
          "name": "mainAddress",
          "type": "address"
        }
      ],
      "stateMutability": "nonpayable",
      "type": "constructor"
    },
    {
      "inputs": [
        {
          "internalType": "string",
          "name": "name",
          "type": "string"
        },
        {
          "internalType": "uint256",
          "name": "quantity",
          "type": "uint256"
        },
        {
          "internalType": "string",
          "name": "description",
          "type": "string"
        },
        {
          "internalType": "uint256",
          "name": "pricePerUnit",
          "type": "uint256"
        },
        {
          "internalType": "uint256",
          "name": "weightPerUnit",
          "type": "uint256"
        },
        {
          "internalType": "bytes32",
          "name": "googleIdHash",
          "type": "bytes32"
        }
      ],
      "name": "addRawMaterial",
      "outputs": [],
      "stateMutability": "nonpayable",
      "type": "function"
    },
    {
      "inputs": [],
      "name": "getAllRawMaterials",
      "outputs": [
        {
          "components": [
            {
              "internalType": "uint256",
              "name": "id",
              "type": "uint256"
            },
            {
              "internalType": "uint256",
              "name": "timestamp",
              "type": "uint256"
            },
            {
              "internalType": "string",
              "name": "name",
              "type": "string"
            },
            {
              "internalType": "uint256",
              "name": "quantity",
              "type": "uint256"
            },
            {
              "internalType": "string",
              "name": "description",
              "type": "string"
            },
            {
              "internalType": "uint256",
              "name": "pricePerUnit",
              "type": "uint256"
            },
            {
              "internalType": "uint256",
              "name": "weightPerUnit",
              "type": "uint256"
            },
            {
              "components": [
                {
                  "internalType": "uint256",
                  "name": "id",
                  "type": "uint256"
                },
                {
                  "internalType": "address",
                  "name": "ethAddress",
                  "type": "address"
                },
                {
                  "internalType": "string",
                  "name": "email",
                  "type": "string"
                },
                {
                  "internalType": "string",
                  "name": "username",
                  "type": "string"
                },
                {
                  "internalType": "string",
                  "name": "location",
                  "type": "string"
                },
                {
                  "internalType": "uint8",
                  "name": "role",
                  "type": "uint8"
                },
                {
                  "internalType": "bool",
                  "name": "registered",
                  "type": "bool"
                }
              ],
              "internalType": "struct SharedStructs.User",
              "name": "registeringUser",
              "type": "tuple"
            }
          ],
          "internalType": "struct SharedStructs.RawMaterial[]",
          "name": "",
          "type": "tuple[]"
        }
      ],
      "stateMutability": "view",
      "type": "function",
      "constant": true
    },
    {
      "inputs": [
        {
          "internalType": "address",
          "name": "ethAddress",
          "type": "address"
        }
      ],
      "name": "getUserUnsoldRawMaterials",
      "outputs": [
        {
          "components": [
            {
              "internalType": "uint256",
              "name": "id",
              "type": "uint256"
            },
            {
              "internalType": "uint256",
              "name": "timestamp",
              "type": "uint256"
            },
            {
              "internalType": "string",
              "name": "name",
              "type": "string"
            },
            {
              "internalType": "uint256",
              "name": "quantity",
              "type": "uint256"
            },
            {
              "internalType": "string",
              "name": "description",
              "type": "string"
            },
            {
              "internalType": "uint256",
              "name": "pricePerUnit",
              "type": "uint256"
            },
            {
              "internalType": "uint256",
              "name": "weightPerUnit",
              "type": "uint256"
            },
            {
              "components": [
                {
                  "internalType": "uint256",
                  "name": "id",
                  "type": "uint256"
                },
                {
                  "internalType": "address",
                  "name": "ethAddress",
                  "type": "address"
                },
                {
                  "internalType": "string",
                  "name": "email",
                  "type": "string"
                },
                {
                  "internalType": "string",
                  "name": "username",
                  "type": "string"
                },
                {
                  "internalType": "string",
                  "name": "location",
                  "type": "string"
                },
                {
                  "internalType": "uint8",
                  "name": "role",
                  "type": "uint8"
                },
                {
                  "internalType": "bool",
                  "name": "registered",
                  "type": "bool"
                }
              ],
              "internalType": "struct SharedStructs.User",
              "name": "registeringUser",
              "type": "tuple"
            }
          ],
          "internalType": "struct SharedStructs.RawMaterial[]",
          "name": "",
          "type": "tuple[]"
        }
      ],
      "stateMutability": "view",
      "type": "function",
      "constant": true
    },
    {
      "inputs": [
        {
          "internalType": "address",
          "name": "ethAddress",
          "type": "address"
        }
      ],
      "name": "getUserSoldRawMaterials",
      "outputs": [
        {
          "components": [
            {
              "internalType": "uint256",
              "name": "id",
              "type": "uint256"
            },
            {
              "components": [
                {
                  "internalType": "uint256",
                  "name": "id",
                  "type": "uint256"
                },
                {
                  "internalType": "uint256",
                  "name": "timestamp",
                  "type": "uint256"
                },
                {
                  "internalType": "string",
                  "name": "name",
                  "type": "string"
                },
                {
                  "internalType": "uint256",
                  "name": "quantity",
                  "type": "uint256"
                },
                {
                  "internalType": "string",
                  "name": "description",
                  "type": "string"
                },
                {
                  "internalType": "uint256",
                  "name": "pricePerUnit",
                  "type": "uint256"
                },
                {
                  "internalType": "uint256",
                  "name": "weightPerUnit",
                  "type": "uint256"
                },
                {
                  "components": [
                    {
                      "internalType": "uint256",
                      "name": "id",
                      "type": "uint256"
                    },
                    {
                      "internalType": "address",
                      "name": "ethAddress",
                      "type": "address"
                    },
                    {
                      "internalType": "string",
                      "name": "email",
                      "type": "string"
                    },
                    {
                      "internalType": "string",
                      "name": "username",
                      "type": "string"
                    },
                    {
                      "internalType": "string",
                      "name": "location",
                      "type": "string"
                    },
                    {
                      "internalType": "uint8",
                      "name": "role",
                      "type": "uint8"
                    },
                    {
                      "internalType": "bool",
                      "name": "registered",
                      "type": "bool"
                    }
                  ],
                  "internalType": "struct SharedStructs.User",
                  "name": "registeringUser",
                  "type": "tuple"
                }
              ],
              "internalType": "struct SharedStructs.RawMaterial",
              "name": "rawMaterial",
              "type": "tuple"
            },
            {
              "components": [
                {
                  "internalType": "uint256",
                  "name": "id",
                  "type": "uint256"
                },
                {
                  "internalType": "address",
                  "name": "ethAddress",
                  "type": "address"
                },
                {
                  "internalType": "string",
                  "name": "email",
                  "type": "string"
                },
                {
                  "internalType": "string",
                  "name": "username",
                  "type": "string"
                },
                {
                  "internalType": "string",
                  "name": "location",
                  "type": "string"
                },
                {
                  "internalType": "uint8",
                  "name": "role",
                  "type": "uint8"
                },
                {
                  "internalType": "bool",
                  "name": "registered",
                  "type": "bool"
                }
              ],
              "internalType": "struct SharedStructs.User",
              "name": "buyingUser",
              "type": "tuple"
            },
            {
              "components": [
                {
                  "internalType": "uint256",
                  "name": "id",
                  "type": "uint256"
                },
                {
                  "components": [
                    {
                      "internalType": "uint256",
                      "name": "id",
                      "type": "uint256"
                    },
                    {
                      "internalType": "address",
                      "name": "ethAddress",
                      "type": "address"
                    },
                    {
                      "internalType": "string",
                      "name": "email",
                      "type": "string"
                    },
                    {
                      "internalType": "string",
                      "name": "username",
                      "type": "string"
                    },
                    {
                      "internalType": "string",
                      "name": "location",
                      "type": "string"
                    },
                    {
                      "internalType": "uint8",
                      "name": "role",
                      "type": "uint8"
                    },
                    {
                      "internalType": "bool",
                      "name": "registered",
                      "type": "bool"
                    }
                  ],
                  "internalType": "struct SharedStructs.User",
                  "name": "from",
                  "type": "tuple"
                },
                {
                  "components": [
                    {
                      "internalType": "uint256",
                      "name": "id",
                      "type": "uint256"
                    },
                    {
                      "internalType": "address",
                      "name": "ethAddress",
                      "type": "address"
                    },
                    {
                      "internalType": "string",
                      "name": "email",
                      "type": "string"
                    },
                    {
                      "internalType": "string",
                      "name": "username",
                      "type": "string"
                    },
                    {
                      "internalType": "string",
                      "name": "location",
                      "type": "string"
                    },
                    {
                      "internalType": "uint8",
                      "name": "role",
                      "type": "uint8"
                    },
                    {
                      "internalType": "bool",
                      "name": "registered",
                      "type": "bool"
                    }
                  ],
                  "internalType": "struct SharedStructs.User",
                  "name": "to",
                  "type": "tuple"
                },
                {
                  "internalType": "uint256",
                  "name": "timestamp",
                  "type": "uint256"
                },
                {
                  "internalType": "uint256",
                  "name": "pricePerUnit",
                  "type": "uint256"
                },
                {
                  "internalType": "uint256",
                  "name": "weightPerUnit",
                  "type": "uint256"
                },
                {
                  "internalType": "uint256",
                  "name": "quantity",
                  "type": "uint256"
                },
                {
                  "internalType": "uint256",
                  "name": "gasUsed",
                  "type": "uint256"
                },
                {
                  "internalType": "string",
                  "name": "description",
                  "type": "string"
                },
                {
                  "internalType": "bool",
                  "name": "status",
                  "type": "bool"
                }
              ],
              "internalType": "struct SharedStructs.Transaction",
              "name": "transaction",
              "type": "tuple"
            },
            {
              "internalType": "uint256",
              "name": "receivedTimestamp",
              "type": "uint256"
            },
            {
              "internalType": "bool",
              "name": "received",
              "type": "bool"
            }
          ],
          "internalType": "struct SharedStructs.SoldRawMaterial[]",
          "name": "",
          "type": "tuple[]"
        }
      ],
      "stateMutability": "view",
      "type": "function",
      "constant": true
    },
    {
      "inputs": [
        {
          "internalType": "uint256",
          "name": "rawMaterialId",
          "type": "uint256"
        }
      ],
      "name": "getRawMaterial",
      "outputs": [
        {
          "components": [
            {
              "internalType": "uint256",
              "name": "id",
              "type": "uint256"
            },
            {
              "internalType": "uint256",
              "name": "timestamp",
              "type": "uint256"
            },
            {
              "internalType": "string",
              "name": "name",
              "type": "string"
            },
            {
              "internalType": "uint256",
              "name": "quantity",
              "type": "uint256"
            },
            {
              "internalType": "string",
              "name": "description",
              "type": "string"
            },
            {
              "internalType": "uint256",
              "name": "pricePerUnit",
              "type": "uint256"
            },
            {
              "internalType": "uint256",
              "name": "weightPerUnit",
              "type": "uint256"
            },
            {
              "components": [
                {
                  "internalType": "uint256",
                  "name": "id",
                  "type": "uint256"
                },
                {
                  "internalType": "address",
                  "name": "ethAddress",
                  "type": "address"
                },
                {
                  "internalType": "string",
                  "name": "email",
                  "type": "string"
                },
                {
                  "internalType": "string",
                  "name": "username",
                  "type": "string"
                },
                {
                  "internalType": "string",
                  "name": "location",
                  "type": "string"
                },
                {
                  "internalType": "uint8",
                  "name": "role",
                  "type": "uint8"
                },
                {
                  "internalType": "bool",
                  "name": "registered",
                  "type": "bool"
                }
              ],
              "internalType": "struct SharedStructs.User",
              "name": "registeringUser",
              "type": "tuple"
            }
          ],
          "internalType": "struct SharedStructs.RawMaterial",
          "name": "",
          "type": "tuple"
        }
      ],
      "stateMutability": "view",
      "type": "function",
      "constant": true
    },
    {
      "inputs": [
        {
          "internalType": "uint256",
          "name": "soldRawMaterialId",
          "type": "uint256"
        }
      ],
      "name": "getSoldRawMaterial",
      "outputs": [
        {
          "components": [
            {
              "internalType": "uint256",
              "name": "id",
              "type": "uint256"
            },
            {
              "components": [
                {
                  "internalType": "uint256",
                  "name": "id",
                  "type": "uint256"
                },
                {
                  "internalType": "uint256",
                  "name": "timestamp",
                  "type": "uint256"
                },
                {
                  "internalType": "string",
                  "name": "name",
                  "type": "string"
                },
                {
                  "internalType": "uint256",
                  "name": "quantity",
                  "type": "uint256"
                },
                {
                  "internalType": "string",
                  "name": "description",
                  "type": "string"
                },
                {
                  "internalType": "uint256",
                  "name": "pricePerUnit",
                  "type": "uint256"
                },
                {
                  "internalType": "uint256",
                  "name": "weightPerUnit",
                  "type": "uint256"
                },
                {
                  "components": [
                    {
                      "internalType": "uint256",
                      "name": "id",
                      "type": "uint256"
                    },
                    {
                      "internalType": "address",
                      "name": "ethAddress",
                      "type": "address"
                    },
                    {
                      "internalType": "string",
                      "name": "email",
                      "type": "string"
                    },
                    {
                      "internalType": "string",
                      "name": "username",
                      "type": "string"
                    },
                    {
                      "internalType": "string",
                      "name": "location",
                      "type": "string"
                    },
                    {
                      "internalType": "uint8",
                      "name": "role",
                      "type": "uint8"
                    },
                    {
                      "internalType": "bool",
                      "name": "registered",
                      "type": "bool"
                    }
                  ],
                  "internalType": "struct SharedStructs.User",
                  "name": "registeringUser",
                  "type": "tuple"
                }
              ],
              "internalType": "struct SharedStructs.RawMaterial",
              "name": "rawMaterial",
              "type": "tuple"
            },
            {
              "components": [
                {
                  "internalType": "uint256",
                  "name": "id",
                  "type": "uint256"
                },
                {
                  "internalType": "address",
                  "name": "ethAddress",
                  "type": "address"
                },
                {
                  "internalType": "string",
                  "name": "email",
                  "type": "string"
                },
                {
                  "internalType": "string",
                  "name": "username",
                  "type": "string"
                },
                {
                  "internalType": "string",
                  "name": "location",
                  "type": "string"
                },
                {
                  "internalType": "uint8",
                  "name": "role",
                  "type": "uint8"
                },
                {
                  "internalType": "bool",
                  "name": "registered",
                  "type": "bool"
                }
              ],
              "internalType": "struct SharedStructs.User",
              "name": "buyingUser",
              "type": "tuple"
            },
            {
              "components": [
                {
                  "internalType": "uint256",
                  "name": "id",
                  "type": "uint256"
                },
                {
                  "components": [
                    {
                      "internalType": "uint256",
                      "name": "id",
                      "type": "uint256"
                    },
                    {
                      "internalType": "address",
                      "name": "ethAddress",
                      "type": "address"
                    },
                    {
                      "internalType": "string",
                      "name": "email",
                      "type": "string"
                    },
                    {
                      "internalType": "string",
                      "name": "username",
                      "type": "string"
                    },
                    {
                      "internalType": "string",
                      "name": "location",
                      "type": "string"
                    },
                    {
                      "internalType": "uint8",
                      "name": "role",
                      "type": "uint8"
                    },
                    {
                      "internalType": "bool",
                      "name": "registered",
                      "type": "bool"
                    }
                  ],
                  "internalType": "struct SharedStructs.User",
                  "name": "from",
                  "type": "tuple"
                },
                {
                  "components": [
                    {
                      "internalType": "uint256",
                      "name": "id",
                      "type": "uint256"
                    },
                    {
                      "internalType": "address",
                      "name": "ethAddress",
                      "type": "address"
                    },
                    {
                      "internalType": "string",
                      "name": "email",
                      "type": "string"
                    },
                    {
                      "internalType": "string",
                      "name": "username",
                      "type": "string"
                    },
                    {
                      "internalType": "string",
                      "name": "location",
                      "type": "string"
                    },
                    {
                      "internalType": "uint8",
                      "name": "role",
                      "type": "uint8"
                    },
                    {
                      "internalType": "bool",
                      "name": "registered",
                      "type": "bool"
                    }
                  ],
                  "internalType": "struct SharedStructs.User",
                  "name": "to",
                  "type": "tuple"
                },
                {
                  "internalType": "uint256",
                  "name": "timestamp",
                  "type": "uint256"
                },
                {
                  "internalType": "uint256",
                  "name": "pricePerUnit",
                  "type": "uint256"
                },
                {
                  "internalType": "uint256",
                  "name": "weightPerUnit",
                  "type": "uint256"
                },
                {
                  "internalType": "uint256",
                  "name": "quantity",
                  "type": "uint256"
                },
                {
                  "internalType": "uint256",
                  "name": "gasUsed",
                  "type": "uint256"
                },
                {
                  "internalType": "string",
                  "name": "description",
                  "type": "string"
                },
                {
                  "internalType": "bool",
                  "name": "status",
                  "type": "bool"
                }
              ],
              "internalType": "struct SharedStructs.Transaction",
              "name": "transaction",
              "type": "tuple"
            },
            {
              "internalType": "uint256",
              "name": "receivedTimestamp",
              "type": "uint256"
            },
            {
              "internalType": "bool",
              "name": "received",
              "type": "bool"
            }
          ],
          "internalType": "struct SharedStructs.SoldRawMaterial",
          "name": "",
          "type": "tuple"
        }
      ],
      "stateMutability": "view",
      "type": "function",
      "constant": true
    },
    {
      "inputs": [
        {
          "internalType": "uint256",
          "name": "rawMaterialId",
          "type": "uint256"
        },
        {
          "internalType": "uint256",
          "name": "quantity",
          "type": "uint256"
        }
      ],
      "name": "decreaseRawMaterial",
      "outputs": [],
      "stateMutability": "nonpayable",
      "type": "function"
    },
    {
      "inputs": [
        {
          "internalType": "address",
          "name": "ethAddress",
          "type": "address"
        }
      ],
      "name": "getUserUnsoldRawMaterialIds",
      "outputs": [
        {
          "internalType": "uint256[]",
          "name": "",
          "type": "uint256[]"
        }
      ],
      "stateMutability": "view",
      "type": "function",
      "constant": true
    },
    {
      "inputs": [
        {
          "internalType": "address",
          "name": "ethAddress",
          "type": "address"
        }
      ],
      "name": "getUserSoldRawMaterialIds",
      "outputs": [
        {
          "internalType": "uint256[]",
          "name": "",
          "type": "uint256[]"
        }
      ],
      "stateMutability": "view",
      "type": "function",
      "constant": true
    },
    {
      "inputs": [
        {
          "internalType": "address",
          "name": "ethAddress",
          "type": "address"
        },
        {
          "internalType": "uint256",
          "name": "rawMaterialId",
          "type": "uint256"
        }
      ],
      "name": "removeUnsoldRawMaterial",
      "outputs": [],
      "stateMutability": "nonpayable",
      "type": "function"
    },
    {
      "inputs": [
        {
          "internalType": "uint256",
          "name": "rawMaterialId",
          "type": "uint256"
        },
        {
          "internalType": "uint256",
          "name": "quantity",
          "type": "uint256"
        },
        {
          "components": [
            {
              "internalType": "uint256",
              "name": "id",
              "type": "uint256"
            },
            {
              "internalType": "address",
              "name": "ethAddress",
              "type": "address"
            },
            {
              "internalType": "string",
              "name": "email",
              "type": "string"
            },
            {
              "internalType": "string",
              "name": "username",
              "type": "string"
            },
            {
              "internalType": "string",
              "name": "location",
              "type": "string"
            },
            {
              "internalType": "uint8",
              "name": "role",
              "type": "uint8"
            },
            {
              "internalType": "bool",
              "name": "registered",
              "type": "bool"
            }
          ],
          "internalType": "struct SharedStructs.User",
          "name": "manufacturingUser",
          "type": "tuple"
        },
        {
          "components": [
            {
              "internalType": "uint256",
              "name": "id",
              "type": "uint256"
            },
            {
              "components": [
                {
                  "internalType": "uint256",
                  "name": "id",
                  "type": "uint256"
                },
                {
                  "internalType": "address",
                  "name": "ethAddress",
                  "type": "address"
                },
                {
                  "internalType": "string",
                  "name": "email",
                  "type": "string"
                },
                {
                  "internalType": "string",
                  "name": "username",
                  "type": "string"
                },
                {
                  "internalType": "string",
                  "name": "location",
                  "type": "string"
                },
                {
                  "internalType": "uint8",
                  "name": "role",
                  "type": "uint8"
                },
                {
                  "internalType": "bool",
                  "name": "registered",
                  "type": "bool"
                }
              ],
              "internalType": "struct SharedStructs.User",
              "name": "from",
              "type": "tuple"
            },
            {
              "components": [
                {
                  "internalType": "uint256",
                  "name": "id",
                  "type": "uint256"
                },
                {
                  "internalType": "address",
                  "name": "ethAddress",
                  "type": "address"
                },
                {
                  "internalType": "string",
                  "name": "email",
                  "type": "string"
                },
                {
                  "internalType": "string",
                  "name": "username",
                  "type": "string"
                },
                {
                  "internalType": "string",
                  "name": "location",
                  "type": "string"
                },
                {
                  "internalType": "uint8",
                  "name": "role",
                  "type": "uint8"
                },
                {
                  "internalType": "bool",
                  "name": "registered",
                  "type": "bool"
                }
              ],
              "internalType": "struct SharedStructs.User",
              "name": "to",
              "type": "tuple"
            },
            {
              "internalType": "uint256",
              "name": "timestamp",
              "type": "uint256"
            },
            {
              "internalType": "uint256",
              "name": "pricePerUnit",
              "type": "uint256"
            },
            {
              "internalType": "uint256",
              "name": "weightPerUnit",
              "type": "uint256"
            },
            {
              "internalType": "uint256",
              "name": "quantity",
              "type": "uint256"
            },
            {
              "internalType": "uint256",
              "name": "gasUsed",
              "type": "uint256"
            },
            {
              "internalType": "string",
              "name": "description",
              "type": "string"
            },
            {
              "internalType": "bool",
              "name": "status",
              "type": "bool"
            }
          ],
          "internalType": "struct SharedStructs.Transaction",
          "name": "newTransaction",
          "type": "tuple"
        },
        {
          "internalType": "bool",
          "name": "received",
          "type": "bool"
        }
      ],
      "name": "addSoldRawMaterial",
      "outputs": [
        {
          "internalType": "uint256",
          "name": "",
          "type": "uint256"
        }
      ],
      "stateMutability": "nonpayable",
      "type": "function"
    },
    {
      "inputs": [
        {
          "internalType": "uint256",
          "name": "soldRawMaterialId",
          "type": "uint256"
        },
        {
          "internalType": "uint256",
          "name": "productId",
          "type": "uint256"
        }
      ],
      "name": "setRawMaterialProduct",
      "outputs": [],
      "stateMutability": "nonpayable",
      "type": "function"
    },
    {
      "inputs": [
        {
          "internalType": "uint256",
          "name": "soldRawMaterialId",
          "type": "uint256"
        }
      ],
      "name": "getRawMaterialProduct",
      "outputs": [
        {
          "internalType": "uint256",
          "name": "",
          "type": "uint256"
        }
      ],
      "stateMutability": "view",
      "type": "function",
      "constant": true
    },
    {
      "inputs": [
        {
          "internalType": "uint256",
          "name": "rawMaterialId",
          "type": "uint256"
        }
      ],
      "name": "removeRawMaterial",
      "outputs": [],
      "stateMutability": "nonpayable",
      "type": "function"
    },
    {
      "inputs": [
        {
          "internalType": "uint256",
          "name": "soldRawMaterialId",
          "type": "uint256"
        }
      ],
      "name": "setRawMaterialReceived",
      "outputs": [],
      "stateMutability": "nonpayable",
      "type": "function"
    },
    {
      "inputs": [
        {
          "internalType": "uint256",
          "name": "soldRawMaterialId",
          "type": "uint256"
        },
        {
          "internalType": "string",
          "name": "comment",
          "type": "string"
        },
        {
          "internalType": "uint256",
          "name": "rating",
          "type": "uint256"
        }
      ],
      "name": "addSoldRawMaterialComment",
      "outputs": [],
      "stateMutability": "nonpayable",
      "type": "function"
    },
    {
      "inputs": [
        {
          "internalType": "uint256",
          "name": "soldRawMaterialId",
          "type": "uint256"
        }
      ],
      "name": "getSoldRawMaterialComments",
      "outputs": [
        {
          "components": [
            {
              "internalType": "uint256",
              "name": "id",
              "type": "uint256"
            },
            {
              "internalType": "uint256",
              "name": "timestamp",
              "type": "uint256"
            },
            {
              "components": [
                {
                  "internalType": "uint256",
                  "name": "id",
                  "type": "uint256"
                },
                {
                  "internalType": "address",
                  "name": "ethAddress",
                  "type": "address"
                },
                {
                  "internalType": "string",
                  "name": "email",
                  "type": "string"
                },
                {
                  "internalType": "string",
                  "name": "username",
                  "type": "string"
                },
                {
                  "internalType": "string",
                  "name": "location",
                  "type": "string"
                },
                {
                  "internalType": "uint8",
                  "name": "role",
                  "type": "uint8"
                },
                {
                  "internalType": "bool",
                  "name": "registered",
                  "type": "bool"
                }
              ],
              "internalType": "struct SharedStructs.User",
              "name": "from",
              "type": "tuple"
            },
            {
              "components": [
                {
                  "internalType": "uint256",
                  "name": "id",
                  "type": "uint256"
                },
                {
                  "internalType": "address",
                  "name": "ethAddress",
                  "type": "address"
                },
                {
                  "internalType": "string",
                  "name": "email",
                  "type": "string"
                },
                {
                  "internalType": "string",
                  "name": "username",
                  "type": "string"
                },
                {
                  "internalType": "string",
                  "name": "location",
                  "type": "string"
                },
                {
                  "internalType": "uint8",
                  "name": "role",
                  "type": "uint8"
                },
                {
                  "internalType": "bool",
                  "name": "registered",
                  "type": "bool"
                }
              ],
              "internalType": "struct SharedStructs.User",
              "name": "to",
              "type": "tuple"
            },
            {
              "internalType": "string",
              "name": "comment",
              "type": "string"
            },
            {
              "internalType": "uint256",
              "name": "rating",
              "type": "uint256"
            }
          ],
          "internalType": "struct SharedStructs.Comment[]",
          "name": "",
          "type": "tuple[]"
        }
      ],
      "stateMutability": "view",
      "type": "function",
      "constant": true
    },
    {
      "inputs": [
        {
          "internalType": "uint256",
          "name": "rawMaterialId",
          "type": "uint256"
        }
      ],
      "name": "getRawMaterialComments",
      "outputs": [
        {
          "components": [
            {
              "internalType": "uint256",
              "name": "id",
              "type": "uint256"
            },
            {
              "internalType": "uint256",
              "name": "timestamp",
              "type": "uint256"
            },
            {
              "components": [
                {
                  "internalType": "uint256",
                  "name": "id",
                  "type": "uint256"
                },
                {
                  "internalType": "address",
                  "name": "ethAddress",
                  "type": "address"
                },
                {
                  "internalType": "string",
                  "name": "email",
                  "type": "string"
                },
                {
                  "internalType": "string",
                  "name": "username",
                  "type": "string"
                },
                {
                  "internalType": "string",
                  "name": "location",
                  "type": "string"
                },
                {
                  "internalType": "uint8",
                  "name": "role",
                  "type": "uint8"
                },
                {
                  "internalType": "bool",
                  "name": "registered",
                  "type": "bool"
                }
              ],
              "internalType": "struct SharedStructs.User",
              "name": "from",
              "type": "tuple"
            },
            {
              "components": [
                {
                  "internalType": "uint256",
                  "name": "id",
                  "type": "uint256"
                },
                {
                  "internalType": "address",
                  "name": "ethAddress",
                  "type": "address"
                },
                {
                  "internalType": "string",
                  "name": "email",
                  "type": "string"
                },
                {
                  "internalType": "string",
                  "name": "username",
                  "type": "string"
                },
                {
                  "internalType": "string",
                  "name": "location",
                  "type": "string"
                },
                {
                  "internalType": "uint8",
                  "name": "role",
                  "type": "uint8"
                },
                {
                  "internalType": "bool",
                  "name": "registered",
                  "type": "bool"
                }
              ],
              "internalType": "struct SharedStructs.User",
              "name": "to",
              "type": "tuple"
            },
            {
              "internalType": "string",
              "name": "comment",
              "type": "string"
            },
            {
              "internalType": "uint256",
              "name": "rating",
              "type": "uint256"
            }
          ],
          "internalType": "struct SharedStructs.Comment[]",
          "name": "",
          "type": "tuple[]"
        }
      ],
      "stateMutability": "view",
      "type": "function",
      "constant": true
    },
    {
      "inputs": [
        {
          "internalType": "uint256",
          "name": "rawMaterialId",
          "type": "uint256"
        },
        {
          "internalType": "uint256",
          "name": "quantity",
          "type": "uint256"
        }
      ],
      "name": "buyRawMaterial",
      "outputs": [],
      "stateMutability": "nonpayable",
      "type": "function"
    },
    {
      "inputs": [
        {
          "components": [
            {
              "internalType": "uint256",
              "name": "id",
              "type": "uint256"
            },
            {
              "internalType": "address",
              "name": "ethAddress",
              "type": "address"
            },
            {
              "internalType": "string",
              "name": "email",
              "type": "string"
            },
            {
              "internalType": "string",
              "name": "username",
              "type": "string"
            },
            {
              "internalType": "string",
              "name": "location",
              "type": "string"
            },
            {
              "internalType": "uint8",
              "name": "role",
              "type": "uint8"
            },
            {
              "internalType": "bool",
              "name": "registered",
              "type": "bool"
            }
          ],
          "internalType": "struct SharedStructs.User",
          "name": "from",
          "type": "tuple"
        },
        {
          "components": [
            {
              "internalType": "uint256",
              "name": "id",
              "type": "uint256"
            },
            {
              "internalType": "address",
              "name": "ethAddress",
              "type": "address"
            },
            {
              "internalType": "string",
              "name": "email",
              "type": "string"
            },
            {
              "internalType": "string",
              "name": "username",
              "type": "string"
            },
            {
              "internalType": "string",
              "name": "location",
              "type": "string"
            },
            {
              "internalType": "uint8",
              "name": "role",
              "type": "uint8"
            },
            {
              "internalType": "bool",
              "name": "registered",
              "type": "bool"
            }
          ],
          "internalType": "struct SharedStructs.User",
          "name": "to",
          "type": "tuple"
        },
        {
          "internalType": "string",
          "name": "comment",
          "type": "string"
        },
        {
          "internalType": "uint256",
          "name": "rating",
          "type": "uint256"
        },
        {
          "internalType": "uint256",
          "name": "soldRawMaterialId",
          "type": "uint256"
        }
      ],
      "name": "addManufacturerComment",
      "outputs": [],
      "stateMutability": "nonpayable",
      "type": "function"
    },
    {
      "inputs": [
        {
          "internalType": "address",
          "name": "ethAddress",
          "type": "address"
        },
        {
          "internalType": "uint256",
          "name": "soldRawMaterialId",
          "type": "uint256"
        }
      ],
      "name": "getToManufacturerCommentId",
      "outputs": [
        {
          "internalType": "uint256",
          "name": "",
          "type": "uint256"
        }
      ],
      "stateMutability": "view",
      "type": "function",
      "constant": true
    },
    {
      "inputs": [
        {
          "internalType": "address",
          "name": "ethAddress",
          "type": "address"
        },
        {
          "internalType": "uint256",
          "name": "soldRawMaterialId",
          "type": "uint256"
        }
      ],
      "name": "getFromManufacturerCommentId",
      "outputs": [
        {
          "internalType": "uint256",
          "name": "",
          "type": "uint256"
        }
      ],
      "stateMutability": "view",
      "type": "function",
      "constant": true
    }
  ],
  "bytecode": "0x60806040525f600b555f600c5534801562000018575f80fd5b506040516200546d3803806200546d8339810160408190526200003b9162000060565b5f80546001600160a01b0319166001600160a01b03929092169190911790556200008f565b5f6020828403121562000071575f80fd5b81516001600160a01b038116811462000088575f80fd5b9392505050565b6153d0806200009d5f395ff3fe608060405234801561000f575f80fd5b5060043610610110575f3560e01c8063087fb4cc146101145780634b3686a81461013d57806351287e7b146101525780635351cb6a146101655780635adacaba146101785780635aff3e82146101985780635b4aa0ff146101ab5780635cb93e84146101be5780636763ae82146101de57806384214159146101f1578063a18cd69c14610211578063a63671dc14610230578063b3a3f94c1461025d578063bf41dbdb14610270578063c045c7ea14610290578063c1bc7c41146102b0578063d4e3ca13146102c3578063dba41ee5146102d6578063f332cd92146102e9578063f6cb94e11461031c578063fac0992d1461032f578063fd5e990914610337575b5f80fd5b6101276101223660046144b1565b61034a565b60405161013491906144d3565b60405180910390f35b61015061014b36600461473b565b6103b3565b005b6101506101603660046147cd565b61047a565b6101506101733660046147f7565b610544565b61018b610186366004614842565b610974565b604051610134919061492f565b6101506101a6366004614842565b610e9d565b6101506101b93660046149ef565b610f4e565b6101d16101cc366004614842565b610fb2565b6040516101349190614a93565b6101276101ec3660046144b1565b611347565b6102046101ff366004614842565b6113ae565b6040516101349190614bab565b61015061021f3660046149ef565b5f9182526008602052604090912055565b61024f61023e366004614842565b5f9081526008602052604090205490565b604051908152602001610134565b61024f61026b366004614bbd565b611e81565b61028361027e3660046144b1565b61263e565b6040516101349190614d05565b6102a361029e3660046144b1565b612ac1565b6040516101349190614d65565b61018b6102be366004614842565b61367b565b6101506102d13660046149ef565b613b99565b61024f6102e43660046147cd565b613bc2565b6101506102f7366004614842565b5f90815260066020526040902060298101805460ff1916600117905542602890910155565b61024f61032a3660046147cd565b613c06565b610283613c1d565b610150610345366004614db8565b61406c565b6001600160a01b0381165f908152600160209081526040918290208054835181840281018401909452808452606093928301828280156103a757602002820191905f5260205f20905b815481526020019060010190808311610393575b50505050509050919050565b5f805460405163689ac72f60e11b81526001600160a01b039091169063d1358e5e906103e9908990899089908990600401614e3a565b5f604051808303815f875af1158015610404573d5f803e3d5ffd5b505050506040513d5f823e601f3d908101601f1916820160405261042b9190810190614faf565b9050805f015160095f88602001518560405160200161044b92919061507d565b6040516020818303038152906040528051906020012081526020019081526020015f2081905550505050505050565b6001600160a01b0382165f908152600160205260408120905b815481101561053e57828282815481106104af576104af61509a565b905f5260205f2001540361052c57815482906104cd906001906150c2565b815481106104dd576104dd61509a565b905f5260205f2001548282815481106104f8576104f861509a565b905f5260205f20018190555081805480610514576105146150d5565b600190038181905f5260205f20015f9055905561053e565b80610536816150e9565b915050610493565b50505050565b5f805484825260066020526040808320905163689ac72f60e11b81526001600160a01b039092169163d1358e5e9161058b91600e820191600801908890889060040161523c565b5f604051808303815f875af11580156105a6573d5f803e3d5ffd5b505050506040513d5f823e601f3d908101601f191682016040526105cd9190810190614faf565b5f858152600760209081526040808320805460018082018355918552938390208551601090950201938455848301519084015583810151805160028501908155928101516003850180546001600160a01b0319166001600160a01b03909216919091179055908101519394508493909190600484019061064d90826152ae565b506060820151600382019061066290826152ae565b506080820151600482019061067790826152ae565b5060a08201516005909101805460c09093015115156101000261ffff1990931660ff90921691909117919091179055606082015180516008830190815560208201516009840180546001600160a01b039092166001600160a01b03199092169190911790556040820151600a8401906106f090826152ae565b506060820151600382019061070590826152ae565b506080820151600482019061071a90826152ae565b5060a08201516005909101805460c09093015115156101000261ffff1990931660ff909216919091179190911790556080820151600e82019061075d90826152ae565b5060a09190910151600f909101555f84815260066020908152604080832060019081015484526005835281842080548083018255908552938390208551601090950201938455848301519084015583810151805160028501908155928101516003850180546001600160a01b0319166001600160a01b03909216919091179055908101518493929060048401906107f490826152ae565b506060820151600382019061080990826152ae565b506080820151600482019061081e90826152ae565b5060a08201516005909101805460c09093015115156101000261ffff1990931660ff90921691909117919091179055606082015180516008830190815560208201516009840180546001600160a01b039092166001600160a01b03199092169190911790556040820151600a84019061089790826152ae565b50606082015160038201906108ac90826152ae565b50608082015160048201906108c190826152ae565b5060a08201516005909101805460c09093015115156101000261ffff1990931660ff909216919091179190911790556080820151600e82019061090490826152ae565b5060a09190910151600f9182015581515f8681526006602090815260408083209094015493519293600a93610947926001600160a01b03909216918a910161507d565b6040516020818303038152906040528051906020012081526020019081526020015f208190555050505050565b606060055f8381526020019081526020015f20805480602002602001604051908101604052809291908181526020015f905b82821015610e92575f8481526020908190206040805160c0810182526010860290920180548352600181015483850152815160e081018352600282018054825260038301546001600160a01b031695820195909552600482018054949592948685019492939284019190610a1990615101565b80601f0160208091040260200160405190810160405280929190818152602001828054610a4590615101565b8015610a905780601f10610a6757610100808354040283529160200191610a90565b820191905f5260205f20905b815481529060010190602001808311610a7357829003601f168201915b50505050508152602001600382018054610aa990615101565b80601f0160208091040260200160405190810160405280929190818152602001828054610ad590615101565b8015610b205780601f10610af757610100808354040283529160200191610b20565b820191905f5260205f20905b815481529060010190602001808311610b0357829003601f168201915b50505050508152602001600482018054610b3990615101565b80601f0160208091040260200160405190810160405280929190818152602001828054610b6590615101565b8015610bb05780601f10610b8757610100808354040283529160200191610bb0565b820191905f5260205f20905b815481529060010190602001808311610b9357829003601f168201915b50505091835250506005919091015460ff808216602080850191909152610100909204161515604092830152918352805160e081018252600885018054825260098601546001600160a01b031682850152600a86018054959094019491939092840191610c1c90615101565b80601f0160208091040260200160405190810160405280929190818152602001828054610c4890615101565b8015610c935780601f10610c6a57610100808354040283529160200191610c93565b820191905f5260205f20905b815481529060010190602001808311610c7657829003601f168201915b50505050508152602001600382018054610cac90615101565b80601f0160208091040260200160405190810160405280929190818152602001828054610cd890615101565b8015610d235780601f10610cfa57610100808354040283529160200191610d23565b820191905f5260205f20905b815481529060010190602001808311610d0657829003601f168201915b50505050508152602001600482018054610d3c90615101565b80601f0160208091040260200160405190810160405280929190818152602001828054610d6890615101565b8015610db35780601f10610d8a57610100808354040283529160200191610db3565b820191905f5260205f20905b815481529060010190602001808311610d9657829003601f168201915b50505091835250506005919091015460ff808216602080850191909152610100909204161515604090920191909152908252600e830180549290910191610df990615101565b80601f0160208091040260200160405190810160405280929190818152602001828054610e2590615101565b8015610e705780601f10610e4757610100808354040283529160200191610e70565b820191905f5260205f20905b815481529060010190602001808311610e5357829003601f168201915b50505050508152602001600f82015481525050815260200190600101906109a6565b505050509050919050565b5f8181526003602052604081208181556001810182905590610ec2600283018261430f565b600382015f9055600482015f610ed8919061430f565b5f6005830181905560068301819055600783018181556008840180546001600160a01b031916905590610f0e600985018261430f565b610f1b600383015f61430f565b610f28600483015f61430f565b50600501805461ffff1916905550505f908152600460205260409020805460ff19169055565b5f8281526003602081905260408220018054839290610f6e9084906150c2565b90915550505f828152600360208190526040822001549003610fae575f82815260036020526040902060080154610fae906001600160a01b03168361047a565b5050565b610fba614349565b60035f8381526020019081526020015f20604051806101000160405290815f820154815260200160018201548152602001600282018054610ffa90615101565b80601f016020809104026020016040519081016040528092919081815260200182805461102690615101565b80156110715780601f1061104857610100808354040283529160200191611071565b820191905f5260205f20905b81548152906001019060200180831161105457829003601f168201915b505050505081526020016003820154815260200160048201805461109490615101565b80601f01602080910402602001604051908101604052809291908181526020018280546110c090615101565b801561110b5780601f106110e25761010080835404028352916020019161110b565b820191905f5260205f20905b8154815290600101906020018083116110ee57829003601f168201915b505050505081526020016005820154815260200160068201548152602001600782016040518060e00160405290815f8201548152602001600182015f9054906101000a90046001600160a01b03166001600160a01b03166001600160a01b0316815260200160028201805461117f90615101565b80601f01602080910402602001604051908101604052809291908181526020018280546111ab90615101565b80156111f65780601f106111cd576101008083540402835291602001916111f6565b820191905f5260205f20905b8154815290600101906020018083116111d957829003601f168201915b5050505050815260200160038201805461120f90615101565b80601f016020809104026020016040519081016040528092919081815260200182805461123b90615101565b80156112865780601f1061125d57610100808354040283529160200191611286565b820191905f5260205f20905b81548152906001019060200180831161126957829003601f168201915b5050505050815260200160048201805461129f90615101565b80601f01602080910402602001604051908101604052809291908181526020018280546112cb90615101565b80156113165780601f106112ed57610100808354040283529160200191611316565b820191905f5260205f20905b8154815290600101906020018083116112f957829003601f168201915b50505091835250506005919091015460ff808216602084015261010090910416151560409091015290525092915050565b6001600160a01b0381165f908152600260209081526040918290208054835181840281018401909452808452606093928301828280156103a757602002820191905f5260205f20908154815260200190600101908083116103935750505050509050919050565b6113b661438e565b60065f8381526020019081526020015f206040518060c00160405290815f820154815260200160018201604051806101000160405290815f82015481526020016001820154815260200160028201805461140f90615101565b80601f016020809104026020016040519081016040528092919081815260200182805461143b90615101565b80156114865780601f1061145d57610100808354040283529160200191611486565b820191905f5260205f20905b81548152906001019060200180831161146957829003601f168201915b50505050508152602001600382015481526020016004820180546114a990615101565b80601f01602080910402602001604051908101604052809291908181526020018280546114d590615101565b80156115205780601f106114f757610100808354040283529160200191611520565b820191905f5260205f20905b81548152906001019060200180831161150357829003601f168201915b505050505081526020016005820154815260200160068201548152602001600782016040518060e00160405290815f8201548152602001600182015f9054906101000a90046001600160a01b03166001600160a01b03166001600160a01b0316815260200160028201805461159490615101565b80601f01602080910402602001604051908101604052809291908181526020018280546115c090615101565b801561160b5780601f106115e25761010080835404028352916020019161160b565b820191905f5260205f20905b8154815290600101906020018083116115ee57829003601f168201915b5050505050815260200160038201805461162490615101565b80601f016020809104026020016040519081016040528092919081815260200182805461165090615101565b801561169b5780601f106116725761010080835404028352916020019161169b565b820191905f5260205f20905b81548152906001019060200180831161167e57829003601f168201915b505050505081526020016004820180546116b490615101565b80601f01602080910402602001604051908101604052809291908181526020018280546116e090615101565b801561172b5780601f106117025761010080835404028352916020019161172b565b820191905f5260205f20905b81548152906001019060200180831161170e57829003601f168201915b50505091835250506005919091015460ff80821660208085019190915261010090920416151560409283015291909252928452805160e081018252600e860180548252600f8701546001600160a01b03168286015260108701805496909501959194909350918401919061179e90615101565b80601f01602080910402602001604051908101604052809291908181526020018280546117ca90615101565b80156118155780601f106117ec57610100808354040283529160200191611815565b820191905f5260205f20905b8154815290600101906020018083116117f857829003601f168201915b5050505050815260200160038201805461182e90615101565b80601f016020809104026020016040519081016040528092919081815260200182805461185a90615101565b80156118a55780601f1061187c576101008083540402835291602001916118a5565b820191905f5260205f20905b81548152906001019060200180831161188857829003601f168201915b505050505081526020016004820180546118be90615101565b80601f01602080910402602001604051908101604052809291908181526020018280546118ea90615101565b80156119355780601f1061190c57610100808354040283529160200191611935565b820191905f5260205f20905b81548152906001019060200180831161191857829003601f168201915b50505091835250506005919091015460ff8082166020808501919091526101009092041615156040928301529183528051610140810182526014850180548252825160e081018452601587018054825260168801546001600160a01b03168287015260178801805497870197949693959387019492939192918401916119ba90615101565b80601f01602080910402602001604051908101604052809291908181526020018280546119e690615101565b8015611a315780601f10611a0857610100808354040283529160200191611a31565b820191905f5260205f20905b815481529060010190602001808311611a1457829003601f168201915b50505050508152602001600382018054611a4a90615101565b80601f0160208091040260200160405190810160405280929190818152602001828054611a7690615101565b8015611ac15780601f10611a9857610100808354040283529160200191611ac1565b820191905f5260205f20905b815481529060010190602001808311611aa457829003601f168201915b50505050508152602001600482018054611ada90615101565b80601f0160208091040260200160405190810160405280929190818152602001828054611b0690615101565b8015611b515780601f10611b2857610100808354040283529160200191611b51565b820191905f5260205f20905b815481529060010190602001808311611b3457829003601f168201915b50505091835250506005919091015460ff808216602080850191909152610100909204161515604092830152918352805160e081018252600785018054825260088601546001600160a01b031682850152600986018054959094019491939092840191611bbd90615101565b80601f0160208091040260200160405190810160405280929190818152602001828054611be990615101565b8015611c345780601f10611c0b57610100808354040283529160200191611c34565b820191905f5260205f20905b815481529060010190602001808311611c1757829003601f168201915b50505050508152602001600382018054611c4d90615101565b80601f0160208091040260200160405190810160405280929190818152602001828054611c7990615101565b8015611cc45780601f10611c9b57610100808354040283529160200191611cc4565b820191905f5260205f20905b815481529060010190602001808311611ca757829003601f168201915b50505050508152602001600482018054611cdd90615101565b80601f0160208091040260200160405190810160405280929190818152602001828054611d0990615101565b8015611d545780601f10611d2b57610100808354040283529160200191611d54565b820191905f5260205f20905b815481529060010190602001808311611d3757829003601f168201915b50505091835250506005919091015460ff808216602080850191909152610100909204161515604092830152918352600d84015491830191909152600e83015490820152600f820154606082015260108201546080820152601182015460a082015260128201805460c090920191611dcb90615101565b80601f0160208091040260200160405190810160405280929190818152602001828054611df790615101565b8015611e425780601f10611e1957610100808354040283529160200191611e42565b820191905f5260205f20905b815481529060010190602001808311611e2557829003601f168201915b50505091835250506013919091015460ff9081161515602092830152918352602884015490830152602990920154909116151560409091015292915050565b600c80545f9182611e91836150e9565b91905055505f6040518060c00160405280600c54815260200160035f8a81526020019081526020015f20604051806101000160405290815f820154815260200160018201548152602001600282018054611eea90615101565b80601f0160208091040260200160405190810160405280929190818152602001828054611f1690615101565b8015611f615780601f10611f3857610100808354040283529160200191611f61565b820191905f5260205f20905b815481529060010190602001808311611f4457829003601f168201915b5050505050815260200160038201548152602001600482018054611f8490615101565b80601f0160208091040260200160405190810160405280929190818152602001828054611fb090615101565b8015611ffb5780601f10611fd257610100808354040283529160200191611ffb565b820191905f5260205f20905b815481529060010190602001808311611fde57829003601f168201915b505050505081526020016005820154815260200160068201548152602001600782016040518060e00160405290815f8201548152602001600182015f9054906101000a90046001600160a01b03166001600160a01b03166001600160a01b0316815260200160028201805461206f90615101565b80601f016020809104026020016040519081016040528092919081815260200182805461209b90615101565b80156120e65780601f106120bd576101008083540402835291602001916120e6565b820191905f5260205f20905b8154815290600101906020018083116120c957829003601f168201915b505050505081526020016003820180546120ff90615101565b80601f016020809104026020016040519081016040528092919081815260200182805461212b90615101565b80156121765780601f1061214d57610100808354040283529160200191612176565b820191905f5260205f20905b81548152906001019060200180831161215957829003601f168201915b5050505050815260200160048201805461218f90615101565b80601f01602080910402602001604051908101604052809291908181526020018280546121bb90615101565b80156122065780601f106121dd57610100808354040283529160200191612206565b820191905f5260205f20905b8154815290600101906020018083116121e957829003601f168201915b50505091835250506005919091015460ff808216602080850191909152610100909204161515604092830152919092529284528383018a90528381018990525f606080860182905289151560809096019590955285840180519095018c9052600c548152600684528190208551815593518051600186019081559381015160028601559081015194955085949092915060038401906122a590826152ae565b5060608201516003820155608082015160048201906122c490826152ae565b5060a0820151600582015560c0820151600682015560e082015180516007830190815560208201516008840180546001600160a01b0319166001600160a01b039092169190911790556040820151600984019061232190826152ae565b506060820151600382019061233690826152ae565b506080820151600482019061234b90826152ae565b5060a08201516005909101805460c09093015115156101000261ffff1990931660ff9092169190911791909117905550506040828101518051600e84019081556020820151600f850180546001600160a01b039092166001600160a01b03199092169190911790559181015190919060108401906123c990826152ae565b50606082015160038201906123de90826152ae565b50608082015160048201906123f390826152ae565b5060a08201516005909101805460c09093015115156101000261ffff1990931660ff909216919091179190911790556060820151805160148301908155602080830151805160158601908155918101516016860180546001600160a01b039092166001600160a01b03199092169190911790556040810151909190601786019061247d90826152ae565b506060820151600382019061249290826152ae565b50608082015160048201906124a790826152ae565b5060a08201516005909101805460c09093015115156101000261ffff1990931660ff9092169190911791909117905560408281015180516007840190815560208201516008850180546001600160a01b039092166001600160a01b031990921691909117905591810151909190600984019061252390826152ae565b506060820151600382019061253890826152ae565b506080820151600482019061254d90826152ae565b5060a082810151600592909201805460c09485015160ff90941661ffff199091161761010093151584021790556060850151600d8501556080850151600e850155840151600f84015590830151601083015560e0830151601183015582015160128201906125bb90826152ae565b5061012091909101516013909101805491151560ff199283161790556080830151602883015560a090920151602990910180549115159190921617905550505f858152600360209081526040808320600801546001600160a01b03168352600282528220600c805482546001810184559285529290932001555495945050505050565b6001600160a01b0381165f90815260016020526040812054606091906001600160401b0381111561267157612671614516565b6040519080825280602002602001820160405280156126aa57816020015b612697614349565b81526020019060019003908161268f5790505b5090505f5b6001600160a01b0384165f90815260016020526040902054811015612aba576001600160a01b0384165f90815260016020526040812080546003929190849081106126fc576126fc61509a565b905f5260205f20015481526020019081526020015f20604051806101000160405290815f82015481526020016001820154815260200160028201805461274190615101565b80601f016020809104026020016040519081016040528092919081815260200182805461276d90615101565b80156127b85780601f1061278f576101008083540402835291602001916127b8565b820191905f5260205f20905b81548152906001019060200180831161279b57829003601f168201915b50505050508152602001600382015481526020016004820180546127db90615101565b80601f016020809104026020016040519081016040528092919081815260200182805461280790615101565b80156128525780601f1061282957610100808354040283529160200191612852565b820191905f5260205f20905b81548152906001019060200180831161283557829003601f168201915b505050505081526020016005820154815260200160068201548152602001600782016040518060e00160405290815f8201548152602001600182015f9054906101000a90046001600160a01b03166001600160a01b03166001600160a01b031681526020016002820180546128c690615101565b80601f01602080910402602001604051908101604052809291908181526020018280546128f290615101565b801561293d5780601f106129145761010080835404028352916020019161293d565b820191905f5260205f20905b81548152906001019060200180831161292057829003601f168201915b5050505050815260200160038201805461295690615101565b80601f016020809104026020016040519081016040528092919081815260200182805461298290615101565b80156129cd5780601f106129a4576101008083540402835291602001916129cd565b820191905f5260205f20905b8154815290600101906020018083116129b057829003601f168201915b505050505081526020016004820180546129e690615101565b80601f0160208091040260200160405190810160405280929190818152602001828054612a1290615101565b8015612a5d5780601f10612a3457610100808354040283529160200191612a5d565b820191905f5260205f20905b815481529060010190602001808311612a4057829003601f168201915b50505091835250506005919091015460ff80821660208401526101009091041615156040909101529052508251839083908110612a9c57612a9c61509a565b60200260200101819052508080612ab2906150e9565b9150506126af565b5092915050565b6001600160a01b0381165f90815260026020526040812054606091906001600160401b03811115612af457612af4614516565b604051908082528060200260200182016040528015612b2d57816020015b612b1a61438e565b815260200190600190039081612b125790505b5090505f5b6001600160a01b0384165f90815260026020526040902054811015612aba576001600160a01b0384165f9081526002602052604081208054600692919084908110612b7f57612b7f61509a565b905f5260205f20015481526020019081526020015f206040518060c00160405290815f820154815260200160018201604051806101000160405290815f820154815260200160018201548152602001600282018054612bdd90615101565b80601f0160208091040260200160405190810160405280929190818152602001828054612c0990615101565b8015612c545780601f10612c2b57610100808354040283529160200191612c54565b820191905f5260205f20905b815481529060010190602001808311612c3757829003601f168201915b5050505050815260200160038201548152602001600482018054612c7790615101565b80601f0160208091040260200160405190810160405280929190818152602001828054612ca390615101565b8015612cee5780601f10612cc557610100808354040283529160200191612cee565b820191905f5260205f20905b815481529060010190602001808311612cd157829003601f168201915b505050505081526020016005820154815260200160068201548152602001600782016040518060e00160405290815f8201548152602001600182015f9054906101000a90046001600160a01b03166001600160a01b03166001600160a01b03168152602001600282018054612d6290615101565b80601f0160208091040260200160405190810160405280929190818152602001828054612d8e90615101565b8015612dd95780601f10612db057610100808354040283529160200191612dd9565b820191905f5260205f20905b815481529060010190602001808311612dbc57829003601f168201915b50505050508152602001600382018054612df290615101565b80601f0160208091040260200160405190810160405280929190818152602001828054612e1e90615101565b8015612e695780601f10612e4057610100808354040283529160200191612e69565b820191905f5260205f20905b815481529060010190602001808311612e4c57829003601f168201915b50505050508152602001600482018054612e8290615101565b80601f0160208091040260200160405190810160405280929190818152602001828054612eae90615101565b8015612ef95780601f10612ed057610100808354040283529160200191612ef9565b820191905f5260205f20905b815481529060010190602001808311612edc57829003601f168201915b50505091835250506005919091015460ff80821660208085019190915261010090920416151560409283015291909252928452805160e081018252600e860180548252600f8701546001600160a01b031682860152601087018054969095019591949093509184019190612f6c90615101565b80601f0160208091040260200160405190810160405280929190818152602001828054612f9890615101565b8015612fe35780601f10612fba57610100808354040283529160200191612fe3565b820191905f5260205f20905b815481529060010190602001808311612fc657829003601f168201915b50505050508152602001600382018054612ffc90615101565b80601f016020809104026020016040519081016040528092919081815260200182805461302890615101565b80156130735780601f1061304a57610100808354040283529160200191613073565b820191905f5260205f20905b81548152906001019060200180831161305657829003601f168201915b5050505050815260200160048201805461308c90615101565b80601f01602080910402602001604051908101604052809291908181526020018280546130b890615101565b80156131035780601f106130da57610100808354040283529160200191613103565b820191905f5260205f20905b8154815290600101906020018083116130e657829003601f168201915b50505091835250506005919091015460ff8082166020808501919091526101009092041615156040928301529183528051610140810182526014850180548252825160e081018452601587018054825260168801546001600160a01b031682870152601788018054978701979496939593870194929391929184019161318890615101565b80601f01602080910402602001604051908101604052809291908181526020018280546131b490615101565b80156131ff5780601f106131d6576101008083540402835291602001916131ff565b820191905f5260205f20905b8154815290600101906020018083116131e257829003601f168201915b5050505050815260200160038201805461321890615101565b80601f016020809104026020016040519081016040528092919081815260200182805461324490615101565b801561328f5780601f106132665761010080835404028352916020019161328f565b820191905f5260205f20905b81548152906001019060200180831161327257829003601f168201915b505050505081526020016004820180546132a890615101565b80601f01602080910402602001604051908101604052809291908181526020018280546132d490615101565b801561331f5780601f106132f65761010080835404028352916020019161331f565b820191905f5260205f20905b81548152906001019060200180831161330257829003601f168201915b50505091835250506005919091015460ff808216602080850191909152610100909204161515604092830152918352805160e081018252600785018054825260088601546001600160a01b03168285015260098601805495909401949193909284019161338b90615101565b80601f01602080910402602001604051908101604052809291908181526020018280546133b790615101565b80156134025780601f106133d957610100808354040283529160200191613402565b820191905f5260205f20905b8154815290600101906020018083116133e557829003601f168201915b5050505050815260200160038201805461341b90615101565b80601f016020809104026020016040519081016040528092919081815260200182805461344790615101565b80156134925780601f1061346957610100808354040283529160200191613492565b820191905f5260205f20905b81548152906001019060200180831161347557829003601f168201915b505050505081526020016004820180546134ab90615101565b80601f01602080910402602001604051908101604052809291908181526020018280546134d790615101565b80156135225780601f106134f957610100808354040283529160200191613522565b820191905f5260205f20905b81548152906001019060200180831161350557829003601f168201915b50505091835250506005919091015460ff808216602080850191909152610100909204161515604092830152918352600d84015491830191909152600e83015490820152600f820154606082015260108201546080820152601182015460a082015260128201805460c09092019161359990615101565b80601f01602080910402602001604051908101604052809291908181526020018280546135c590615101565b80156136105780601f106135e757610100808354040283529160200191613610565b820191905f5260205f20905b8154815290600101906020018083116135f357829003601f168201915b50505091835250506013919091015460ff90811615156020928301529183526028840154908301526029909201549091161515604090910152825183908390811061365d5761365d61509a565b60200260200101819052508080613673906150e9565b915050612b32565b606060075f8381526020019081526020015f20805480602002602001604051908101604052809291908181526020015f905b82821015610e92575f8481526020908190206040805160c0810182526010860290920180548352600181015483850152815160e081018352600282018054825260038301546001600160a01b03169582019590955260048201805494959294868501949293928401919061372090615101565b80601f016020809104026020016040519081016040528092919081815260200182805461374c90615101565b80156137975780601f1061376e57610100808354040283529160200191613797565b820191905f5260205f20905b81548152906001019060200180831161377a57829003601f168201915b505050505081526020016003820180546137b090615101565b80601f01602080910402602001604051908101604052809291908181526020018280546137dc90615101565b80156138275780601f106137fe57610100808354040283529160200191613827565b820191905f5260205f20905b81548152906001019060200180831161380a57829003601f168201915b5050505050815260200160048201805461384090615101565b80601f016020809104026020016040519081016040528092919081815260200182805461386c90615101565b80156138b75780601f1061388e576101008083540402835291602001916138b7565b820191905f5260205f20905b81548152906001019060200180831161389a57829003601f168201915b50505091835250506005919091015460ff808216602080850191909152610100909204161515604092830152918352805160e081018252600885018054825260098601546001600160a01b031682850152600a8601805495909401949193909284019161392390615101565b80601f016020809104026020016040519081016040528092919081815260200182805461394f90615101565b801561399a5780601f106139715761010080835404028352916020019161399a565b820191905f5260205f20905b81548152906001019060200180831161397d57829003601f168201915b505050505081526020016003820180546139b390615101565b80601f01602080910402602001604051908101604052809291908181526020018280546139df90615101565b8015613a2a5780601f10613a0157610100808354040283529160200191613a2a565b820191905f5260205f20905b815481529060010190602001808311613a0d57829003601f168201915b50505050508152602001600482018054613a4390615101565b80601f0160208091040260200160405190810160405280929190818152602001828054613a6f90615101565b8015613aba5780601f10613a9157610100808354040283529160200191613aba565b820191905f5260205f20905b815481529060010190602001808311613a9d57829003601f168201915b50505091835250506005919091015460ff808216602080850191909152610100909204161515604090920191909152908252600e830180549290910191613b0090615101565b80601f0160208091040260200160405190810160405280929190818152602001828054613b2c90615101565b8015613b775780601f10613b4e57610100808354040283529160200191613b77565b820191905f5260205f20905b815481529060010190602001808311613b5a57829003601f168201915b50505050508152602001600f82015481525050815260200190600101906136ad565b5f8281526003602081905260408220018054839290613bb99084906150c2565b90915550505050565b5f600a5f8484604051602001613bd992919061507d565b6040516020818303038152906040528051906020012081526020019081526020015f205490505b92915050565b5f60095f8484604051602001613bd992919061507d565b60605f600b546001600160401b03811115613c3a57613c3a614516565b604051908082528060200260200182016040528015613c7357816020015b613c60614349565b815260200190600190039081613c585790505b5090505f60015b600b548111614064575f8181526004602052604090205460ff1615156001036140525760035f8281526020019081526020015f20604051806101000160405290815f820154815260200160018201548152602001600282018054613cdd90615101565b80601f0160208091040260200160405190810160405280929190818152602001828054613d0990615101565b8015613d545780601f10613d2b57610100808354040283529160200191613d54565b820191905f5260205f20905b815481529060010190602001808311613d3757829003601f168201915b5050505050815260200160038201548152602001600482018054613d7790615101565b80601f0160208091040260200160405190810160405280929190818152602001828054613da390615101565b8015613dee5780601f10613dc557610100808354040283529160200191613dee565b820191905f5260205f20905b815481529060010190602001808311613dd157829003601f168201915b505050505081526020016005820154815260200160068201548152602001600782016040518060e00160405290815f8201548152602001600182015f9054906101000a90046001600160a01b03166001600160a01b03166001600160a01b03168152602001600282018054613e6290615101565b80601f0160208091040260200160405190810160405280929190818152602001828054613e8e90615101565b8015613ed95780601f10613eb057610100808354040283529160200191613ed9565b820191905f5260205f20905b815481529060010190602001808311613ebc57829003601f168201915b50505050508152602001600382018054613ef290615101565b80601f0160208091040260200160405190810160405280929190818152602001828054613f1e90615101565b8015613f695780601f10613f4057610100808354040283529160200191613f69565b820191905f5260205f20905b815481529060010190602001808311613f4c57829003601f168201915b50505050508152602001600482018054613f8290615101565b80601f0160208091040260200160405190810160405280929190818152602001828054613fae90615101565b8015613ff95780601f10613fd057610100808354040283529160200191613ff9565b820191905f5260205f20905b815481529060010190602001808311613fdc57829003601f168201915b50505091835250506005919091015460ff808216602084015261010090910416151560409091015290525083518490849081106140385761403861509a565b6020026020010181905250818061404e906150e9565b9250505b8061405c816150e9565b915050613c7a565b508152919050565b600b8054905f61407b836150e9565b9190505550604051806101000160405280600b5481526020014281526020018781526020018681526020018581526020018481526020018381526020015f8054906101000a90046001600160a01b03166001600160a01b0316636517579c846040518263ffffffff1660e01b81526004016140f891815260200190565b5f60405180830381865afa158015614112573d5f803e3d5ffd5b505050506040513d5f823e601f3d908101601f191682016040526141399190810190615369565b9052600b545f908152600360209081526040918290208351815590830151600182015590820151600282019061416f90826152ae565b50606082015160038201556080820151600482019061418e90826152ae565b5060a0820151600582015560c0820151600682015560e082015180516007830190815560208201516008840180546001600160a01b0319166001600160a01b03909216919091179055604082015160098401906141eb90826152ae565b506060820151600382019061420090826152ae565b506080820151600482019061421590826152ae565b5060a0820151600591909101805460c09093015115156101000261ffff1990931660ff909216919091179190911790555050600b545f908152600460208190526040808320805460ff1916600190811790915583549151631945d5e760e21b815292830185905292916001600160a01b0390911690636517579c906024015f60405180830381865afa1580156142ad573d5f803e3d5ffd5b505050506040513d5f823e601f3d908101601f191682016040526142d49190810190615369565b6020908101516001600160a01b03168252818101929092526040015f908120600b548154600181018355918352929091200155505050505050565b50805461431b90615101565b5f825580601f1061432a575050565b601f0160209004905f5260205f209081019061434691906143d4565b50565b6040518061010001604052805f81526020015f8152602001606081526020015f8152602001606081526020015f81526020015f81526020016143896143ec565b905290565b6040518060c001604052805f81526020016143a7614349565b81526020016143b46143ec565b81526020016143c1614433565b81525f6020820181905260409091015290565b5b808211156143e8575f81556001016143d5565b5090565b6040518060e001604052805f81526020015f6001600160a01b031681526020016060815260200160608152602001606081526020015f60ff1681526020015f151581525090565b6040518061014001604052805f815260200161444d6143ec565b815260200161445a6143ec565b81526020015f81526020015f81526020015f81526020015f81526020015f8152602001606081526020015f151581525090565b6001600160a01b0381168114614346575f80fd5b80356144ac8161448d565b919050565b5f602082840312156144c1575f80fd5b81356144cc8161448d565b9392505050565b602080825282518282018190525f9190848201906040850190845b8181101561450a578351835292840192918401916001016144ee565b50909695505050505050565b634e487b7160e01b5f52604160045260245ffd5b60405160e081016001600160401b038111828210171561454c5761454c614516565b60405290565b60405161014081016001600160401b038111828210171561454c5761454c614516565b60405160c081016001600160401b038111828210171561454c5761454c614516565b604051601f8201601f191681016001600160401b03811182821017156145bf576145bf614516565b604052919050565b5f6001600160401b038211156145df576145df614516565b50601f01601f191660200190565b5f82601f8301126145fc575f80fd5b813561460f61460a826145c7565b614597565b818152846020838601011115614623575f80fd5b816020850160208301375f918101602001919091529392505050565b60ff81168114614346575f80fd5b80356144ac8161463f565b8015158114614346575f80fd5b80356144ac81614658565b5f60e08284031215614680575f80fd5b61468861452a565b90508135815261469a602083016144a1565b602082015260408201356001600160401b03808211156146b8575f80fd5b6146c4858386016145ed565b604084015260608401359150808211156146dc575f80fd5b6146e8858386016145ed565b60608401526080840135915080821115614700575f80fd5b5061470d848285016145ed565b60808301525061471f60a0830161464d565b60a082015261473060c08301614665565b60c082015292915050565b5f805f805f60a0868803121561474f575f80fd5b85356001600160401b0380821115614765575f80fd5b61477189838a01614670565b96506020880135915080821115614786575f80fd5b61479289838a01614670565b955060408801359150808211156147a7575f80fd5b506147b4888289016145ed565b9598949750949560608101359550608001359392505050565b5f80604083850312156147de575f80fd5b82356147e98161448d565b946020939093013593505050565b5f805f60608486031215614809575f80fd5b8335925060208401356001600160401b03811115614825575f80fd5b614831868287016145ed565b925050604084013590509250925092565b5f60208284031215614852575f80fd5b5035919050565b5f5b8381101561487357818101518382015260200161485b565b50505f910152565b5f8151808452614892816020860160208601614859565b601f01601f19169290920160200192915050565b8051825260018060a01b0360208201511660208301525f604082015160e060408501526148d660e085018261487b565b9050606083015184820360608601526148ef828261487b565b91505060808301518482036080860152614909828261487b565b91505060ff60a08401511660a085015260c0830151151560c08501528091505092915050565b5f6020808301818452808551808352604092508286019150828160051b8701018488015f5b838110156149e157603f19898403018552815160c081518552888201518986015287820151818987015261498a828701826148a6565b915050606080830151868303828801526149a483826148a6565b92505050608080830151868303828801526149bf838261487b565b60a0948501519790940196909652505094870194925090860190600101614954565b509098975050505050505050565b5f8060408385031215614a00575f80fd5b50508035926020909101359150565b5f61010082518452602083015160208501526040830151816040860152614a388286018261487b565b9150506060830151606085015260808301518482036080860152614a5c828261487b565b91505060a083015160a085015260c083015160c085015260e083015184820360e0860152614a8a82826148a6565b95945050505050565b602081525f6144cc6020830184614a0f565b805182525f602082015160c06020850152614ac360c0850182614a0f565b905060408301518482036040860152614adc82826148a6565b91505060608301518482036060860152610140815183526020820151816020850152614b0a828501826148a6565b91505060408201518382036040850152614b2482826148a6565b915050606082015160608401526080820151608084015260a082015160a084015260c082015160c084015260e082015160e08401526101008083015184830382860152614b71838261487b565b92505050610120808301519250614b8b8185018415159052565b506080850151608087015260a08501519250614a8a60a087018415159052565b602081525f6144cc6020830184614aa5565b5f805f805f60a08688031215614bd1575f80fd5b853594506020860135935060408601356001600160401b0380821115614bf5575f80fd5b614c0189838a01614670565b94506060880135915080821115614c16575f80fd5b90870190610140828a031215614c2a575f80fd5b614c32614552565b82358152602083013582811115614c47575f80fd5b614c538b828601614670565b602083015250604083013582811115614c6a575f80fd5b614c768b828601614670565b604083015250606083013560608201526080830135608082015260a083013560a082015260c083013560c082015260e083013560e08201526101008084013583811115614cc1575f80fd5b614ccd8c8287016145ed565b8284015250506101209150614ce3828401614665565b82820152809450505050614cf960808701614665565b90509295509295909350565b5f602080830181845280855180835260408601915060408160051b87010192508387015f5b82811015614d5857603f19888603018452614d46858351614a0f565b94509285019290850190600101614d2a565b5092979650505050505050565b5f602080830181845280855180835260408601915060408160051b87010192508387015f5b82811015614d5857603f19888603018452614da6858351614aa5565b94509285019290850190600101614d8a565b5f805f805f8060c08789031215614dcd575f80fd5b86356001600160401b0380821115614de3575f80fd5b614def8a838b016145ed565b9750602089013596506040890135915080821115614e0b575f80fd5b50614e1889828a016145ed565b945050606087013592506080870135915060a087013590509295509295509295565b608081525f614e4c60808301876148a6565b8281036020840152614e5e81876148a6565b90508281036040840152614e72818661487b565b91505082606083015295945050505050565b80516144ac8161448d565b5f82601f830112614e9e575f80fd5b8151614eac61460a826145c7565b818152846020838601011115614ec0575f80fd5b614ed1826020830160208701614859565b949350505050565b80516144ac8161463f565b80516144ac81614658565b5f60e08284031215614eff575f80fd5b614f0761452a565b905081518152614f1960208301614e84565b602082015260408201516001600160401b0380821115614f37575f80fd5b614f4385838601614e8f565b60408401526060840151915080821115614f5b575f80fd5b614f6785838601614e8f565b60608401526080840151915080821115614f7f575f80fd5b50614f8c84828501614e8f565b608083015250614f9e60a08301614ed9565b60a082015261473060c08301614ee4565b5f60208284031215614fbf575f80fd5b81516001600160401b0380821115614fd5575f80fd5b9083019060c08286031215614fe8575f80fd5b614ff0614575565b825181526020830151602082015260408301518281111561500f575f80fd5b61501b87828601614eef565b604083015250606083015182811115615032575f80fd5b61503e87828601614eef565b606083015250608083015182811115615055575f80fd5b61506187828601614e8f565b60808301525060a083015160a082015280935050505092915050565b60609290921b6001600160601b0319168252601482015260340190565b634e487b7160e01b5f52603260045260245ffd5b634e487b7160e01b5f52601160045260245ffd5b81810381811115613c0057613c006150ae565b634e487b7160e01b5f52603160045260245ffd5b5f600182016150fa576150fa6150ae565b5060010190565b600181811c9082168061511557607f821691505b60208210810361513357634e487b7160e01b5f52602260045260245ffd5b50919050565b5f815461514581615101565b808552602060018381168015615162576001811461517c576151a7565b60ff1985168884015283151560051b8801830195506151a7565b865f52825f205f5b8581101561519f5781548a8201860152908301908401615184565b890184019650505b505050505092915050565b8054825260018101546001600160a01b0316602083015260e0604083018190525f906151e390840160028401615139565b83810360608501526151f88160038501615139565b9050838103608085015261520f8160048501615139565b600584015460ff811660a087015290915061523460c0860160ff8360081c1615159052565b509392505050565b608081525f61524e60808301876151b2565b8281036020840152614e5e81876151b2565b601f8211156152a9575f81815260208120601f850160051c810160208610156152865750805b601f850160051c820191505b818110156152a557828155600101615292565b5050505b505050565b81516001600160401b038111156152c7576152c7614516565b6152db816152d58454615101565b84615260565b602080601f83116001811461530e575f84156152f75750858301515b5f19600386901b1c1916600185901b1785556152a5565b5f85815260208120601f198616915b8281101561533c5788860151825594840194600190910190840161531d565b508582101561535957878501515f19600388901b60f8161c191681555b5050505050600190811b01905550565b5f60208284031215615379575f80fd5b81516001600160401b0381111561538e575f80fd5b614ed184828501614eef56fea264697066735822122042a7697969dfa264d753b0609a5e83a8ee2253a66138c44e28f83e654cd535b564736f6c63430008150033",
  "immutableReferences": {},
  "source": "// SPDX-License-Identifier: MIT\r\npragma solidity >=0.4.22 <0.9.0;\r\npragma experimental ABIEncoderV2;\r\nimport \"./SharedStructs.sol\";\r\nimport \"./Main.sol\";\r\n\r\ncontract RawMaterialSupplier {\r\n    Main main;\r\n    constructor(address mainAddress) {\r\n        main = Main(mainAddress);\r\n    }\r\n    mapping(address => uint256[]) private userUnsoldRawMaterialIds;\r\n\tmapping(address => uint256[]) private userSoldRawMaterialIds;\r\n\tmapping(uint256 => SharedStructs.RawMaterial) private RawMaterialStock;\r\n    mapping(uint256 => bool) private RawMaterialStockValidity;\r\n\tmapping(uint256 => SharedStructs.Comment[]) private RawMaterialComments;\r\n\tmapping(uint256 => SharedStructs.SoldRawMaterial) private SoldRawMaterialStock;\r\n    mapping(uint256 => SharedStructs.Comment[]) private SoldRawMaterialComments;\r\n    mapping(uint256 => uint256) private rawMaterialToProduct;\r\n    mapping(bytes32 => uint256) private rmsToManufacturerComments;\r\n    mapping(bytes32 => uint256) private manufacturerToRMSComments;\r\n\tuint256 private  rawMaterialCtr = 0;\r\n\tuint256 private soldRawMaterialCtr = 0;\r\n\r\n\tfunction addRawMaterial(string memory name, uint256 quantity, string memory description, uint256 pricePerUnit, uint256 weightPerUnit, bytes32 googleIdHash) public {\r\n\t\t// require(main.getUser(googleIdHash).registered, \"User not registered\");\r\n\t\t// require(main.getUser(googleIdHash).role == 0, \"User must be raw material supplier to add raw materials.\");\r\n        // require(quantity > 0, \"Quantity must be greater than 0\");\r\n\t\t// require(pricePerUnit > 0, \"Price must be greater than 0\");\r\n\t\trawMaterialCtr++;\r\n\t\tRawMaterialStock[rawMaterialCtr] = SharedStructs.RawMaterial(rawMaterialCtr, block.timestamp, name, quantity, description, pricePerUnit, weightPerUnit, main.getUser(googleIdHash));\r\n        RawMaterialStockValidity[rawMaterialCtr] = true;\r\n\t\tuserUnsoldRawMaterialIds[main.getUser(googleIdHash).ethAddress].push(rawMaterialCtr);\r\n    }\r\n\r\n    function getAllRawMaterials() public view returns (SharedStructs.RawMaterial[] memory) {\r\n\t\t// require(main.getUser(googleIdHash).registered, \"User not registered\");\r\n\t\t// require(main.getUser(googleIdHash).role == 1, \"User must be manufacturer to access all the raw materials.\");\r\n\t\tSharedStructs.RawMaterial[] memory rawMaterials = new SharedStructs.RawMaterial[](rawMaterialCtr);\r\n\t\tuint256 index = 0;\r\n\t\tfor (uint256 i = 1; i <= rawMaterialCtr; i++) {\r\n\t\t\tif (RawMaterialStockValidity[i] == true) {\r\n\t\t\t\trawMaterials[index] = RawMaterialStock[i];\r\n\t\t\t\tindex++;\r\n        \t}\r\n\t\t}\r\n\t\tassembly {mstore(rawMaterials, index)}\r\n\t\treturn rawMaterials;\r\n    }\r\n\r\n    function getUserUnsoldRawMaterials(address ethAddress) public view returns (SharedStructs.RawMaterial[] memory) {\r\n\t\t// require(main.getUser(googleIdHash).registered, \"User not registered\");\r\n\t\t// require(main.getUser(googleIdHash).role == 0, \"User must be raw material supplier to access unsold raw materials.\");\r\n\t\t// SharedStructs.User memory user = main.getUser(googleIdHash);\r\n        SharedStructs.RawMaterial[] memory rawMaterials = new SharedStructs.RawMaterial[]( userUnsoldRawMaterialIds[ethAddress].length);\r\n        for (uint256 i = 0; i <  userUnsoldRawMaterialIds[ethAddress].length; i++) {\r\n            rawMaterials[i] = RawMaterialStock[ userUnsoldRawMaterialIds[ethAddress][i]];\r\n        }\r\n        return rawMaterials;\r\n    }\r\n\r\n\t// function getUserPendingRawMaterials(bytes32 googleIdHash) public view returns (SharedStructs.SoldRawMaterial[] memory) {\r\n\t// \trequire(main.getUser(googleIdHash).registered, \"User not registered\");\r\n\t// \trequire(main.getUser(googleIdHash).role == 0, \"User must be raw material supplier to access pending raw materials.\");\r\n\t// \tSharedStructs.User memory user = main.getUser(googleIdHash);\r\n\t// \tuint256[] memory rawMaterialIds = userSoldRawMaterialIds[user.ethAddress];\r\n    //     SharedStructs.SoldRawMaterial[] memory rawMaterials = new SharedStructs.SoldRawMaterial[](rawMaterialIds.length);\r\n\t// \tuint256 index = 0;\r\n    //     for (uint256 i = 0; i < rawMaterialIds.length; i++) {\r\n\t// \t\tif(SoldRawMaterialStock[rawMaterialIds[i]].received == false){\r\n\t// \t\t\trawMaterials[index] = SoldRawMaterialStock[rawMaterialIds[i]];\r\n\t// \t\t\tindex++;\r\n\t// \t\t}\r\n    //     }\r\n    //     assembly {mstore(rawMaterials, index)}\r\n\t// \treturn rawMaterials;\r\n\t// }\r\n\r\n\tfunction getUserSoldRawMaterials(address ethAddress) public view returns (SharedStructs.SoldRawMaterial[] memory) {\r\n\t\t// require(main.getUser(googleIdHash).registered, \"User not registered\");\r\n\t\t// // require(main.getUser(googleIdHash).role == 0, \"User must be raw material supplier to access sold raw materials.\");\r\n\t\t// SharedStructs.User memory user = main.getUser(googleIdHash);\r\n        SharedStructs.SoldRawMaterial[] memory rawMaterials = new SharedStructs.SoldRawMaterial[](userSoldRawMaterialIds[ethAddress].length);\r\n\t\t// uint256 index = 0;\r\n        for (uint256 i = 0; i < userSoldRawMaterialIds[ethAddress].length; i++) {\r\n\t\t\t// if(SoldRawMaterialStock[rawMaterialIds[i]].received == true){\r\n\t\t\t\trawMaterials[i] = SoldRawMaterialStock[userSoldRawMaterialIds[ethAddress][i]];\r\n\t\t\t\t// index++;\r\n\t\t\t// }\r\n        }\r\n        // assembly {mstore(rawMaterials, index)}\r\n\t\treturn rawMaterials;\r\n\t}\r\n\r\n    function getRawMaterial(uint256 rawMaterialId) public view returns (SharedStructs.RawMaterial memory){\r\n        // require(RawMaterialStockValidity[rawMaterialId] == true, \"Raw Material does not exist\");\r\n        return RawMaterialStock[rawMaterialId];\r\n    }\r\n\r\n    function getSoldRawMaterial(uint256 soldRawMaterialId) public view returns (SharedStructs.SoldRawMaterial memory){\r\n        return SoldRawMaterialStock[soldRawMaterialId];\r\n    }\r\n\r\n    function decreaseRawMaterial(uint256 rawMaterialId, uint256 quantity) public {\r\n        // require(RawMaterialStockValidity[rawMaterialId] == true, \"Raw Material does not exist\");\r\n        RawMaterialStock[rawMaterialId].quantity -= quantity;\r\n    }\r\n\r\n    function getUserUnsoldRawMaterialIds(address ethAddress) public view returns (uint256[] memory) {\r\n        return userUnsoldRawMaterialIds[ethAddress];\r\n    }\r\n\r\n    function getUserSoldRawMaterialIds(address ethAddress) public view returns (uint256[] memory) {\r\n        return userSoldRawMaterialIds[ethAddress];\r\n    }\r\n\r\n    function removeUnsoldRawMaterial(address ethAddress, uint256 rawMaterialId) public {\r\n        uint256[] storage userRawMaterialIds = userUnsoldRawMaterialIds[ethAddress];\r\n        for (uint256 i = 0; i < userRawMaterialIds.length; i++) {\r\n            if (userRawMaterialIds[i] == rawMaterialId) {\r\n                userRawMaterialIds[i] = userRawMaterialIds[userRawMaterialIds.length - 1];\r\n                userRawMaterialIds.pop();\r\n                break;\r\n            }\r\n\t\t}\r\n    }\r\n\r\n    function addSoldRawMaterial(uint256 rawMaterialId, uint256 quantity,  SharedStructs.User memory manufacturingUser, SharedStructs.Transaction memory newTransaction, bool received) public returns (uint256) {\r\n        soldRawMaterialCtr++;\r\n\t\tSharedStructs.SoldRawMaterial memory newSoldRawMaterial =  SharedStructs.SoldRawMaterial(soldRawMaterialCtr, RawMaterialStock[rawMaterialId], manufacturingUser, newTransaction, 0, received);\r\n\t\tnewSoldRawMaterial.rawMaterial.quantity = quantity;\r\n\t\tSoldRawMaterialStock[soldRawMaterialCtr] = newSoldRawMaterial;\r\n        userSoldRawMaterialIds[RawMaterialStock[rawMaterialId].registeringUser.ethAddress].push(soldRawMaterialCtr);\r\n        return soldRawMaterialCtr;\r\n    }\r\n\r\n    function setRawMaterialProduct(uint256 soldRawMaterialId, uint256 productId) public {\r\n        rawMaterialToProduct[soldRawMaterialId] = productId;\r\n    }\r\n\r\n    function getRawMaterialProduct(uint256 soldRawMaterialId) public view returns (uint256) {\r\n        return rawMaterialToProduct[soldRawMaterialId];\r\n    }\r\n\r\n    function removeRawMaterial(uint256 rawMaterialId) public {\r\n        delete RawMaterialStock[rawMaterialId];\r\n        RawMaterialStockValidity[rawMaterialId] = false;\r\n    }\r\n\r\n    function setRawMaterialReceived(uint256 soldRawMaterialId) public {\r\n        SoldRawMaterialStock[soldRawMaterialId].received = true;\r\n        SoldRawMaterialStock[soldRawMaterialId].receivedTimestamp = block.timestamp;\r\n    }\r\n\r\n    function addSoldRawMaterialComment(uint256 soldRawMaterialId, string memory comment, uint256 rating) public {\r\n        // require(main.getUser(googleIdHash).registered, \"User not registered\");\r\n\t\t// // require(main.getUser(googleIdHash).role == 1, \"User must be manufacturer to add raw material comment.\");\r\n\t\t// require(SoldRawMaterialStock[soldRawMaterialId].received == true, \"Raw Material does not exist\");\r\n        SharedStructs.Comment memory c = main.addComment(SoldRawMaterialStock[soldRawMaterialId].buyingUser, SoldRawMaterialStock[soldRawMaterialId].rawMaterial.registeringUser, comment, rating);\r\n        SoldRawMaterialComments[soldRawMaterialId].push(c);\r\n        RawMaterialComments[SoldRawMaterialStock[soldRawMaterialId].rawMaterial.id].push(c);\r\n        manufacturerToRMSComments[keccak256(abi.encodePacked(SoldRawMaterialStock[soldRawMaterialId].buyingUser.ethAddress, soldRawMaterialId))] = c.id;\r\n    }\r\n\r\n    function getSoldRawMaterialComments(uint256 soldRawMaterialId) public view returns (SharedStructs.Comment[] memory) {\r\n        return SoldRawMaterialComments[soldRawMaterialId];\r\n    }\r\n\r\n\tfunction getRawMaterialComments(uint256 rawMaterialId) public view returns (SharedStructs.Comment[] memory){\r\n        return RawMaterialComments[rawMaterialId];\r\n    }\r\n\r\n\tfunction buyRawMaterial(uint256 rawMaterialId, uint256 quantity) public {\r\n\t\t// require(main.getUser(googleIdHash).registered, \"User not registered\");\r\n\t\t// require(main.getUser(googleIdHash).role == 1, \"User must be manufacturer to buy raw materials.\");\r\n\t\t// require(quantity > 0, \"Quantity must be greater than 0.\");\r\n\t\t// require(RMS.getRawMaterial(rawMaterialId).quantity >= quantity, \"Not enough raw material in stock\");\r\n\t\t// require(main.getUser(googleIdHash).ethAddress != RMS.getRawMaterial(rawMaterialId).registeringUser.ethAddress, \"You cannot buy your own raw material\");\r\n\t\tRawMaterialStock[rawMaterialId].quantity -= quantity;\r\n\t\tif (RawMaterialStock[rawMaterialId].quantity == 0) {\r\n\t\t\tremoveUnsoldRawMaterial(RawMaterialStock[rawMaterialId].registeringUser.ethAddress, rawMaterialId);\r\n    \t}\r\n\t}\r\n\r\n    function addManufacturerComment(SharedStructs.User memory from, SharedStructs.User memory to, string memory comment, uint256 rating, uint256 soldRawMaterialId) public {\r\n        SharedStructs.Comment memory c = main.addComment(from, to, comment, rating);\r\n        rmsToManufacturerComments[keccak256(abi.encodePacked(from.ethAddress, soldRawMaterialId))] = c.id;\r\n    }\r\n\r\n    function getToManufacturerCommentId(address ethAddress, uint256 soldRawMaterialId) public view returns (uint256) {\r\n        return rmsToManufacturerComments[keccak256(abi.encodePacked(ethAddress, soldRawMaterialId))];\r\n    }\r\n\r\n    function getFromManufacturerCommentId(address ethAddress, uint256 soldRawMaterialId) public view returns (uint256){\r\n        return manufacturerToRMSComments[keccak256(abi.encodePacked(ethAddress, soldRawMaterialId))];\r\n    }\r\n}",
  "sourcePath": "C:\\Users\\lavan\\OneDrive\\Desktop\\testgoogleauth\\contracts\\RawMaterialSupplier.sol",
  "compiler": {
    "name": "solc",
    "version": "0.8.21+commit.d9974bed.Emscripten.clang"
  },
  "schemaVersion": "3.4.16",
  "updatedAt": "2025-03-09T12:07:45.956Z",
  "networkType": "ethereum",
  "devdoc": {
    "kind": "dev",
    "methods": {},
    "version": 1
  },
  "userdoc": {
    "kind": "user",
    "methods": {},
    "version": 1
  }
}