{
  "contractName": "RequestManagement",
  "abi": [
    {
      "inputs": [
        {
          "internalType": "address",
          "name": "mainAddress",
          "type": "address"
        },
        {
          "internalType": "address",
          "name": "manufacturerAddress",
          "type": "address"
        }
      ],
      "stateMutability": "nonpayable",
      "type": "constructor"
    },
    {
      "inputs": [],
      "name": "requestCtr",
      "outputs": [
        {
          "internalType": "uint256",
          "name": "",
          "type": "uint256"
        }
      ],
      "stateMutability": "view",
      "type": "function",
      "constant": true
    },
    {
      "inputs": [
        {
          "internalType": "uint256",
          "name": "productId",
          "type": "uint256"
        },
        {
          "internalType": "uint256",
          "name": "quantity",
          "type": "uint256"
        },
        {
          "internalType": "bytes32",
          "name": "googleIdHash",
          "type": "bytes32"
        }
      ],
      "name": "requestProduct",
      "outputs": [],
      "stateMutability": "nonpayable",
      "type": "function"
    },
    {
      "inputs": [
        {
          "internalType": "uint256",
          "name": "requestId",
          "type": "uint256"
        }
      ],
      "name": "rejectRequest",
      "outputs": [],
      "stateMutability": "nonpayable",
      "type": "function"
    },
    {
      "inputs": [
        {
          "internalType": "uint256",
          "name": "requestId",
          "type": "uint256"
        }
      ],
      "name": "acceptRequest",
      "outputs": [],
      "stateMutability": "nonpayable",
      "type": "function"
    },
    {
      "inputs": [
        {
          "internalType": "address",
          "name": "ethAddress",
          "type": "address"
        }
      ],
      "name": "getManufacturerProductRequests",
      "outputs": [
        {
          "components": [
            {
              "internalType": "uint256",
              "name": "id",
              "type": "uint256"
            },
            {
              "components": [
                {
                  "internalType": "uint256",
                  "name": "id",
                  "type": "uint256"
                },
                {
                  "internalType": "uint256",
                  "name": "timestamp",
                  "type": "uint256"
                },
                {
                  "internalType": "string",
                  "name": "name",
                  "type": "string"
                },
                {
                  "internalType": "uint256",
                  "name": "quantity",
                  "type": "uint256"
                },
                {
                  "internalType": "string",
                  "name": "description",
                  "type": "string"
                },
                {
                  "internalType": "uint256",
                  "name": "pricePerUnit",
                  "type": "uint256"
                },
                {
                  "internalType": "uint256",
                  "name": "weightPerUnit",
                  "type": "uint256"
                },
                {
                  "components": [
                    {
                      "internalType": "uint256",
                      "name": "id",
                      "type": "uint256"
                    },
                    {
                      "internalType": "address",
                      "name": "ethAddress",
                      "type": "address"
                    },
                    {
                      "internalType": "string",
                      "name": "email",
                      "type": "string"
                    },
                    {
                      "internalType": "string",
                      "name": "username",
                      "type": "string"
                    },
                    {
                      "internalType": "string",
                      "name": "location",
                      "type": "string"
                    },
                    {
                      "internalType": "uint8",
                      "name": "role",
                      "type": "uint8"
                    },
                    {
                      "internalType": "bool",
                      "name": "registered",
                      "type": "bool"
                    }
                  ],
                  "internalType": "struct SharedStructs.User",
                  "name": "manufacturingUser",
                  "type": "tuple"
                },
                {
                  "internalType": "uint256",
                  "name": "manufacturedTimestamp",
                  "type": "uint256"
                },
                {
                  "internalType": "bool",
                  "name": "manufactured",
                  "type": "bool"
                }
              ],
              "internalType": "struct SharedStructs.Product",
              "name": "product",
              "type": "tuple"
            },
            {
              "components": [
                {
                  "internalType": "uint256",
                  "name": "id",
                  "type": "uint256"
                },
                {
                  "internalType": "address",
                  "name": "ethAddress",
                  "type": "address"
                },
                {
                  "internalType": "string",
                  "name": "email",
                  "type": "string"
                },
                {
                  "internalType": "string",
                  "name": "username",
                  "type": "string"
                },
                {
                  "internalType": "string",
                  "name": "location",
                  "type": "string"
                },
                {
                  "internalType": "uint8",
                  "name": "role",
                  "type": "uint8"
                },
                {
                  "internalType": "bool",
                  "name": "registered",
                  "type": "bool"
                }
              ],
              "internalType": "struct SharedStructs.User",
              "name": "requestingUser",
              "type": "tuple"
            },
            {
              "internalType": "uint256",
              "name": "timestamp",
              "type": "uint256"
            },
            {
              "internalType": "uint256",
              "name": "quantity",
              "type": "uint256"
            },
            {
              "internalType": "uint8",
              "name": "status",
              "type": "uint8"
            }
          ],
          "internalType": "struct SharedStructs.Request[]",
          "name": "",
          "type": "tuple[]"
        }
      ],
      "stateMutability": "view",
      "type": "function",
      "constant": true
    },
    {
      "inputs": [
        {
          "internalType": "address",
          "name": "ethAddress",
          "type": "address"
        }
      ],
      "name": "getConsumerProductRequests",
      "outputs": [
        {
          "components": [
            {
              "internalType": "uint256",
              "name": "id",
              "type": "uint256"
            },
            {
              "components": [
                {
                  "internalType": "uint256",
                  "name": "id",
                  "type": "uint256"
                },
                {
                  "internalType": "uint256",
                  "name": "timestamp",
                  "type": "uint256"
                },
                {
                  "internalType": "string",
                  "name": "name",
                  "type": "string"
                },
                {
                  "internalType": "uint256",
                  "name": "quantity",
                  "type": "uint256"
                },
                {
                  "internalType": "string",
                  "name": "description",
                  "type": "string"
                },
                {
                  "internalType": "uint256",
                  "name": "pricePerUnit",
                  "type": "uint256"
                },
                {
                  "internalType": "uint256",
                  "name": "weightPerUnit",
                  "type": "uint256"
                },
                {
                  "components": [
                    {
                      "internalType": "uint256",
                      "name": "id",
                      "type": "uint256"
                    },
                    {
                      "internalType": "address",
                      "name": "ethAddress",
                      "type": "address"
                    },
                    {
                      "internalType": "string",
                      "name": "email",
                      "type": "string"
                    },
                    {
                      "internalType": "string",
                      "name": "username",
                      "type": "string"
                    },
                    {
                      "internalType": "string",
                      "name": "location",
                      "type": "string"
                    },
                    {
                      "internalType": "uint8",
                      "name": "role",
                      "type": "uint8"
                    },
                    {
                      "internalType": "bool",
                      "name": "registered",
                      "type": "bool"
                    }
                  ],
                  "internalType": "struct SharedStructs.User",
                  "name": "manufacturingUser",
                  "type": "tuple"
                },
                {
                  "internalType": "uint256",
                  "name": "manufacturedTimestamp",
                  "type": "uint256"
                },
                {
                  "internalType": "bool",
                  "name": "manufactured",
                  "type": "bool"
                }
              ],
              "internalType": "struct SharedStructs.Product",
              "name": "product",
              "type": "tuple"
            },
            {
              "components": [
                {
                  "internalType": "uint256",
                  "name": "id",
                  "type": "uint256"
                },
                {
                  "internalType": "address",
                  "name": "ethAddress",
                  "type": "address"
                },
                {
                  "internalType": "string",
                  "name": "email",
                  "type": "string"
                },
                {
                  "internalType": "string",
                  "name": "username",
                  "type": "string"
                },
                {
                  "internalType": "string",
                  "name": "location",
                  "type": "string"
                },
                {
                  "internalType": "uint8",
                  "name": "role",
                  "type": "uint8"
                },
                {
                  "internalType": "bool",
                  "name": "registered",
                  "type": "bool"
                }
              ],
              "internalType": "struct SharedStructs.User",
              "name": "requestingUser",
              "type": "tuple"
            },
            {
              "internalType": "uint256",
              "name": "timestamp",
              "type": "uint256"
            },
            {
              "internalType": "uint256",
              "name": "quantity",
              "type": "uint256"
            },
            {
              "internalType": "uint8",
              "name": "status",
              "type": "uint8"
            }
          ],
          "internalType": "struct SharedStructs.Request[]",
          "name": "",
          "type": "tuple[]"
        }
      ],
      "stateMutability": "view",
      "type": "function",
      "constant": true
    },
    {
      "inputs": [
        {
          "internalType": "uint256",
          "name": "requestId",
          "type": "uint256"
        }
      ],
      "name": "getRequest",
      "outputs": [
        {
          "components": [
            {
              "internalType": "uint256",
              "name": "id",
              "type": "uint256"
            },
            {
              "components": [
                {
                  "internalType": "uint256",
                  "name": "id",
                  "type": "uint256"
                },
                {
                  "internalType": "uint256",
                  "name": "timestamp",
                  "type": "uint256"
                },
                {
                  "internalType": "string",
                  "name": "name",
                  "type": "string"
                },
                {
                  "internalType": "uint256",
                  "name": "quantity",
                  "type": "uint256"
                },
                {
                  "internalType": "string",
                  "name": "description",
                  "type": "string"
                },
                {
                  "internalType": "uint256",
                  "name": "pricePerUnit",
                  "type": "uint256"
                },
                {
                  "internalType": "uint256",
                  "name": "weightPerUnit",
                  "type": "uint256"
                },
                {
                  "components": [
                    {
                      "internalType": "uint256",
                      "name": "id",
                      "type": "uint256"
                    },
                    {
                      "internalType": "address",
                      "name": "ethAddress",
                      "type": "address"
                    },
                    {
                      "internalType": "string",
                      "name": "email",
                      "type": "string"
                    },
                    {
                      "internalType": "string",
                      "name": "username",
                      "type": "string"
                    },
                    {
                      "internalType": "string",
                      "name": "location",
                      "type": "string"
                    },
                    {
                      "internalType": "uint8",
                      "name": "role",
                      "type": "uint8"
                    },
                    {
                      "internalType": "bool",
                      "name": "registered",
                      "type": "bool"
                    }
                  ],
                  "internalType": "struct SharedStructs.User",
                  "name": "manufacturingUser",
                  "type": "tuple"
                },
                {
                  "internalType": "uint256",
                  "name": "manufacturedTimestamp",
                  "type": "uint256"
                },
                {
                  "internalType": "bool",
                  "name": "manufactured",
                  "type": "bool"
                }
              ],
              "internalType": "struct SharedStructs.Product",
              "name": "product",
              "type": "tuple"
            },
            {
              "components": [
                {
                  "internalType": "uint256",
                  "name": "id",
                  "type": "uint256"
                },
                {
                  "internalType": "address",
                  "name": "ethAddress",
                  "type": "address"
                },
                {
                  "internalType": "string",
                  "name": "email",
                  "type": "string"
                },
                {
                  "internalType": "string",
                  "name": "username",
                  "type": "string"
                },
                {
                  "internalType": "string",
                  "name": "location",
                  "type": "string"
                },
                {
                  "internalType": "uint8",
                  "name": "role",
                  "type": "uint8"
                },
                {
                  "internalType": "bool",
                  "name": "registered",
                  "type": "bool"
                }
              ],
              "internalType": "struct SharedStructs.User",
              "name": "requestingUser",
              "type": "tuple"
            },
            {
              "internalType": "uint256",
              "name": "timestamp",
              "type": "uint256"
            },
            {
              "internalType": "uint256",
              "name": "quantity",
              "type": "uint256"
            },
            {
              "internalType": "uint8",
              "name": "status",
              "type": "uint8"
            }
          ],
          "internalType": "struct SharedStructs.Request",
          "name": "",
          "type": "tuple"
        }
      ],
      "stateMutability": "view",
      "type": "function",
      "constant": true
    },
    {
      "inputs": [
        {
          "internalType": "uint256",
          "name": "requestId",
          "type": "uint256"
        },
        {
          "internalType": "uint8",
          "name": "status",
          "type": "uint8"
        }
      ],
      "name": "setRequestStatus",
      "outputs": [],
      "stateMutability": "nonpayable",
      "type": "function"
    }
  ],
  "bytecode": "0x60806040525f60025534801562000014575f80fd5b506040516200237038038062002370833981016040819052620000379162000084565b5f80546001600160a01b039384166001600160a01b03199182161790915560018054929093169116179055620000ba565b80516001600160a01b03811681146200007f575f80fd5b919050565b5f806040838503121562000096575f80fd5b620000a18362000068565b9150620000b16020840162000068565b90509250929050565b6122a880620000c85f395ff3fe608060405234801561000f575f80fd5b5060043610610076575f3560e01c80632d7788db1461007a5780634ba1f098146100a7578063674fc268146100d25780638bcd175c146100fb578063c58343ef1461010e578063ca83a8261461012e578063df9d113314610160578063e75138d814610173575b5f80fd5b6100a5610088366004611ae3565b5f908152600360205260409020601801805460ff19166002179055565b005b6100a56100b5366004611ae3565b5f908152600360205260409020601801805460ff19166001179055565b6100e56100e0366004611b11565b61018a565b6040516100f29190611d10565b60405180910390f35b6100e5610109366004611b11565b61088a565b61012161011c366004611ae3565b610f82565b6040516100f29190611d70565b6100a561013c366004611d90565b5f91825260036020526040909120601801805460ff191660ff909216919091179055565b6100a561016e366004611dbe565b611579565b61017c60025481565b6040519081526020016100f2565b6001600160a01b0381165f9081526004602090815260408083208054825181850281018501909352808352606094938301828280156101e657602002820191905f5260205f20905b8154815260200190600101908083116101d2575b505050505090505f81516001600160401b0381111561020757610207611de7565b60405190808252806020026020018201604052801561024057816020015b61022d611a08565b8152602001906001900390816102255790505b5090505f5b82518110156108825760035f84838151811061026357610263611dfb565b602002602001015181526020019081526020015f206040518060c00160405290815f820154815260200160018201604051806101400160405290815f8201548152602001600182015481526020016002820180546102c090611e0f565b80601f01602080910402602001604051908101604052809291908181526020018280546102ec90611e0f565b80156103375780601f1061030e57610100808354040283529160200191610337565b820191905f5260205f20905b81548152906001019060200180831161031a57829003601f168201915b505050505081526020016003820154815260200160048201805461035a90611e0f565b80601f016020809104026020016040519081016040528092919081815260200182805461038690611e0f565b80156103d15780601f106103a8576101008083540402835291602001916103d1565b820191905f5260205f20905b8154815290600101906020018083116103b457829003601f168201915b505050505081526020016005820154815260200160068201548152602001600782016040518060e00160405290815f8201548152602001600182015f9054906101000a90046001600160a01b03166001600160a01b03166001600160a01b0316815260200160028201805461044590611e0f565b80601f016020809104026020016040519081016040528092919081815260200182805461047190611e0f565b80156104bc5780601f10610493576101008083540402835291602001916104bc565b820191905f5260205f20905b81548152906001019060200180831161049f57829003601f168201915b505050505081526020016003820180546104d590611e0f565b80601f016020809104026020016040519081016040528092919081815260200182805461050190611e0f565b801561054c5780601f106105235761010080835404028352916020019161054c565b820191905f5260205f20905b81548152906001019060200180831161052f57829003601f168201915b5050505050815260200160048201805461056590611e0f565b80601f016020809104026020016040519081016040528092919081815260200182805461059190611e0f565b80156105dc5780601f106105b3576101008083540402835291602001916105dc565b820191905f5260205f20905b8154815290600101906020018083116105bf57829003601f168201915b50505091835250506005919091015460ff80821660208085019190915261010090920481161515604093840152928452600d85015484820152600e90940154909116151591810191909152918352815160e081018352601085018054825260118601546001600160a01b0316828401526012860180549590930194919390929084019161066890611e0f565b80601f016020809104026020016040519081016040528092919081815260200182805461069490611e0f565b80156106df5780601f106106b6576101008083540402835291602001916106df565b820191905f5260205f20905b8154815290600101906020018083116106c257829003601f168201915b505050505081526020016003820180546106f890611e0f565b80601f016020809104026020016040519081016040528092919081815260200182805461072490611e0f565b801561076f5780601f106107465761010080835404028352916020019161076f565b820191905f5260205f20905b81548152906001019060200180831161075257829003601f168201915b5050505050815260200160048201805461078890611e0f565b80601f01602080910402602001604051908101604052809291908181526020018280546107b490611e0f565b80156107ff5780601f106107d6576101008083540402835291602001916107ff565b820191905f5260205f20905b8154815290600101906020018083116107e257829003601f168201915b50505091835250506005919091015460ff80821660208085019190915261010090920481161515604093840152928452601685015490840152601784015490830152601890920154909116606090910152825183908390811061086457610864611dfb565b6020026020010181905250808061087a90611e47565b915050610245565b509392505050565b6001600160a01b0381165f9081526005602090815260408083208054825181850281018501909352808352606094938301828280156108e657602002820191905f5260205f20905b8154815260200190600101908083116108d2575b505050505090505f81516001600160401b0381111561090757610907611de7565b60405190808252806020026020018201604052801561094057816020015b61092d611a08565b8152602001906001900390816109255790505b5090505f5b82518110156108825760035f84838151811061096357610963611dfb565b602002602001015181526020019081526020015f206040518060c00160405290815f820154815260200160018201604051806101400160405290815f8201548152602001600182015481526020016002820180546109c090611e0f565b80601f01602080910402602001604051908101604052809291908181526020018280546109ec90611e0f565b8015610a375780601f10610a0e57610100808354040283529160200191610a37565b820191905f5260205f20905b815481529060010190602001808311610a1a57829003601f168201915b5050505050815260200160038201548152602001600482018054610a5a90611e0f565b80601f0160208091040260200160405190810160405280929190818152602001828054610a8690611e0f565b8015610ad15780601f10610aa857610100808354040283529160200191610ad1565b820191905f5260205f20905b815481529060010190602001808311610ab457829003601f168201915b505050505081526020016005820154815260200160068201548152602001600782016040518060e00160405290815f8201548152602001600182015f9054906101000a90046001600160a01b03166001600160a01b03166001600160a01b03168152602001600282018054610b4590611e0f565b80601f0160208091040260200160405190810160405280929190818152602001828054610b7190611e0f565b8015610bbc5780601f10610b9357610100808354040283529160200191610bbc565b820191905f5260205f20905b815481529060010190602001808311610b9f57829003601f168201915b50505050508152602001600382018054610bd590611e0f565b80601f0160208091040260200160405190810160405280929190818152602001828054610c0190611e0f565b8015610c4c5780601f10610c2357610100808354040283529160200191610c4c565b820191905f5260205f20905b815481529060010190602001808311610c2f57829003601f168201915b50505050508152602001600482018054610c6590611e0f565b80601f0160208091040260200160405190810160405280929190818152602001828054610c9190611e0f565b8015610cdc5780601f10610cb357610100808354040283529160200191610cdc565b820191905f5260205f20905b815481529060010190602001808311610cbf57829003601f168201915b50505091835250506005919091015460ff80821660208085019190915261010090920481161515604093840152928452600d85015484820152600e90940154909116151591810191909152918352815160e081018352601085018054825260118601546001600160a01b03168284015260128601805495909301949193909290840191610d6890611e0f565b80601f0160208091040260200160405190810160405280929190818152602001828054610d9490611e0f565b8015610ddf5780601f10610db657610100808354040283529160200191610ddf565b820191905f5260205f20905b815481529060010190602001808311610dc257829003601f168201915b50505050508152602001600382018054610df890611e0f565b80601f0160208091040260200160405190810160405280929190818152602001828054610e2490611e0f565b8015610e6f5780601f10610e4657610100808354040283529160200191610e6f565b820191905f5260205f20905b815481529060010190602001808311610e5257829003601f168201915b50505050508152602001600482018054610e8890611e0f565b80601f0160208091040260200160405190810160405280929190818152602001828054610eb490611e0f565b8015610eff5780601f10610ed657610100808354040283529160200191610eff565b820191905f5260205f20905b815481529060010190602001808311610ee257829003601f168201915b50505091835250506005919091015460ff808216602080850191909152610100909204811615156040938401529284526016850154908401526017840154908301526018909201549091166060909101528251839083908110610f6457610f64611dfb565b60200260200101819052508080610f7a90611e47565b915050610945565b610f8a611a08565b60035f8381526020019081526020015f206040518060c00160405290815f820154815260200160018201604051806101400160405290815f820154815260200160018201548152602001600282018054610fe390611e0f565b80601f016020809104026020016040519081016040528092919081815260200182805461100f90611e0f565b801561105a5780601f106110315761010080835404028352916020019161105a565b820191905f5260205f20905b81548152906001019060200180831161103d57829003601f168201915b505050505081526020016003820154815260200160048201805461107d90611e0f565b80601f01602080910402602001604051908101604052809291908181526020018280546110a990611e0f565b80156110f45780601f106110cb576101008083540402835291602001916110f4565b820191905f5260205f20905b8154815290600101906020018083116110d757829003601f168201915b505050505081526020016005820154815260200160068201548152602001600782016040518060e00160405290815f8201548152602001600182015f9054906101000a90046001600160a01b03166001600160a01b03166001600160a01b0316815260200160028201805461116890611e0f565b80601f016020809104026020016040519081016040528092919081815260200182805461119490611e0f565b80156111df5780601f106111b6576101008083540402835291602001916111df565b820191905f5260205f20905b8154815290600101906020018083116111c257829003601f168201915b505050505081526020016003820180546111f890611e0f565b80601f016020809104026020016040519081016040528092919081815260200182805461122490611e0f565b801561126f5780601f106112465761010080835404028352916020019161126f565b820191905f5260205f20905b81548152906001019060200180831161125257829003601f168201915b5050505050815260200160048201805461128890611e0f565b80601f01602080910402602001604051908101604052809291908181526020018280546112b490611e0f565b80156112ff5780601f106112d6576101008083540402835291602001916112ff565b820191905f5260205f20905b8154815290600101906020018083116112e257829003601f168201915b50505091835250506005919091015460ff80821660208085019190915261010090920481161515604093840152928452600d85015484820152600e90940154909116151591810191909152918352815160e081018352601085018054825260118601546001600160a01b0316828401526012860180549590930194919390929084019161138b90611e0f565b80601f01602080910402602001604051908101604052809291908181526020018280546113b790611e0f565b80156114025780601f106113d957610100808354040283529160200191611402565b820191905f5260205f20905b8154815290600101906020018083116113e557829003601f168201915b5050505050815260200160038201805461141b90611e0f565b80601f016020809104026020016040519081016040528092919081815260200182805461144790611e0f565b80156114925780601f1061146957610100808354040283529160200191611492565b820191905f5260205f20905b81548152906001019060200180831161147557829003601f168201915b505050505081526020016004820180546114ab90611e0f565b80601f01602080910402602001604051908101604052809291908181526020018280546114d790611e0f565b80156115225780601f106114f957610100808354040283529160200191611522565b820191905f5260205f20905b81548152906001019060200180831161150557829003601f168201915b50505091835250506005919091015460ff8082166020808501919091526101009092048116151560409384015292845260168501549084015260178401549083015260189092015490911660609091015292915050565b60028054905f61158883611e47565b90915550506040805160c08101825260025481526001549151632e76c56d60e21b8152600481018690525f9260208301916001600160a01b039091169063b9db15b4906024015f60405180830381865afa1580156115e8573d5f803e3d5ffd5b505050506040513d5f823e601f3d908101601f1916820160405261160f919081019061202f565b81525f54604051631945d5e760e21b8152600481018690526020909201916001600160a01b0390911690636517579c906024015f60405180830381865afa15801561165c573d5f803e3d5ffd5b505050506040513d5f823e601f3d908101601f191682016040526116839190810190612130565b81526020014281526020018481526020015f60ff1681525090508060035f60025481526020019081526020015f205f820151815f01556020820151816001015f820151815f01556020820151816001015560408201518160020190816116e991906121b7565b50606082015160038201556080820151600482019061170890826121b7565b5060a0820151600582015560c0820151600682015560e082015180516007830190815560208201516008840180546001600160a01b0319166001600160a01b039092169190911790556040820151600984019061176590826121b7565b506060820151600382019061177a90826121b7565b506080820151600482019061178f90826121b7565b5060a0820151600591909101805460c09093015160ff90921661ffff1990931692909217610100911515820217909155820151600d82015561012090910151600e909101805460ff191691151591909117905560408281015180516010840190815560208201516011850180546001600160a01b0319166001600160a01b0390921691909117905591810151909190601284019061182d90826121b7565b506060820151600382019061184290826121b7565b506080820151600482019061185790826121b7565b5060a0828101516005909201805460c09094015115156101000261ffff1990941660ff93841617939093179092556060840151601684015560808401516017840155920151601890910180549190921660ff1991909116179055600154604051632e76c56d60e21b81526004915f916001600160a01b039091169063b9db15b4906118e9908990860190815260200190565b5f60405180830381865afa158015611903573d5f803e3d5ffd5b505050506040513d5f823e601f3d908101601f1916820160405261192a919081019061202f565b60e001516020908101516001600160a01b0390811683528282019390935260409182015f9081206002548154600181018355918352928220019190915580549151631945d5e760e21b815260048101869052600593919290911690636517579c906024015f60405180830381865afa1580156119a8573d5f803e3d5ffd5b505050506040513d5f823e601f3d908101601f191682016040526119cf9190810190612130565b6020908101516001600160a01b03168252818101929092526040015f908120600254815460018101835591835292909120015550505050565b6040518060c001604052805f8152602001611a21611a49565b8152602001611a2e611a9c565b81526020015f81526020015f81526020015f60ff1681525090565b6040518061014001604052805f81526020015f8152602001606081526020015f8152602001606081526020015f81526020015f8152602001611a89611a9c565b81525f6020820181905260409091015290565b6040518060e001604052805f81526020015f6001600160a01b031681526020016060815260200160608152602001606081526020015f60ff1681526020015f151581525090565b5f60208284031215611af3575f80fd5b5035919050565b6001600160a01b0381168114611b0e575f80fd5b50565b5f60208284031215611b21575f80fd5b8135611b2c81611afa565b9392505050565b5f5b83811015611b4d578181015183820152602001611b35565b50505f910152565b5f8151808452611b6c816020860160208601611b33565b601f01601f19169290920160200192915050565b8051825260018060a01b0360208201511660208301525f604082015160e06040850152611bb060e0850182611b55565b905060608301518482036060860152611bc98282611b55565b91505060808301518482036080860152611be38282611b55565b91505060ff60a08401511660a085015260c0830151151560c08501528091505092915050565b805182525f602082015160c06020850152805160c0850152602081015160e085015260408101516101406101008181880152611c49610200880184611b55565b9250606084015161012081818a01526080860151915060bf19808a870301858b0152611c758684611b55565b955060a08701516101608b015260c08701516101808b015260e08701519450808a8703016101a08b015250611caa8585611b80565b928601516101c08a0152909401518015156101e089015293509150611ccc9050565b604084015191508481036040860152611ce58183611b80565b915050606083015160608501526080830151608085015260a083015161088260a086018260ff169052565b5f602080830181845280855180835260408601915060408160051b87010192508387015f5b82811015611d6357603f19888603018452611d51858351611c09565b94509285019290850190600101611d35565b5092979650505050505050565b602081525f611b2c6020830184611c09565b60ff81168114611b0e575f80fd5b5f8060408385031215611da1575f80fd5b823591506020830135611db381611d82565b809150509250929050565b5f805f60608486031215611dd0575f80fd5b505081359360208301359350604090920135919050565b634e487b7160e01b5f52604160045260245ffd5b634e487b7160e01b5f52603260045260245ffd5b600181811c90821680611e2357607f821691505b602082108103611e4157634e487b7160e01b5f52602260045260245ffd5b50919050565b5f60018201611e6457634e487b7160e01b5f52601160045260245ffd5b5060010190565b60405160e081016001600160401b0381118282101715611e8d57611e8d611de7565b60405290565b60405161014081016001600160401b0381118282101715611e8d57611e8d611de7565b5f82601f830112611ec5575f80fd5b81516001600160401b0380821115611edf57611edf611de7565b604051601f8301601f19908116603f01168101908282118183101715611f0757611f07611de7565b81604052838152866020858801011115611f1f575f80fd5b611f30846020830160208901611b33565b9695505050505050565b8051611f4581611afa565b919050565b8051611f4581611d82565b80518015158114611f45575f80fd5b5f60e08284031215611f74575f80fd5b611f7c611e6b565b905081518152611f8e60208301611f3a565b602082015260408201516001600160401b0380821115611fac575f80fd5b611fb885838601611eb6565b60408401526060840151915080821115611fd0575f80fd5b611fdc85838601611eb6565b60608401526080840151915080821115611ff4575f80fd5b5061200184828501611eb6565b60808301525061201360a08301611f4a565b60a082015261202460c08301611f55565b60c082015292915050565b5f6020828403121561203f575f80fd5b81516001600160401b0380821115612055575f80fd5b908301906101408286031215612069575f80fd5b612071611e93565b8251815260208301516020820152604083015182811115612090575f80fd5b61209c87828601611eb6565b604083015250606083015160608201526080830151828111156120bd575f80fd5b6120c987828601611eb6565b60808301525060a083015160a082015260c083015160c082015260e0830151828111156120f4575f80fd5b61210087828601611f64565b60e08301525061010083810151908201526101209150612121828401611f55565b91810191909152949350505050565b5f60208284031215612140575f80fd5b81516001600160401b03811115612155575f80fd5b61216184828501611f64565b949350505050565b601f8211156121b2575f81815260208120601f850160051c8101602086101561218f5750805b601f850160051c820191505b818110156121ae5782815560010161219b565b5050505b505050565b81516001600160401b038111156121d0576121d0611de7565b6121e4816121de8454611e0f565b84612169565b602080601f831160018114612217575f84156122005750858301515b5f19600386901b1c1916600185901b1785556121ae565b5f85815260208120601f198616915b8281101561224557888601518255948401946001909101908401612226565b508582101561226257878501515f19600388901b60f8161c191681555b5050505050600190811b0190555056fea26469706673582212209cd90a145bc61e3a992f6147571e2fb74e3bc2e1790d9ee5fe7fbb02cdbdb66264736f6c63430008150033",
  "immutableReferences": {},
  "source": "// SPDX-License-Identifier: MIT\r\npragma solidity >=0.4.22 <0.9.0;\r\npragma experimental ABIEncoderV2;\r\nimport \"./SharedStructs.sol\";\r\nimport \"./Main.sol\";\r\nimport \"./Manufacturer.sol\";\r\n\r\ncontract RequestManagement {\r\n    Main main;\r\n    Manufacturer manufacturer;\r\n    constructor(address mainAddress, address manufacturerAddress) {\r\n        main = Main(mainAddress);\r\n        manufacturer = Manufacturer(manufacturerAddress);\r\n    }\r\n\r\n    uint256 public requestCtr = 0;\r\n\tmapping(uint256 => SharedStructs.Request) private ProductRequests;\r\n\tmapping(address => uint256[]) private manufacturerProductRequestIds;\r\n\tmapping(address => uint256[]) private consumerProductRequestIds;\r\n\r\n\tfunction requestProduct(uint256 productId, uint256 quantity, bytes32 googleIdHash) public {\r\n\t\t// require( main.getUser(googleIdHash).registered, \"User not registered\");\r\n\t\t// require( main.getUser(googleIdHash).role == 2, \"User must be consumer to request products.\");\r\n\t\t// // require(manufacturer.getProductValidity(productId), \"Product does not exist\");\r\n\t\t// require(manufacturer.getProduct(productId).manufactured == true, \"Product has not been manufactured\");\r\n\t\t// require(quantity > 0, \"Quantity must be greater than 0\");\r\n\t\t// require(quantity <= manufacturer.getProduct(productId).quantity, \"Insufficient quantity in stock\");\r\n\t\trequestCtr++;\r\n\t\tSharedStructs.Request memory newRequest = SharedStructs.Request(requestCtr, manufacturer.getProduct(productId),  main.getUser(googleIdHash), block.timestamp, quantity, 0);\r\n\t\tProductRequests[requestCtr] = newRequest;\r\n\t\tmanufacturerProductRequestIds[manufacturer.getProduct(productId).manufacturingUser.ethAddress].push(requestCtr);\r\n\t\tconsumerProductRequestIds[ main.getUser(googleIdHash).ethAddress].push(requestCtr);\r\n\t}\r\n\r\n\tfunction rejectRequest(uint256 requestId) public {\r\n\t\t// require( main.getUser(googleIdHash).registered, \"User not registered\");\r\n\t\t// require( main.getUser(googleIdHash).role == 1, \"User must be manufacturer to reject requests.\");\r\n\t\t// // require(bytes(ProductRequests[requestId].name).length > 0, \"Request does not exist\");\r\n\t\t// require(ProductRequests[requestId].status == 0, \"Request has already been addressed.\");\r\n\t\t// require( main.getUser(googleIdHash).ethAddress == ProductRequests[requestId].product.manufacturingUser.ethAddress, \"A different manufacturer made the product\");\r\n\t\tProductRequests[requestId].status = 2;\r\n\t}\r\n\r\n\tfunction acceptRequest(uint256 requestId) public {\r\n\t\t// require( main.getUser(googleIdHash).registered, \"User not registered\");\r\n\t\t// require( main.getUser(googleIdHash).role == 1, \"User must be manufacturer to reject requests.\");\r\n\t\t//require(bytes(ProductRequests[requestId].name).length > 0, \"Request does not exist\");\r\n\t\t// require(ProductRequests[requestId].status == 0, \"Request has already been addressed.\");\r\n\t\t// require( main.getUser(googleIdHash).ethAddress == ProductRequests[requestId].product.manufacturingUser.ethAddress, \"A different manufacturer made the product\");\r\n\t\tProductRequests[requestId].status = 1;\r\n\t}\r\n\r\n\tfunction getManufacturerProductRequests(address ethAddress) public view returns (SharedStructs.Request[] memory) {\r\n\t\t// require( main.getUser(googleIdHash).registered, \"User not registered\");\r\n\t\t// require( main.getUser(googleIdHash).role == 1, \"User must be manufacturer to access manufacturer product requests.\");\r\n\t\t// SharedStructs.User memory user =  main.getUser(googleIdHash);\r\n        uint256[] memory requestIds = manufacturerProductRequestIds[ethAddress];\r\n        SharedStructs.Request[] memory requests = new SharedStructs.Request[](requestIds.length);\r\n        for (uint256 i = 0; i < requestIds.length; i++) {\r\n\t\t\trequests[i] = ProductRequests[requestIds[i]];\r\n        }\r\n\t\treturn requests;\r\n\t}\r\n\r\n\tfunction getConsumerProductRequests(address ethAddress) public view returns (SharedStructs.Request[] memory) {\r\n\t\t// require( main.getUser(googleIdHash).registered, \"User not registered\");\r\n\t\t// require( main.getUser(googleIdHash).role == 2, \"User must be consumer to access consumer product requests.\");\r\n\t\t// SharedStructs.User memory user =  main.getUser(googleIdHash);\r\n        uint256[] memory requestIds = consumerProductRequestIds[ethAddress];\r\n        SharedStructs.Request[] memory requests = new SharedStructs.Request[](requestIds.length);\r\n        for (uint256 i = 0; i < requestIds.length; i++) {\r\n\t\t\trequests[i] = ProductRequests[requestIds[i]];\r\n        }\r\n\t\treturn requests;\r\n\t}\r\n\r\n    function getRequest(uint256 requestId) public view returns (SharedStructs.Request memory){\r\n        return ProductRequests[requestId];\r\n    }\r\n\r\n\tfunction setRequestStatus(uint256 requestId, uint8 status) public {\r\n\t\tProductRequests[requestId].status = status;\r\n\t}\r\n}",
  "sourcePath": "C:\\Users\\lavan\\OneDrive\\Desktop\\testgoogleauth\\contracts\\RequestManagement.sol",
  "compiler": {
    "name": "solc",
    "version": "0.8.21+commit.d9974bed.Emscripten.clang"
  },
  "schemaVersion": "3.4.16",
  "updatedAt": "2025-03-04T18:19:30.934Z",
  "networkType": "ethereum",
  "devdoc": {
    "kind": "dev",
    "methods": {},
    "version": 1
  },
  "userdoc": {
    "kind": "user",
    "methods": {},
    "version": 1
  }
}