{
  "contractName": "UserManagement",
  "abi": [
    {
      "inputs": [
        {
          "internalType": "address",
          "name": "mainAddress",
          "type": "address"
        }
      ],
      "stateMutability": "nonpayable",
      "type": "constructor"
    },
    {
      "inputs": [
        {
          "internalType": "bytes32",
          "name": "googleIdHash",
          "type": "bytes32"
        },
        {
          "internalType": "string",
          "name": "email",
          "type": "string"
        },
        {
          "internalType": "address",
          "name": "ethAddress",
          "type": "address"
        },
        {
          "internalType": "string",
          "name": "password",
          "type": "string"
        },
        {
          "internalType": "string",
          "name": "username",
          "type": "string"
        },
        {
          "internalType": "string",
          "name": "location",
          "type": "string"
        },
        {
          "internalType": "uint8",
          "name": "role",
          "type": "uint8"
        }
      ],
      "name": "registerUser",
      "outputs": [],
      "stateMutability": "nonpayable",
      "type": "function"
    },
    {
      "inputs": [
        {
          "internalType": "bytes32",
          "name": "googleIdHash",
          "type": "bytes32"
        }
      ],
      "name": "validateUser",
      "outputs": [
        {
          "internalType": "bool",
          "name": "",
          "type": "bool"
        }
      ],
      "stateMutability": "view",
      "type": "function",
      "constant": true
    },
    {
      "inputs": [
        {
          "internalType": "bytes32",
          "name": "googleIdHash",
          "type": "bytes32"
        }
      ],
      "name": "getUserAddress",
      "outputs": [
        {
          "internalType": "address",
          "name": "",
          "type": "address"
        }
      ],
      "stateMutability": "view",
      "type": "function",
      "constant": true
    },
    {
      "inputs": [
        {
          "internalType": "bytes32",
          "name": "googleIdHash",
          "type": "bytes32"
        }
      ],
      "name": "getUsername",
      "outputs": [
        {
          "internalType": "string",
          "name": "",
          "type": "string"
        }
      ],
      "stateMutability": "view",
      "type": "function",
      "constant": true
    },
    {
      "inputs": [
        {
          "internalType": "bytes32",
          "name": "googleIdHash",
          "type": "bytes32"
        }
      ],
      "name": "getUserRole",
      "outputs": [
        {
          "internalType": "uint8",
          "name": "",
          "type": "uint8"
        }
      ],
      "stateMutability": "view",
      "type": "function",
      "constant": true
    },
    {
      "inputs": [
        {
          "internalType": "address",
          "name": "ethAddress",
          "type": "address"
        }
      ],
      "name": "getUserPassword",
      "outputs": [
        {
          "internalType": "string",
          "name": "",
          "type": "string"
        }
      ],
      "stateMutability": "view",
      "type": "function",
      "constant": true
    }
  ],
  "bytecode": "0x608060405234801561000f575f80fd5b50604051610a91380380610a9183398101604081905261002e91610052565b5f80546001600160a01b0319166001600160a01b039290921691909117905561007f565b5f60208284031215610062575f80fd5b81516001600160a01b0381168114610078575f80fd5b9392505050565b610a058061008c5f395ff3fe608060405234801561000f575f80fd5b5060043610610060575f3560e01c806308f5dc17146100645780634a4e8884146100795780636d5b6462146100a9578063a95ceb64146100c9578063b8153a3f146100ee578063c3849e1414610101575b5f80fd5b610077610072366004610561565b610124565b005b61008c61008736600461062f565b6101b8565b6040516001600160a01b0390911681526020015b60405180910390f35b6100bc6100b736600461062f565b61022f565b6040516100a09190610693565b6100dc6100d736600461062f565b6102a6565b60405160ff90911681526020016100a0565b6100bc6100fc3660046106ac565b61031d565b61011461010f36600461062f565b6103c6565b60405190151581526020016100a0565b5f54604051630ffa441760e31b81526001600160a01b0390911690637fd220b890610160908a9089908b908990899089906001906004016106c7565b5f604051808303815f87803b158015610177575f80fd5b505af1158015610189573d5f803e3d5ffd5b505050506001600160a01b0385165f9081526001602052604090206101ae85826107bb565b5050505050505050565b5f8054604051631945d5e760e21b8152600481018490526001600160a01b0390911690636517579c906024015f60405180830381865afa1580156101fe573d5f803e3d5ffd5b505050506040513d5f823e601f3d908101601f1916820160405261022591908101906108e5565b6020015192915050565b5f54604051631945d5e760e21b8152600481018390526060916001600160a01b031690636517579c906024015f60405180830381865afa158015610275573d5f803e3d5ffd5b505050506040513d5f823e601f3d908101601f1916820160405261029c91908101906108e5565b6060015192915050565b5f8054604051631945d5e760e21b8152600481018490526001600160a01b0390911690636517579c906024015f60405180830381865afa1580156102ec573d5f803e3d5ffd5b505050506040513d5f823e601f3d908101601f1916820160405261031391908101906108e5565b60a0015192915050565b6001600160a01b0381165f90815260016020526040902080546060919061034390610735565b80601f016020809104026020016040519081016040528092919081815260200182805461036f90610735565b80156103ba5780601f10610391576101008083540402835291602001916103ba565b820191905f5260205f20905b81548152906001019060200180831161039d57829003601f168201915b50505050509050919050565b5f8054604051631945d5e760e21b8152600481018490526001600160a01b0390911690636517579c906024015f60405180830381865afa15801561040c573d5f803e3d5ffd5b505050506040513d5f823e601f3d908101601f1916820160405261043391908101906108e5565b60c0015192915050565b634e487b7160e01b5f52604160045260245ffd5b60405160e081016001600160401b03811182821017156104735761047361043d565b60405290565b604051601f8201601f191681016001600160401b03811182821017156104a1576104a161043d565b604052919050565b5f6001600160401b038211156104c1576104c161043d565b50601f01601f191660200190565b5f82601f8301126104de575f80fd5b81356104f16104ec826104a9565b610479565b818152846020838601011115610505575f80fd5b816020850160208301375f918101602001919091529392505050565b6001600160a01b0381168114610535575f80fd5b50565b803561054381610521565b919050565b60ff81168114610535575f80fd5b803561054381610548565b5f805f805f805f60e0888a031215610577575f80fd5b8735965060208801356001600160401b0380821115610594575f80fd5b6105a08b838c016104cf565b97506105ae60408b01610538565b965060608a01359150808211156105c3575f80fd5b6105cf8b838c016104cf565b955060808a01359150808211156105e4575f80fd5b6105f08b838c016104cf565b945060a08a0135915080821115610605575f80fd5b506106128a828b016104cf565b92505061062160c08901610556565b905092959891949750929550565b5f6020828403121561063f575f80fd5b5035919050565b5f5b83811015610660578181015183820152602001610648565b50505f910152565b5f815180845261067f816020860160208601610646565b601f01601f19169290920160200192915050565b602081525f6106a56020830184610668565b9392505050565b5f602082840312156106bc575f80fd5b81356106a581610521565b8781526001600160a01b038716602082015260e0604082018190525f906106f090830188610668565b82810360608401526107028188610668565b905082810360808401526107168187610668565b60ff9590951660a0840152505090151560c09091015295945050505050565b600181811c9082168061074957607f821691505b60208210810361076757634e487b7160e01b5f52602260045260245ffd5b50919050565b601f8211156107b6575f81815260208120601f850160051c810160208610156107935750805b601f850160051c820191505b818110156107b25782815560010161079f565b5050505b505050565b81516001600160401b038111156107d4576107d461043d565b6107e8816107e28454610735565b8461076d565b602080601f83116001811461081b575f84156108045750858301515b5f19600386901b1c1916600185901b1785556107b2565b5f85815260208120601f198616915b828110156108495788860151825594840194600190910190840161082a565b508582101561086657878501515f19600388901b60f8161c191681555b5050505050600190811b01905550565b805161054381610521565b5f82601f830112610890575f80fd5b815161089e6104ec826104a9565b8181528460208386010111156108b2575f80fd5b6108c3826020830160208701610646565b949350505050565b805161054381610548565b80518015158114610543575f80fd5b5f602082840312156108f5575f80fd5b81516001600160401b038082111561090b575f80fd5b9083019060e0828603121561091e575f80fd5b610926610451565b8251815261093660208401610876565b602082015260408301518281111561094c575f80fd5b61095887828601610881565b60408301525060608301518281111561096f575f80fd5b61097b87828601610881565b606083015250608083015182811115610992575f80fd5b61099e87828601610881565b6080830152506109b060a084016108cb565b60a08201526109c160c084016108d6565b60c08201529594505050505056fea2646970667358221220fa8a2d50de9cf5d130eefa03ccbf6da4199337d9a3efb15a4be87fdb1c4e1b9a64736f6c63430008150033",
  "immutableReferences": {},
  "source": "// SPDX-License-Identifier: MIT\r\npragma solidity >=0.4.22 <0.9.0;\r\npragma experimental ABIEncoderV2;\r\nimport \"./SharedStructs.sol\";\r\nimport \"./Main.sol\";\r\n\r\ncontract UserManagement {\r\n    Main main;\r\n    constructor(address mainAddress) {\r\n        main = Main(mainAddress);\r\n    }\r\n    mapping(address => string) private userToPassword;\r\n\r\n\tfunction registerUser(bytes32 googleIdHash, string memory email, address ethAddress, string memory password, string memory username, string memory location,uint8 role) public {\r\n        // require(!main.getUser(googleIdHash).registered, \"User already registered\");\r\n        main.setUser(googleIdHash, ethAddress, email, username, location, role, true);\r\n\t\tuserToPassword[ethAddress] = password;\r\n    }\r\n\r\n    function validateUser(bytes32 googleIdHash) public view returns (bool) {\r\n        return main.getUser(googleIdHash).registered;\r\n    }\r\n\r\n\tfunction getUserAddress(bytes32 googleIdHash) public view returns (address) {\r\n        // require(main.getUser(googleIdHash).registered, \"User not registered\");\r\n        return main.getUser(googleIdHash).ethAddress;\r\n    }\r\n\r\n    function getUsername(bytes32 googleIdHash) public view returns (string memory) {\r\n        // require(main.getUser(googleIdHash).registered, \"User not registered\");\r\n        return main.getUser(googleIdHash).username;\r\n    }\r\n\r\n\tfunction getUserRole(bytes32 googleIdHash) public view returns (uint8) {\r\n\t\t// require(main.getUser(googleIdHash).registered, \"User not registered\"); \r\n\t\treturn main.getUser(googleIdHash).role;\r\n\t}\r\n\r\n\tfunction getUserPassword(address ethAddress) public view returns (string memory) {\r\n\t\treturn userToPassword[ethAddress];\r\n\t}\r\n}",
  "sourcePath": "C:\\Users\\lavan\\OneDrive\\Desktop\\testgoogleauth\\contracts\\UserManagement.sol",
  "compiler": {
    "name": "solc",
    "version": "0.8.21+commit.d9974bed.Emscripten.clang"
  },
  "schemaVersion": "3.4.16",
  "updatedAt": "2025-03-05T17:40:00.147Z",
  "networkType": "ethereum",
  "devdoc": {
    "kind": "dev",
    "methods": {},
    "version": 1
  },
  "userdoc": {
    "kind": "user",
    "methods": {},
    "version": 1
  }
}