{
  "contractName": "GoogleAuthMapping",
  "abi": [
    {
      "anonymous": false,
      "inputs": [
        {
          "indexed": true,
          "name": "googleIdHash",
          "type": "bytes32"
        },
        {
          "indexed": false,
          "name": "ethAddress",
          "type": "address"
        }
      ],
      "name": "UserRegistered",
      "type": "event"
    },
    {
      "anonymous": false,
      "inputs": [
        {
          "indexed": true,
          "name": "googleIdHash",
          "type": "bytes32"
        }
      ],
      "name": "UserValidated",
      "type": "event"
    },
    {
      "anonymous": false,
      "inputs": [
        {
          "indexed": true,
          "name": "user",
          "type": "address"
        },
        {
          "indexed": false,
          "name": "productId",
          "type": "uint256"
        },
        {
          "indexed": false,
          "name": "name",
          "type": "string"
        },
        {
          "indexed": false,
          "name": "quantity",
          "type": "uint256"
        }
      ],
      "name": "ProductAdded",
      "type": "event"
    },
    {
      "constant": false,
      "inputs": [
        {
          "name": "googleIdHash",
          "type": "bytes32"
        },
        {
          "name": "ethAddress",
          "type": "address"
        }
      ],
      "name": "registerUser",
      "outputs": [],
      "payable": false,
      "stateMutability": "nonpayable",
      "type": "function"
    },
    {
      "constant": true,
      "inputs": [
        {
          "name": "googleIdHash",
          "type": "bytes32"
        }
      ],
      "name": "validateUser",
      "outputs": [
        {
          "name": "",
          "type": "bool"
        }
      ],
      "payable": false,
      "stateMutability": "view",
      "type": "function"
    },
    {
      "constant": true,
      "inputs": [
        {
          "name": "googleIdHash",
          "type": "bytes32"
        }
      ],
      "name": "getUserAddress",
      "outputs": [
        {
          "name": "",
          "type": "address"
        }
      ],
      "payable": false,
      "stateMutability": "view",
      "type": "function"
    },
    {
      "constant": false,
      "inputs": [
        {
          "name": "name",
          "type": "string"
        },
        {
          "name": "quantity",
          "type": "uint256"
        }
      ],
      "name": "addProduct",
      "outputs": [],
      "payable": false,
      "stateMutability": "nonpayable",
      "type": "function"
    },
    {
      "constant": true,
      "inputs": [],
      "name": "getProducts",
      "outputs": [
        {
          "components": [
            {
              "name": "id",
              "type": "uint256"
            },
            {
              "name": "name",
              "type": "string"
            },
            {
              "name": "quantity",
              "type": "uint256"
            }
          ],
          "name": "",
          "type": "tuple[]"
        }
      ],
      "payable": false,
      "stateMutability": "view",
      "type": "function"
    }
  ],
  "bytecode": "0x6080604052600060025534801561001557600080fd5b50610cac806100256000396000f3fe608060405260043610610067576000357c010000000000000000000000000000000000000000000000000000000090048063392674791461006c5780634a4e888414610095578063b15247d9146100d2578063c29b2f20146100fb578063c3849e1414610126575b600080fd5b34801561007857600080fd5b50610093600480360361008e919081019061079b565b610163565b005b3480156100a157600080fd5b506100bc60048036036100b79190810190610772565b6102ae565b6040516100c99190610a27565b60405180910390f35b3480156100de57600080fd5b506100f960048036036100f491908101906107d7565b610351565b005b34801561010757600080fd5b506101106104bc565b60405161011d9190610a42565b60405180910390f35b34801561013257600080fd5b5061014d60048036036101489190810190610772565b61060f565b60405161015a9190610a64565b60405180910390f35b60008083815260200190815260200160002060000160149054906101000a900460ff161515156101c8576040517f08c379a00000000000000000000000000000000000000000000000000000000081526004016101bf90610abf565b60405180910390fd5b60408051908101604052808273ffffffffffffffffffffffffffffffffffffffff1681526020016001151581525060008084815260200190815260200160002060008201518160000160006101000a81548173ffffffffffffffffffffffffffffffffffffffff021916908373ffffffffffffffffffffffffffffffffffffffff16021790555060208201518160000160146101000a81548160ff021916908315150217905550905050817ff62ba47fe3ff610889160f02571396e86e21b7aadcbde2719192e206853b331f826040516102a29190610a27565b60405180910390a25050565b600080600083815260200190815260200160002060000160149054906101000a900460ff161515610314576040517f08c379a000000000000000000000000000000000000000000000000000000000815260040161030b90610a9f565b60405180910390fd5b60008083815260200190815260200160002060000160009054906101000a900473ffffffffffffffffffffffffffffffffffffffff169050919050565b600081111515610396576040517f08c379a000000000000000000000000000000000000000000000000000000000815260040161038d90610a7f565b60405180910390fd5b600260008154809291906001019190505550600160003373ffffffffffffffffffffffffffffffffffffffff1673ffffffffffffffffffffffffffffffffffffffff1681526020019081526020016000206060604051908101604052806002548152602001848152602001838152509080600181540180825580915050906001820390600052602060002090600302016000909192909190915060008201518160000155602082015181600101908051906020019061045692919061063b565b50604082015181600201555050503373ffffffffffffffffffffffffffffffffffffffff167ffa4d3c01c5b1ab5fe660551dcb575df272ecea999864534a2c06b12a485f2ff260025484846040516104b093929190610adf565b60405180910390a25050565b6060600160003373ffffffffffffffffffffffffffffffffffffffff1673ffffffffffffffffffffffffffffffffffffffff168152602001908152602001600020805480602002602001604051908101604052809291908181526020016000905b8282101561060657838290600052602060002090600302016060604051908101604052908160008201548152602001600182018054600181600116156101000203166002900480601f0160208091040260200160405190810160405280929190818152602001828054600181600116156101000203166002900480156105e45780601f106105b9576101008083540402835291602001916105e4565b820191906000526020600020905b8154815290600101906020018083116105c757829003601f168201915b505050505081526020016002820154815250508152602001906001019061051d565b50505050905090565b600080600083815260200190815260200160002060000160149054906101000a900460ff169050919050565b828054600181600116156101000203166002900490600052602060002090601f016020900481019282601f1061067c57805160ff19168380011785556106aa565b828001600101855582156106aa579182015b828111156106a957825182559160200191906001019061068e565b5b5090506106b791906106bb565b5090565b6106dd91905b808211156106d95760008160009055506001016106c1565b5090565b90565b60006106ec8235610bf9565b905092915050565b60006107008235610c0b565b905092915050565b600082601f830112151561071b57600080fd5b813561072e61072982610b4a565b610b1d565b9150808252602083016020830185838301111561074a57600080fd5b610755838284610c1f565b50505092915050565b600061076a8235610c15565b905092915050565b60006020828403121561078457600080fd5b6000610792848285016106f4565b91505092915050565b600080604083850312156107ae57600080fd5b60006107bc858286016106f4565b92505060206107cd858286016106e0565b9150509250929050565b600080604083850312156107ea57600080fd5b600083013567ffffffffffffffff81111561080457600080fd5b61081085828601610708565b92505060206108218582860161075e565b9150509250929050565b61083481610bb1565b82525050565b600061084582610b83565b8084526020840193508360208202850161085e85610b76565b60005b848110156108975783830388526108798383516109c8565b925061088482610ba4565b9150602088019750600181019050610861565b508196508694505050505092915050565b6108b181610bc3565b82525050565b60006108c282610b99565b8084526108d6816020860160208601610c2e565b6108df81610c61565b602085010191505092915050565b60006108f882610b8e565b80845261090c816020860160208601610c2e565b61091581610c61565b602085010191505092915050565b6000601f82527f5175616e74697479206d7573742062652067726561746572207468616e2030006020830152604082019050919050565b6000601382527f55736572206e6f742072656769737465726564000000000000000000000000006020830152604082019050919050565b6000601782527f5573657220616c726561647920726567697374657265640000000000000000006020830152604082019050919050565b60006060830160008301516109e06000860182610a18565b50602083015184820360208601526109f882826108ed565b9150506040830151610a0d6040860182610a18565b508091505092915050565b610a2181610bef565b82525050565b6000602082019050610a3c600083018461082b565b92915050565b60006020820190508181036000830152610a5c818461083a565b905092915050565b6000602082019050610a7960008301846108a8565b92915050565b60006020820190508181036000830152610a9881610923565b9050919050565b60006020820190508181036000830152610ab88161095a565b9050919050565b60006020820190508181036000830152610ad881610991565b9050919050565b6000606082019050610af46000830186610a18565b8181036020830152610b0681856108b7565b9050610b156040830184610a18565b949350505050565b6000604051905081810181811067ffffffffffffffff82111715610b4057600080fd5b8060405250919050565b600067ffffffffffffffff821115610b6157600080fd5b601f19601f8301169050602081019050919050565b6000602082019050919050565b600081519050919050565b600081519050919050565b600081519050919050565b6000602082019050919050565b6000610bbc82610bcf565b9050919050565b60008115159050919050565b600073ffffffffffffffffffffffffffffffffffffffff82169050919050565b6000819050919050565b6000610c0482610bcf565b9050919050565b6000819050919050565b6000819050919050565b82818337600083830152505050565b60005b83811015610c4c578082015181840152602081019050610c31565b83811115610c5b576000848401525b50505050565b6000601f19601f830116905091905056fea265627a7a723058202183ba2ab639f9433dbb02eb91f6125b27dd7db1bdf8bde55d7836a381c030326c6578706572696d656e74616cf50037",
  "source": "// SPDX-License-Identifier: MIT\r\npragma solidity >=0.4.22 <0.9.0;\r\npragma experimental ABIEncoderV2;\r\n\r\ncontract GoogleAuthMapping {\r\n    struct User {\r\n        address ethAddress;\r\n        bool registered;\r\n    }\r\n\r\n    struct Product {\r\n        uint256 id;\r\n        string name;\r\n        uint256 quantity;\r\n    }\r\n\r\n    mapping(bytes32 => User) private googleIdToUser;\r\n    mapping(address => Product[]) private userProducts;\r\n    uint256 private productCounter = 0;\r\n\r\n    event UserRegistered(bytes32 indexed googleIdHash, address ethAddress);\r\n    event UserValidated(bytes32 indexed googleIdHash);\r\n    event ProductAdded(address indexed user, uint256 productId, string name, uint256 quantity);\r\n\r\n    function registerUser(bytes32 googleIdHash, address ethAddress) public {\r\n        require(!googleIdToUser[googleIdHash].registered, \"User already registered\");\r\n        googleIdToUser[googleIdHash] = User(ethAddress, true);\r\n        emit UserRegistered(googleIdHash, ethAddress);\r\n    }\r\n\r\n    function validateUser(bytes32 googleIdHash) public view returns (bool) {\r\n        return googleIdToUser[googleIdHash].registered;\r\n    }\r\n\r\n    function getUserAddress(bytes32 googleIdHash) public view returns (address) {\r\n        require(googleIdToUser[googleIdHash].registered, \"User not registered\");\r\n        return googleIdToUser[googleIdHash].ethAddress;\r\n    }\r\n\r\n    function addProduct(string memory name, uint256 quantity) public {\r\n        require(quantity > 0, \"Quantity must be greater than 0\");\r\n        productCounter++;\r\n        userProducts[msg.sender].push(Product(productCounter, name, quantity));\r\n        emit ProductAdded(msg.sender, productCounter, name, quantity);\r\n    }\r\n\r\n    function getProducts() public view returns (Product[] memory) {\r\n        return userProducts[msg.sender];\r\n    }\r\n}\r\n",
  "sourcePath": "C:\\Users\\lavan\\OneDrive\\Desktop\\testgoogleauth\\contracts\\GoogleAuthMapping.sol",
  "compiler": {
    "name": "solc",
    "version": "0.5.1+commit.c8a2cb62.Emscripten.clang"
  },
  "schemaVersion": "3.4.16",
  "updatedAt": "2024-11-30T07:10:02.447Z",
  "networkType": "ethereum",
  "devdoc": {
    "methods": {}
  },
  "userdoc": {
    "methods": {}
  }
}